{"contracts/nil/Nil.sol":{"__Precompile__":{"abi":[{"inputs":[{"internalType":"bool","name":"","type":"bool"},{"internalType":"uint8","name":"","type":"uint8"},{"internalType":"address","name":"","type":"address"},{"internalType":"address","name":"","type":"address"},{"internalType":"address","name":"","type":"address"},{"internalType":"uint256","name":"","type":"uint256"},{"components":[{"internalType":"uint256","name":"id","type":"uint256"},{"internalType":"uint256","name":"amount","type":"uint256"}],"internalType":"struct Nil.Token[]","name":"","type":"tuple[]"},{"internalType":"bytes","name":"","type":"bytes"}],"name":"precompileAsyncCall","outputs":[{"internalType":"bool","name":"","type":"bool"}],"stateMutability":"payable","type":"function"},{"inputs":[{"internalType":"address","name":"","type":"address"},{"internalType":"bytes","name":"","type":"bytes"}],"name":"precompileAwaitCall","outputs":[{"internalType":"bytes","name":"","type":"bytes"},{"internalType":"bool","name":"","type":"bool"}],"stateMutability":"payable","type":"function"},{"inputs":[{"internalType":"bool","name":"isSet","type":"bool"},{"internalType":"string","name":"name","type":"string"},{"internalType":"bytes","name":"data","type":"bytes"}],"name":"precompileConfigParam","outputs":[{"internalType":"bytes","name":"","type":"bytes"}],"stateMutability":"nonpayable","type":"function"},{"inputs":[{"internalType":"uint256","name":"id","type":"uint256"},{"internalType":"address","name":"addr","type":"address"}],"name":"precompileGetCurrencyBalance","outputs":[{"internalType":"uint256","name":"","type":"uint256"}],"stateMutability":"view","type":"function"},{"inputs":[{"internalType":"uint256","name":"id","type":"uint256"}],"name":"precompileGetGasPrice","outputs":[{"internalType":"uint256","name":"","type":"uint256"}],"stateMutability":"nonpayable","type":"function"},{"inputs":[],"name":"precompileGetMessageTokens","outputs":[{"components":[{"internalType":"uint256","name":"id","type":"uint256"},{"internalType":"uint256","name":"amount","type":"uint256"}],"internalType":"struct Nil.Token[]","name":"","type":"tuple[]"}],"stateMutability":"nonpayable","type":"function"},{"inputs":[{"internalType":"bytes","name":"data","type":"bytes"}],"name":"precompileGetPoseidonHash","outputs":[{"internalType":"uint256","name":"","type":"uint256"}],"stateMutability":"nonpayable","type":"function"},{"inputs":[{"internalType":"uint256","name":"amount","type":"uint256"}],"name":"precompileMintCurrency","outputs":[{"internalType":"bool","name":"","type":"bool"}],"stateMutability":"nonpayable","type":"function"},{"inputs":[{"internalType":"address","name":"","type":"address"},{"components":[{"internalType":"uint256","name":"id","type":"uint256"},{"internalType":"uint256","name":"amount","type":"uint256"}],"internalType":"struct Nil.Token[]","name":"","type":"tuple[]"}],"name":"precompileSendTokens","outputs":[{"internalType":"bool","name":"","type":"bool"}],"stateMutability":"nonpayable","type":"function"}],"evm":{"bytecode":{"linkReferences":{},"object":"608060405234801561001057600080fd5b50610c5b806100206000396000f3fe6080604052600436106100865760003560e01c80639ef8d0fa116100595780639ef8d0fa14610161578063a6c085bf1461019e578063bceebfe2146101db578063f1d1cf1c14610218578063f4c261b51461024857610086565b80633a1735fc1461008b57806378312c6b146100c85780638ee83f191461010557806395729ade14610130575b600080fd5b34801561009757600080fd5b506100b260048036038101906100ad919061037b565b610285565b6040516100bf91906103ca565b60405180910390f35b3480156100d457600080fd5b506100ef60048036038101906100ea919061052b565b61028d565b6040516100fc91906103ca565b60405180910390f35b34801561011157600080fd5b5061011a610294565b6040516101279190610661565b60405180910390f35b61014a60048036038101906101459190610683565b610299565b604051610158929190610779565b60405180910390f35b34801561016d57600080fd5b506101886004803603810190610183919061088b565b6102a4565b6040516101959190610920565b60405180910390f35b3480156101aa57600080fd5b506101c560048036038101906101c09190610942565b6102af565b6040516101d291906103ca565b60405180910390f35b3480156101e757600080fd5b5061020260048036038101906101fd9190610a87565b6102b6565b60405161020f9190610ae3565b60405180910390f35b610232600480360381019061022d9190610b37565b6102be565b60405161023f9190610ae3565b60405180910390f35b34801561025457600080fd5b5061026f600480360381019061026a9190610942565b6102cc565b60405161027c9190610ae3565b60405180910390f35b600092915050565b6000919050565b606090565b606060009250929050565b606095945050505050565b6000919050565b600092915050565b600098975050505050505050565b6000919050565b6000604051905090565b600080fd5b600080fd5b6000819050919050565b6102fa816102e7565b811461030557600080fd5b50565b600081359050610317816102f1565b92915050565b600073ffffffffffffffffffffffffffffffffffffffff82169050919050565b60006103488261031d565b9050919050565b6103588161033d565b811461036357600080fd5b50565b6000813590506103758161034f565b92915050565b60008060408385031215610392576103916102dd565b5b60006103a085828601610308565b92505060206103b185828601610366565b9150509250929050565b6103c4816102e7565b82525050565b60006020820190506103df60008301846103bb565b92915050565b600080fd5b600080fd5b6000601f19601f8301169050919050565b7f4e487b7100000000000000000000000000000000000000000000000000000000600052604160045260246000fd5b610438826103ef565b810181811067ffffffffffffffff8211171561045757610456610400565b5b80604052505050565b600061046a6102d3565b9050610476828261042f565b919050565b600067ffffffffffffffff82111561049657610495610400565b5b61049f826103ef565b9050602081019050919050565b82818337600083830152505050565b60006104ce6104c98461047b565b610460565b9050828152602081018484840111156104ea576104e96103ea565b5b6104f58482856104ac565b509392505050565b600082601f830112610512576105116103e5565b5b81356105228482602086016104bb565b91505092915050565b600060208284031215610541576105406102dd565b5b600082013567ffffffffffffffff81111561055f5761055e6102e2565b5b61056b848285016104fd565b91505092915050565b600081519050919050565b600082825260208201905092915050565b6000819050602082019050919050565b6105a9816102e7565b82525050565b6040820160008201516105c560008501826105a0565b5060208201516105d860208501826105a0565b50505050565b60006105ea83836105af565b60408301905092915050565b6000602082019050919050565b600061060e82610574565b610618818561057f565b935061062383610590565b8060005b8381101561065457815161063b88826105de565b9750610646836105f6565b925050600181019050610627565b5085935050505092915050565b6000602082019050818103600083015261067b8184610603565b905092915050565b6000806040838503121561069a576106996102dd565b5b60006106a885828601610366565b925050602083013567ffffffffffffffff8111156106c9576106c86102e2565b5b6106d5858286016104fd565b9150509250929050565b600081519050919050565b600082825260208201905092915050565b60005b838110156107195780820151818401526020810190506106fe565b60008484015250505050565b6000610730826106df565b61073a81856106ea565b935061074a8185602086016106fb565b610753816103ef565b840191505092915050565b60008115159050919050565b6107738161075e565b82525050565b600060408201905081810360008301526107938185610725565b90506107a2602083018461076a565b9392505050565b6107b28161075e565b81146107bd57600080fd5b50565b6000813590506107cf816107a9565b92915050565b600080fd5b600080fd5b60008083601f8401126107f5576107f46103e5565b5b8235905067ffffffffffffffff811115610812576108116107d5565b5b60208301915083600182028301111561082e5761082d6107da565b5b9250929050565b60008083601f84011261084b5761084a6103e5565b5b8235905067ffffffffffffffff811115610868576108676107d5565b5b602083019150836001820283011115610884576108836107da565b5b9250929050565b6000806000806000606086880312156108a7576108a66102dd565b5b60006108b5888289016107c0565b955050602086013567ffffffffffffffff8111156108d6576108d56102e2565b5b6108e2888289016107df565b9450945050604086013567ffffffffffffffff811115610905576109046102e2565b5b61091188828901610835565b92509250509295509295909350565b6000602082019050818103600083015261093a8184610725565b905092915050565b600060208284031215610958576109576102dd565b5b600061096684828501610308565b91505092915050565b600067ffffffffffffffff82111561098a57610989610400565b5b602082029050602081019050919050565b600080fd5b6000604082840312156109b6576109b561099b565b5b6109c06040610460565b905060006109d084828501610308565b60008301525060206109e484828501610308565b60208301525092915050565b6000610a036109fe8461096f565b610460565b90508083825260208201905060408402830185811115610a2657610a256107da565b5b835b81811015610a4f5780610a3b88826109a0565b845260208401935050604081019050610a28565b5050509392505050565b600082601f830112610a6e57610a6d6103e5565b5b8135610a7e8482602086016109f0565b91505092915050565b60008060408385031215610a9e57610a9d6102dd565b5b6000610aac85828601610366565b925050602083013567ffffffffffffffff811115610acd57610acc6102e2565b5b610ad985828601610a59565b9150509250929050565b6000602082019050610af8600083018461076a565b92915050565b600060ff82169050919050565b610b1481610afe565b8114610b1f57600080fd5b50565b600081359050610b3181610b0b565b92915050565b600080600080600080600080610100898b031215610b5857610b576102dd565b5b6000610b668b828c016107c0565b9850506020610b778b828c01610b22565b9750506040610b888b828c01610366565b9650506060610b998b828c01610366565b9550506080610baa8b828c01610366565b94505060a0610bbb8b828c01610308565b93505060c089013567ffffffffffffffff811115610bdc57610bdb6102e2565b5b610be88b828c01610a59565b92505060e089013567ffffffffffffffff811115610c0957610c086102e2565b5b610c158b828c016104fd565b915050929598509295989093965056fea264697066735822122078efa218ec61e94f0acc80cfda1450722a3ee318944aeaf988f791e12e4c5e2d64736f6c63430008180033","opcodes":"PUSH1 0x80 PUSH1 0x40 MSTORE CALLVALUE DUP1 ISZERO PUSH2 0x10 JUMPI PUSH1 0x0 DUP1 REVERT JUMPDEST POP PUSH2 0xC5B DUP1 PUSH2 0x20 PUSH1 0x0 CODECOPY PUSH1 0x0 RETURN INVALID PUSH1 0x80 PUSH1 0x40 MSTORE PUSH1 0x4 CALLDATASIZE LT PUSH2 0x86 JUMPI PUSH1 0x0 CALLDATALOAD PUSH1 0xE0 SHR DUP1 PUSH4 0x9EF8D0FA GT PUSH2 0x59 JUMPI DUP1 PUSH4 0x9EF8D0FA EQ PUSH2 0x161 JUMPI DUP1 PUSH4 0xA6C085BF EQ PUSH2 0x19E JUMPI DUP1 PUSH4 0xBCEEBFE2 EQ PUSH2 0x1DB JUMPI DUP1 PUSH4 0xF1D1CF1C EQ PUSH2 0x218 JUMPI DUP1 PUSH4 0xF4C261B5 EQ PUSH2 0x248 JUMPI PUSH2 0x86 JUMP JUMPDEST DUP1 PUSH4 0x3A1735FC EQ PUSH2 0x8B JUMPI DUP1 PUSH4 0x78312C6B EQ PUSH2 0xC8 JUMPI DUP1 PUSH4 0x8EE83F19 EQ PUSH2 0x105 JUMPI DUP1 PUSH4 0x95729ADE EQ PUSH2 0x130 JUMPI JUMPDEST PUSH1 0x0 DUP1 REVERT JUMPDEST CALLVALUE DUP1 ISZERO PUSH2 0x97 JUMPI PUSH1 0x0 DUP1 REVERT JUMPDEST POP PUSH2 0xB2 PUSH1 0x4 DUP1 CALLDATASIZE SUB DUP2 ADD SWAP1 PUSH2 0xAD SWAP2 SWAP1 PUSH2 0x37B JUMP JUMPDEST PUSH2 0x285 JUMP JUMPDEST PUSH1 0x40 MLOAD PUSH2 0xBF SWAP2 SWAP1 PUSH2 0x3CA JUMP JUMPDEST PUSH1 0x40 MLOAD DUP1 SWAP2 SUB SWAP1 RETURN JUMPDEST CALLVALUE DUP1 ISZERO PUSH2 0xD4 JUMPI PUSH1 0x0 DUP1 REVERT JUMPDEST POP PUSH2 0xEF PUSH1 0x4 DUP1 CALLDATASIZE SUB DUP2 ADD SWAP1 PUSH2 0xEA SWAP2 SWAP1 PUSH2 0x52B JUMP JUMPDEST PUSH2 0x28D JUMP JUMPDEST PUSH1 0x40 MLOAD PUSH2 0xFC SWAP2 SWAP1 PUSH2 0x3CA JUMP JUMPDEST PUSH1 0x40 MLOAD DUP1 SWAP2 SUB SWAP1 RETURN JUMPDEST CALLVALUE DUP1 ISZERO PUSH2 0x111 JUMPI PUSH1 0x0 DUP1 REVERT JUMPDEST POP PUSH2 0x11A PUSH2 0x294 JUMP JUMPDEST PUSH1 0x40 MLOAD PUSH2 0x127 SWAP2 SWAP1 PUSH2 0x661 JUMP JUMPDEST PUSH1 0x40 MLOAD DUP1 SWAP2 SUB SWAP1 RETURN JUMPDEST PUSH2 0x14A PUSH1 0x4 DUP1 CALLDATASIZE SUB DUP2 ADD SWAP1 PUSH2 0x145 SWAP2 SWAP1 PUSH2 0x683 JUMP JUMPDEST PUSH2 0x299 JUMP JUMPDEST PUSH1 0x40 MLOAD PUSH2 0x158 SWAP3 SWAP2 SWAP1 PUSH2 0x779 JUMP JUMPDEST PUSH1 0x40 MLOAD DUP1 SWAP2 SUB SWAP1 RETURN JUMPDEST CALLVALUE DUP1 ISZERO PUSH2 0x16D JUMPI PUSH1 0x0 DUP1 REVERT JUMPDEST POP PUSH2 0x188 PUSH1 0x4 DUP1 CALLDATASIZE SUB DUP2 ADD SWAP1 PUSH2 0x183 SWAP2 SWAP1 PUSH2 0x88B JUMP JUMPDEST PUSH2 0x2A4 JUMP JUMPDEST PUSH1 0x40 MLOAD PUSH2 0x195 SWAP2 SWAP1 PUSH2 0x920 JUMP JUMPDEST PUSH1 0x40 MLOAD DUP1 SWAP2 SUB SWAP1 RETURN JUMPDEST CALLVALUE DUP1 ISZERO PUSH2 0x1AA JUMPI PUSH1 0x0 DUP1 REVERT JUMPDEST POP PUSH2 0x1C5 PUSH1 0x4 DUP1 CALLDATASIZE SUB DUP2 ADD SWAP1 PUSH2 0x1C0 SWAP2 SWAP1 PUSH2 0x942 JUMP JUMPDEST PUSH2 0x2AF JUMP JUMPDEST PUSH1 0x40 MLOAD PUSH2 0x1D2 SWAP2 SWAP1 PUSH2 0x3CA JUMP JUMPDEST PUSH1 0x40 MLOAD DUP1 SWAP2 SUB SWAP1 RETURN JUMPDEST CALLVALUE DUP1 ISZERO PUSH2 0x1E7 JUMPI PUSH1 0x0 DUP1 REVERT JUMPDEST POP PUSH2 0x202 PUSH1 0x4 DUP1 CALLDATASIZE SUB DUP2 ADD SWAP1 PUSH2 0x1FD SWAP2 SWAP1 PUSH2 0xA87 JUMP JUMPDEST PUSH2 0x2B6 JUMP JUMPDEST PUSH1 0x40 MLOAD PUSH2 0x20F SWAP2 SWAP1 PUSH2 0xAE3 JUMP JUMPDEST PUSH1 0x40 MLOAD DUP1 SWAP2 SUB SWAP1 RETURN JUMPDEST PUSH2 0x232 PUSH1 0x4 DUP1 CALLDATASIZE SUB DUP2 ADD SWAP1 PUSH2 0x22D SWAP2 SWAP1 PUSH2 0xB37 JUMP JUMPDEST PUSH2 0x2BE JUMP JUMPDEST PUSH1 0x40 MLOAD PUSH2 0x23F SWAP2 SWAP1 PUSH2 0xAE3 JUMP JUMPDEST PUSH1 0x40 MLOAD DUP1 SWAP2 SUB SWAP1 RETURN JUMPDEST CALLVALUE DUP1 ISZERO PUSH2 0x254 JUMPI PUSH1 0x0 DUP1 REVERT JUMPDEST POP PUSH2 0x26F PUSH1 0x4 DUP1 CALLDATASIZE SUB DUP2 ADD SWAP1 PUSH2 0x26A SWAP2 SWAP1 PUSH2 0x942 JUMP JUMPDEST PUSH2 0x2CC JUMP JUMPDEST PUSH1 0x40 MLOAD PUSH2 0x27C SWAP2 SWAP1 PUSH2 0xAE3 JUMP JUMPDEST PUSH1 0x40 MLOAD DUP1 SWAP2 SUB SWAP1 RETURN JUMPDEST PUSH1 0x0 SWAP3 SWAP2 POP POP JUMP JUMPDEST PUSH1 0x0 SWAP2 SWAP1 POP JUMP JUMPDEST PUSH1 0x60 SWAP1 JUMP JUMPDEST PUSH1 0x60 PUSH1 0x0 SWAP3 POP SWAP3 SWAP1 POP JUMP JUMPDEST PUSH1 0x60 SWAP6 SWAP5 POP POP POP POP POP JUMP JUMPDEST PUSH1 0x0 SWAP2 SWAP1 POP JUMP JUMPDEST PUSH1 0x0 SWAP3 SWAP2 POP POP JUMP JUMPDEST PUSH1 0x0 SWAP9 SWAP8 POP POP POP POP POP POP POP POP JUMP JUMPDEST PUSH1 0x0 SWAP2 SWAP1 POP JUMP JUMPDEST PUSH1 0x0 PUSH1 0x40 MLOAD SWAP1 POP SWAP1 JUMP JUMPDEST PUSH1 0x0 DUP1 REVERT JUMPDEST PUSH1 0x0 DUP1 REVERT JUMPDEST PUSH1 0x0 DUP2 SWAP1 POP SWAP2 SWAP1 POP JUMP JUMPDEST PUSH2 0x2FA DUP2 PUSH2 0x2E7 JUMP JUMPDEST DUP2 EQ PUSH2 0x305 JUMPI PUSH1 0x0 DUP1 REVERT JUMPDEST POP JUMP JUMPDEST PUSH1 0x0 DUP2 CALLDATALOAD SWAP1 POP PUSH2 0x317 DUP2 PUSH2 0x2F1 JUMP JUMPDEST SWAP3 SWAP2 POP POP JUMP JUMPDEST PUSH1 0x0 PUSH20 0xFFFFFFFFFFFFFFFFFFFFFFFFFFFFFFFFFFFFFFFF DUP3 AND SWAP1 POP SWAP2 SWAP1 POP JUMP JUMPDEST PUSH1 0x0 PUSH2 0x348 DUP3 PUSH2 0x31D JUMP JUMPDEST SWAP1 POP SWAP2 SWAP1 POP JUMP JUMPDEST PUSH2 0x358 DUP2 PUSH2 0x33D JUMP JUMPDEST DUP2 EQ PUSH2 0x363 JUMPI PUSH1 0x0 DUP1 REVERT JUMPDEST POP JUMP JUMPDEST PUSH1 0x0 DUP2 CALLDATALOAD SWAP1 POP PUSH2 0x375 DUP2 PUSH2 0x34F JUMP JUMPDEST SWAP3 SWAP2 POP POP JUMP JUMPDEST PUSH1 0x0 DUP1 PUSH1 0x40 DUP4 DUP6 SUB SLT ISZERO PUSH2 0x392 JUMPI PUSH2 0x391 PUSH2 0x2DD JUMP JUMPDEST JUMPDEST PUSH1 0x0 PUSH2 0x3A0 DUP6 DUP3 DUP7 ADD PUSH2 0x308 JUMP JUMPDEST SWAP3 POP POP PUSH1 0x20 PUSH2 0x3B1 DUP6 DUP3 DUP7 ADD PUSH2 0x366 JUMP JUMPDEST SWAP2 POP POP SWAP3 POP SWAP3 SWAP1 POP JUMP JUMPDEST PUSH2 0x3C4 DUP2 PUSH2 0x2E7 JUMP JUMPDEST DUP3 MSTORE POP POP JUMP JUMPDEST PUSH1 0x0 PUSH1 0x20 DUP3 ADD SWAP1 POP PUSH2 0x3DF PUSH1 0x0 DUP4 ADD DUP5 PUSH2 0x3BB JUMP JUMPDEST SWAP3 SWAP2 POP POP JUMP JUMPDEST PUSH1 0x0 DUP1 REVERT JUMPDEST PUSH1 0x0 DUP1 REVERT JUMPDEST PUSH1 0x0 PUSH1 0x1F NOT PUSH1 0x1F DUP4 ADD AND SWAP1 POP SWAP2 SWAP1 POP JUMP JUMPDEST PUSH32 0x4E487B7100000000000000000000000000000000000000000000000000000000 PUSH1 0x0 MSTORE PUSH1 0x41 PUSH1 0x4 MSTORE PUSH1 0x24 PUSH1 0x0 REVERT JUMPDEST PUSH2 0x438 DUP3 PUSH2 0x3EF JUMP JUMPDEST DUP2 ADD DUP2 DUP2 LT PUSH8 0xFFFFFFFFFFFFFFFF DUP3 GT OR ISZERO PUSH2 0x457 JUMPI PUSH2 0x456 PUSH2 0x400 JUMP JUMPDEST JUMPDEST DUP1 PUSH1 0x40 MSTORE POP POP POP JUMP JUMPDEST PUSH1 0x0 PUSH2 0x46A PUSH2 0x2D3 JUMP JUMPDEST SWAP1 POP PUSH2 0x476 DUP3 DUP3 PUSH2 0x42F JUMP JUMPDEST SWAP2 SWAP1 POP JUMP JUMPDEST PUSH1 0x0 PUSH8 0xFFFFFFFFFFFFFFFF DUP3 GT ISZERO PUSH2 0x496 JUMPI PUSH2 0x495 PUSH2 0x400 JUMP JUMPDEST JUMPDEST PUSH2 0x49F DUP3 PUSH2 0x3EF JUMP JUMPDEST SWAP1 POP PUSH1 0x20 DUP2 ADD SWAP1 POP SWAP2 SWAP1 POP JUMP JUMPDEST DUP3 DUP2 DUP4 CALLDATACOPY PUSH1 0x0 DUP4 DUP4 ADD MSTORE POP POP POP JUMP JUMPDEST PUSH1 0x0 PUSH2 0x4CE PUSH2 0x4C9 DUP5 PUSH2 0x47B JUMP JUMPDEST PUSH2 0x460 JUMP JUMPDEST SWAP1 POP DUP3 DUP2 MSTORE PUSH1 0x20 DUP2 ADD DUP5 DUP5 DUP5 ADD GT ISZERO PUSH2 0x4EA JUMPI PUSH2 0x4E9 PUSH2 0x3EA JUMP JUMPDEST JUMPDEST PUSH2 0x4F5 DUP5 DUP3 DUP6 PUSH2 0x4AC JUMP JUMPDEST POP SWAP4 SWAP3 POP POP POP JUMP JUMPDEST PUSH1 0x0 DUP3 PUSH1 0x1F DUP4 ADD SLT PUSH2 0x512 JUMPI PUSH2 0x511 PUSH2 0x3E5 JUMP JUMPDEST JUMPDEST DUP2 CALLDATALOAD PUSH2 0x522 DUP5 DUP3 PUSH1 0x20 DUP7 ADD PUSH2 0x4BB JUMP JUMPDEST SWAP2 POP POP SWAP3 SWAP2 POP POP JUMP JUMPDEST PUSH1 0x0 PUSH1 0x20 DUP3 DUP5 SUB SLT ISZERO PUSH2 0x541 JUMPI PUSH2 0x540 PUSH2 0x2DD JUMP JUMPDEST JUMPDEST PUSH1 0x0 DUP3 ADD CALLDATALOAD PUSH8 0xFFFFFFFFFFFFFFFF DUP2 GT ISZERO PUSH2 0x55F JUMPI PUSH2 0x55E PUSH2 0x2E2 JUMP JUMPDEST JUMPDEST PUSH2 0x56B DUP5 DUP3 DUP6 ADD PUSH2 0x4FD JUMP JUMPDEST SWAP2 POP POP SWAP3 SWAP2 POP POP JUMP JUMPDEST PUSH1 0x0 DUP2 MLOAD SWAP1 POP SWAP2 SWAP1 POP JUMP JUMPDEST PUSH1 0x0 DUP3 DUP3 MSTORE PUSH1 0x20 DUP3 ADD SWAP1 POP SWAP3 SWAP2 POP POP JUMP JUMPDEST PUSH1 0x0 DUP2 SWAP1 POP PUSH1 0x20 DUP3 ADD SWAP1 POP SWAP2 SWAP1 POP JUMP JUMPDEST PUSH2 0x5A9 DUP2 PUSH2 0x2E7 JUMP JUMPDEST DUP3 MSTORE POP POP JUMP JUMPDEST PUSH1 0x40 DUP3 ADD PUSH1 0x0 DUP3 ADD MLOAD PUSH2 0x5C5 PUSH1 0x0 DUP6 ADD DUP3 PUSH2 0x5A0 JUMP JUMPDEST POP PUSH1 0x20 DUP3 ADD MLOAD PUSH2 0x5D8 PUSH1 0x20 DUP6 ADD DUP3 PUSH2 0x5A0 JUMP JUMPDEST POP POP POP POP JUMP JUMPDEST PUSH1 0x0 PUSH2 0x5EA DUP4 DUP4 PUSH2 0x5AF JUMP JUMPDEST PUSH1 0x40 DUP4 ADD SWAP1 POP SWAP3 SWAP2 POP POP JUMP JUMPDEST PUSH1 0x0 PUSH1 0x20 DUP3 ADD SWAP1 POP SWAP2 SWAP1 POP JUMP JUMPDEST PUSH1 0x0 PUSH2 0x60E DUP3 PUSH2 0x574 JUMP JUMPDEST PUSH2 0x618 DUP2 DUP6 PUSH2 0x57F JUMP JUMPDEST SWAP4 POP PUSH2 0x623 DUP4 PUSH2 0x590 JUMP JUMPDEST DUP1 PUSH1 0x0 JUMPDEST DUP4 DUP2 LT ISZERO PUSH2 0x654 JUMPI DUP2 MLOAD PUSH2 0x63B DUP9 DUP3 PUSH2 0x5DE JUMP JUMPDEST SWAP8 POP PUSH2 0x646 DUP4 PUSH2 0x5F6 JUMP JUMPDEST SWAP3 POP POP PUSH1 0x1 DUP2 ADD SWAP1 POP PUSH2 0x627 JUMP JUMPDEST POP DUP6 SWAP4 POP POP POP POP SWAP3 SWAP2 POP POP JUMP JUMPDEST PUSH1 0x0 PUSH1 0x20 DUP3 ADD SWAP1 POP DUP2 DUP2 SUB PUSH1 0x0 DUP4 ADD MSTORE PUSH2 0x67B DUP2 DUP5 PUSH2 0x603 JUMP JUMPDEST SWAP1 POP SWAP3 SWAP2 POP POP JUMP JUMPDEST PUSH1 0x0 DUP1 PUSH1 0x40 DUP4 DUP6 SUB SLT ISZERO PUSH2 0x69A JUMPI PUSH2 0x699 PUSH2 0x2DD JUMP JUMPDEST JUMPDEST PUSH1 0x0 PUSH2 0x6A8 DUP6 DUP3 DUP7 ADD PUSH2 0x366 JUMP JUMPDEST SWAP3 POP POP PUSH1 0x20 DUP4 ADD CALLDATALOAD PUSH8 0xFFFFFFFFFFFFFFFF DUP2 GT ISZERO PUSH2 0x6C9 JUMPI PUSH2 0x6C8 PUSH2 0x2E2 JUMP JUMPDEST JUMPDEST PUSH2 0x6D5 DUP6 DUP3 DUP7 ADD PUSH2 0x4FD JUMP JUMPDEST SWAP2 POP POP SWAP3 POP SWAP3 SWAP1 POP JUMP JUMPDEST PUSH1 0x0 DUP2 MLOAD SWAP1 POP SWAP2 SWAP1 POP JUMP JUMPDEST PUSH1 0x0 DUP3 DUP3 MSTORE PUSH1 0x20 DUP3 ADD SWAP1 POP SWAP3 SWAP2 POP POP JUMP JUMPDEST PUSH1 0x0 JUMPDEST DUP4 DUP2 LT ISZERO PUSH2 0x719 JUMPI DUP1 DUP3 ADD MLOAD DUP2 DUP5 ADD MSTORE PUSH1 0x20 DUP2 ADD SWAP1 POP PUSH2 0x6FE JUMP JUMPDEST PUSH1 0x0 DUP5 DUP5 ADD MSTORE POP POP POP POP JUMP JUMPDEST PUSH1 0x0 PUSH2 0x730 DUP3 PUSH2 0x6DF JUMP JUMPDEST PUSH2 0x73A DUP2 DUP6 PUSH2 0x6EA JUMP JUMPDEST SWAP4 POP PUSH2 0x74A DUP2 DUP6 PUSH1 0x20 DUP7 ADD PUSH2 0x6FB JUMP JUMPDEST PUSH2 0x753 DUP2 PUSH2 0x3EF JUMP JUMPDEST DUP5 ADD SWAP2 POP POP SWAP3 SWAP2 POP POP JUMP JUMPDEST PUSH1 0x0 DUP2 ISZERO ISZERO SWAP1 POP SWAP2 SWAP1 POP JUMP JUMPDEST PUSH2 0x773 DUP2 PUSH2 0x75E JUMP JUMPDEST DUP3 MSTORE POP POP JUMP JUMPDEST PUSH1 0x0 PUSH1 0x40 DUP3 ADD SWAP1 POP DUP2 DUP2 SUB PUSH1 0x0 DUP4 ADD MSTORE PUSH2 0x793 DUP2 DUP6 PUSH2 0x725 JUMP JUMPDEST SWAP1 POP PUSH2 0x7A2 PUSH1 0x20 DUP4 ADD DUP5 PUSH2 0x76A JUMP JUMPDEST SWAP4 SWAP3 POP POP POP JUMP JUMPDEST PUSH2 0x7B2 DUP2 PUSH2 0x75E JUMP JUMPDEST DUP2 EQ PUSH2 0x7BD JUMPI PUSH1 0x0 DUP1 REVERT JUMPDEST POP JUMP JUMPDEST PUSH1 0x0 DUP2 CALLDATALOAD SWAP1 POP PUSH2 0x7CF DUP2 PUSH2 0x7A9 JUMP JUMPDEST SWAP3 SWAP2 POP POP JUMP JUMPDEST PUSH1 0x0 DUP1 REVERT JUMPDEST PUSH1 0x0 DUP1 REVERT JUMPDEST PUSH1 0x0 DUP1 DUP4 PUSH1 0x1F DUP5 ADD SLT PUSH2 0x7F5 JUMPI PUSH2 0x7F4 PUSH2 0x3E5 JUMP JUMPDEST JUMPDEST DUP3 CALLDATALOAD SWAP1 POP PUSH8 0xFFFFFFFFFFFFFFFF DUP2 GT ISZERO PUSH2 0x812 JUMPI PUSH2 0x811 PUSH2 0x7D5 JUMP JUMPDEST JUMPDEST PUSH1 0x20 DUP4 ADD SWAP2 POP DUP4 PUSH1 0x1 DUP3 MUL DUP4 ADD GT ISZERO PUSH2 0x82E JUMPI PUSH2 0x82D PUSH2 0x7DA JUMP JUMPDEST JUMPDEST SWAP3 POP SWAP3 SWAP1 POP JUMP JUMPDEST PUSH1 0x0 DUP1 DUP4 PUSH1 0x1F DUP5 ADD SLT PUSH2 0x84B JUMPI PUSH2 0x84A PUSH2 0x3E5 JUMP JUMPDEST JUMPDEST DUP3 CALLDATALOAD SWAP1 POP PUSH8 0xFFFFFFFFFFFFFFFF DUP2 GT ISZERO PUSH2 0x868 JUMPI PUSH2 0x867 PUSH2 0x7D5 JUMP JUMPDEST JUMPDEST PUSH1 0x20 DUP4 ADD SWAP2 POP DUP4 PUSH1 0x1 DUP3 MUL DUP4 ADD GT ISZERO PUSH2 0x884 JUMPI PUSH2 0x883 PUSH2 0x7DA JUMP JUMPDEST JUMPDEST SWAP3 POP SWAP3 SWAP1 POP JUMP JUMPDEST PUSH1 0x0 DUP1 PUSH1 0x0 DUP1 PUSH1 0x0 PUSH1 0x60 DUP7 DUP9 SUB SLT ISZERO PUSH2 0x8A7 JUMPI PUSH2 0x8A6 PUSH2 0x2DD JUMP JUMPDEST JUMPDEST PUSH1 0x0 PUSH2 0x8B5 DUP9 DUP3 DUP10 ADD PUSH2 0x7C0 JUMP JUMPDEST SWAP6 POP POP PUSH1 0x20 DUP7 ADD CALLDATALOAD PUSH8 0xFFFFFFFFFFFFFFFF DUP2 GT ISZERO PUSH2 0x8D6 JUMPI PUSH2 0x8D5 PUSH2 0x2E2 JUMP JUMPDEST JUMPDEST PUSH2 0x8E2 DUP9 DUP3 DUP10 ADD PUSH2 0x7DF JUMP JUMPDEST SWAP5 POP SWAP5 POP POP PUSH1 0x40 DUP7 ADD CALLDATALOAD PUSH8 0xFFFFFFFFFFFFFFFF DUP2 GT ISZERO PUSH2 0x905 JUMPI PUSH2 0x904 PUSH2 0x2E2 JUMP JUMPDEST JUMPDEST PUSH2 0x911 DUP9 DUP3 DUP10 ADD PUSH2 0x835 JUMP JUMPDEST SWAP3 POP SWAP3 POP POP SWAP3 SWAP6 POP SWAP3 SWAP6 SWAP1 SWAP4 POP JUMP JUMPDEST PUSH1 0x0 PUSH1 0x20 DUP3 ADD SWAP1 POP DUP2 DUP2 SUB PUSH1 0x0 DUP4 ADD MSTORE PUSH2 0x93A DUP2 DUP5 PUSH2 0x725 JUMP JUMPDEST SWAP1 POP SWAP3 SWAP2 POP POP JUMP JUMPDEST PUSH1 0x0 PUSH1 0x20 DUP3 DUP5 SUB SLT ISZERO PUSH2 0x958 JUMPI PUSH2 0x957 PUSH2 0x2DD JUMP JUMPDEST JUMPDEST PUSH1 0x0 PUSH2 0x966 DUP5 DUP3 DUP6 ADD PUSH2 0x308 JUMP JUMPDEST SWAP2 POP POP SWAP3 SWAP2 POP POP JUMP JUMPDEST PUSH1 0x0 PUSH8 0xFFFFFFFFFFFFFFFF DUP3 GT ISZERO PUSH2 0x98A JUMPI PUSH2 0x989 PUSH2 0x400 JUMP JUMPDEST JUMPDEST PUSH1 0x20 DUP3 MUL SWAP1 POP PUSH1 0x20 DUP2 ADD SWAP1 POP SWAP2 SWAP1 POP JUMP JUMPDEST PUSH1 0x0 DUP1 REVERT JUMPDEST PUSH1 0x0 PUSH1 0x40 DUP3 DUP5 SUB SLT ISZERO PUSH2 0x9B6 JUMPI PUSH2 0x9B5 PUSH2 0x99B JUMP JUMPDEST JUMPDEST PUSH2 0x9C0 PUSH1 0x40 PUSH2 0x460 JUMP JUMPDEST SWAP1 POP PUSH1 0x0 PUSH2 0x9D0 DUP5 DUP3 DUP6 ADD PUSH2 0x308 JUMP JUMPDEST PUSH1 0x0 DUP4 ADD MSTORE POP PUSH1 0x20 PUSH2 0x9E4 DUP5 DUP3 DUP6 ADD PUSH2 0x308 JUMP JUMPDEST PUSH1 0x20 DUP4 ADD MSTORE POP SWAP3 SWAP2 POP POP JUMP JUMPDEST PUSH1 0x0 PUSH2 0xA03 PUSH2 0x9FE DUP5 PUSH2 0x96F JUMP JUMPDEST PUSH2 0x460 JUMP JUMPDEST SWAP1 POP DUP1 DUP4 DUP3 MSTORE PUSH1 0x20 DUP3 ADD SWAP1 POP PUSH1 0x40 DUP5 MUL DUP4 ADD DUP6 DUP2 GT ISZERO PUSH2 0xA26 JUMPI PUSH2 0xA25 PUSH2 0x7DA JUMP JUMPDEST JUMPDEST DUP4 JUMPDEST DUP2 DUP2 LT ISZERO PUSH2 0xA4F JUMPI DUP1 PUSH2 0xA3B DUP9 DUP3 PUSH2 0x9A0 JUMP JUMPDEST DUP5 MSTORE PUSH1 0x20 DUP5 ADD SWAP4 POP POP PUSH1 0x40 DUP2 ADD SWAP1 POP PUSH2 0xA28 JUMP JUMPDEST POP POP POP SWAP4 SWAP3 POP POP POP JUMP JUMPDEST PUSH1 0x0 DUP3 PUSH1 0x1F DUP4 ADD SLT PUSH2 0xA6E JUMPI PUSH2 0xA6D PUSH2 0x3E5 JUMP JUMPDEST JUMPDEST DUP2 CALLDATALOAD PUSH2 0xA7E DUP5 DUP3 PUSH1 0x20 DUP7 ADD PUSH2 0x9F0 JUMP JUMPDEST SWAP2 POP POP SWAP3 SWAP2 POP POP JUMP JUMPDEST PUSH1 0x0 DUP1 PUSH1 0x40 DUP4 DUP6 SUB SLT ISZERO PUSH2 0xA9E JUMPI PUSH2 0xA9D PUSH2 0x2DD JUMP JUMPDEST JUMPDEST PUSH1 0x0 PUSH2 0xAAC DUP6 DUP3 DUP7 ADD PUSH2 0x366 JUMP JUMPDEST SWAP3 POP POP PUSH1 0x20 DUP4 ADD CALLDATALOAD PUSH8 0xFFFFFFFFFFFFFFFF DUP2 GT ISZERO PUSH2 0xACD JUMPI PUSH2 0xACC PUSH2 0x2E2 JUMP JUMPDEST JUMPDEST PUSH2 0xAD9 DUP6 DUP3 DUP7 ADD PUSH2 0xA59 JUMP JUMPDEST SWAP2 POP POP SWAP3 POP SWAP3 SWAP1 POP JUMP JUMPDEST PUSH1 0x0 PUSH1 0x20 DUP3 ADD SWAP1 POP PUSH2 0xAF8 PUSH1 0x0 DUP4 ADD DUP5 PUSH2 0x76A JUMP JUMPDEST SWAP3 SWAP2 POP POP JUMP JUMPDEST PUSH1 0x0 PUSH1 0xFF DUP3 AND SWAP1 POP SWAP2 SWAP1 POP JUMP JUMPDEST PUSH2 0xB14 DUP2 PUSH2 0xAFE JUMP JUMPDEST DUP2 EQ PUSH2 0xB1F JUMPI PUSH1 0x0 DUP1 REVERT JUMPDEST POP JUMP JUMPDEST PUSH1 0x0 DUP2 CALLDATALOAD SWAP1 POP PUSH2 0xB31 DUP2 PUSH2 0xB0B JUMP JUMPDEST SWAP3 SWAP2 POP POP JUMP JUMPDEST PUSH1 0x0 DUP1 PUSH1 0x0 DUP1 PUSH1 0x0 DUP1 PUSH1 0x0 DUP1 PUSH2 0x100 DUP10 DUP12 SUB SLT ISZERO PUSH2 0xB58 JUMPI PUSH2 0xB57 PUSH2 0x2DD JUMP JUMPDEST JUMPDEST PUSH1 0x0 PUSH2 0xB66 DUP12 DUP3 DUP13 ADD PUSH2 0x7C0 JUMP JUMPDEST SWAP9 POP POP PUSH1 0x20 PUSH2 0xB77 DUP12 DUP3 DUP13 ADD PUSH2 0xB22 JUMP JUMPDEST SWAP8 POP POP PUSH1 0x40 PUSH2 0xB88 DUP12 DUP3 DUP13 ADD PUSH2 0x366 JUMP JUMPDEST SWAP7 POP POP PUSH1 0x60 PUSH2 0xB99 DUP12 DUP3 DUP13 ADD PUSH2 0x366 JUMP JUMPDEST SWAP6 POP POP PUSH1 0x80 PUSH2 0xBAA DUP12 DUP3 DUP13 ADD PUSH2 0x366 JUMP JUMPDEST SWAP5 POP POP PUSH1 0xA0 PUSH2 0xBBB DUP12 DUP3 DUP13 ADD PUSH2 0x308 JUMP JUMPDEST SWAP4 POP POP PUSH1 0xC0 DUP10 ADD CALLDATALOAD PUSH8 0xFFFFFFFFFFFFFFFF DUP2 GT ISZERO PUSH2 0xBDC JUMPI PUSH2 0xBDB PUSH2 0x2E2 JUMP JUMPDEST JUMPDEST PUSH2 0xBE8 DUP12 DUP3 DUP13 ADD PUSH2 0xA59 JUMP JUMPDEST SWAP3 POP POP PUSH1 0xE0 DUP10 ADD CALLDATALOAD PUSH8 0xFFFFFFFFFFFFFFFF DUP2 GT ISZERO PUSH2 0xC09 JUMPI PUSH2 0xC08 PUSH2 0x2E2 JUMP JUMPDEST JUMPDEST PUSH2 0xC15 DUP12 DUP3 DUP13 ADD PUSH2 0x4FD JUMP JUMPDEST SWAP2 POP POP SWAP3 SWAP6 SWAP9 POP SWAP3 SWAP6 SWAP9 SWAP1 SWAP4 SWAP7 POP JUMP INVALID LOG2 PUSH5 0x6970667358 0x22 SLT KECCAK256 PUSH25 0xEFA218EC61E94F0ACC80CFDA1450722A3EE318944AEAF988F7 SWAP2 0xE1 0x2E 0x4C MCOPY 0x2D PUSH5 0x736F6C6343 STOP ADDMOD XOR STOP CALLER "},"methodIdentifiers":{"precompileAsyncCall(bool,uint8,address,address,address,uint256,(uint256,uint256)[],bytes)":"f1d1cf1c","precompileAwaitCall(address,bytes)":"95729ade","precompileConfigParam(bool,string,bytes)":"9ef8d0fa","precompileGetCurrencyBalance(uint256,address)":"3a1735fc","precompileGetGasPrice(uint256)":"a6c085bf","precompileGetMessageTokens()":"8ee83f19","precompileGetPoseidonHash(bytes)":"78312c6b","precompileMintCurrency(uint256)":"f4c261b5","precompileSendTokens(address,(uint256,uint256)[])":"bceebfe2"}}}}}