{"contracts/BondingCurveBasic.sol":{"BondingCurveBasic":{"abi":[{"inputs":[{"internalType":"string","name":"_tokenName","type":"string"},{"internalType":"uint256","name":"_maxTotalSupply","type":"uint256"}],"stateMutability":"nonpayable","type":"constructor"},{"anonymous":false,"inputs":[{"indexed":true,"internalType":"address","name":"sender","type":"address"},{"indexed":true,"internalType":"uint256","name":"deposit","type":"uint256"},{"indexed":true,"internalType":"uint256","name":"amount","type":"uint256"}],"name":"DidSendAsyncCall","type":"event"},{"anonymous":false,"inputs":[{"indexed":true,"internalType":"address","name":"sender","type":"address"},{"indexed":true,"internalType":"uint256","name":"deposit","type":"uint256"},{"indexed":true,"internalType":"uint256","name":"amount","type":"uint256"}],"name":"SuccessfulyMinted","type":"event"},{"anonymous":false,"inputs":[{"indexed":true,"internalType":"address","name":"sender","type":"address"},{"indexed":true,"internalType":"uint256","name":"deposit","type":"uint256"},{"indexed":true,"internalType":"uint256","name":"amount","type":"uint256"}],"name":"ToPurchaseAmount","type":"event"},{"inputs":[],"name":"MAX_POOL_BALANCE","outputs":[{"internalType":"uint256","name":"","type":"uint256"}],"stateMutability":"view","type":"function"},{"inputs":[{"internalType":"address","name":"_destination","type":"address"}],"name":"buy","outputs":[],"stateMutability":"payable","type":"function"},{"inputs":[{"internalType":"uint256","name":"ethAmount","type":"uint256"}],"name":"calculateBuyPrice","outputs":[{"internalType":"uint256","name":"","type":"uint256"}],"stateMutability":"view","type":"function"},{"inputs":[{"internalType":"uint256","name":"tokenAmount","type":"uint256"}],"name":"calculateSellPrice","outputs":[{"internalType":"uint256","name":"","type":"uint256"}],"stateMutability":"view","type":"function"},{"inputs":[],"name":"curveExponent","outputs":[{"internalType":"uint256","name":"","type":"uint256"}],"stateMutability":"view","type":"function"},{"inputs":[{"internalType":"address","name":"account","type":"address"}],"name":"getCurrencyBalanceOf","outputs":[{"internalType":"uint256","name":"","type":"uint256"}],"stateMutability":"view","type":"function"},{"inputs":[],"name":"getCurrencyId","outputs":[{"internalType":"uint256","name":"","type":"uint256"}],"stateMutability":"view","type":"function"},{"inputs":[],"name":"getCurrencyName","outputs":[{"internalType":"string","name":"","type":"string"}],"stateMutability":"view","type":"function"},{"inputs":[],"name":"getCurrencyTotalSupply","outputs":[{"internalType":"uint256","name":"","type":"uint256"}],"stateMutability":"view","type":"function"},{"inputs":[],"name":"getIsClosed","outputs":[{"internalType":"bool","name":"","type":"bool"}],"stateMutability":"view","type":"function"},{"inputs":[],"name":"getOwnCurrencyBalance","outputs":[{"internalType":"uint256","name":"","type":"uint256"}],"stateMutability":"view","type":"function"},{"inputs":[],"name":"initialPricePerToken","outputs":[{"internalType":"uint256","name":"","type":"uint256"}],"stateMutability":"view","type":"function"},{"inputs":[],"name":"isClosed","outputs":[{"internalType":"bool","name":"","type":"bool"}],"stateMutability":"view","type":"function"},{"inputs":[],"name":"maxTotalSupply","outputs":[{"internalType":"uint256","name":"","type":"uint256"}],"stateMutability":"view","type":"function"},{"inputs":[{"internalType":"uint256","name":"amount","type":"uint256"}],"name":"mintCurrency","outputs":[],"stateMutability":"nonpayable","type":"function"},{"inputs":[],"name":"poolBalance","outputs":[{"internalType":"uint256","name":"","type":"uint256"}],"stateMutability":"view","type":"function"},{"inputs":[{"internalType":"uint256","name":"_amount","type":"uint256"},{"internalType":"address","name":"_destination","type":"address"}],"name":"sell","outputs":[],"stateMutability":"payable","type":"function"},{"inputs":[{"internalType":"address","name":"to","type":"address"},{"internalType":"uint256","name":"currencyId","type":"uint256"},{"internalType":"uint256","name":"amount","type":"uint256"}],"name":"sendCurrency","outputs":[],"stateMutability":"nonpayable","type":"function"},{"inputs":[{"internalType":"string","name":"name","type":"string"}],"name":"setCurrencyName","outputs":[],"stateMutability":"nonpayable","type":"function"}],"evm":{"bytecode":{"linkReferences":{},"object":"60a06040526000600360006101000a81548160ff0219169083151502179055503480156200002c57600080fd5b506040516200263f3803806200263f833981810160405281019062000052919062000256565b80608081815250506200006b826200007360201b60201c565b5050620005e4565b8060019081620000849190620004fd565b5050565b6000604051905090565b600080fd5b600080fd5b600080fd5b600080fd5b6000601f19601f8301169050919050565b7f4e487b7100000000000000000000000000000000000000000000000000000000600052604160045260246000fd5b620000f182620000a6565b810181811067ffffffffffffffff82111715620001135762000112620000b7565b5b80604052505050565b60006200012862000088565b9050620001368282620000e6565b919050565b600067ffffffffffffffff821115620001595762000158620000b7565b5b6200016482620000a6565b9050602081019050919050565b60005b838110156200019157808201518184015260208101905062000174565b60008484015250505050565b6000620001b4620001ae846200013b565b6200011c565b905082815260208101848484011115620001d357620001d2620000a1565b5b620001e084828562000171565b509392505050565b600082601f8301126200020057620001ff6200009c565b5b8151620002128482602086016200019d565b91505092915050565b6000819050919050565b62000230816200021b565b81146200023c57600080fd5b50565b600081519050620002508162000225565b92915050565b6000806040838503121562000270576200026f62000092565b5b600083015167ffffffffffffffff81111562000291576200029062000097565b5b6200029f85828601620001e8565b9250506020620002b2858286016200023f565b9150509250929050565b600081519050919050565b7f4e487b7100000000000000000000000000000000000000000000000000000000600052602260045260246000fd5b600060028204905060018216806200030f57607f821691505b602082108103620003255762000324620002c7565b5b50919050565b60008190508160005260206000209050919050565b60006020601f8301049050919050565b600082821b905092915050565b6000600883026200038f7fffffffffffffffffffffffffffffffffffffffffffffffffffffffffffffffff8262000350565b6200039b868362000350565b95508019841693508086168417925050509392505050565b6000819050919050565b6000620003de620003d8620003d2846200021b565b620003b3565b6200021b565b9050919050565b6000819050919050565b620003fa83620003bd565b620004126200040982620003e5565b8484546200035d565b825550505050565b600090565b620004296200041a565b62000436818484620003ef565b505050565b5b818110156200045e57620004526000826200041f565b6001810190506200043c565b5050565b601f821115620004ad5762000477816200032b565b620004828462000340565b8101602085101562000492578190505b620004aa620004a18562000340565b8301826200043b565b50505b505050565b600082821c905092915050565b6000620004d260001984600802620004b2565b1980831691505092915050565b6000620004ed8383620004bf565b9150826002028217905092915050565b6200050882620002bc565b67ffffffffffffffff811115620005245762000523620000b7565b5b620005308254620002f6565b6200053d82828562000462565b600060209050601f83116001811462000575576000841562000560578287015190505b6200056c8582620004df565b865550620005dc565b601f19841662000585866200032b565b60005b82811015620005af5784890151825560018201915060208501945060208101905062000588565b86831015620005cf5784890151620005cb601f891682620004bf565b8355505b6001600288020188555050505b505050505050565b60805161203862000607600039600081816104da01526108d701526120386000f3fe6080604052600436106101145760003560e01c806396365d44116100a0578063cf387fed11610064578063cf387fed14610396578063d064d784146103c1578063dc4c1328146103ec578063eed2063114610417578063f088d5471461044057610114565b806396365d44146102c157806397856308146102ec578063add29c6d14610317578063b534638e14610342578063c2b6b58c1461036b57610114565b80632ab4d052116100e75780632ab4d052146101c35780632e5e2b3b146101ee5780634189a68e1461022b57806358b9a996146102475780635e38b66c1461028457610114565b80630a80ef45146101195780631072b91f146101445780632864e8d61461016d5780632a9795cd14610198575b600080fd5b34801561012557600080fd5b5061012e61045c565b60405161013b9190610f52565b60405180910390f35b34801561015057600080fd5b5061016b60048036038101906101669190610fb7565b610473565b005b34801561017957600080fd5b506101826104c7565b60405161018f9190610ff3565b60405180910390f35b3480156101a457600080fd5b506101ad6104d3565b6040516101ba9190610ff3565b60405180910390f35b3480156101cf57600080fd5b506101d86104d8565b6040516101e59190610ff3565b60405180910390f35b3480156101fa57600080fd5b5061021560048036038101906102109190610fb7565b6104fc565b6040516102229190610ff3565b60405180910390f35b6102456004803603810190610240919061106c565b610536565b005b34801561025357600080fd5b5061026e60048036038101906102699190610fb7565b61062e565b60405161027b9190610ff3565b60405180910390f35b34801561029057600080fd5b506102ab60048036038101906102a691906110ac565b61067a565b6040516102b89190610ff3565b60405180910390f35b3480156102cd57600080fd5b506102d6610694565b6040516102e39190610ff3565b60405180910390f35b3480156102f857600080fd5b5061030161069a565b60405161030e9190610ff3565b60405180910390f35b34801561032357600080fd5b5061032c6106b2565b6040516103399190610ff3565b60405180910390f35b34801561034e57600080fd5b50610369600480360381019061036491906110d9565b6106bb565b005b34801561037757600080fd5b50610380610713565b60405161038d9190610f52565b60405180910390f35b3480156103a257600080fd5b506103ab610726565b6040516103b89190610ff3565b60405180910390f35b3480156103cd57600080fd5b506103d6610744565b6040516103e391906111bc565b60405180910390f35b3480156103f857600080fd5b506104016107d6565b60405161040e9190610ff3565b60405180910390f35b34801561042357600080fd5b5061043e60048036038101906104399190611313565b6107dc565b005b61045a600480360381019061045591906110ac565b610837565b005b6000600360009054906101000a900460ff16905090565b61047b610b38565b156104bb576040517f08c379a00000000000000000000000000000000000000000000000000000000081526004016104b2906113ce565b60405180910390fd5b6104c481610c4a565b50565b678ac7230489e8000081565b600281565b7f000000000000000000000000000000000000000000000000000000000000000081565b6000806105076106b2565b90506002816105169190611550565b60025484610524919061159b565b61052e919061160c565b915050919050565b60001515600360009054906101000a900460ff1615151461058c576040517f08c379a000000000000000000000000000000000000000000000000000000000815260040161058390611689565b60405180910390fd5b816105963361067a565b10156105d7576040517f08c379a00000000000000000000000000000000000000000000000000000000081526004016105ce906116f5565b60405180910390fd5b60006105e2836104fc565b90506105ed81610d27565b80600260008282546105ff9190611715565b92505081905550610629823333620186a06000808760405180602001604052806000815250610d2a565b505050565b6000806106396106b2565b905060008103610659576103e883610651919061160c565b915050610675565b6002816106669190611550565b83610671919061160c565b9150505b919050565b600061068d82610688610726565b610d48565b9050919050565b60025481565b60006106ad306106a8610726565b610d48565b905090565b60008054905090565b6106c3610b38565b15610703576040517f08c379a00000000000000000000000000000000000000000000000000000000081526004016106fa906113ce565b60405180910390fd5b61070e838383610dcf565b505050565b600360009054906101000a900460ff1681565b60003073ffffffffffffffffffffffffffffffffffffffff16905090565b60606001805461075390611778565b80601f016020809104026020016040519081016040528092919081815260200182805461077f90611778565b80156107cc5780601f106107a1576101008083540402835291602001916107cc565b820191906000526020600020905b8154815290600101906020018083116107af57829003601f168201915b5050505050905090565b6103e881565b6107e4610b38565b15610824576040517f08c379a000000000000000000000000000000000000000000000000000000000815260040161081b906113ce565b60405180910390fd5b80600190816108339190611955565b5050565b60001515600360009054906101000a900460ff1615151461088d576040517f08c379a000000000000000000000000000000000000000000000000000000000815260040161088490611689565b60405180910390fd5b6000349050600081116108d5576040517f08c379a00000000000000000000000000000000000000000000000000000000081526004016108cc90611a73565b60405180910390fd5b7f00000000000000000000000000000000000000000000000000000000000000006108fe6106b2565b1061093e576040517f08c379a000000000000000000000000000000000000000000000000000000000815260040161093590611b05565b60405180910390fd5b60006109498261062e565b905080823373ffffffffffffffffffffffffffffffffffffffff167f3d97ab026a5fdfd38a9e144f940d9e7ddca4f2638f73f3dcb2cac8374438139d60405160405180910390a461099981610c4a565b80823373ffffffffffffffffffffffffffffffffffffffff167f1983d4a8948de0030f1101b7e335726bee7bc5f4e6617a16c9722a35d45e80d460405160405180910390a481600260008282546109f09190611b25565b925050819055506000600167ffffffffffffffff811115610a1457610a136111e8565b5b604051908082528060200260200182016040528015610a4d57816020015b610a3a610f1d565b815260200190600190039081610a325790505b50905060405180604001604052803073ffffffffffffffffffffffffffffffffffffffff1681526020018381525081600081518110610a8f57610a8e611b59565b5b6020026020010181905250610abf843033620186a060008060008860405180602001604052806000815250610e85565b81833373ffffffffffffffffffffffffffffffffffffffff167f3faa518abd490a442e1e18b02cafe62f0351db93d85f67e8d0cbfccb9258a52060405160405180910390a4678ac7230489e800006002541115610b32576001600360006101000a81548160ff0219169083151502179055505b50505050565b6000606060008060ff73ffffffffffffffffffffffffffffffffffffffff1683604051610b659190611bcf565b600060405180830381855afa9150503d8060008114610ba0576040519150601f19603f3d011682016040523d82523d6000602084013e610ba5565b606091505b509150915081610bea576040517f08c379a0000000000000000000000000000000000000000000000000000000008152600401610be190611c32565b60405180910390fd5b6000815111610c2e576040517f08c379a0000000000000000000000000000000000000000000000000000000008152600401610c2590611cc4565b60405180910390fd5b80806020019051810190610c429190611d10565b935050505090565b600060d073ffffffffffffffffffffffffffffffffffffffff1663f4c261b5836040518263ffffffff1660e01b8152600401610c869190610ff3565b6020604051808303816000875af1158015610ca5573d6000803e3d6000fd5b505050506040513d601f19601f82011682018060405250810190610cc99190611d10565b905080610d0b576040517f08c379a0000000000000000000000000000000000000000000000000000000008152600401610d0290611d89565b60405180910390fd5b81600080828254610d1c9190611b25565b925050819055505050565b50565b6060610d3d89898989898989888a610e85565b505050505050505050565b600060d173ffffffffffffffffffffffffffffffffffffffff16633a1735fc83856040518363ffffffff1660e01b8152600401610d86929190611db8565b602060405180830381865afa158015610da3573d6000803e3d6000fd5b505050506040513d601f19601f82011682018060405250810190610dc79190611df6565b905092915050565b6000600167ffffffffffffffff811115610dec57610deb6111e8565b5b604051908082528060200260200182016040528015610e2557816020015b610e12610f1d565b815260200190600190039081610e0a5790505b50905060405180604001604052808481526020018381525081600081518110610e5157610e50611b59565b5b6020026020010181905250610e7f846000806000806000808860405180602001604052806000815250610e85565b50505050565b60fd73ffffffffffffffffffffffffffffffffffffffff1663f1d1cf1c8486888d8d8d8d8a8a6040518a63ffffffff1660e01b8152600401610ece989796959493929190611f76565b60206040518083038185885af1158015610eec573d6000803e3d6000fd5b50505050506040513d601f19601f82011682018060405250810190610f119190611d10565b50505050505050505050565b604051806040016040528060008152602001600081525090565b60008115159050919050565b610f4c81610f37565b82525050565b6000602082019050610f676000830184610f43565b92915050565b6000604051905090565b600080fd5b600080fd5b6000819050919050565b610f9481610f81565b8114610f9f57600080fd5b50565b600081359050610fb181610f8b565b92915050565b600060208284031215610fcd57610fcc610f77565b5b6000610fdb84828501610fa2565b91505092915050565b610fed81610f81565b82525050565b60006020820190506110086000830184610fe4565b92915050565b600073ffffffffffffffffffffffffffffffffffffffff82169050919050565b60006110398261100e565b9050919050565b6110498161102e565b811461105457600080fd5b50565b60008135905061106681611040565b92915050565b6000806040838503121561108357611082610f77565b5b600061109185828601610fa2565b92505060206110a285828601611057565b9150509250929050565b6000602082840312156110c2576110c1610f77565b5b60006110d084828501611057565b91505092915050565b6000806000606084860312156110f2576110f1610f77565b5b600061110086828701611057565b935050602061111186828701610fa2565b925050604061112286828701610fa2565b9150509250925092565b600081519050919050565b600082825260208201905092915050565b60005b8381101561116657808201518184015260208101905061114b565b60008484015250505050565b6000601f19601f8301169050919050565b600061118e8261112c565b6111988185611137565b93506111a8818560208601611148565b6111b181611172565b840191505092915050565b600060208201905081810360008301526111d68184611183565b905092915050565b600080fd5b600080fd5b7f4e487b7100000000000000000000000000000000000000000000000000000000600052604160045260246000fd5b61122082611172565b810181811067ffffffffffffffff8211171561123f5761123e6111e8565b5b80604052505050565b6000611252610f6d565b905061125e8282611217565b919050565b600067ffffffffffffffff82111561127e5761127d6111e8565b5b61128782611172565b9050602081019050919050565b82818337600083830152505050565b60006112b66112b184611263565b611248565b9050828152602081018484840111156112d2576112d16111e3565b5b6112dd848285611294565b509392505050565b600082601f8301126112fa576112f96111de565b5b813561130a8482602086016112a3565b91505092915050565b60006020828403121561132957611328610f77565b5b600082013567ffffffffffffffff81111561134757611346610f7c565b5b611353848285016112e5565b91505092915050565b7f547279696e6720746f2063616c6c2065787465726e616c2066756e6374696f6e60008201527f207769746820696e7465726e616c206d65737361676500000000000000000000602082015250565b60006113b8603683611137565b91506113c38261135c565b604082019050919050565b600060208201905081810360008301526113e7816113ab565b9050919050565b7f4e487b7100000000000000000000000000000000000000000000000000000000600052601160045260246000fd5b60008160011c9050919050565b6000808291508390505b6001851115611474578086048111156114505761144f6113ee565b5b600185161561145f5780820291505b808102905061146d8561141d565b9450611434565b94509492505050565b60008261148d5760019050611549565b8161149b5760009050611549565b81600181146114b157600281146114bb576114ea565b6001915050611549565b60ff8411156114cd576114cc6113ee565b5b8360020a9150848211156114e4576114e36113ee565b5b50611549565b5060208310610133831016604e8410600b841016171561151f5782820a90508381111561151a576115196113ee565b5b611549565b61152c848484600161142a565b92509050818404811115611543576115426113ee565b5b81810290505b9392505050565b600061155b82610f81565b915061156683610f81565b92506115937fffffffffffffffffffffffffffffffffffffffffffffffffffffffffffffffff848461147d565b905092915050565b60006115a682610f81565b91506115b183610f81565b92508282026115bf81610f81565b915082820484148315176115d6576115d56113ee565b5b5092915050565b7f4e487b7100000000000000000000000000000000000000000000000000000000600052601260045260246000fd5b600061161782610f81565b915061162283610f81565b925082611632576116316115dd565b5b828204905092915050565b7f627579696e6720616e642073656c6c696e6720697320636c6f73656400000000600082015250565b6000611673601c83611137565b915061167e8261163d565b602082019050919050565b600060208201905081810360008301526116a281611666565b9050919050565b7f496e73756666696369656e742062616c616e6365000000000000000000000000600082015250565b60006116df601483611137565b91506116ea826116a9565b602082019050919050565b6000602082019050818103600083015261170e816116d2565b9050919050565b600061172082610f81565b915061172b83610f81565b9250828203905081811115611743576117426113ee565b5b92915050565b7f4e487b7100000000000000000000000000000000000000000000000000000000600052602260045260246000fd5b6000600282049050600182168061179057607f821691505b6020821081036117a3576117a2611749565b5b50919050565b60008190508160005260206000209050919050565b60006020601f8301049050919050565b600082821b905092915050565b60006008830261180b7fffffffffffffffffffffffffffffffffffffffffffffffffffffffffffffffff826117ce565b61181586836117ce565b95508019841693508086168417925050509392505050565b6000819050919050565b600061185261184d61184884610f81565b61182d565b610f81565b9050919050565b6000819050919050565b61186c83611837565b61188061187882611859565b8484546117db565b825550505050565b600090565b611895611888565b6118a0818484611863565b505050565b5b818110156118c4576118b960008261188d565b6001810190506118a6565b5050565b601f821115611909576118da816117a9565b6118e3846117be565b810160208510156118f2578190505b6119066118fe856117be565b8301826118a5565b50505b505050565b600082821c905092915050565b600061192c6000198460080261190e565b1980831691505092915050565b6000611945838361191b565b9150826002028217905092915050565b61195e8261112c565b67ffffffffffffffff811115611977576119766111e8565b5b6119818254611778565b61198c8282856118c8565b600060209050601f8311600181146119bf57600084156119ad578287015190505b6119b78582611939565b865550611a1f565b601f1984166119cd866117a9565b60005b828110156119f5578489015182556001820191506020850194506020810190506119d0565b86831015611a125784890151611a0e601f89168261191b565b8355505b6001600288020188555050505b505050505050565b7f456d707479206465706f73697400000000000000000000000000000000000000600082015250565b6000611a5d600d83611137565b9150611a6882611a27565b602082019050919050565b60006020820190508181036000830152611a8c81611a50565b9050919050565b7f416c6c20746f6b656e65732061726520616c726561647920707572636861736560008201527f6400000000000000000000000000000000000000000000000000000000000000602082015250565b6000611aef602183611137565b9150611afa82611a93565b604082019050919050565b60006020820190508181036000830152611b1e81611ae2565b9050919050565b6000611b3082610f81565b9150611b3b83610f81565b9250828201905080821115611b5357611b526113ee565b5b92915050565b7f4e487b7100000000000000000000000000000000000000000000000000000000600052603260045260246000fd5b600081519050919050565b600081905092915050565b6000611ba982611b88565b611bb38185611b93565b9350611bc3818560208601611148565b80840191505092915050565b6000611bdb8284611b9e565b915081905092915050565b7f507265636f6d70696c656420636f6e74726163742063616c6c206661696c6564600082015250565b6000611c1c602083611137565b9150611c2782611be6565b602082019050919050565b60006020820190508181036000830152611c4b81611c0f565b9050919050565b7f2749535f494e5445524e414c5f4d455353414745272072657475726e7320696e60008201527f76616c6964206461746100000000000000000000000000000000000000000000602082015250565b6000611cae602a83611137565b9150611cb982611c52565b604082019050919050565b60006020820190508181036000830152611cdd81611ca1565b9050919050565b611ced81610f37565b8114611cf857600080fd5b50565b600081519050611d0a81611ce4565b92915050565b600060208284031215611d2657611d25610f77565b5b6000611d3484828501611cfb565b91505092915050565b7f4d696e74206661696c6564000000000000000000000000000000000000000000600082015250565b6000611d73600b83611137565b9150611d7e82611d3d565b602082019050919050565b60006020820190508181036000830152611da281611d66565b9050919050565b611db28161102e565b82525050565b6000604082019050611dcd6000830185610fe4565b611dda6020830184611da9565b9392505050565b600081519050611df081610f8b565b92915050565b600060208284031215611e0c57611e0b610f77565b5b6000611e1a84828501611de1565b91505092915050565b600060ff82169050919050565b611e3981611e23565b82525050565b600081519050919050565b600082825260208201905092915050565b6000819050602082019050919050565b611e7481610f81565b82525050565b604082016000820151611e906000850182611e6b565b506020820151611ea36020850182611e6b565b50505050565b6000611eb58383611e7a565b60408301905092915050565b6000602082019050919050565b6000611ed982611e3f565b611ee38185611e4a565b9350611eee83611e5b565b8060005b83811015611f1f578151611f068882611ea9565b9750611f1183611ec1565b925050600181019050611ef2565b5085935050505092915050565b600082825260208201905092915050565b6000611f4882611b88565b611f528185611f2c565b9350611f62818560208601611148565b611f6b81611172565b840191505092915050565b600061010082019050611f8c600083018b610f43565b611f99602083018a611e30565b611fa66040830189611da9565b611fb36060830188611da9565b611fc06080830187611da9565b611fcd60a0830186610fe4565b81810360c0830152611fdf8185611ece565b905081810360e0830152611ff38184611f3d565b9050999850505050505050505056fea2646970667358221220dedbc096418cc8c267041c4b023fba84299e5493ba553933c580bd1ff6f55a6d64736f6c63430008180033","opcodes":"PUSH1 0xA0 PUSH1 0x40 MSTORE PUSH1 0x0 PUSH1 0x3 PUSH1 0x0 PUSH2 0x100 EXP DUP2 SLOAD DUP2 PUSH1 0xFF MUL NOT AND SWAP1 DUP4 ISZERO ISZERO MUL OR SWAP1 SSTORE POP CALLVALUE DUP1 ISZERO PUSH3 0x2C JUMPI PUSH1 0x0 DUP1 REVERT JUMPDEST POP PUSH1 0x40 MLOAD PUSH3 0x263F CODESIZE SUB DUP1 PUSH3 0x263F DUP4 CODECOPY DUP2 DUP2 ADD PUSH1 0x40 MSTORE DUP2 ADD SWAP1 PUSH3 0x52 SWAP2 SWAP1 PUSH3 0x256 JUMP JUMPDEST DUP1 PUSH1 0x80 DUP2 DUP2 MSTORE POP POP PUSH3 0x6B DUP3 PUSH3 0x73 PUSH1 0x20 SHL PUSH1 0x20 SHR JUMP JUMPDEST POP POP PUSH3 0x5E4 JUMP JUMPDEST DUP1 PUSH1 0x1 SWAP1 DUP2 PUSH3 0x84 SWAP2 SWAP1 PUSH3 0x4FD JUMP JUMPDEST POP POP JUMP JUMPDEST PUSH1 0x0 PUSH1 0x40 MLOAD SWAP1 POP SWAP1 JUMP JUMPDEST PUSH1 0x0 DUP1 REVERT JUMPDEST PUSH1 0x0 DUP1 REVERT JUMPDEST PUSH1 0x0 DUP1 REVERT JUMPDEST PUSH1 0x0 DUP1 REVERT JUMPDEST PUSH1 0x0 PUSH1 0x1F NOT PUSH1 0x1F DUP4 ADD AND SWAP1 POP SWAP2 SWAP1 POP JUMP JUMPDEST PUSH32 0x4E487B7100000000000000000000000000000000000000000000000000000000 PUSH1 0x0 MSTORE PUSH1 0x41 PUSH1 0x4 MSTORE PUSH1 0x24 PUSH1 0x0 REVERT JUMPDEST PUSH3 0xF1 DUP3 PUSH3 0xA6 JUMP JUMPDEST DUP2 ADD DUP2 DUP2 LT PUSH8 0xFFFFFFFFFFFFFFFF DUP3 GT OR ISZERO PUSH3 0x113 JUMPI PUSH3 0x112 PUSH3 0xB7 JUMP JUMPDEST JUMPDEST DUP1 PUSH1 0x40 MSTORE POP POP POP JUMP JUMPDEST PUSH1 0x0 PUSH3 0x128 PUSH3 0x88 JUMP JUMPDEST SWAP1 POP PUSH3 0x136 DUP3 DUP3 PUSH3 0xE6 JUMP JUMPDEST SWAP2 SWAP1 POP JUMP JUMPDEST PUSH1 0x0 PUSH8 0xFFFFFFFFFFFFFFFF DUP3 GT ISZERO PUSH3 0x159 JUMPI PUSH3 0x158 PUSH3 0xB7 JUMP JUMPDEST JUMPDEST PUSH3 0x164 DUP3 PUSH3 0xA6 JUMP JUMPDEST SWAP1 POP PUSH1 0x20 DUP2 ADD SWAP1 POP SWAP2 SWAP1 POP JUMP JUMPDEST PUSH1 0x0 JUMPDEST DUP4 DUP2 LT ISZERO PUSH3 0x191 JUMPI DUP1 DUP3 ADD MLOAD DUP2 DUP5 ADD MSTORE PUSH1 0x20 DUP2 ADD SWAP1 POP PUSH3 0x174 JUMP JUMPDEST PUSH1 0x0 DUP5 DUP5 ADD MSTORE POP POP POP POP JUMP JUMPDEST PUSH1 0x0 PUSH3 0x1B4 PUSH3 0x1AE DUP5 PUSH3 0x13B JUMP JUMPDEST PUSH3 0x11C JUMP JUMPDEST SWAP1 POP DUP3 DUP2 MSTORE PUSH1 0x20 DUP2 ADD DUP5 DUP5 DUP5 ADD GT ISZERO PUSH3 0x1D3 JUMPI PUSH3 0x1D2 PUSH3 0xA1 JUMP JUMPDEST JUMPDEST PUSH3 0x1E0 DUP5 DUP3 DUP6 PUSH3 0x171 JUMP JUMPDEST POP SWAP4 SWAP3 POP POP POP JUMP JUMPDEST PUSH1 0x0 DUP3 PUSH1 0x1F DUP4 ADD SLT PUSH3 0x200 JUMPI PUSH3 0x1FF PUSH3 0x9C JUMP JUMPDEST JUMPDEST DUP2 MLOAD PUSH3 0x212 DUP5 DUP3 PUSH1 0x20 DUP7 ADD PUSH3 0x19D JUMP JUMPDEST SWAP2 POP POP SWAP3 SWAP2 POP POP JUMP JUMPDEST PUSH1 0x0 DUP2 SWAP1 POP SWAP2 SWAP1 POP JUMP JUMPDEST PUSH3 0x230 DUP2 PUSH3 0x21B JUMP JUMPDEST DUP2 EQ PUSH3 0x23C JUMPI PUSH1 0x0 DUP1 REVERT JUMPDEST POP JUMP JUMPDEST PUSH1 0x0 DUP2 MLOAD SWAP1 POP PUSH3 0x250 DUP2 PUSH3 0x225 JUMP JUMPDEST SWAP3 SWAP2 POP POP JUMP JUMPDEST PUSH1 0x0 DUP1 PUSH1 0x40 DUP4 DUP6 SUB SLT ISZERO PUSH3 0x270 JUMPI PUSH3 0x26F PUSH3 0x92 JUMP JUMPDEST JUMPDEST PUSH1 0x0 DUP4 ADD MLOAD PUSH8 0xFFFFFFFFFFFFFFFF DUP2 GT ISZERO PUSH3 0x291 JUMPI PUSH3 0x290 PUSH3 0x97 JUMP JUMPDEST JUMPDEST PUSH3 0x29F DUP6 DUP3 DUP7 ADD PUSH3 0x1E8 JUMP JUMPDEST SWAP3 POP POP PUSH1 0x20 PUSH3 0x2B2 DUP6 DUP3 DUP7 ADD PUSH3 0x23F JUMP JUMPDEST SWAP2 POP POP SWAP3 POP SWAP3 SWAP1 POP JUMP JUMPDEST PUSH1 0x0 DUP2 MLOAD SWAP1 POP SWAP2 SWAP1 POP JUMP JUMPDEST PUSH32 0x4E487B7100000000000000000000000000000000000000000000000000000000 PUSH1 0x0 MSTORE PUSH1 0x22 PUSH1 0x4 MSTORE PUSH1 0x24 PUSH1 0x0 REVERT JUMPDEST PUSH1 0x0 PUSH1 0x2 DUP3 DIV SWAP1 POP PUSH1 0x1 DUP3 AND DUP1 PUSH3 0x30F JUMPI PUSH1 0x7F DUP3 AND SWAP2 POP JUMPDEST PUSH1 0x20 DUP3 LT DUP2 SUB PUSH3 0x325 JUMPI PUSH3 0x324 PUSH3 0x2C7 JUMP JUMPDEST JUMPDEST POP SWAP2 SWAP1 POP JUMP JUMPDEST PUSH1 0x0 DUP2 SWAP1 POP DUP2 PUSH1 0x0 MSTORE PUSH1 0x20 PUSH1 0x0 KECCAK256 SWAP1 POP SWAP2 SWAP1 POP JUMP JUMPDEST PUSH1 0x0 PUSH1 0x20 PUSH1 0x1F DUP4 ADD DIV SWAP1 POP SWAP2 SWAP1 POP JUMP JUMPDEST PUSH1 0x0 DUP3 DUP3 SHL SWAP1 POP SWAP3 SWAP2 POP POP JUMP JUMPDEST PUSH1 0x0 PUSH1 0x8 DUP4 MUL PUSH3 0x38F PUSH32 0xFFFFFFFFFFFFFFFFFFFFFFFFFFFFFFFFFFFFFFFFFFFFFFFFFFFFFFFFFFFFFFFF DUP3 PUSH3 0x350 JUMP JUMPDEST PUSH3 0x39B DUP7 DUP4 PUSH3 0x350 JUMP JUMPDEST SWAP6 POP DUP1 NOT DUP5 AND SWAP4 POP DUP1 DUP7 AND DUP5 OR SWAP3 POP POP POP SWAP4 SWAP3 POP POP POP JUMP JUMPDEST PUSH1 0x0 DUP2 SWAP1 POP SWAP2 SWAP1 POP JUMP JUMPDEST PUSH1 0x0 PUSH3 0x3DE PUSH3 0x3D8 PUSH3 0x3D2 DUP5 PUSH3 0x21B JUMP JUMPDEST PUSH3 0x3B3 JUMP JUMPDEST PUSH3 0x21B JUMP JUMPDEST SWAP1 POP SWAP2 SWAP1 POP JUMP JUMPDEST PUSH1 0x0 DUP2 SWAP1 POP SWAP2 SWAP1 POP JUMP JUMPDEST PUSH3 0x3FA DUP4 PUSH3 0x3BD JUMP JUMPDEST PUSH3 0x412 PUSH3 0x409 DUP3 PUSH3 0x3E5 JUMP JUMPDEST DUP5 DUP5 SLOAD PUSH3 0x35D JUMP JUMPDEST DUP3 SSTORE POP POP POP POP JUMP JUMPDEST PUSH1 0x0 SWAP1 JUMP JUMPDEST PUSH3 0x429 PUSH3 0x41A JUMP JUMPDEST PUSH3 0x436 DUP2 DUP5 DUP5 PUSH3 0x3EF JUMP JUMPDEST POP POP POP JUMP JUMPDEST JUMPDEST DUP2 DUP2 LT ISZERO PUSH3 0x45E JUMPI PUSH3 0x452 PUSH1 0x0 DUP3 PUSH3 0x41F JUMP JUMPDEST PUSH1 0x1 DUP2 ADD SWAP1 POP PUSH3 0x43C JUMP JUMPDEST POP POP JUMP JUMPDEST PUSH1 0x1F DUP3 GT ISZERO PUSH3 0x4AD JUMPI PUSH3 0x477 DUP2 PUSH3 0x32B JUMP JUMPDEST PUSH3 0x482 DUP5 PUSH3 0x340 JUMP JUMPDEST DUP2 ADD PUSH1 0x20 DUP6 LT ISZERO PUSH3 0x492 JUMPI DUP2 SWAP1 POP JUMPDEST PUSH3 0x4AA PUSH3 0x4A1 DUP6 PUSH3 0x340 JUMP JUMPDEST DUP4 ADD DUP3 PUSH3 0x43B JUMP JUMPDEST POP POP JUMPDEST POP POP POP JUMP JUMPDEST PUSH1 0x0 DUP3 DUP3 SHR SWAP1 POP SWAP3 SWAP2 POP POP JUMP JUMPDEST PUSH1 0x0 PUSH3 0x4D2 PUSH1 0x0 NOT DUP5 PUSH1 0x8 MUL PUSH3 0x4B2 JUMP JUMPDEST NOT DUP1 DUP4 AND SWAP2 POP POP SWAP3 SWAP2 POP POP JUMP JUMPDEST PUSH1 0x0 PUSH3 0x4ED DUP4 DUP4 PUSH3 0x4BF JUMP JUMPDEST SWAP2 POP DUP3 PUSH1 0x2 MUL DUP3 OR SWAP1 POP SWAP3 SWAP2 POP POP JUMP JUMPDEST PUSH3 0x508 DUP3 PUSH3 0x2BC JUMP JUMPDEST PUSH8 0xFFFFFFFFFFFFFFFF DUP2 GT ISZERO PUSH3 0x524 JUMPI PUSH3 0x523 PUSH3 0xB7 JUMP JUMPDEST JUMPDEST PUSH3 0x530 DUP3 SLOAD PUSH3 0x2F6 JUMP JUMPDEST PUSH3 0x53D DUP3 DUP3 DUP6 PUSH3 0x462 JUMP JUMPDEST PUSH1 0x0 PUSH1 0x20 SWAP1 POP PUSH1 0x1F DUP4 GT PUSH1 0x1 DUP2 EQ PUSH3 0x575 JUMPI PUSH1 0x0 DUP5 ISZERO PUSH3 0x560 JUMPI DUP3 DUP8 ADD MLOAD SWAP1 POP JUMPDEST PUSH3 0x56C DUP6 DUP3 PUSH3 0x4DF JUMP JUMPDEST DUP7 SSTORE POP PUSH3 0x5DC JUMP JUMPDEST PUSH1 0x1F NOT DUP5 AND PUSH3 0x585 DUP7 PUSH3 0x32B JUMP JUMPDEST PUSH1 0x0 JUMPDEST DUP3 DUP2 LT ISZERO PUSH3 0x5AF JUMPI DUP5 DUP10 ADD MLOAD DUP3 SSTORE PUSH1 0x1 DUP3 ADD SWAP2 POP PUSH1 0x20 DUP6 ADD SWAP5 POP PUSH1 0x20 DUP2 ADD SWAP1 POP PUSH3 0x588 JUMP JUMPDEST DUP7 DUP4 LT ISZERO PUSH3 0x5CF JUMPI DUP5 DUP10 ADD MLOAD PUSH3 0x5CB PUSH1 0x1F DUP10 AND DUP3 PUSH3 0x4BF JUMP JUMPDEST DUP4 SSTORE POP JUMPDEST PUSH1 0x1 PUSH1 0x2 DUP9 MUL ADD DUP9 SSTORE POP POP POP JUMPDEST POP POP POP POP POP POP JUMP JUMPDEST PUSH1 0x80 MLOAD PUSH2 0x2038 PUSH3 0x607 PUSH1 0x0 CODECOPY PUSH1 0x0 DUP2 DUP2 PUSH2 0x4DA ADD MSTORE PUSH2 0x8D7 ADD MSTORE PUSH2 0x2038 PUSH1 0x0 RETURN INVALID PUSH1 0x80 PUSH1 0x40 MSTORE PUSH1 0x4 CALLDATASIZE LT PUSH2 0x114 JUMPI PUSH1 0x0 CALLDATALOAD PUSH1 0xE0 SHR DUP1 PUSH4 0x96365D44 GT PUSH2 0xA0 JUMPI DUP1 PUSH4 0xCF387FED GT PUSH2 0x64 JUMPI DUP1 PUSH4 0xCF387FED EQ PUSH2 0x396 JUMPI DUP1 PUSH4 0xD064D784 EQ PUSH2 0x3C1 JUMPI DUP1 PUSH4 0xDC4C1328 EQ PUSH2 0x3EC JUMPI DUP1 PUSH4 0xEED20631 EQ PUSH2 0x417 JUMPI DUP1 PUSH4 0xF088D547 EQ PUSH2 0x440 JUMPI PUSH2 0x114 JUMP JUMPDEST DUP1 PUSH4 0x96365D44 EQ PUSH2 0x2C1 JUMPI DUP1 PUSH4 0x97856308 EQ PUSH2 0x2EC JUMPI DUP1 PUSH4 0xADD29C6D EQ PUSH2 0x317 JUMPI DUP1 PUSH4 0xB534638E EQ PUSH2 0x342 JUMPI DUP1 PUSH4 0xC2B6B58C EQ PUSH2 0x36B JUMPI PUSH2 0x114 JUMP JUMPDEST DUP1 PUSH4 0x2AB4D052 GT PUSH2 0xE7 JUMPI DUP1 PUSH4 0x2AB4D052 EQ PUSH2 0x1C3 JUMPI DUP1 PUSH4 0x2E5E2B3B EQ PUSH2 0x1EE JUMPI DUP1 PUSH4 0x4189A68E EQ PUSH2 0x22B JUMPI DUP1 PUSH4 0x58B9A996 EQ PUSH2 0x247 JUMPI DUP1 PUSH4 0x5E38B66C EQ PUSH2 0x284 JUMPI PUSH2 0x114 JUMP JUMPDEST DUP1 PUSH4 0xA80EF45 EQ PUSH2 0x119 JUMPI DUP1 PUSH4 0x1072B91F EQ PUSH2 0x144 JUMPI DUP1 PUSH4 0x2864E8D6 EQ PUSH2 0x16D JUMPI DUP1 PUSH4 0x2A9795CD EQ PUSH2 0x198 JUMPI JUMPDEST PUSH1 0x0 DUP1 REVERT JUMPDEST CALLVALUE DUP1 ISZERO PUSH2 0x125 JUMPI PUSH1 0x0 DUP1 REVERT JUMPDEST POP PUSH2 0x12E PUSH2 0x45C JUMP JUMPDEST PUSH1 0x40 MLOAD PUSH2 0x13B SWAP2 SWAP1 PUSH2 0xF52 JUMP JUMPDEST PUSH1 0x40 MLOAD DUP1 SWAP2 SUB SWAP1 RETURN JUMPDEST CALLVALUE DUP1 ISZERO PUSH2 0x150 JUMPI PUSH1 0x0 DUP1 REVERT JUMPDEST POP PUSH2 0x16B PUSH1 0x4 DUP1 CALLDATASIZE SUB DUP2 ADD SWAP1 PUSH2 0x166 SWAP2 SWAP1 PUSH2 0xFB7 JUMP JUMPDEST PUSH2 0x473 JUMP JUMPDEST STOP JUMPDEST CALLVALUE DUP1 ISZERO PUSH2 0x179 JUMPI PUSH1 0x0 DUP1 REVERT JUMPDEST POP PUSH2 0x182 PUSH2 0x4C7 JUMP JUMPDEST PUSH1 0x40 MLOAD PUSH2 0x18F SWAP2 SWAP1 PUSH2 0xFF3 JUMP JUMPDEST PUSH1 0x40 MLOAD DUP1 SWAP2 SUB SWAP1 RETURN JUMPDEST CALLVALUE DUP1 ISZERO PUSH2 0x1A4 JUMPI PUSH1 0x0 DUP1 REVERT JUMPDEST POP PUSH2 0x1AD PUSH2 0x4D3 JUMP JUMPDEST PUSH1 0x40 MLOAD PUSH2 0x1BA SWAP2 SWAP1 PUSH2 0xFF3 JUMP JUMPDEST PUSH1 0x40 MLOAD DUP1 SWAP2 SUB SWAP1 RETURN JUMPDEST CALLVALUE DUP1 ISZERO PUSH2 0x1CF JUMPI PUSH1 0x0 DUP1 REVERT JUMPDEST POP PUSH2 0x1D8 PUSH2 0x4D8 JUMP JUMPDEST PUSH1 0x40 MLOAD PUSH2 0x1E5 SWAP2 SWAP1 PUSH2 0xFF3 JUMP JUMPDEST PUSH1 0x40 MLOAD DUP1 SWAP2 SUB SWAP1 RETURN JUMPDEST CALLVALUE DUP1 ISZERO PUSH2 0x1FA JUMPI PUSH1 0x0 DUP1 REVERT JUMPDEST POP PUSH2 0x215 PUSH1 0x4 DUP1 CALLDATASIZE SUB DUP2 ADD SWAP1 PUSH2 0x210 SWAP2 SWAP1 PUSH2 0xFB7 JUMP JUMPDEST PUSH2 0x4FC JUMP JUMPDEST PUSH1 0x40 MLOAD PUSH2 0x222 SWAP2 SWAP1 PUSH2 0xFF3 JUMP JUMPDEST PUSH1 0x40 MLOAD DUP1 SWAP2 SUB SWAP1 RETURN JUMPDEST PUSH2 0x245 PUSH1 0x4 DUP1 CALLDATASIZE SUB DUP2 ADD SWAP1 PUSH2 0x240 SWAP2 SWAP1 PUSH2 0x106C JUMP JUMPDEST PUSH2 0x536 JUMP JUMPDEST STOP JUMPDEST CALLVALUE DUP1 ISZERO PUSH2 0x253 JUMPI PUSH1 0x0 DUP1 REVERT JUMPDEST POP PUSH2 0x26E PUSH1 0x4 DUP1 CALLDATASIZE SUB DUP2 ADD SWAP1 PUSH2 0x269 SWAP2 SWAP1 PUSH2 0xFB7 JUMP JUMPDEST PUSH2 0x62E JUMP JUMPDEST PUSH1 0x40 MLOAD PUSH2 0x27B SWAP2 SWAP1 PUSH2 0xFF3 JUMP JUMPDEST PUSH1 0x40 MLOAD DUP1 SWAP2 SUB SWAP1 RETURN JUMPDEST CALLVALUE DUP1 ISZERO PUSH2 0x290 JUMPI PUSH1 0x0 DUP1 REVERT JUMPDEST POP PUSH2 0x2AB PUSH1 0x4 DUP1 CALLDATASIZE SUB DUP2 ADD SWAP1 PUSH2 0x2A6 SWAP2 SWAP1 PUSH2 0x10AC JUMP JUMPDEST PUSH2 0x67A JUMP JUMPDEST PUSH1 0x40 MLOAD PUSH2 0x2B8 SWAP2 SWAP1 PUSH2 0xFF3 JUMP JUMPDEST PUSH1 0x40 MLOAD DUP1 SWAP2 SUB SWAP1 RETURN JUMPDEST CALLVALUE DUP1 ISZERO PUSH2 0x2CD JUMPI PUSH1 0x0 DUP1 REVERT JUMPDEST POP PUSH2 0x2D6 PUSH2 0x694 JUMP JUMPDEST PUSH1 0x40 MLOAD PUSH2 0x2E3 SWAP2 SWAP1 PUSH2 0xFF3 JUMP JUMPDEST PUSH1 0x40 MLOAD DUP1 SWAP2 SUB SWAP1 RETURN JUMPDEST CALLVALUE DUP1 ISZERO PUSH2 0x2F8 JUMPI PUSH1 0x0 DUP1 REVERT JUMPDEST POP PUSH2 0x301 PUSH2 0x69A JUMP JUMPDEST PUSH1 0x40 MLOAD PUSH2 0x30E SWAP2 SWAP1 PUSH2 0xFF3 JUMP JUMPDEST PUSH1 0x40 MLOAD DUP1 SWAP2 SUB SWAP1 RETURN JUMPDEST CALLVALUE DUP1 ISZERO PUSH2 0x323 JUMPI PUSH1 0x0 DUP1 REVERT JUMPDEST POP PUSH2 0x32C PUSH2 0x6B2 JUMP JUMPDEST PUSH1 0x40 MLOAD PUSH2 0x339 SWAP2 SWAP1 PUSH2 0xFF3 JUMP JUMPDEST PUSH1 0x40 MLOAD DUP1 SWAP2 SUB SWAP1 RETURN JUMPDEST CALLVALUE DUP1 ISZERO PUSH2 0x34E JUMPI PUSH1 0x0 DUP1 REVERT JUMPDEST POP PUSH2 0x369 PUSH1 0x4 DUP1 CALLDATASIZE SUB DUP2 ADD SWAP1 PUSH2 0x364 SWAP2 SWAP1 PUSH2 0x10D9 JUMP JUMPDEST PUSH2 0x6BB JUMP JUMPDEST STOP JUMPDEST CALLVALUE DUP1 ISZERO PUSH2 0x377 JUMPI PUSH1 0x0 DUP1 REVERT JUMPDEST POP PUSH2 0x380 PUSH2 0x713 JUMP JUMPDEST PUSH1 0x40 MLOAD PUSH2 0x38D SWAP2 SWAP1 PUSH2 0xF52 JUMP JUMPDEST PUSH1 0x40 MLOAD DUP1 SWAP2 SUB SWAP1 RETURN JUMPDEST CALLVALUE DUP1 ISZERO PUSH2 0x3A2 JUMPI PUSH1 0x0 DUP1 REVERT JUMPDEST POP PUSH2 0x3AB PUSH2 0x726 JUMP JUMPDEST PUSH1 0x40 MLOAD PUSH2 0x3B8 SWAP2 SWAP1 PUSH2 0xFF3 JUMP JUMPDEST PUSH1 0x40 MLOAD DUP1 SWAP2 SUB SWAP1 RETURN JUMPDEST CALLVALUE DUP1 ISZERO PUSH2 0x3CD JUMPI PUSH1 0x0 DUP1 REVERT JUMPDEST POP PUSH2 0x3D6 PUSH2 0x744 JUMP JUMPDEST PUSH1 0x40 MLOAD PUSH2 0x3E3 SWAP2 SWAP1 PUSH2 0x11BC JUMP JUMPDEST PUSH1 0x40 MLOAD DUP1 SWAP2 SUB SWAP1 RETURN JUMPDEST CALLVALUE DUP1 ISZERO PUSH2 0x3F8 JUMPI PUSH1 0x0 DUP1 REVERT JUMPDEST POP PUSH2 0x401 PUSH2 0x7D6 JUMP JUMPDEST PUSH1 0x40 MLOAD PUSH2 0x40E SWAP2 SWAP1 PUSH2 0xFF3 JUMP JUMPDEST PUSH1 0x40 MLOAD DUP1 SWAP2 SUB SWAP1 RETURN JUMPDEST CALLVALUE DUP1 ISZERO PUSH2 0x423 JUMPI PUSH1 0x0 DUP1 REVERT JUMPDEST POP PUSH2 0x43E PUSH1 0x4 DUP1 CALLDATASIZE SUB DUP2 ADD SWAP1 PUSH2 0x439 SWAP2 SWAP1 PUSH2 0x1313 JUMP JUMPDEST PUSH2 0x7DC JUMP JUMPDEST STOP JUMPDEST PUSH2 0x45A PUSH1 0x4 DUP1 CALLDATASIZE SUB DUP2 ADD SWAP1 PUSH2 0x455 SWAP2 SWAP1 PUSH2 0x10AC JUMP JUMPDEST PUSH2 0x837 JUMP JUMPDEST STOP JUMPDEST PUSH1 0x0 PUSH1 0x3 PUSH1 0x0 SWAP1 SLOAD SWAP1 PUSH2 0x100 EXP SWAP1 DIV PUSH1 0xFF AND SWAP1 POP SWAP1 JUMP JUMPDEST PUSH2 0x47B PUSH2 0xB38 JUMP JUMPDEST ISZERO PUSH2 0x4BB JUMPI PUSH1 0x40 MLOAD PUSH32 0x8C379A000000000000000000000000000000000000000000000000000000000 DUP2 MSTORE PUSH1 0x4 ADD PUSH2 0x4B2 SWAP1 PUSH2 0x13CE JUMP JUMPDEST PUSH1 0x40 MLOAD DUP1 SWAP2 SUB SWAP1 REVERT JUMPDEST PUSH2 0x4C4 DUP2 PUSH2 0xC4A JUMP JUMPDEST POP JUMP JUMPDEST PUSH8 0x8AC7230489E80000 DUP2 JUMP JUMPDEST PUSH1 0x2 DUP2 JUMP JUMPDEST PUSH32 0x0 DUP2 JUMP JUMPDEST PUSH1 0x0 DUP1 PUSH2 0x507 PUSH2 0x6B2 JUMP JUMPDEST SWAP1 POP PUSH1 0x2 DUP2 PUSH2 0x516 SWAP2 SWAP1 PUSH2 0x1550 JUMP JUMPDEST PUSH1 0x2 SLOAD DUP5 PUSH2 0x524 SWAP2 SWAP1 PUSH2 0x159B JUMP JUMPDEST PUSH2 0x52E SWAP2 SWAP1 PUSH2 0x160C JUMP JUMPDEST SWAP2 POP POP SWAP2 SWAP1 POP JUMP JUMPDEST PUSH1 0x0 ISZERO ISZERO PUSH1 0x3 PUSH1 0x0 SWAP1 SLOAD SWAP1 PUSH2 0x100 EXP SWAP1 DIV PUSH1 0xFF AND ISZERO ISZERO EQ PUSH2 0x58C JUMPI PUSH1 0x40 MLOAD PUSH32 0x8C379A000000000000000000000000000000000000000000000000000000000 DUP2 MSTORE PUSH1 0x4 ADD PUSH2 0x583 SWAP1 PUSH2 0x1689 JUMP JUMPDEST PUSH1 0x40 MLOAD DUP1 SWAP2 SUB SWAP1 REVERT JUMPDEST DUP2 PUSH2 0x596 CALLER PUSH2 0x67A JUMP JUMPDEST LT ISZERO PUSH2 0x5D7 JUMPI PUSH1 0x40 MLOAD PUSH32 0x8C379A000000000000000000000000000000000000000000000000000000000 DUP2 MSTORE PUSH1 0x4 ADD PUSH2 0x5CE SWAP1 PUSH2 0x16F5 JUMP JUMPDEST PUSH1 0x40 MLOAD DUP1 SWAP2 SUB SWAP1 REVERT JUMPDEST PUSH1 0x0 PUSH2 0x5E2 DUP4 PUSH2 0x4FC JUMP JUMPDEST SWAP1 POP PUSH2 0x5ED DUP2 PUSH2 0xD27 JUMP JUMPDEST DUP1 PUSH1 0x2 PUSH1 0x0 DUP3 DUP3 SLOAD PUSH2 0x5FF SWAP2 SWAP1 PUSH2 0x1715 JUMP JUMPDEST SWAP3 POP POP DUP2 SWAP1 SSTORE POP PUSH2 0x629 DUP3 CALLER CALLER PUSH3 0x186A0 PUSH1 0x0 DUP1 DUP8 PUSH1 0x40 MLOAD DUP1 PUSH1 0x20 ADD PUSH1 0x40 MSTORE DUP1 PUSH1 0x0 DUP2 MSTORE POP PUSH2 0xD2A JUMP JUMPDEST POP POP POP JUMP JUMPDEST PUSH1 0x0 DUP1 PUSH2 0x639 PUSH2 0x6B2 JUMP JUMPDEST SWAP1 POP PUSH1 0x0 DUP2 SUB PUSH2 0x659 JUMPI PUSH2 0x3E8 DUP4 PUSH2 0x651 SWAP2 SWAP1 PUSH2 0x160C JUMP JUMPDEST SWAP2 POP POP PUSH2 0x675 JUMP JUMPDEST PUSH1 0x2 DUP2 PUSH2 0x666 SWAP2 SWAP1 PUSH2 0x1550 JUMP JUMPDEST DUP4 PUSH2 0x671 SWAP2 SWAP1 PUSH2 0x160C JUMP JUMPDEST SWAP2 POP POP JUMPDEST SWAP2 SWAP1 POP JUMP JUMPDEST PUSH1 0x0 PUSH2 0x68D DUP3 PUSH2 0x688 PUSH2 0x726 JUMP JUMPDEST PUSH2 0xD48 JUMP JUMPDEST SWAP1 POP SWAP2 SWAP1 POP JUMP JUMPDEST PUSH1 0x2 SLOAD DUP2 JUMP JUMPDEST PUSH1 0x0 PUSH2 0x6AD ADDRESS PUSH2 0x6A8 PUSH2 0x726 JUMP JUMPDEST PUSH2 0xD48 JUMP JUMPDEST SWAP1 POP SWAP1 JUMP JUMPDEST PUSH1 0x0 DUP1 SLOAD SWAP1 POP SWAP1 JUMP JUMPDEST PUSH2 0x6C3 PUSH2 0xB38 JUMP JUMPDEST ISZERO PUSH2 0x703 JUMPI PUSH1 0x40 MLOAD PUSH32 0x8C379A000000000000000000000000000000000000000000000000000000000 DUP2 MSTORE PUSH1 0x4 ADD PUSH2 0x6FA SWAP1 PUSH2 0x13CE JUMP JUMPDEST PUSH1 0x40 MLOAD DUP1 SWAP2 SUB SWAP1 REVERT JUMPDEST PUSH2 0x70E DUP4 DUP4 DUP4 PUSH2 0xDCF JUMP JUMPDEST POP POP POP JUMP JUMPDEST PUSH1 0x3 PUSH1 0x0 SWAP1 SLOAD SWAP1 PUSH2 0x100 EXP SWAP1 DIV PUSH1 0xFF AND DUP2 JUMP JUMPDEST PUSH1 0x0 ADDRESS PUSH20 0xFFFFFFFFFFFFFFFFFFFFFFFFFFFFFFFFFFFFFFFF AND SWAP1 POP SWAP1 JUMP JUMPDEST PUSH1 0x60 PUSH1 0x1 DUP1 SLOAD PUSH2 0x753 SWAP1 PUSH2 0x1778 JUMP JUMPDEST DUP1 PUSH1 0x1F ADD PUSH1 0x20 DUP1 SWAP2 DIV MUL PUSH1 0x20 ADD PUSH1 0x40 MLOAD SWAP1 DUP2 ADD PUSH1 0x40 MSTORE DUP1 SWAP3 SWAP2 SWAP1 DUP2 DUP2 MSTORE PUSH1 0x20 ADD DUP3 DUP1 SLOAD PUSH2 0x77F SWAP1 PUSH2 0x1778 JUMP JUMPDEST DUP1 ISZERO PUSH2 0x7CC JUMPI DUP1 PUSH1 0x1F LT PUSH2 0x7A1 JUMPI PUSH2 0x100 DUP1 DUP4 SLOAD DIV MUL DUP4 MSTORE SWAP2 PUSH1 0x20 ADD SWAP2 PUSH2 0x7CC JUMP JUMPDEST DUP3 ADD SWAP2 SWAP1 PUSH1 0x0 MSTORE PUSH1 0x20 PUSH1 0x0 KECCAK256 SWAP1 JUMPDEST DUP2 SLOAD DUP2 MSTORE SWAP1 PUSH1 0x1 ADD SWAP1 PUSH1 0x20 ADD DUP1 DUP4 GT PUSH2 0x7AF JUMPI DUP3 SWAP1 SUB PUSH1 0x1F AND DUP3 ADD SWAP2 JUMPDEST POP POP POP POP POP SWAP1 POP SWAP1 JUMP JUMPDEST PUSH2 0x3E8 DUP2 JUMP JUMPDEST PUSH2 0x7E4 PUSH2 0xB38 JUMP JUMPDEST ISZERO PUSH2 0x824 JUMPI PUSH1 0x40 MLOAD PUSH32 0x8C379A000000000000000000000000000000000000000000000000000000000 DUP2 MSTORE PUSH1 0x4 ADD PUSH2 0x81B SWAP1 PUSH2 0x13CE JUMP JUMPDEST PUSH1 0x40 MLOAD DUP1 SWAP2 SUB SWAP1 REVERT JUMPDEST DUP1 PUSH1 0x1 SWAP1 DUP2 PUSH2 0x833 SWAP2 SWAP1 PUSH2 0x1955 JUMP JUMPDEST POP POP JUMP JUMPDEST PUSH1 0x0 ISZERO ISZERO PUSH1 0x3 PUSH1 0x0 SWAP1 SLOAD SWAP1 PUSH2 0x100 EXP SWAP1 DIV PUSH1 0xFF AND ISZERO ISZERO EQ PUSH2 0x88D JUMPI PUSH1 0x40 MLOAD PUSH32 0x8C379A000000000000000000000000000000000000000000000000000000000 DUP2 MSTORE PUSH1 0x4 ADD PUSH2 0x884 SWAP1 PUSH2 0x1689 JUMP JUMPDEST PUSH1 0x40 MLOAD DUP1 SWAP2 SUB SWAP1 REVERT JUMPDEST PUSH1 0x0 CALLVALUE SWAP1 POP PUSH1 0x0 DUP2 GT PUSH2 0x8D5 JUMPI PUSH1 0x40 MLOAD PUSH32 0x8C379A000000000000000000000000000000000000000000000000000000000 DUP2 MSTORE PUSH1 0x4 ADD PUSH2 0x8CC SWAP1 PUSH2 0x1A73 JUMP JUMPDEST PUSH1 0x40 MLOAD DUP1 SWAP2 SUB SWAP1 REVERT JUMPDEST PUSH32 0x0 PUSH2 0x8FE PUSH2 0x6B2 JUMP JUMPDEST LT PUSH2 0x93E JUMPI PUSH1 0x40 MLOAD PUSH32 0x8C379A000000000000000000000000000000000000000000000000000000000 DUP2 MSTORE PUSH1 0x4 ADD PUSH2 0x935 SWAP1 PUSH2 0x1B05 JUMP JUMPDEST PUSH1 0x40 MLOAD DUP1 SWAP2 SUB SWAP1 REVERT JUMPDEST PUSH1 0x0 PUSH2 0x949 DUP3 PUSH2 0x62E JUMP JUMPDEST SWAP1 POP DUP1 DUP3 CALLER PUSH20 0xFFFFFFFFFFFFFFFFFFFFFFFFFFFFFFFFFFFFFFFF AND PUSH32 0x3D97AB026A5FDFD38A9E144F940D9E7DDCA4F2638F73F3DCB2CAC8374438139D PUSH1 0x40 MLOAD PUSH1 0x40 MLOAD DUP1 SWAP2 SUB SWAP1 LOG4 PUSH2 0x999 DUP2 PUSH2 0xC4A JUMP JUMPDEST DUP1 DUP3 CALLER PUSH20 0xFFFFFFFFFFFFFFFFFFFFFFFFFFFFFFFFFFFFFFFF AND PUSH32 0x1983D4A8948DE0030F1101B7E335726BEE7BC5F4E6617A16C9722A35D45E80D4 PUSH1 0x40 MLOAD PUSH1 0x40 MLOAD DUP1 SWAP2 SUB SWAP1 LOG4 DUP2 PUSH1 0x2 PUSH1 0x0 DUP3 DUP3 SLOAD PUSH2 0x9F0 SWAP2 SWAP1 PUSH2 0x1B25 JUMP JUMPDEST SWAP3 POP POP DUP2 SWAP1 SSTORE POP PUSH1 0x0 PUSH1 0x1 PUSH8 0xFFFFFFFFFFFFFFFF DUP2 GT ISZERO PUSH2 0xA14 JUMPI PUSH2 0xA13 PUSH2 0x11E8 JUMP JUMPDEST JUMPDEST PUSH1 0x40 MLOAD SWAP1 DUP1 DUP3 MSTORE DUP1 PUSH1 0x20 MUL PUSH1 0x20 ADD DUP3 ADD PUSH1 0x40 MSTORE DUP1 ISZERO PUSH2 0xA4D JUMPI DUP2 PUSH1 0x20 ADD JUMPDEST PUSH2 0xA3A PUSH2 0xF1D JUMP JUMPDEST DUP2 MSTORE PUSH1 0x20 ADD SWAP1 PUSH1 0x1 SWAP1 SUB SWAP1 DUP2 PUSH2 0xA32 JUMPI SWAP1 POP JUMPDEST POP SWAP1 POP PUSH1 0x40 MLOAD DUP1 PUSH1 0x40 ADD PUSH1 0x40 MSTORE DUP1 ADDRESS PUSH20 0xFFFFFFFFFFFFFFFFFFFFFFFFFFFFFFFFFFFFFFFF AND DUP2 MSTORE PUSH1 0x20 ADD DUP4 DUP2 MSTORE POP DUP2 PUSH1 0x0 DUP2 MLOAD DUP2 LT PUSH2 0xA8F JUMPI PUSH2 0xA8E PUSH2 0x1B59 JUMP JUMPDEST JUMPDEST PUSH1 0x20 MUL PUSH1 0x20 ADD ADD DUP2 SWAP1 MSTORE POP PUSH2 0xABF DUP5 ADDRESS CALLER PUSH3 0x186A0 PUSH1 0x0 DUP1 PUSH1 0x0 DUP9 PUSH1 0x40 MLOAD DUP1 PUSH1 0x20 ADD PUSH1 0x40 MSTORE DUP1 PUSH1 0x0 DUP2 MSTORE POP PUSH2 0xE85 JUMP JUMPDEST DUP2 DUP4 CALLER PUSH20 0xFFFFFFFFFFFFFFFFFFFFFFFFFFFFFFFFFFFFFFFF AND PUSH32 0x3FAA518ABD490A442E1E18B02CAFE62F0351DB93D85F67E8D0CBFCCB9258A520 PUSH1 0x40 MLOAD PUSH1 0x40 MLOAD DUP1 SWAP2 SUB SWAP1 LOG4 PUSH8 0x8AC7230489E80000 PUSH1 0x2 SLOAD GT ISZERO PUSH2 0xB32 JUMPI PUSH1 0x1 PUSH1 0x3 PUSH1 0x0 PUSH2 0x100 EXP DUP2 SLOAD DUP2 PUSH1 0xFF MUL NOT AND SWAP1 DUP4 ISZERO ISZERO MUL OR SWAP1 SSTORE POP JUMPDEST POP POP POP POP JUMP JUMPDEST PUSH1 0x0 PUSH1 0x60 PUSH1 0x0 DUP1 PUSH1 0xFF PUSH20 0xFFFFFFFFFFFFFFFFFFFFFFFFFFFFFFFFFFFFFFFF AND DUP4 PUSH1 0x40 MLOAD PUSH2 0xB65 SWAP2 SWAP1 PUSH2 0x1BCF JUMP JUMPDEST PUSH1 0x0 PUSH1 0x40 MLOAD DUP1 DUP4 SUB DUP2 DUP6 GAS STATICCALL SWAP2 POP POP RETURNDATASIZE DUP1 PUSH1 0x0 DUP2 EQ PUSH2 0xBA0 JUMPI PUSH1 0x40 MLOAD SWAP2 POP PUSH1 0x1F NOT PUSH1 0x3F RETURNDATASIZE ADD AND DUP3 ADD PUSH1 0x40 MSTORE RETURNDATASIZE DUP3 MSTORE RETURNDATASIZE PUSH1 0x0 PUSH1 0x20 DUP5 ADD RETURNDATACOPY PUSH2 0xBA5 JUMP JUMPDEST PUSH1 0x60 SWAP2 POP JUMPDEST POP SWAP2 POP SWAP2 POP DUP2 PUSH2 0xBEA JUMPI PUSH1 0x40 MLOAD PUSH32 0x8C379A000000000000000000000000000000000000000000000000000000000 DUP2 MSTORE PUSH1 0x4 ADD PUSH2 0xBE1 SWAP1 PUSH2 0x1C32 JUMP JUMPDEST PUSH1 0x40 MLOAD DUP1 SWAP2 SUB SWAP1 REVERT JUMPDEST PUSH1 0x0 DUP2 MLOAD GT PUSH2 0xC2E JUMPI PUSH1 0x40 MLOAD PUSH32 0x8C379A000000000000000000000000000000000000000000000000000000000 DUP2 MSTORE PUSH1 0x4 ADD PUSH2 0xC25 SWAP1 PUSH2 0x1CC4 JUMP JUMPDEST PUSH1 0x40 MLOAD DUP1 SWAP2 SUB SWAP1 REVERT JUMPDEST DUP1 DUP1 PUSH1 0x20 ADD SWAP1 MLOAD DUP2 ADD SWAP1 PUSH2 0xC42 SWAP2 SWAP1 PUSH2 0x1D10 JUMP JUMPDEST SWAP4 POP POP POP POP SWAP1 JUMP JUMPDEST PUSH1 0x0 PUSH1 0xD0 PUSH20 0xFFFFFFFFFFFFFFFFFFFFFFFFFFFFFFFFFFFFFFFF AND PUSH4 0xF4C261B5 DUP4 PUSH1 0x40 MLOAD DUP3 PUSH4 0xFFFFFFFF AND PUSH1 0xE0 SHL DUP2 MSTORE PUSH1 0x4 ADD PUSH2 0xC86 SWAP2 SWAP1 PUSH2 0xFF3 JUMP JUMPDEST PUSH1 0x20 PUSH1 0x40 MLOAD DUP1 DUP4 SUB DUP2 PUSH1 0x0 DUP8 GAS CALL ISZERO DUP1 ISZERO PUSH2 0xCA5 JUMPI RETURNDATASIZE PUSH1 0x0 DUP1 RETURNDATACOPY RETURNDATASIZE PUSH1 0x0 REVERT JUMPDEST POP POP POP POP PUSH1 0x40 MLOAD RETURNDATASIZE PUSH1 0x1F NOT PUSH1 0x1F DUP3 ADD AND DUP3 ADD DUP1 PUSH1 0x40 MSTORE POP DUP2 ADD SWAP1 PUSH2 0xCC9 SWAP2 SWAP1 PUSH2 0x1D10 JUMP JUMPDEST SWAP1 POP DUP1 PUSH2 0xD0B JUMPI PUSH1 0x40 MLOAD PUSH32 0x8C379A000000000000000000000000000000000000000000000000000000000 DUP2 MSTORE PUSH1 0x4 ADD PUSH2 0xD02 SWAP1 PUSH2 0x1D89 JUMP JUMPDEST PUSH1 0x40 MLOAD DUP1 SWAP2 SUB SWAP1 REVERT JUMPDEST DUP2 PUSH1 0x0 DUP1 DUP3 DUP3 SLOAD PUSH2 0xD1C SWAP2 SWAP1 PUSH2 0x1B25 JUMP JUMPDEST SWAP3 POP POP DUP2 SWAP1 SSTORE POP POP POP JUMP JUMPDEST POP JUMP JUMPDEST PUSH1 0x60 PUSH2 0xD3D DUP10 DUP10 DUP10 DUP10 DUP10 DUP10 DUP10 DUP9 DUP11 PUSH2 0xE85 JUMP JUMPDEST POP POP POP POP POP POP POP POP POP JUMP JUMPDEST PUSH1 0x0 PUSH1 0xD1 PUSH20 0xFFFFFFFFFFFFFFFFFFFFFFFFFFFFFFFFFFFFFFFF AND PUSH4 0x3A1735FC DUP4 DUP6 PUSH1 0x40 MLOAD DUP4 PUSH4 0xFFFFFFFF AND PUSH1 0xE0 SHL DUP2 MSTORE PUSH1 0x4 ADD PUSH2 0xD86 SWAP3 SWAP2 SWAP1 PUSH2 0x1DB8 JUMP JUMPDEST PUSH1 0x20 PUSH1 0x40 MLOAD DUP1 DUP4 SUB DUP2 DUP7 GAS STATICCALL ISZERO DUP1 ISZERO PUSH2 0xDA3 JUMPI RETURNDATASIZE PUSH1 0x0 DUP1 RETURNDATACOPY RETURNDATASIZE PUSH1 0x0 REVERT JUMPDEST POP POP POP POP PUSH1 0x40 MLOAD RETURNDATASIZE PUSH1 0x1F NOT PUSH1 0x1F DUP3 ADD AND DUP3 ADD DUP1 PUSH1 0x40 MSTORE POP DUP2 ADD SWAP1 PUSH2 0xDC7 SWAP2 SWAP1 PUSH2 0x1DF6 JUMP JUMPDEST SWAP1 POP SWAP3 SWAP2 POP POP JUMP JUMPDEST PUSH1 0x0 PUSH1 0x1 PUSH8 0xFFFFFFFFFFFFFFFF DUP2 GT ISZERO PUSH2 0xDEC JUMPI PUSH2 0xDEB PUSH2 0x11E8 JUMP JUMPDEST JUMPDEST PUSH1 0x40 MLOAD SWAP1 DUP1 DUP3 MSTORE DUP1 PUSH1 0x20 MUL PUSH1 0x20 ADD DUP3 ADD PUSH1 0x40 MSTORE DUP1 ISZERO PUSH2 0xE25 JUMPI DUP2 PUSH1 0x20 ADD JUMPDEST PUSH2 0xE12 PUSH2 0xF1D JUMP JUMPDEST DUP2 MSTORE PUSH1 0x20 ADD SWAP1 PUSH1 0x1 SWAP1 SUB SWAP1 DUP2 PUSH2 0xE0A JUMPI SWAP1 POP JUMPDEST POP SWAP1 POP PUSH1 0x40 MLOAD DUP1 PUSH1 0x40 ADD PUSH1 0x40 MSTORE DUP1 DUP5 DUP2 MSTORE PUSH1 0x20 ADD DUP4 DUP2 MSTORE POP DUP2 PUSH1 0x0 DUP2 MLOAD DUP2 LT PUSH2 0xE51 JUMPI PUSH2 0xE50 PUSH2 0x1B59 JUMP JUMPDEST JUMPDEST PUSH1 0x20 MUL PUSH1 0x20 ADD ADD DUP2 SWAP1 MSTORE POP PUSH2 0xE7F DUP5 PUSH1 0x0 DUP1 PUSH1 0x0 DUP1 PUSH1 0x0 DUP1 DUP9 PUSH1 0x40 MLOAD DUP1 PUSH1 0x20 ADD PUSH1 0x40 MSTORE DUP1 PUSH1 0x0 DUP2 MSTORE POP PUSH2 0xE85 JUMP JUMPDEST POP POP POP POP JUMP JUMPDEST PUSH1 0xFD PUSH20 0xFFFFFFFFFFFFFFFFFFFFFFFFFFFFFFFFFFFFFFFF AND PUSH4 0xF1D1CF1C DUP5 DUP7 DUP9 DUP14 DUP14 DUP14 DUP14 DUP11 DUP11 PUSH1 0x40 MLOAD DUP11 PUSH4 0xFFFFFFFF AND PUSH1 0xE0 SHL DUP2 MSTORE PUSH1 0x4 ADD PUSH2 0xECE SWAP9 SWAP8 SWAP7 SWAP6 SWAP5 SWAP4 SWAP3 SWAP2 SWAP1 PUSH2 0x1F76 JUMP JUMPDEST PUSH1 0x20 PUSH1 0x40 MLOAD DUP1 DUP4 SUB DUP2 DUP6 DUP9 GAS CALL ISZERO DUP1 ISZERO PUSH2 0xEEC JUMPI RETURNDATASIZE PUSH1 0x0 DUP1 RETURNDATACOPY RETURNDATASIZE PUSH1 0x0 REVERT JUMPDEST POP POP POP POP POP PUSH1 0x40 MLOAD RETURNDATASIZE PUSH1 0x1F NOT PUSH1 0x1F DUP3 ADD AND DUP3 ADD DUP1 PUSH1 0x40 MSTORE POP DUP2 ADD SWAP1 PUSH2 0xF11 SWAP2 SWAP1 PUSH2 0x1D10 JUMP JUMPDEST POP POP POP POP POP POP POP POP POP POP JUMP JUMPDEST PUSH1 0x40 MLOAD DUP1 PUSH1 0x40 ADD PUSH1 0x40 MSTORE DUP1 PUSH1 0x0 DUP2 MSTORE PUSH1 0x20 ADD PUSH1 0x0 DUP2 MSTORE POP SWAP1 JUMP JUMPDEST PUSH1 0x0 DUP2 ISZERO ISZERO SWAP1 POP SWAP2 SWAP1 POP JUMP JUMPDEST PUSH2 0xF4C DUP2 PUSH2 0xF37 JUMP JUMPDEST DUP3 MSTORE POP POP JUMP JUMPDEST PUSH1 0x0 PUSH1 0x20 DUP3 ADD SWAP1 POP PUSH2 0xF67 PUSH1 0x0 DUP4 ADD DUP5 PUSH2 0xF43 JUMP JUMPDEST SWAP3 SWAP2 POP POP JUMP JUMPDEST PUSH1 0x0 PUSH1 0x40 MLOAD SWAP1 POP SWAP1 JUMP JUMPDEST PUSH1 0x0 DUP1 REVERT JUMPDEST PUSH1 0x0 DUP1 REVERT JUMPDEST PUSH1 0x0 DUP2 SWAP1 POP SWAP2 SWAP1 POP JUMP JUMPDEST PUSH2 0xF94 DUP2 PUSH2 0xF81 JUMP JUMPDEST DUP2 EQ PUSH2 0xF9F JUMPI PUSH1 0x0 DUP1 REVERT JUMPDEST POP JUMP JUMPDEST PUSH1 0x0 DUP2 CALLDATALOAD SWAP1 POP PUSH2 0xFB1 DUP2 PUSH2 0xF8B JUMP JUMPDEST SWAP3 SWAP2 POP POP JUMP JUMPDEST PUSH1 0x0 PUSH1 0x20 DUP3 DUP5 SUB SLT ISZERO PUSH2 0xFCD JUMPI PUSH2 0xFCC PUSH2 0xF77 JUMP JUMPDEST JUMPDEST PUSH1 0x0 PUSH2 0xFDB DUP5 DUP3 DUP6 ADD PUSH2 0xFA2 JUMP JUMPDEST SWAP2 POP POP SWAP3 SWAP2 POP POP JUMP JUMPDEST PUSH2 0xFED DUP2 PUSH2 0xF81 JUMP JUMPDEST DUP3 MSTORE POP POP JUMP JUMPDEST PUSH1 0x0 PUSH1 0x20 DUP3 ADD SWAP1 POP PUSH2 0x1008 PUSH1 0x0 DUP4 ADD DUP5 PUSH2 0xFE4 JUMP JUMPDEST SWAP3 SWAP2 POP POP JUMP JUMPDEST PUSH1 0x0 PUSH20 0xFFFFFFFFFFFFFFFFFFFFFFFFFFFFFFFFFFFFFFFF DUP3 AND SWAP1 POP SWAP2 SWAP1 POP JUMP JUMPDEST PUSH1 0x0 PUSH2 0x1039 DUP3 PUSH2 0x100E JUMP JUMPDEST SWAP1 POP SWAP2 SWAP1 POP JUMP JUMPDEST PUSH2 0x1049 DUP2 PUSH2 0x102E JUMP JUMPDEST DUP2 EQ PUSH2 0x1054 JUMPI PUSH1 0x0 DUP1 REVERT JUMPDEST POP JUMP JUMPDEST PUSH1 0x0 DUP2 CALLDATALOAD SWAP1 POP PUSH2 0x1066 DUP2 PUSH2 0x1040 JUMP JUMPDEST SWAP3 SWAP2 POP POP JUMP JUMPDEST PUSH1 0x0 DUP1 PUSH1 0x40 DUP4 DUP6 SUB SLT ISZERO PUSH2 0x1083 JUMPI PUSH2 0x1082 PUSH2 0xF77 JUMP JUMPDEST JUMPDEST PUSH1 0x0 PUSH2 0x1091 DUP6 DUP3 DUP7 ADD PUSH2 0xFA2 JUMP JUMPDEST SWAP3 POP POP PUSH1 0x20 PUSH2 0x10A2 DUP6 DUP3 DUP7 ADD PUSH2 0x1057 JUMP JUMPDEST SWAP2 POP POP SWAP3 POP SWAP3 SWAP1 POP JUMP JUMPDEST PUSH1 0x0 PUSH1 0x20 DUP3 DUP5 SUB SLT ISZERO PUSH2 0x10C2 JUMPI PUSH2 0x10C1 PUSH2 0xF77 JUMP JUMPDEST JUMPDEST PUSH1 0x0 PUSH2 0x10D0 DUP5 DUP3 DUP6 ADD PUSH2 0x1057 JUMP JUMPDEST SWAP2 POP POP SWAP3 SWAP2 POP POP JUMP JUMPDEST PUSH1 0x0 DUP1 PUSH1 0x0 PUSH1 0x60 DUP5 DUP7 SUB SLT ISZERO PUSH2 0x10F2 JUMPI PUSH2 0x10F1 PUSH2 0xF77 JUMP JUMPDEST JUMPDEST PUSH1 0x0 PUSH2 0x1100 DUP7 DUP3 DUP8 ADD PUSH2 0x1057 JUMP JUMPDEST SWAP4 POP POP PUSH1 0x20 PUSH2 0x1111 DUP7 DUP3 DUP8 ADD PUSH2 0xFA2 JUMP JUMPDEST SWAP3 POP POP PUSH1 0x40 PUSH2 0x1122 DUP7 DUP3 DUP8 ADD PUSH2 0xFA2 JUMP JUMPDEST SWAP2 POP POP SWAP3 POP SWAP3 POP SWAP3 JUMP JUMPDEST PUSH1 0x0 DUP2 MLOAD SWAP1 POP SWAP2 SWAP1 POP JUMP JUMPDEST PUSH1 0x0 DUP3 DUP3 MSTORE PUSH1 0x20 DUP3 ADD SWAP1 POP SWAP3 SWAP2 POP POP JUMP JUMPDEST PUSH1 0x0 JUMPDEST DUP4 DUP2 LT ISZERO PUSH2 0x1166 JUMPI DUP1 DUP3 ADD MLOAD DUP2 DUP5 ADD MSTORE PUSH1 0x20 DUP2 ADD SWAP1 POP PUSH2 0x114B JUMP JUMPDEST PUSH1 0x0 DUP5 DUP5 ADD MSTORE POP POP POP POP JUMP JUMPDEST PUSH1 0x0 PUSH1 0x1F NOT PUSH1 0x1F DUP4 ADD AND SWAP1 POP SWAP2 SWAP1 POP JUMP JUMPDEST PUSH1 0x0 PUSH2 0x118E DUP3 PUSH2 0x112C JUMP JUMPDEST PUSH2 0x1198 DUP2 DUP6 PUSH2 0x1137 JUMP JUMPDEST SWAP4 POP PUSH2 0x11A8 DUP2 DUP6 PUSH1 0x20 DUP7 ADD PUSH2 0x1148 JUMP JUMPDEST PUSH2 0x11B1 DUP2 PUSH2 0x1172 JUMP JUMPDEST DUP5 ADD SWAP2 POP POP SWAP3 SWAP2 POP POP JUMP JUMPDEST PUSH1 0x0 PUSH1 0x20 DUP3 ADD SWAP1 POP DUP2 DUP2 SUB PUSH1 0x0 DUP4 ADD MSTORE PUSH2 0x11D6 DUP2 DUP5 PUSH2 0x1183 JUMP JUMPDEST SWAP1 POP SWAP3 SWAP2 POP POP JUMP JUMPDEST PUSH1 0x0 DUP1 REVERT JUMPDEST PUSH1 0x0 DUP1 REVERT JUMPDEST PUSH32 0x4E487B7100000000000000000000000000000000000000000000000000000000 PUSH1 0x0 MSTORE PUSH1 0x41 PUSH1 0x4 MSTORE PUSH1 0x24 PUSH1 0x0 REVERT JUMPDEST PUSH2 0x1220 DUP3 PUSH2 0x1172 JUMP JUMPDEST DUP2 ADD DUP2 DUP2 LT PUSH8 0xFFFFFFFFFFFFFFFF DUP3 GT OR ISZERO PUSH2 0x123F JUMPI PUSH2 0x123E PUSH2 0x11E8 JUMP JUMPDEST JUMPDEST DUP1 PUSH1 0x40 MSTORE POP POP POP JUMP JUMPDEST PUSH1 0x0 PUSH2 0x1252 PUSH2 0xF6D JUMP JUMPDEST SWAP1 POP PUSH2 0x125E DUP3 DUP3 PUSH2 0x1217 JUMP JUMPDEST SWAP2 SWAP1 POP JUMP JUMPDEST PUSH1 0x0 PUSH8 0xFFFFFFFFFFFFFFFF DUP3 GT ISZERO PUSH2 0x127E JUMPI PUSH2 0x127D PUSH2 0x11E8 JUMP JUMPDEST JUMPDEST PUSH2 0x1287 DUP3 PUSH2 0x1172 JUMP JUMPDEST SWAP1 POP PUSH1 0x20 DUP2 ADD SWAP1 POP SWAP2 SWAP1 POP JUMP JUMPDEST DUP3 DUP2 DUP4 CALLDATACOPY PUSH1 0x0 DUP4 DUP4 ADD MSTORE POP POP POP JUMP JUMPDEST PUSH1 0x0 PUSH2 0x12B6 PUSH2 0x12B1 DUP5 PUSH2 0x1263 JUMP JUMPDEST PUSH2 0x1248 JUMP JUMPDEST SWAP1 POP DUP3 DUP2 MSTORE PUSH1 0x20 DUP2 ADD DUP5 DUP5 DUP5 ADD GT ISZERO PUSH2 0x12D2 JUMPI PUSH2 0x12D1 PUSH2 0x11E3 JUMP JUMPDEST JUMPDEST PUSH2 0x12DD DUP5 DUP3 DUP6 PUSH2 0x1294 JUMP JUMPDEST POP SWAP4 SWAP3 POP POP POP JUMP JUMPDEST PUSH1 0x0 DUP3 PUSH1 0x1F DUP4 ADD SLT PUSH2 0x12FA JUMPI PUSH2 0x12F9 PUSH2 0x11DE JUMP JUMPDEST JUMPDEST DUP2 CALLDATALOAD PUSH2 0x130A DUP5 DUP3 PUSH1 0x20 DUP7 ADD PUSH2 0x12A3 JUMP JUMPDEST SWAP2 POP POP SWAP3 SWAP2 POP POP JUMP JUMPDEST PUSH1 0x0 PUSH1 0x20 DUP3 DUP5 SUB SLT ISZERO PUSH2 0x1329 JUMPI PUSH2 0x1328 PUSH2 0xF77 JUMP JUMPDEST JUMPDEST PUSH1 0x0 DUP3 ADD CALLDATALOAD PUSH8 0xFFFFFFFFFFFFFFFF DUP2 GT ISZERO PUSH2 0x1347 JUMPI PUSH2 0x1346 PUSH2 0xF7C JUMP JUMPDEST JUMPDEST PUSH2 0x1353 DUP5 DUP3 DUP6 ADD PUSH2 0x12E5 JUMP JUMPDEST SWAP2 POP POP SWAP3 SWAP2 POP POP JUMP JUMPDEST PUSH32 0x547279696E6720746F2063616C6C2065787465726E616C2066756E6374696F6E PUSH1 0x0 DUP3 ADD MSTORE PUSH32 0x207769746820696E7465726E616C206D65737361676500000000000000000000 PUSH1 0x20 DUP3 ADD MSTORE POP JUMP JUMPDEST PUSH1 0x0 PUSH2 0x13B8 PUSH1 0x36 DUP4 PUSH2 0x1137 JUMP JUMPDEST SWAP2 POP PUSH2 0x13C3 DUP3 PUSH2 0x135C JUMP JUMPDEST PUSH1 0x40 DUP3 ADD SWAP1 POP SWAP2 SWAP1 POP JUMP JUMPDEST PUSH1 0x0 PUSH1 0x20 DUP3 ADD SWAP1 POP DUP2 DUP2 SUB PUSH1 0x0 DUP4 ADD MSTORE PUSH2 0x13E7 DUP2 PUSH2 0x13AB JUMP JUMPDEST SWAP1 POP SWAP2 SWAP1 POP JUMP JUMPDEST PUSH32 0x4E487B7100000000000000000000000000000000000000000000000000000000 PUSH1 0x0 MSTORE PUSH1 0x11 PUSH1 0x4 MSTORE PUSH1 0x24 PUSH1 0x0 REVERT JUMPDEST PUSH1 0x0 DUP2 PUSH1 0x1 SHR SWAP1 POP SWAP2 SWAP1 POP JUMP JUMPDEST PUSH1 0x0 DUP1 DUP3 SWAP2 POP DUP4 SWAP1 POP JUMPDEST PUSH1 0x1 DUP6 GT ISZERO PUSH2 0x1474 JUMPI DUP1 DUP7 DIV DUP2 GT ISZERO PUSH2 0x1450 JUMPI PUSH2 0x144F PUSH2 0x13EE JUMP JUMPDEST JUMPDEST PUSH1 0x1 DUP6 AND ISZERO PUSH2 0x145F JUMPI DUP1 DUP3 MUL SWAP2 POP JUMPDEST DUP1 DUP2 MUL SWAP1 POP PUSH2 0x146D DUP6 PUSH2 0x141D JUMP JUMPDEST SWAP5 POP PUSH2 0x1434 JUMP JUMPDEST SWAP5 POP SWAP5 SWAP3 POP POP POP JUMP JUMPDEST PUSH1 0x0 DUP3 PUSH2 0x148D JUMPI PUSH1 0x1 SWAP1 POP PUSH2 0x1549 JUMP JUMPDEST DUP2 PUSH2 0x149B JUMPI PUSH1 0x0 SWAP1 POP PUSH2 0x1549 JUMP JUMPDEST DUP2 PUSH1 0x1 DUP2 EQ PUSH2 0x14B1 JUMPI PUSH1 0x2 DUP2 EQ PUSH2 0x14BB JUMPI PUSH2 0x14EA JUMP JUMPDEST PUSH1 0x1 SWAP2 POP POP PUSH2 0x1549 JUMP JUMPDEST PUSH1 0xFF DUP5 GT ISZERO PUSH2 0x14CD JUMPI PUSH2 0x14CC PUSH2 0x13EE JUMP JUMPDEST JUMPDEST DUP4 PUSH1 0x2 EXP SWAP2 POP DUP5 DUP3 GT ISZERO PUSH2 0x14E4 JUMPI PUSH2 0x14E3 PUSH2 0x13EE JUMP JUMPDEST JUMPDEST POP PUSH2 0x1549 JUMP JUMPDEST POP PUSH1 0x20 DUP4 LT PUSH2 0x133 DUP4 LT AND PUSH1 0x4E DUP5 LT PUSH1 0xB DUP5 LT AND OR ISZERO PUSH2 0x151F JUMPI DUP3 DUP3 EXP SWAP1 POP DUP4 DUP2 GT ISZERO PUSH2 0x151A JUMPI PUSH2 0x1519 PUSH2 0x13EE JUMP JUMPDEST JUMPDEST PUSH2 0x1549 JUMP JUMPDEST PUSH2 0x152C DUP5 DUP5 DUP5 PUSH1 0x1 PUSH2 0x142A JUMP JUMPDEST SWAP3 POP SWAP1 POP DUP2 DUP5 DIV DUP2 GT ISZERO PUSH2 0x1543 JUMPI PUSH2 0x1542 PUSH2 0x13EE JUMP JUMPDEST JUMPDEST DUP2 DUP2 MUL SWAP1 POP JUMPDEST SWAP4 SWAP3 POP POP POP JUMP JUMPDEST PUSH1 0x0 PUSH2 0x155B DUP3 PUSH2 0xF81 JUMP JUMPDEST SWAP2 POP PUSH2 0x1566 DUP4 PUSH2 0xF81 JUMP JUMPDEST SWAP3 POP PUSH2 0x1593 PUSH32 0xFFFFFFFFFFFFFFFFFFFFFFFFFFFFFFFFFFFFFFFFFFFFFFFFFFFFFFFFFFFFFFFF DUP5 DUP5 PUSH2 0x147D JUMP JUMPDEST SWAP1 POP SWAP3 SWAP2 POP POP JUMP JUMPDEST PUSH1 0x0 PUSH2 0x15A6 DUP3 PUSH2 0xF81 JUMP JUMPDEST SWAP2 POP PUSH2 0x15B1 DUP4 PUSH2 0xF81 JUMP JUMPDEST SWAP3 POP DUP3 DUP3 MUL PUSH2 0x15BF DUP2 PUSH2 0xF81 JUMP JUMPDEST SWAP2 POP DUP3 DUP3 DIV DUP5 EQ DUP4 ISZERO OR PUSH2 0x15D6 JUMPI PUSH2 0x15D5 PUSH2 0x13EE JUMP JUMPDEST JUMPDEST POP SWAP3 SWAP2 POP POP JUMP JUMPDEST PUSH32 0x4E487B7100000000000000000000000000000000000000000000000000000000 PUSH1 0x0 MSTORE PUSH1 0x12 PUSH1 0x4 MSTORE PUSH1 0x24 PUSH1 0x0 REVERT JUMPDEST PUSH1 0x0 PUSH2 0x1617 DUP3 PUSH2 0xF81 JUMP JUMPDEST SWAP2 POP PUSH2 0x1622 DUP4 PUSH2 0xF81 JUMP JUMPDEST SWAP3 POP DUP3 PUSH2 0x1632 JUMPI PUSH2 0x1631 PUSH2 0x15DD JUMP JUMPDEST JUMPDEST DUP3 DUP3 DIV SWAP1 POP SWAP3 SWAP2 POP POP JUMP JUMPDEST PUSH32 0x627579696E6720616E642073656C6C696E6720697320636C6F73656400000000 PUSH1 0x0 DUP3 ADD MSTORE POP JUMP JUMPDEST PUSH1 0x0 PUSH2 0x1673 PUSH1 0x1C DUP4 PUSH2 0x1137 JUMP JUMPDEST SWAP2 POP PUSH2 0x167E DUP3 PUSH2 0x163D JUMP JUMPDEST PUSH1 0x20 DUP3 ADD SWAP1 POP SWAP2 SWAP1 POP JUMP JUMPDEST PUSH1 0x0 PUSH1 0x20 DUP3 ADD SWAP1 POP DUP2 DUP2 SUB PUSH1 0x0 DUP4 ADD MSTORE PUSH2 0x16A2 DUP2 PUSH2 0x1666 JUMP JUMPDEST SWAP1 POP SWAP2 SWAP1 POP JUMP JUMPDEST PUSH32 0x496E73756666696369656E742062616C616E6365000000000000000000000000 PUSH1 0x0 DUP3 ADD MSTORE POP JUMP JUMPDEST PUSH1 0x0 PUSH2 0x16DF PUSH1 0x14 DUP4 PUSH2 0x1137 JUMP JUMPDEST SWAP2 POP PUSH2 0x16EA DUP3 PUSH2 0x16A9 JUMP JUMPDEST PUSH1 0x20 DUP3 ADD SWAP1 POP SWAP2 SWAP1 POP JUMP JUMPDEST PUSH1 0x0 PUSH1 0x20 DUP3 ADD SWAP1 POP DUP2 DUP2 SUB PUSH1 0x0 DUP4 ADD MSTORE PUSH2 0x170E DUP2 PUSH2 0x16D2 JUMP JUMPDEST SWAP1 POP SWAP2 SWAP1 POP JUMP JUMPDEST PUSH1 0x0 PUSH2 0x1720 DUP3 PUSH2 0xF81 JUMP JUMPDEST SWAP2 POP PUSH2 0x172B DUP4 PUSH2 0xF81 JUMP JUMPDEST SWAP3 POP DUP3 DUP3 SUB SWAP1 POP DUP2 DUP2 GT ISZERO PUSH2 0x1743 JUMPI PUSH2 0x1742 PUSH2 0x13EE JUMP JUMPDEST JUMPDEST SWAP3 SWAP2 POP POP JUMP JUMPDEST PUSH32 0x4E487B7100000000000000000000000000000000000000000000000000000000 PUSH1 0x0 MSTORE PUSH1 0x22 PUSH1 0x4 MSTORE PUSH1 0x24 PUSH1 0x0 REVERT JUMPDEST PUSH1 0x0 PUSH1 0x2 DUP3 DIV SWAP1 POP PUSH1 0x1 DUP3 AND DUP1 PUSH2 0x1790 JUMPI PUSH1 0x7F DUP3 AND SWAP2 POP JUMPDEST PUSH1 0x20 DUP3 LT DUP2 SUB PUSH2 0x17A3 JUMPI PUSH2 0x17A2 PUSH2 0x1749 JUMP JUMPDEST JUMPDEST POP SWAP2 SWAP1 POP JUMP JUMPDEST PUSH1 0x0 DUP2 SWAP1 POP DUP2 PUSH1 0x0 MSTORE PUSH1 0x20 PUSH1 0x0 KECCAK256 SWAP1 POP SWAP2 SWAP1 POP JUMP JUMPDEST PUSH1 0x0 PUSH1 0x20 PUSH1 0x1F DUP4 ADD DIV SWAP1 POP SWAP2 SWAP1 POP JUMP JUMPDEST PUSH1 0x0 DUP3 DUP3 SHL SWAP1 POP SWAP3 SWAP2 POP POP JUMP JUMPDEST PUSH1 0x0 PUSH1 0x8 DUP4 MUL PUSH2 0x180B PUSH32 0xFFFFFFFFFFFFFFFFFFFFFFFFFFFFFFFFFFFFFFFFFFFFFFFFFFFFFFFFFFFFFFFF DUP3 PUSH2 0x17CE JUMP JUMPDEST PUSH2 0x1815 DUP7 DUP4 PUSH2 0x17CE JUMP JUMPDEST SWAP6 POP DUP1 NOT DUP5 AND SWAP4 POP DUP1 DUP7 AND DUP5 OR SWAP3 POP POP POP SWAP4 SWAP3 POP POP POP JUMP JUMPDEST PUSH1 0x0 DUP2 SWAP1 POP SWAP2 SWAP1 POP JUMP JUMPDEST PUSH1 0x0 PUSH2 0x1852 PUSH2 0x184D PUSH2 0x1848 DUP5 PUSH2 0xF81 JUMP JUMPDEST PUSH2 0x182D JUMP JUMPDEST PUSH2 0xF81 JUMP JUMPDEST SWAP1 POP SWAP2 SWAP1 POP JUMP JUMPDEST PUSH1 0x0 DUP2 SWAP1 POP SWAP2 SWAP1 POP JUMP JUMPDEST PUSH2 0x186C DUP4 PUSH2 0x1837 JUMP JUMPDEST PUSH2 0x1880 PUSH2 0x1878 DUP3 PUSH2 0x1859 JUMP JUMPDEST DUP5 DUP5 SLOAD PUSH2 0x17DB JUMP JUMPDEST DUP3 SSTORE POP POP POP POP JUMP JUMPDEST PUSH1 0x0 SWAP1 JUMP JUMPDEST PUSH2 0x1895 PUSH2 0x1888 JUMP JUMPDEST PUSH2 0x18A0 DUP2 DUP5 DUP5 PUSH2 0x1863 JUMP JUMPDEST POP POP POP JUMP JUMPDEST JUMPDEST DUP2 DUP2 LT ISZERO PUSH2 0x18C4 JUMPI PUSH2 0x18B9 PUSH1 0x0 DUP3 PUSH2 0x188D JUMP JUMPDEST PUSH1 0x1 DUP2 ADD SWAP1 POP PUSH2 0x18A6 JUMP JUMPDEST POP POP JUMP JUMPDEST PUSH1 0x1F DUP3 GT ISZERO PUSH2 0x1909 JUMPI PUSH2 0x18DA DUP2 PUSH2 0x17A9 JUMP JUMPDEST PUSH2 0x18E3 DUP5 PUSH2 0x17BE JUMP JUMPDEST DUP2 ADD PUSH1 0x20 DUP6 LT ISZERO PUSH2 0x18F2 JUMPI DUP2 SWAP1 POP JUMPDEST PUSH2 0x1906 PUSH2 0x18FE DUP6 PUSH2 0x17BE JUMP JUMPDEST DUP4 ADD DUP3 PUSH2 0x18A5 JUMP JUMPDEST POP POP JUMPDEST POP POP POP JUMP JUMPDEST PUSH1 0x0 DUP3 DUP3 SHR SWAP1 POP SWAP3 SWAP2 POP POP JUMP JUMPDEST PUSH1 0x0 PUSH2 0x192C PUSH1 0x0 NOT DUP5 PUSH1 0x8 MUL PUSH2 0x190E JUMP JUMPDEST NOT DUP1 DUP4 AND SWAP2 POP POP SWAP3 SWAP2 POP POP JUMP JUMPDEST PUSH1 0x0 PUSH2 0x1945 DUP4 DUP4 PUSH2 0x191B JUMP JUMPDEST SWAP2 POP DUP3 PUSH1 0x2 MUL DUP3 OR SWAP1 POP SWAP3 SWAP2 POP POP JUMP JUMPDEST PUSH2 0x195E DUP3 PUSH2 0x112C JUMP JUMPDEST PUSH8 0xFFFFFFFFFFFFFFFF DUP2 GT ISZERO PUSH2 0x1977 JUMPI PUSH2 0x1976 PUSH2 0x11E8 JUMP JUMPDEST JUMPDEST PUSH2 0x1981 DUP3 SLOAD PUSH2 0x1778 JUMP JUMPDEST PUSH2 0x198C DUP3 DUP3 DUP6 PUSH2 0x18C8 JUMP JUMPDEST PUSH1 0x0 PUSH1 0x20 SWAP1 POP PUSH1 0x1F DUP4 GT PUSH1 0x1 DUP2 EQ PUSH2 0x19BF JUMPI PUSH1 0x0 DUP5 ISZERO PUSH2 0x19AD JUMPI DUP3 DUP8 ADD MLOAD SWAP1 POP JUMPDEST PUSH2 0x19B7 DUP6 DUP3 PUSH2 0x1939 JUMP JUMPDEST DUP7 SSTORE POP PUSH2 0x1A1F JUMP JUMPDEST PUSH1 0x1F NOT DUP5 AND PUSH2 0x19CD DUP7 PUSH2 0x17A9 JUMP JUMPDEST PUSH1 0x0 JUMPDEST DUP3 DUP2 LT ISZERO PUSH2 0x19F5 JUMPI DUP5 DUP10 ADD MLOAD DUP3 SSTORE PUSH1 0x1 DUP3 ADD SWAP2 POP PUSH1 0x20 DUP6 ADD SWAP5 POP PUSH1 0x20 DUP2 ADD SWAP1 POP PUSH2 0x19D0 JUMP JUMPDEST DUP7 DUP4 LT ISZERO PUSH2 0x1A12 JUMPI DUP5 DUP10 ADD MLOAD PUSH2 0x1A0E PUSH1 0x1F DUP10 AND DUP3 PUSH2 0x191B JUMP JUMPDEST DUP4 SSTORE POP JUMPDEST PUSH1 0x1 PUSH1 0x2 DUP9 MUL ADD DUP9 SSTORE POP POP POP JUMPDEST POP POP POP POP POP POP JUMP JUMPDEST PUSH32 0x456D707479206465706F73697400000000000000000000000000000000000000 PUSH1 0x0 DUP3 ADD MSTORE POP JUMP JUMPDEST PUSH1 0x0 PUSH2 0x1A5D PUSH1 0xD DUP4 PUSH2 0x1137 JUMP JUMPDEST SWAP2 POP PUSH2 0x1A68 DUP3 PUSH2 0x1A27 JUMP JUMPDEST PUSH1 0x20 DUP3 ADD SWAP1 POP SWAP2 SWAP1 POP JUMP JUMPDEST PUSH1 0x0 PUSH1 0x20 DUP3 ADD SWAP1 POP DUP2 DUP2 SUB PUSH1 0x0 DUP4 ADD MSTORE PUSH2 0x1A8C DUP2 PUSH2 0x1A50 JUMP JUMPDEST SWAP1 POP SWAP2 SWAP1 POP JUMP JUMPDEST PUSH32 0x416C6C20746F6B656E65732061726520616C7265616479207075726368617365 PUSH1 0x0 DUP3 ADD MSTORE PUSH32 0x6400000000000000000000000000000000000000000000000000000000000000 PUSH1 0x20 DUP3 ADD MSTORE POP JUMP JUMPDEST PUSH1 0x0 PUSH2 0x1AEF PUSH1 0x21 DUP4 PUSH2 0x1137 JUMP JUMPDEST SWAP2 POP PUSH2 0x1AFA DUP3 PUSH2 0x1A93 JUMP JUMPDEST PUSH1 0x40 DUP3 ADD SWAP1 POP SWAP2 SWAP1 POP JUMP JUMPDEST PUSH1 0x0 PUSH1 0x20 DUP3 ADD SWAP1 POP DUP2 DUP2 SUB PUSH1 0x0 DUP4 ADD MSTORE PUSH2 0x1B1E DUP2 PUSH2 0x1AE2 JUMP JUMPDEST SWAP1 POP SWAP2 SWAP1 POP JUMP JUMPDEST PUSH1 0x0 PUSH2 0x1B30 DUP3 PUSH2 0xF81 JUMP JUMPDEST SWAP2 POP PUSH2 0x1B3B DUP4 PUSH2 0xF81 JUMP JUMPDEST SWAP3 POP DUP3 DUP3 ADD SWAP1 POP DUP1 DUP3 GT ISZERO PUSH2 0x1B53 JUMPI PUSH2 0x1B52 PUSH2 0x13EE JUMP JUMPDEST JUMPDEST SWAP3 SWAP2 POP POP JUMP JUMPDEST PUSH32 0x4E487B7100000000000000000000000000000000000000000000000000000000 PUSH1 0x0 MSTORE PUSH1 0x32 PUSH1 0x4 MSTORE PUSH1 0x24 PUSH1 0x0 REVERT JUMPDEST PUSH1 0x0 DUP2 MLOAD SWAP1 POP SWAP2 SWAP1 POP JUMP JUMPDEST PUSH1 0x0 DUP2 SWAP1 POP SWAP3 SWAP2 POP POP JUMP JUMPDEST PUSH1 0x0 PUSH2 0x1BA9 DUP3 PUSH2 0x1B88 JUMP JUMPDEST PUSH2 0x1BB3 DUP2 DUP6 PUSH2 0x1B93 JUMP JUMPDEST SWAP4 POP PUSH2 0x1BC3 DUP2 DUP6 PUSH1 0x20 DUP7 ADD PUSH2 0x1148 JUMP JUMPDEST DUP1 DUP5 ADD SWAP2 POP POP SWAP3 SWAP2 POP POP JUMP JUMPDEST PUSH1 0x0 PUSH2 0x1BDB DUP3 DUP5 PUSH2 0x1B9E JUMP JUMPDEST SWAP2 POP DUP2 SWAP1 POP SWAP3 SWAP2 POP POP JUMP JUMPDEST PUSH32 0x507265636F6D70696C656420636F6E74726163742063616C6C206661696C6564 PUSH1 0x0 DUP3 ADD MSTORE POP JUMP JUMPDEST PUSH1 0x0 PUSH2 0x1C1C PUSH1 0x20 DUP4 PUSH2 0x1137 JUMP JUMPDEST SWAP2 POP PUSH2 0x1C27 DUP3 PUSH2 0x1BE6 JUMP JUMPDEST PUSH1 0x20 DUP3 ADD SWAP1 POP SWAP2 SWAP1 POP JUMP JUMPDEST PUSH1 0x0 PUSH1 0x20 DUP3 ADD SWAP1 POP DUP2 DUP2 SUB PUSH1 0x0 DUP4 ADD MSTORE PUSH2 0x1C4B DUP2 PUSH2 0x1C0F JUMP JUMPDEST SWAP1 POP SWAP2 SWAP1 POP JUMP JUMPDEST PUSH32 0x2749535F494E5445524E414C5F4D455353414745272072657475726E7320696E PUSH1 0x0 DUP3 ADD MSTORE PUSH32 0x76616C6964206461746100000000000000000000000000000000000000000000 PUSH1 0x20 DUP3 ADD MSTORE POP JUMP JUMPDEST PUSH1 0x0 PUSH2 0x1CAE PUSH1 0x2A DUP4 PUSH2 0x1137 JUMP JUMPDEST SWAP2 POP PUSH2 0x1CB9 DUP3 PUSH2 0x1C52 JUMP JUMPDEST PUSH1 0x40 DUP3 ADD SWAP1 POP SWAP2 SWAP1 POP JUMP JUMPDEST PUSH1 0x0 PUSH1 0x20 DUP3 ADD SWAP1 POP DUP2 DUP2 SUB PUSH1 0x0 DUP4 ADD MSTORE PUSH2 0x1CDD DUP2 PUSH2 0x1CA1 JUMP JUMPDEST SWAP1 POP SWAP2 SWAP1 POP JUMP JUMPDEST PUSH2 0x1CED DUP2 PUSH2 0xF37 JUMP JUMPDEST DUP2 EQ PUSH2 0x1CF8 JUMPI PUSH1 0x0 DUP1 REVERT JUMPDEST POP JUMP JUMPDEST PUSH1 0x0 DUP2 MLOAD SWAP1 POP PUSH2 0x1D0A DUP2 PUSH2 0x1CE4 JUMP JUMPDEST SWAP3 SWAP2 POP POP JUMP JUMPDEST PUSH1 0x0 PUSH1 0x20 DUP3 DUP5 SUB SLT ISZERO PUSH2 0x1D26 JUMPI PUSH2 0x1D25 PUSH2 0xF77 JUMP JUMPDEST JUMPDEST PUSH1 0x0 PUSH2 0x1D34 DUP5 DUP3 DUP6 ADD PUSH2 0x1CFB JUMP JUMPDEST SWAP2 POP POP SWAP3 SWAP2 POP POP JUMP JUMPDEST PUSH32 0x4D696E74206661696C6564000000000000000000000000000000000000000000 PUSH1 0x0 DUP3 ADD MSTORE POP JUMP JUMPDEST PUSH1 0x0 PUSH2 0x1D73 PUSH1 0xB DUP4 PUSH2 0x1137 JUMP JUMPDEST SWAP2 POP PUSH2 0x1D7E DUP3 PUSH2 0x1D3D JUMP JUMPDEST PUSH1 0x20 DUP3 ADD SWAP1 POP SWAP2 SWAP1 POP JUMP JUMPDEST PUSH1 0x0 PUSH1 0x20 DUP3 ADD SWAP1 POP DUP2 DUP2 SUB PUSH1 0x0 DUP4 ADD MSTORE PUSH2 0x1DA2 DUP2 PUSH2 0x1D66 JUMP JUMPDEST SWAP1 POP SWAP2 SWAP1 POP JUMP JUMPDEST PUSH2 0x1DB2 DUP2 PUSH2 0x102E JUMP JUMPDEST DUP3 MSTORE POP POP JUMP JUMPDEST PUSH1 0x0 PUSH1 0x40 DUP3 ADD SWAP1 POP PUSH2 0x1DCD PUSH1 0x0 DUP4 ADD DUP6 PUSH2 0xFE4 JUMP JUMPDEST PUSH2 0x1DDA PUSH1 0x20 DUP4 ADD DUP5 PUSH2 0x1DA9 JUMP JUMPDEST SWAP4 SWAP3 POP POP POP JUMP JUMPDEST PUSH1 0x0 DUP2 MLOAD SWAP1 POP PUSH2 0x1DF0 DUP2 PUSH2 0xF8B JUMP JUMPDEST SWAP3 SWAP2 POP POP JUMP JUMPDEST PUSH1 0x0 PUSH1 0x20 DUP3 DUP5 SUB SLT ISZERO PUSH2 0x1E0C JUMPI PUSH2 0x1E0B PUSH2 0xF77 JUMP JUMPDEST JUMPDEST PUSH1 0x0 PUSH2 0x1E1A DUP5 DUP3 DUP6 ADD PUSH2 0x1DE1 JUMP JUMPDEST SWAP2 POP POP SWAP3 SWAP2 POP POP JUMP JUMPDEST PUSH1 0x0 PUSH1 0xFF DUP3 AND SWAP1 POP SWAP2 SWAP1 POP JUMP JUMPDEST PUSH2 0x1E39 DUP2 PUSH2 0x1E23 JUMP JUMPDEST DUP3 MSTORE POP POP JUMP JUMPDEST PUSH1 0x0 DUP2 MLOAD SWAP1 POP SWAP2 SWAP1 POP JUMP JUMPDEST PUSH1 0x0 DUP3 DUP3 MSTORE PUSH1 0x20 DUP3 ADD SWAP1 POP SWAP3 SWAP2 POP POP JUMP JUMPDEST PUSH1 0x0 DUP2 SWAP1 POP PUSH1 0x20 DUP3 ADD SWAP1 POP SWAP2 SWAP1 POP JUMP JUMPDEST PUSH2 0x1E74 DUP2 PUSH2 0xF81 JUMP JUMPDEST DUP3 MSTORE POP POP JUMP JUMPDEST PUSH1 0x40 DUP3 ADD PUSH1 0x0 DUP3 ADD MLOAD PUSH2 0x1E90 PUSH1 0x0 DUP6 ADD DUP3 PUSH2 0x1E6B JUMP JUMPDEST POP PUSH1 0x20 DUP3 ADD MLOAD PUSH2 0x1EA3 PUSH1 0x20 DUP6 ADD DUP3 PUSH2 0x1E6B JUMP JUMPDEST POP POP POP POP JUMP JUMPDEST PUSH1 0x0 PUSH2 0x1EB5 DUP4 DUP4 PUSH2 0x1E7A JUMP JUMPDEST PUSH1 0x40 DUP4 ADD SWAP1 POP SWAP3 SWAP2 POP POP JUMP JUMPDEST PUSH1 0x0 PUSH1 0x20 DUP3 ADD SWAP1 POP SWAP2 SWAP1 POP JUMP JUMPDEST PUSH1 0x0 PUSH2 0x1ED9 DUP3 PUSH2 0x1E3F JUMP JUMPDEST PUSH2 0x1EE3 DUP2 DUP6 PUSH2 0x1E4A JUMP JUMPDEST SWAP4 POP PUSH2 0x1EEE DUP4 PUSH2 0x1E5B JUMP JUMPDEST DUP1 PUSH1 0x0 JUMPDEST DUP4 DUP2 LT ISZERO PUSH2 0x1F1F JUMPI DUP2 MLOAD PUSH2 0x1F06 DUP9 DUP3 PUSH2 0x1EA9 JUMP JUMPDEST SWAP8 POP PUSH2 0x1F11 DUP4 PUSH2 0x1EC1 JUMP JUMPDEST SWAP3 POP POP PUSH1 0x1 DUP2 ADD SWAP1 POP PUSH2 0x1EF2 JUMP JUMPDEST POP DUP6 SWAP4 POP POP POP POP SWAP3 SWAP2 POP POP JUMP JUMPDEST PUSH1 0x0 DUP3 DUP3 MSTORE PUSH1 0x20 DUP3 ADD SWAP1 POP SWAP3 SWAP2 POP POP JUMP JUMPDEST PUSH1 0x0 PUSH2 0x1F48 DUP3 PUSH2 0x1B88 JUMP JUMPDEST PUSH2 0x1F52 DUP2 DUP6 PUSH2 0x1F2C JUMP JUMPDEST SWAP4 POP PUSH2 0x1F62 DUP2 DUP6 PUSH1 0x20 DUP7 ADD PUSH2 0x1148 JUMP JUMPDEST PUSH2 0x1F6B DUP2 PUSH2 0x1172 JUMP JUMPDEST DUP5 ADD SWAP2 POP POP SWAP3 SWAP2 POP POP JUMP JUMPDEST PUSH1 0x0 PUSH2 0x100 DUP3 ADD SWAP1 POP PUSH2 0x1F8C PUSH1 0x0 DUP4 ADD DUP12 PUSH2 0xF43 JUMP JUMPDEST PUSH2 0x1F99 PUSH1 0x20 DUP4 ADD DUP11 PUSH2 0x1E30 JUMP JUMPDEST PUSH2 0x1FA6 PUSH1 0x40 DUP4 ADD DUP10 PUSH2 0x1DA9 JUMP JUMPDEST PUSH2 0x1FB3 PUSH1 0x60 DUP4 ADD DUP9 PUSH2 0x1DA9 JUMP JUMPDEST PUSH2 0x1FC0 PUSH1 0x80 DUP4 ADD DUP8 PUSH2 0x1DA9 JUMP JUMPDEST PUSH2 0x1FCD PUSH1 0xA0 DUP4 ADD DUP7 PUSH2 0xFE4 JUMP JUMPDEST DUP2 DUP2 SUB PUSH1 0xC0 DUP4 ADD MSTORE PUSH2 0x1FDF DUP2 DUP6 PUSH2 0x1ECE JUMP JUMPDEST SWAP1 POP DUP2 DUP2 SUB PUSH1 0xE0 DUP4 ADD MSTORE PUSH2 0x1FF3 DUP2 DUP5 PUSH2 0x1F3D JUMP JUMPDEST SWAP1 POP SWAP10 SWAP9 POP POP POP POP POP POP POP POP POP JUMP INVALID LOG2 PUSH5 0x6970667358 0x22 SLT KECCAK256 0xDE 0xDB 0xC0 SWAP7 COINBASE DUP13 0xC8 0xC2 PUSH8 0x41C4B023FBA8429 SWAP15 SLOAD SWAP4 0xBA SSTORE CODECOPY CALLER 0xC5 DUP1 0xBD 0x1F 0xF6 CREATE2 GAS PUSH14 0x64736F6C63430008180033000000 "},"methodIdentifiers":{"MAX_POOL_BALANCE()":"2864e8d6","buy(address)":"f088d547","calculateBuyPrice(uint256)":"58b9a996","calculateSellPrice(uint256)":"2e5e2b3b","curveExponent()":"2a9795cd","getCurrencyBalanceOf(address)":"5e38b66c","getCurrencyId()":"cf387fed","getCurrencyName()":"d064d784","getCurrencyTotalSupply()":"add29c6d","getIsClosed()":"0a80ef45","getOwnCurrencyBalance()":"97856308","initialPricePerToken()":"dc4c1328","isClosed()":"c2b6b58c","maxTotalSupply()":"2ab4d052","mintCurrency(uint256)":"1072b91f","poolBalance()":"96365d44","sell(uint256,address)":"4189a68e","sendCurrency(address,uint256,uint256)":"b534638e","setCurrencyName(string)":"eed20631"}}}}}