{"contracts/BondingCurveBasic.sol":{"BondingCurveBasic":{"abi":[{"inputs":[{"internalType":"string","name":"_tokenName","type":"string"},{"internalType":"uint256","name":"_maxTotalSupply","type":"uint256"}],"stateMutability":"nonpayable","type":"constructor"},{"anonymous":false,"inputs":[{"indexed":true,"internalType":"address","name":"sender","type":"address"},{"indexed":true,"internalType":"uint256","name":"deposit","type":"uint256"},{"indexed":true,"internalType":"uint256","name":"amount","type":"uint256"}],"name":"DidSendAsyncCall","type":"event"},{"anonymous":false,"inputs":[{"indexed":true,"internalType":"address","name":"sender","type":"address"},{"indexed":true,"internalType":"uint256","name":"deposit","type":"uint256"},{"indexed":true,"internalType":"uint256","name":"amount","type":"uint256"}],"name":"SuccessfulyMinted","type":"event"},{"anonymous":false,"inputs":[{"indexed":true,"internalType":"address","name":"sender","type":"address"},{"indexed":true,"internalType":"uint256","name":"deposit","type":"uint256"},{"indexed":true,"internalType":"uint256","name":"amount","type":"uint256"}],"name":"ToPurchaseAmount","type":"event"},{"inputs":[{"internalType":"address","name":"_destination","type":"address"}],"name":"buy","outputs":[],"stateMutability":"payable","type":"function"},{"inputs":[{"internalType":"uint256","name":"ethAmount","type":"uint256"}],"name":"calculateBuyPrice","outputs":[{"internalType":"uint256","name":"","type":"uint256"}],"stateMutability":"view","type":"function"},{"inputs":[{"internalType":"uint256","name":"tokenAmount","type":"uint256"}],"name":"calculateSellPrice","outputs":[{"internalType":"uint256","name":"","type":"uint256"}],"stateMutability":"view","type":"function"},{"inputs":[],"name":"curveExponent","outputs":[{"internalType":"uint256","name":"","type":"uint256"}],"stateMutability":"view","type":"function"},{"inputs":[{"internalType":"address","name":"account","type":"address"}],"name":"getCurrencyBalanceOf","outputs":[{"internalType":"uint256","name":"","type":"uint256"}],"stateMutability":"view","type":"function"},{"inputs":[],"name":"getCurrencyId","outputs":[{"internalType":"uint256","name":"","type":"uint256"}],"stateMutability":"view","type":"function"},{"inputs":[],"name":"getCurrencyName","outputs":[{"internalType":"string","name":"","type":"string"}],"stateMutability":"view","type":"function"},{"inputs":[],"name":"getCurrencyTotalSupply","outputs":[{"internalType":"uint256","name":"","type":"uint256"}],"stateMutability":"view","type":"function"},{"inputs":[],"name":"getOwnCurrencyBalance","outputs":[{"internalType":"uint256","name":"","type":"uint256"}],"stateMutability":"view","type":"function"},{"inputs":[],"name":"initialPricePerToken","outputs":[{"internalType":"uint256","name":"","type":"uint256"}],"stateMutability":"view","type":"function"},{"inputs":[],"name":"maxTotalSupply","outputs":[{"internalType":"uint256","name":"","type":"uint256"}],"stateMutability":"view","type":"function"},{"inputs":[{"internalType":"uint256","name":"amount","type":"uint256"}],"name":"mintCurrency","outputs":[],"stateMutability":"nonpayable","type":"function"},{"inputs":[],"name":"poolBalance","outputs":[{"internalType":"uint256","name":"","type":"uint256"}],"stateMutability":"view","type":"function"},{"inputs":[{"internalType":"uint256","name":"_amount","type":"uint256"},{"internalType":"address","name":"_destination","type":"address"}],"name":"sell","outputs":[],"stateMutability":"payable","type":"function"},{"inputs":[{"internalType":"address","name":"to","type":"address"},{"internalType":"uint256","name":"currencyId","type":"uint256"},{"internalType":"uint256","name":"amount","type":"uint256"}],"name":"sendCurrency","outputs":[],"stateMutability":"nonpayable","type":"function"},{"inputs":[{"internalType":"string","name":"name","type":"string"}],"name":"setCurrencyName","outputs":[],"stateMutability":"nonpayable","type":"function"}],"evm":{"bytecode":{"linkReferences":{},"object":"60a06040523480156200001157600080fd5b50604051620023e3380380620023e383398181016040528101906200003791906200023b565b806080818152505062000050826200005860201b60201c565b5050620005c9565b8060019081620000699190620004e2565b5050565b6000604051905090565b600080fd5b600080fd5b600080fd5b600080fd5b6000601f19601f8301169050919050565b7f4e487b7100000000000000000000000000000000000000000000000000000000600052604160045260246000fd5b620000d6826200008b565b810181811067ffffffffffffffff82111715620000f857620000f76200009c565b5b80604052505050565b60006200010d6200006d565b90506200011b8282620000cb565b919050565b600067ffffffffffffffff8211156200013e576200013d6200009c565b5b62000149826200008b565b9050602081019050919050565b60005b838110156200017657808201518184015260208101905062000159565b60008484015250505050565b600062000199620001938462000120565b62000101565b905082815260208101848484011115620001b857620001b762000086565b5b620001c584828562000156565b509392505050565b600082601f830112620001e557620001e462000081565b5b8151620001f784826020860162000182565b91505092915050565b6000819050919050565b620002158162000200565b81146200022157600080fd5b50565b60008151905062000235816200020a565b92915050565b6000806040838503121562000255576200025462000077565b5b600083015167ffffffffffffffff8111156200027657620002756200007c565b5b6200028485828601620001cd565b9250506020620002978582860162000224565b9150509250929050565b600081519050919050565b7f4e487b7100000000000000000000000000000000000000000000000000000000600052602260045260246000fd5b60006002820490506001821680620002f457607f821691505b6020821081036200030a5762000309620002ac565b5b50919050565b60008190508160005260206000209050919050565b60006020601f8301049050919050565b600082821b905092915050565b600060088302620003747fffffffffffffffffffffffffffffffffffffffffffffffffffffffffffffffff8262000335565b62000380868362000335565b95508019841693508086168417925050509392505050565b6000819050919050565b6000620003c3620003bd620003b78462000200565b62000398565b62000200565b9050919050565b6000819050919050565b620003df83620003a2565b620003f7620003ee82620003ca565b84845462000342565b825550505050565b600090565b6200040e620003ff565b6200041b818484620003d4565b505050565b5b8181101562000443576200043760008262000404565b60018101905062000421565b5050565b601f82111562000492576200045c8162000310565b620004678462000325565b8101602085101562000477578190505b6200048f620004868562000325565b83018262000420565b50505b505050565b600082821c905092915050565b6000620004b76000198460080262000497565b1980831691505092915050565b6000620004d28383620004a4565b9150826002028217905092915050565b620004ed82620002a1565b67ffffffffffffffff8111156200050957620005086200009c565b5b620005158254620002db565b6200052282828562000447565b600060209050601f8311600181146200055a576000841562000545578287015190505b620005518582620004c4565b865550620005c1565b601f1984166200056a8662000310565b60005b8281101562000594578489015182556001820191506020850194506020810190506200056d565b86831015620005b45784890151620005b0601f891682620004a4565b8355505b6001600288020188555050505b505050505050565b608051611df0620005f36000396000818161041501528181610753015261080e0152611df06000f3fe6080604052600436106100f35760003560e01c8063978563081161008a578063d064d78411610059578063d064d7841461031f578063dc4c13281461034a578063eed2063114610375578063f088d5471461039e576100f3565b80639785630814610275578063add29c6d146102a0578063b534638e146102cb578063cf387fed146102f4576100f3565b80634189a68e116100c65780634189a68e146101b457806358b9a996146101d05780635e38b66c1461020d57806396365d441461024a576100f3565b80631072b91f146100f85780632a9795cd146101215780632ab4d0521461014c5780632e5e2b3b14610177575b600080fd5b34801561010457600080fd5b5061011f600480360381019061011a9190610dc0565b6103ba565b005b34801561012d57600080fd5b5061013661040e565b6040516101439190610dfc565b60405180910390f35b34801561015857600080fd5b50610161610413565b60405161016e9190610dfc565b60405180910390f35b34801561018357600080fd5b5061019e60048036038101906101999190610dc0565b610437565b6040516101ab9190610dfc565b60405180910390f35b6101ce60048036038101906101c99190610e75565b610471565b005b3480156101dc57600080fd5b506101f760048036038101906101f29190610dc0565b610513565b6040516102049190610dfc565b60405180910390f35b34801561021957600080fd5b50610234600480360381019061022f9190610eb5565b61055f565b6040516102419190610dfc565b60405180910390f35b34801561025657600080fd5b5061025f610579565b60405161026c9190610dfc565b60405180910390f35b34801561028157600080fd5b5061028a61057f565b6040516102979190610dfc565b60405180910390f35b3480156102ac57600080fd5b506102b5610597565b6040516102c29190610dfc565b60405180910390f35b3480156102d757600080fd5b506102f260048036038101906102ed9190610ee2565b6105a0565b005b34801561030057600080fd5b506103096105f8565b6040516103169190610dfc565b60405180910390f35b34801561032b57600080fd5b50610334610616565b6040516103419190610fc5565b60405180910390f35b34801561035657600080fd5b5061035f6106a8565b60405161036c9190610dfc565b60405180910390f35b34801561038157600080fd5b5061039c6004803603810190610397919061111c565b6106ae565b005b6103b860048036038101906103b39190610eb5565b610709565b005b6103c2610977565b15610402576040517f08c379a00000000000000000000000000000000000000000000000000000000081526004016103f9906111d7565b60405180910390fd5b61040b81610a89565b50565b600281565b7f000000000000000000000000000000000000000000000000000000000000000081565b600080610442610597565b90506002816104519190611359565b6002548461045f91906113a4565b6104699190611415565b915050919050565b8161047b3361055f565b10156104bc576040517f08c379a00000000000000000000000000000000000000000000000000000000081526004016104b390611492565b60405180910390fd5b60006104c783610437565b90506104d281610b66565b80600260008282546104e491906114b2565b9250508190555061050e823333620186a06000808760405180602001604052806000815250610b69565b505050565b60008061051e610597565b90506000810361053e576103e8836105369190611415565b91505061055a565b60028161054b9190611359565b836105569190611415565b9150505b919050565b60006105728261056d6105f8565b610b87565b9050919050565b60025481565b60006105923061058d6105f8565b610b87565b905090565b60008054905090565b6105a8610977565b156105e8576040517f08c379a00000000000000000000000000000000000000000000000000000000081526004016105df906111d7565b60405180910390fd5b6105f3838383610c0e565b505050565b60003073ffffffffffffffffffffffffffffffffffffffff16905090565b60606001805461062590611515565b80601f016020809104026020016040519081016040528092919081815260200182805461065190611515565b801561069e5780601f106106735761010080835404028352916020019161069e565b820191906000526020600020905b81548152906001019060200180831161068157829003601f168201915b5050505050905090565b6103e881565b6106b6610977565b156106f6576040517f08c379a00000000000000000000000000000000000000000000000000000000081526004016106ed906111d7565b60405180910390fd5b806001908161070591906116f2565b5050565b600034905060008111610751576040517f08c379a000000000000000000000000000000000000000000000000000000000815260040161074890611810565b60405180910390fd5b7f000000000000000000000000000000000000000000000000000000000000000061077a610597565b106107ba576040517f08c379a00000000000000000000000000000000000000000000000000000000081526004016107b1906118a2565b60405180910390fd5b60006107c582610513565b905080823373ffffffffffffffffffffffffffffffffffffffff167f3d97ab026a5fdfd38a9e144f940d9e7ddca4f2638f73f3dcb2cac8374438139d60405160405180910390a47f000000000000000000000000000000000000000000000000000000000000000081610836610597565b61084091906118c2565b505061084b81610a89565b80823373ffffffffffffffffffffffffffffffffffffffff167f1983d4a8948de0030f1101b7e335726bee7bc5f4e6617a16c9722a35d45e80d460405160405180910390a481600260008282546108a291906118c2565b925050819055506000600167ffffffffffffffff8111156108c6576108c5610ff1565b5b6040519080825280602002602001820160405280156108ff57816020015b6108ec610d5c565b8152602001906001900390816108e45790505b50905060405180604001604052803073ffffffffffffffffffffffffffffffffffffffff1681526020018381525081600081518110610941576109406118f6565b5b6020026020010181905250610971843033620186a060008060008860405180602001604052806000815250610cc4565b50505050565b6000606060008060ff73ffffffffffffffffffffffffffffffffffffffff16836040516109a4919061196c565b600060405180830381855afa9150503d80600081146109df576040519150601f19603f3d011682016040523d82523d6000602084013e6109e4565b606091505b509150915081610a29576040517f08c379a0000000000000000000000000000000000000000000000000000000008152600401610a20906119cf565b60405180910390fd5b6000815111610a6d576040517f08c379a0000000000000000000000000000000000000000000000000000000008152600401610a6490611a61565b60405180910390fd5b80806020019051810190610a819190611ab9565b935050505090565b600060d073ffffffffffffffffffffffffffffffffffffffff1663f4c261b5836040518263ffffffff1660e01b8152600401610ac59190610dfc565b6020604051808303816000875af1158015610ae4573d6000803e3d6000fd5b505050506040513d601f19601f82011682018060405250810190610b089190611ab9565b905080610b4a576040517f08c379a0000000000000000000000000000000000000000000000000000000008152600401610b4190611b32565b60405180910390fd5b81600080828254610b5b91906118c2565b925050819055505050565b50565b6060610b7c89898989898989888a610cc4565b505050505050505050565b600060d173ffffffffffffffffffffffffffffffffffffffff16633a1735fc83856040518363ffffffff1660e01b8152600401610bc5929190611b61565b602060405180830381865afa158015610be2573d6000803e3d6000fd5b505050506040513d601f19601f82011682018060405250810190610c069190611b9f565b905092915050565b6000600167ffffffffffffffff811115610c2b57610c2a610ff1565b5b604051908082528060200260200182016040528015610c6457816020015b610c51610d5c565b815260200190600190039081610c495790505b50905060405180604001604052808481526020018381525081600081518110610c9057610c8f6118f6565b5b6020026020010181905250610cbe846000806000806000808860405180602001604052806000815250610cc4565b50505050565b60fd73ffffffffffffffffffffffffffffffffffffffff1663f1d1cf1c8486888d8d8d8d8a8a6040518a63ffffffff1660e01b8152600401610d0d989796959493929190611d2e565b60206040518083038185885af1158015610d2b573d6000803e3d6000fd5b50505050506040513d601f19601f82011682018060405250810190610d509190611ab9565b50505050505050505050565b604051806040016040528060008152602001600081525090565b6000604051905090565b600080fd5b600080fd5b6000819050919050565b610d9d81610d8a565b8114610da857600080fd5b50565b600081359050610dba81610d94565b92915050565b600060208284031215610dd657610dd5610d80565b5b6000610de484828501610dab565b91505092915050565b610df681610d8a565b82525050565b6000602082019050610e116000830184610ded565b92915050565b600073ffffffffffffffffffffffffffffffffffffffff82169050919050565b6000610e4282610e17565b9050919050565b610e5281610e37565b8114610e5d57600080fd5b50565b600081359050610e6f81610e49565b92915050565b60008060408385031215610e8c57610e8b610d80565b5b6000610e9a85828601610dab565b9250506020610eab85828601610e60565b9150509250929050565b600060208284031215610ecb57610eca610d80565b5b6000610ed984828501610e60565b91505092915050565b600080600060608486031215610efb57610efa610d80565b5b6000610f0986828701610e60565b9350506020610f1a86828701610dab565b9250506040610f2b86828701610dab565b9150509250925092565b600081519050919050565b600082825260208201905092915050565b60005b83811015610f6f578082015181840152602081019050610f54565b60008484015250505050565b6000601f19601f8301169050919050565b6000610f9782610f35565b610fa18185610f40565b9350610fb1818560208601610f51565b610fba81610f7b565b840191505092915050565b60006020820190508181036000830152610fdf8184610f8c565b905092915050565b600080fd5b600080fd5b7f4e487b7100000000000000000000000000000000000000000000000000000000600052604160045260246000fd5b61102982610f7b565b810181811067ffffffffffffffff8211171561104857611047610ff1565b5b80604052505050565b600061105b610d76565b90506110678282611020565b919050565b600067ffffffffffffffff82111561108757611086610ff1565b5b61109082610f7b565b9050602081019050919050565b82818337600083830152505050565b60006110bf6110ba8461106c565b611051565b9050828152602081018484840111156110db576110da610fec565b5b6110e684828561109d565b509392505050565b600082601f83011261110357611102610fe7565b5b81356111138482602086016110ac565b91505092915050565b60006020828403121561113257611131610d80565b5b600082013567ffffffffffffffff8111156111505761114f610d85565b5b61115c848285016110ee565b91505092915050565b7f547279696e6720746f2063616c6c2065787465726e616c2066756e6374696f6e60008201527f207769746820696e7465726e616c206d65737361676500000000000000000000602082015250565b60006111c1603683610f40565b91506111cc82611165565b604082019050919050565b600060208201905081810360008301526111f0816111b4565b9050919050565b7f4e487b7100000000000000000000000000000000000000000000000000000000600052601160045260246000fd5b60008160011c9050919050565b6000808291508390505b600185111561127d57808604811115611259576112586111f7565b5b60018516156112685780820291505b808102905061127685611226565b945061123d565b94509492505050565b6000826112965760019050611352565b816112a45760009050611352565b81600181146112ba57600281146112c4576112f3565b6001915050611352565b60ff8411156112d6576112d56111f7565b5b8360020a9150848211156112ed576112ec6111f7565b5b50611352565b5060208310610133831016604e8410600b84101617156113285782820a905083811115611323576113226111f7565b5b611352565b6113358484846001611233565b9250905081840481111561134c5761134b6111f7565b5b81810290505b9392505050565b600061136482610d8a565b915061136f83610d8a565b925061139c7fffffffffffffffffffffffffffffffffffffffffffffffffffffffffffffffff8484611286565b905092915050565b60006113af82610d8a565b91506113ba83610d8a565b92508282026113c881610d8a565b915082820484148315176113df576113de6111f7565b5b5092915050565b7f4e487b7100000000000000000000000000000000000000000000000000000000600052601260045260246000fd5b600061142082610d8a565b915061142b83610d8a565b92508261143b5761143a6113e6565b5b828204905092915050565b7f496e73756666696369656e742062616c616e6365000000000000000000000000600082015250565b600061147c601483610f40565b915061148782611446565b602082019050919050565b600060208201905081810360008301526114ab8161146f565b9050919050565b60006114bd82610d8a565b91506114c883610d8a565b92508282039050818111156114e0576114df6111f7565b5b92915050565b7f4e487b7100000000000000000000000000000000000000000000000000000000600052602260045260246000fd5b6000600282049050600182168061152d57607f821691505b6020821081036115405761153f6114e6565b5b50919050565b60008190508160005260206000209050919050565b60006020601f8301049050919050565b600082821b905092915050565b6000600883026115a87fffffffffffffffffffffffffffffffffffffffffffffffffffffffffffffffff8261156b565b6115b2868361156b565b95508019841693508086168417925050509392505050565b6000819050919050565b60006115ef6115ea6115e584610d8a565b6115ca565b610d8a565b9050919050565b6000819050919050565b611609836115d4565b61161d611615826115f6565b848454611578565b825550505050565b600090565b611632611625565b61163d818484611600565b505050565b5b818110156116615761165660008261162a565b600181019050611643565b5050565b601f8211156116a65761167781611546565b6116808461155b565b8101602085101561168f578190505b6116a361169b8561155b565b830182611642565b50505b505050565b600082821c905092915050565b60006116c9600019846008026116ab565b1980831691505092915050565b60006116e283836116b8565b9150826002028217905092915050565b6116fb82610f35565b67ffffffffffffffff81111561171457611713610ff1565b5b61171e8254611515565b611729828285611665565b600060209050601f83116001811461175c576000841561174a578287015190505b61175485826116d6565b8655506117bc565b601f19841661176a86611546565b60005b828110156117925784890151825560018201915060208501945060208101905061176d565b868310156117af57848901516117ab601f8916826116b8565b8355505b6001600288020188555050505b505050505050565b7f456d707479206465706f73697400000000000000000000000000000000000000600082015250565b60006117fa600d83610f40565b9150611805826117c4565b602082019050919050565b60006020820190508181036000830152611829816117ed565b9050919050565b7f416c6c20746f6b656e65732061726520616c726561647920707572636861736560008201527f6400000000000000000000000000000000000000000000000000000000000000602082015250565b600061188c602183610f40565b915061189782611830565b604082019050919050565b600060208201905081810360008301526118bb8161187f565b9050919050565b60006118cd82610d8a565b91506118d883610d8a565b92508282019050808211156118f0576118ef6111f7565b5b92915050565b7f4e487b7100000000000000000000000000000000000000000000000000000000600052603260045260246000fd5b600081519050919050565b600081905092915050565b600061194682611925565b6119508185611930565b9350611960818560208601610f51565b80840191505092915050565b6000611978828461193b565b915081905092915050565b7f507265636f6d70696c656420636f6e74726163742063616c6c206661696c6564600082015250565b60006119b9602083610f40565b91506119c482611983565b602082019050919050565b600060208201905081810360008301526119e8816119ac565b9050919050565b7f2749535f494e5445524e414c5f4d455353414745272072657475726e7320696e60008201527f76616c6964206461746100000000000000000000000000000000000000000000602082015250565b6000611a4b602a83610f40565b9150611a56826119ef565b604082019050919050565b60006020820190508181036000830152611a7a81611a3e565b9050919050565b60008115159050919050565b611a9681611a81565b8114611aa157600080fd5b50565b600081519050611ab381611a8d565b92915050565b600060208284031215611acf57611ace610d80565b5b6000611add84828501611aa4565b91505092915050565b7f4d696e74206661696c6564000000000000000000000000000000000000000000600082015250565b6000611b1c600b83610f40565b9150611b2782611ae6565b602082019050919050565b60006020820190508181036000830152611b4b81611b0f565b9050919050565b611b5b81610e37565b82525050565b6000604082019050611b766000830185610ded565b611b836020830184611b52565b9392505050565b600081519050611b9981610d94565b92915050565b600060208284031215611bb557611bb4610d80565b5b6000611bc384828501611b8a565b91505092915050565b611bd581611a81565b82525050565b600060ff82169050919050565b611bf181611bdb565b82525050565b600081519050919050565b600082825260208201905092915050565b6000819050602082019050919050565b611c2c81610d8a565b82525050565b604082016000820151611c486000850182611c23565b506020820151611c5b6020850182611c23565b50505050565b6000611c6d8383611c32565b60408301905092915050565b6000602082019050919050565b6000611c9182611bf7565b611c9b8185611c02565b9350611ca683611c13565b8060005b83811015611cd7578151611cbe8882611c61565b9750611cc983611c79565b925050600181019050611caa565b5085935050505092915050565b600082825260208201905092915050565b6000611d0082611925565b611d0a8185611ce4565b9350611d1a818560208601610f51565b611d2381610f7b565b840191505092915050565b600061010082019050611d44600083018b611bcc565b611d51602083018a611be8565b611d5e6040830189611b52565b611d6b6060830188611b52565b611d786080830187611b52565b611d8560a0830186610ded565b81810360c0830152611d978185611c86565b905081810360e0830152611dab8184611cf5565b9050999850505050505050505056fea2646970667358221220ee073045b5dedff506215b182c52c9ed5ba45512191147428e3ede9ce7d5162b64736f6c63430008180033","opcodes":"PUSH1 0xA0 PUSH1 0x40 MSTORE CALLVALUE DUP1 ISZERO PUSH3 0x11 JUMPI PUSH1 0x0 DUP1 REVERT JUMPDEST POP PUSH1 0x40 MLOAD PUSH3 0x23E3 CODESIZE SUB DUP1 PUSH3 0x23E3 DUP4 CODECOPY DUP2 DUP2 ADD PUSH1 0x40 MSTORE DUP2 ADD SWAP1 PUSH3 0x37 SWAP2 SWAP1 PUSH3 0x23B JUMP JUMPDEST DUP1 PUSH1 0x80 DUP2 DUP2 MSTORE POP POP PUSH3 0x50 DUP3 PUSH3 0x58 PUSH1 0x20 SHL PUSH1 0x20 SHR JUMP JUMPDEST POP POP PUSH3 0x5C9 JUMP JUMPDEST DUP1 PUSH1 0x1 SWAP1 DUP2 PUSH3 0x69 SWAP2 SWAP1 PUSH3 0x4E2 JUMP JUMPDEST POP POP JUMP JUMPDEST PUSH1 0x0 PUSH1 0x40 MLOAD SWAP1 POP SWAP1 JUMP JUMPDEST PUSH1 0x0 DUP1 REVERT JUMPDEST PUSH1 0x0 DUP1 REVERT JUMPDEST PUSH1 0x0 DUP1 REVERT JUMPDEST PUSH1 0x0 DUP1 REVERT JUMPDEST PUSH1 0x0 PUSH1 0x1F NOT PUSH1 0x1F DUP4 ADD AND SWAP1 POP SWAP2 SWAP1 POP JUMP JUMPDEST PUSH32 0x4E487B7100000000000000000000000000000000000000000000000000000000 PUSH1 0x0 MSTORE PUSH1 0x41 PUSH1 0x4 MSTORE PUSH1 0x24 PUSH1 0x0 REVERT JUMPDEST PUSH3 0xD6 DUP3 PUSH3 0x8B JUMP JUMPDEST DUP2 ADD DUP2 DUP2 LT PUSH8 0xFFFFFFFFFFFFFFFF DUP3 GT OR ISZERO PUSH3 0xF8 JUMPI PUSH3 0xF7 PUSH3 0x9C JUMP JUMPDEST JUMPDEST DUP1 PUSH1 0x40 MSTORE POP POP POP JUMP JUMPDEST PUSH1 0x0 PUSH3 0x10D PUSH3 0x6D JUMP JUMPDEST SWAP1 POP PUSH3 0x11B DUP3 DUP3 PUSH3 0xCB JUMP JUMPDEST SWAP2 SWAP1 POP JUMP JUMPDEST PUSH1 0x0 PUSH8 0xFFFFFFFFFFFFFFFF DUP3 GT ISZERO PUSH3 0x13E JUMPI PUSH3 0x13D PUSH3 0x9C JUMP JUMPDEST JUMPDEST PUSH3 0x149 DUP3 PUSH3 0x8B JUMP JUMPDEST SWAP1 POP PUSH1 0x20 DUP2 ADD SWAP1 POP SWAP2 SWAP1 POP JUMP JUMPDEST PUSH1 0x0 JUMPDEST DUP4 DUP2 LT ISZERO PUSH3 0x176 JUMPI DUP1 DUP3 ADD MLOAD DUP2 DUP5 ADD MSTORE PUSH1 0x20 DUP2 ADD SWAP1 POP PUSH3 0x159 JUMP JUMPDEST PUSH1 0x0 DUP5 DUP5 ADD MSTORE POP POP POP POP JUMP JUMPDEST PUSH1 0x0 PUSH3 0x199 PUSH3 0x193 DUP5 PUSH3 0x120 JUMP JUMPDEST PUSH3 0x101 JUMP JUMPDEST SWAP1 POP DUP3 DUP2 MSTORE PUSH1 0x20 DUP2 ADD DUP5 DUP5 DUP5 ADD GT ISZERO PUSH3 0x1B8 JUMPI PUSH3 0x1B7 PUSH3 0x86 JUMP JUMPDEST JUMPDEST PUSH3 0x1C5 DUP5 DUP3 DUP6 PUSH3 0x156 JUMP JUMPDEST POP SWAP4 SWAP3 POP POP POP JUMP JUMPDEST PUSH1 0x0 DUP3 PUSH1 0x1F DUP4 ADD SLT PUSH3 0x1E5 JUMPI PUSH3 0x1E4 PUSH3 0x81 JUMP JUMPDEST JUMPDEST DUP2 MLOAD PUSH3 0x1F7 DUP5 DUP3 PUSH1 0x20 DUP7 ADD PUSH3 0x182 JUMP JUMPDEST SWAP2 POP POP SWAP3 SWAP2 POP POP JUMP JUMPDEST PUSH1 0x0 DUP2 SWAP1 POP SWAP2 SWAP1 POP JUMP JUMPDEST PUSH3 0x215 DUP2 PUSH3 0x200 JUMP JUMPDEST DUP2 EQ PUSH3 0x221 JUMPI PUSH1 0x0 DUP1 REVERT JUMPDEST POP JUMP JUMPDEST PUSH1 0x0 DUP2 MLOAD SWAP1 POP PUSH3 0x235 DUP2 PUSH3 0x20A JUMP JUMPDEST SWAP3 SWAP2 POP POP JUMP JUMPDEST PUSH1 0x0 DUP1 PUSH1 0x40 DUP4 DUP6 SUB SLT ISZERO PUSH3 0x255 JUMPI PUSH3 0x254 PUSH3 0x77 JUMP JUMPDEST JUMPDEST PUSH1 0x0 DUP4 ADD MLOAD PUSH8 0xFFFFFFFFFFFFFFFF DUP2 GT ISZERO PUSH3 0x276 JUMPI PUSH3 0x275 PUSH3 0x7C JUMP JUMPDEST JUMPDEST PUSH3 0x284 DUP6 DUP3 DUP7 ADD PUSH3 0x1CD JUMP JUMPDEST SWAP3 POP POP PUSH1 0x20 PUSH3 0x297 DUP6 DUP3 DUP7 ADD PUSH3 0x224 JUMP JUMPDEST SWAP2 POP POP SWAP3 POP SWAP3 SWAP1 POP JUMP JUMPDEST PUSH1 0x0 DUP2 MLOAD SWAP1 POP SWAP2 SWAP1 POP JUMP JUMPDEST PUSH32 0x4E487B7100000000000000000000000000000000000000000000000000000000 PUSH1 0x0 MSTORE PUSH1 0x22 PUSH1 0x4 MSTORE PUSH1 0x24 PUSH1 0x0 REVERT JUMPDEST PUSH1 0x0 PUSH1 0x2 DUP3 DIV SWAP1 POP PUSH1 0x1 DUP3 AND DUP1 PUSH3 0x2F4 JUMPI PUSH1 0x7F DUP3 AND SWAP2 POP JUMPDEST PUSH1 0x20 DUP3 LT DUP2 SUB PUSH3 0x30A JUMPI PUSH3 0x309 PUSH3 0x2AC JUMP JUMPDEST JUMPDEST POP SWAP2 SWAP1 POP JUMP JUMPDEST PUSH1 0x0 DUP2 SWAP1 POP DUP2 PUSH1 0x0 MSTORE PUSH1 0x20 PUSH1 0x0 KECCAK256 SWAP1 POP SWAP2 SWAP1 POP JUMP JUMPDEST PUSH1 0x0 PUSH1 0x20 PUSH1 0x1F DUP4 ADD DIV SWAP1 POP SWAP2 SWAP1 POP JUMP JUMPDEST PUSH1 0x0 DUP3 DUP3 SHL SWAP1 POP SWAP3 SWAP2 POP POP JUMP JUMPDEST PUSH1 0x0 PUSH1 0x8 DUP4 MUL PUSH3 0x374 PUSH32 0xFFFFFFFFFFFFFFFFFFFFFFFFFFFFFFFFFFFFFFFFFFFFFFFFFFFFFFFFFFFFFFFF DUP3 PUSH3 0x335 JUMP JUMPDEST PUSH3 0x380 DUP7 DUP4 PUSH3 0x335 JUMP JUMPDEST SWAP6 POP DUP1 NOT DUP5 AND SWAP4 POP DUP1 DUP7 AND DUP5 OR SWAP3 POP POP POP SWAP4 SWAP3 POP POP POP JUMP JUMPDEST PUSH1 0x0 DUP2 SWAP1 POP SWAP2 SWAP1 POP JUMP JUMPDEST PUSH1 0x0 PUSH3 0x3C3 PUSH3 0x3BD PUSH3 0x3B7 DUP5 PUSH3 0x200 JUMP JUMPDEST PUSH3 0x398 JUMP JUMPDEST PUSH3 0x200 JUMP JUMPDEST SWAP1 POP SWAP2 SWAP1 POP JUMP JUMPDEST PUSH1 0x0 DUP2 SWAP1 POP SWAP2 SWAP1 POP JUMP JUMPDEST PUSH3 0x3DF DUP4 PUSH3 0x3A2 JUMP JUMPDEST PUSH3 0x3F7 PUSH3 0x3EE DUP3 PUSH3 0x3CA JUMP JUMPDEST DUP5 DUP5 SLOAD PUSH3 0x342 JUMP JUMPDEST DUP3 SSTORE POP POP POP POP JUMP JUMPDEST PUSH1 0x0 SWAP1 JUMP JUMPDEST PUSH3 0x40E PUSH3 0x3FF JUMP JUMPDEST PUSH3 0x41B DUP2 DUP5 DUP5 PUSH3 0x3D4 JUMP JUMPDEST POP POP POP JUMP JUMPDEST JUMPDEST DUP2 DUP2 LT ISZERO PUSH3 0x443 JUMPI PUSH3 0x437 PUSH1 0x0 DUP3 PUSH3 0x404 JUMP JUMPDEST PUSH1 0x1 DUP2 ADD SWAP1 POP PUSH3 0x421 JUMP JUMPDEST POP POP JUMP JUMPDEST PUSH1 0x1F DUP3 GT ISZERO PUSH3 0x492 JUMPI PUSH3 0x45C DUP2 PUSH3 0x310 JUMP JUMPDEST PUSH3 0x467 DUP5 PUSH3 0x325 JUMP JUMPDEST DUP2 ADD PUSH1 0x20 DUP6 LT ISZERO PUSH3 0x477 JUMPI DUP2 SWAP1 POP JUMPDEST PUSH3 0x48F PUSH3 0x486 DUP6 PUSH3 0x325 JUMP JUMPDEST DUP4 ADD DUP3 PUSH3 0x420 JUMP JUMPDEST POP POP JUMPDEST POP POP POP JUMP JUMPDEST PUSH1 0x0 DUP3 DUP3 SHR SWAP1 POP SWAP3 SWAP2 POP POP JUMP JUMPDEST PUSH1 0x0 PUSH3 0x4B7 PUSH1 0x0 NOT DUP5 PUSH1 0x8 MUL PUSH3 0x497 JUMP JUMPDEST NOT DUP1 DUP4 AND SWAP2 POP POP SWAP3 SWAP2 POP POP JUMP JUMPDEST PUSH1 0x0 PUSH3 0x4D2 DUP4 DUP4 PUSH3 0x4A4 JUMP JUMPDEST SWAP2 POP DUP3 PUSH1 0x2 MUL DUP3 OR SWAP1 POP SWAP3 SWAP2 POP POP JUMP JUMPDEST PUSH3 0x4ED DUP3 PUSH3 0x2A1 JUMP JUMPDEST PUSH8 0xFFFFFFFFFFFFFFFF DUP2 GT ISZERO PUSH3 0x509 JUMPI PUSH3 0x508 PUSH3 0x9C JUMP JUMPDEST JUMPDEST PUSH3 0x515 DUP3 SLOAD PUSH3 0x2DB JUMP JUMPDEST PUSH3 0x522 DUP3 DUP3 DUP6 PUSH3 0x447 JUMP JUMPDEST PUSH1 0x0 PUSH1 0x20 SWAP1 POP PUSH1 0x1F DUP4 GT PUSH1 0x1 DUP2 EQ PUSH3 0x55A JUMPI PUSH1 0x0 DUP5 ISZERO PUSH3 0x545 JUMPI DUP3 DUP8 ADD MLOAD SWAP1 POP JUMPDEST PUSH3 0x551 DUP6 DUP3 PUSH3 0x4C4 JUMP JUMPDEST DUP7 SSTORE POP PUSH3 0x5C1 JUMP JUMPDEST PUSH1 0x1F NOT DUP5 AND PUSH3 0x56A DUP7 PUSH3 0x310 JUMP JUMPDEST PUSH1 0x0 JUMPDEST DUP3 DUP2 LT ISZERO PUSH3 0x594 JUMPI DUP5 DUP10 ADD MLOAD DUP3 SSTORE PUSH1 0x1 DUP3 ADD SWAP2 POP PUSH1 0x20 DUP6 ADD SWAP5 POP PUSH1 0x20 DUP2 ADD SWAP1 POP PUSH3 0x56D JUMP JUMPDEST DUP7 DUP4 LT ISZERO PUSH3 0x5B4 JUMPI DUP5 DUP10 ADD MLOAD PUSH3 0x5B0 PUSH1 0x1F DUP10 AND DUP3 PUSH3 0x4A4 JUMP JUMPDEST DUP4 SSTORE POP JUMPDEST PUSH1 0x1 PUSH1 0x2 DUP9 MUL ADD DUP9 SSTORE POP POP POP JUMPDEST POP POP POP POP POP POP JUMP JUMPDEST PUSH1 0x80 MLOAD PUSH2 0x1DF0 PUSH3 0x5F3 PUSH1 0x0 CODECOPY PUSH1 0x0 DUP2 DUP2 PUSH2 0x415 ADD MSTORE DUP2 DUP2 PUSH2 0x753 ADD MSTORE PUSH2 0x80E ADD MSTORE PUSH2 0x1DF0 PUSH1 0x0 RETURN INVALID PUSH1 0x80 PUSH1 0x40 MSTORE PUSH1 0x4 CALLDATASIZE LT PUSH2 0xF3 JUMPI PUSH1 0x0 CALLDATALOAD PUSH1 0xE0 SHR DUP1 PUSH4 0x97856308 GT PUSH2 0x8A JUMPI DUP1 PUSH4 0xD064D784 GT PUSH2 0x59 JUMPI DUP1 PUSH4 0xD064D784 EQ PUSH2 0x31F JUMPI DUP1 PUSH4 0xDC4C1328 EQ PUSH2 0x34A JUMPI DUP1 PUSH4 0xEED20631 EQ PUSH2 0x375 JUMPI DUP1 PUSH4 0xF088D547 EQ PUSH2 0x39E JUMPI PUSH2 0xF3 JUMP JUMPDEST DUP1 PUSH4 0x97856308 EQ PUSH2 0x275 JUMPI DUP1 PUSH4 0xADD29C6D EQ PUSH2 0x2A0 JUMPI DUP1 PUSH4 0xB534638E EQ PUSH2 0x2CB JUMPI DUP1 PUSH4 0xCF387FED EQ PUSH2 0x2F4 JUMPI PUSH2 0xF3 JUMP JUMPDEST DUP1 PUSH4 0x4189A68E GT PUSH2 0xC6 JUMPI DUP1 PUSH4 0x4189A68E EQ PUSH2 0x1B4 JUMPI DUP1 PUSH4 0x58B9A996 EQ PUSH2 0x1D0 JUMPI DUP1 PUSH4 0x5E38B66C EQ PUSH2 0x20D JUMPI DUP1 PUSH4 0x96365D44 EQ PUSH2 0x24A JUMPI PUSH2 0xF3 JUMP JUMPDEST DUP1 PUSH4 0x1072B91F EQ PUSH2 0xF8 JUMPI DUP1 PUSH4 0x2A9795CD EQ PUSH2 0x121 JUMPI DUP1 PUSH4 0x2AB4D052 EQ PUSH2 0x14C JUMPI DUP1 PUSH4 0x2E5E2B3B EQ PUSH2 0x177 JUMPI JUMPDEST PUSH1 0x0 DUP1 REVERT JUMPDEST CALLVALUE DUP1 ISZERO PUSH2 0x104 JUMPI PUSH1 0x0 DUP1 REVERT JUMPDEST POP PUSH2 0x11F PUSH1 0x4 DUP1 CALLDATASIZE SUB DUP2 ADD SWAP1 PUSH2 0x11A SWAP2 SWAP1 PUSH2 0xDC0 JUMP JUMPDEST PUSH2 0x3BA JUMP JUMPDEST STOP JUMPDEST CALLVALUE DUP1 ISZERO PUSH2 0x12D JUMPI PUSH1 0x0 DUP1 REVERT JUMPDEST POP PUSH2 0x136 PUSH2 0x40E JUMP JUMPDEST PUSH1 0x40 MLOAD PUSH2 0x143 SWAP2 SWAP1 PUSH2 0xDFC JUMP JUMPDEST PUSH1 0x40 MLOAD DUP1 SWAP2 SUB SWAP1 RETURN JUMPDEST CALLVALUE DUP1 ISZERO PUSH2 0x158 JUMPI PUSH1 0x0 DUP1 REVERT JUMPDEST POP PUSH2 0x161 PUSH2 0x413 JUMP JUMPDEST PUSH1 0x40 MLOAD PUSH2 0x16E SWAP2 SWAP1 PUSH2 0xDFC JUMP JUMPDEST PUSH1 0x40 MLOAD DUP1 SWAP2 SUB SWAP1 RETURN JUMPDEST CALLVALUE DUP1 ISZERO PUSH2 0x183 JUMPI PUSH1 0x0 DUP1 REVERT JUMPDEST POP PUSH2 0x19E PUSH1 0x4 DUP1 CALLDATASIZE SUB DUP2 ADD SWAP1 PUSH2 0x199 SWAP2 SWAP1 PUSH2 0xDC0 JUMP JUMPDEST PUSH2 0x437 JUMP JUMPDEST PUSH1 0x40 MLOAD PUSH2 0x1AB SWAP2 SWAP1 PUSH2 0xDFC JUMP JUMPDEST PUSH1 0x40 MLOAD DUP1 SWAP2 SUB SWAP1 RETURN JUMPDEST PUSH2 0x1CE PUSH1 0x4 DUP1 CALLDATASIZE SUB DUP2 ADD SWAP1 PUSH2 0x1C9 SWAP2 SWAP1 PUSH2 0xE75 JUMP JUMPDEST PUSH2 0x471 JUMP JUMPDEST STOP JUMPDEST CALLVALUE DUP1 ISZERO PUSH2 0x1DC JUMPI PUSH1 0x0 DUP1 REVERT JUMPDEST POP PUSH2 0x1F7 PUSH1 0x4 DUP1 CALLDATASIZE SUB DUP2 ADD SWAP1 PUSH2 0x1F2 SWAP2 SWAP1 PUSH2 0xDC0 JUMP JUMPDEST PUSH2 0x513 JUMP JUMPDEST PUSH1 0x40 MLOAD PUSH2 0x204 SWAP2 SWAP1 PUSH2 0xDFC JUMP JUMPDEST PUSH1 0x40 MLOAD DUP1 SWAP2 SUB SWAP1 RETURN JUMPDEST CALLVALUE DUP1 ISZERO PUSH2 0x219 JUMPI PUSH1 0x0 DUP1 REVERT JUMPDEST POP PUSH2 0x234 PUSH1 0x4 DUP1 CALLDATASIZE SUB DUP2 ADD SWAP1 PUSH2 0x22F SWAP2 SWAP1 PUSH2 0xEB5 JUMP JUMPDEST PUSH2 0x55F JUMP JUMPDEST PUSH1 0x40 MLOAD PUSH2 0x241 SWAP2 SWAP1 PUSH2 0xDFC JUMP JUMPDEST PUSH1 0x40 MLOAD DUP1 SWAP2 SUB SWAP1 RETURN JUMPDEST CALLVALUE DUP1 ISZERO PUSH2 0x256 JUMPI PUSH1 0x0 DUP1 REVERT JUMPDEST POP PUSH2 0x25F PUSH2 0x579 JUMP JUMPDEST PUSH1 0x40 MLOAD PUSH2 0x26C SWAP2 SWAP1 PUSH2 0xDFC JUMP JUMPDEST PUSH1 0x40 MLOAD DUP1 SWAP2 SUB SWAP1 RETURN JUMPDEST CALLVALUE DUP1 ISZERO PUSH2 0x281 JUMPI PUSH1 0x0 DUP1 REVERT JUMPDEST POP PUSH2 0x28A PUSH2 0x57F JUMP JUMPDEST PUSH1 0x40 MLOAD PUSH2 0x297 SWAP2 SWAP1 PUSH2 0xDFC JUMP JUMPDEST PUSH1 0x40 MLOAD DUP1 SWAP2 SUB SWAP1 RETURN JUMPDEST CALLVALUE DUP1 ISZERO PUSH2 0x2AC JUMPI PUSH1 0x0 DUP1 REVERT JUMPDEST POP PUSH2 0x2B5 PUSH2 0x597 JUMP JUMPDEST PUSH1 0x40 MLOAD PUSH2 0x2C2 SWAP2 SWAP1 PUSH2 0xDFC JUMP JUMPDEST PUSH1 0x40 MLOAD DUP1 SWAP2 SUB SWAP1 RETURN JUMPDEST CALLVALUE DUP1 ISZERO PUSH2 0x2D7 JUMPI PUSH1 0x0 DUP1 REVERT JUMPDEST POP PUSH2 0x2F2 PUSH1 0x4 DUP1 CALLDATASIZE SUB DUP2 ADD SWAP1 PUSH2 0x2ED SWAP2 SWAP1 PUSH2 0xEE2 JUMP JUMPDEST PUSH2 0x5A0 JUMP JUMPDEST STOP JUMPDEST CALLVALUE DUP1 ISZERO PUSH2 0x300 JUMPI PUSH1 0x0 DUP1 REVERT JUMPDEST POP PUSH2 0x309 PUSH2 0x5F8 JUMP JUMPDEST PUSH1 0x40 MLOAD PUSH2 0x316 SWAP2 SWAP1 PUSH2 0xDFC JUMP JUMPDEST PUSH1 0x40 MLOAD DUP1 SWAP2 SUB SWAP1 RETURN JUMPDEST CALLVALUE DUP1 ISZERO PUSH2 0x32B JUMPI PUSH1 0x0 DUP1 REVERT JUMPDEST POP PUSH2 0x334 PUSH2 0x616 JUMP JUMPDEST PUSH1 0x40 MLOAD PUSH2 0x341 SWAP2 SWAP1 PUSH2 0xFC5 JUMP JUMPDEST PUSH1 0x40 MLOAD DUP1 SWAP2 SUB SWAP1 RETURN JUMPDEST CALLVALUE DUP1 ISZERO PUSH2 0x356 JUMPI PUSH1 0x0 DUP1 REVERT JUMPDEST POP PUSH2 0x35F PUSH2 0x6A8 JUMP JUMPDEST PUSH1 0x40 MLOAD PUSH2 0x36C SWAP2 SWAP1 PUSH2 0xDFC JUMP JUMPDEST PUSH1 0x40 MLOAD DUP1 SWAP2 SUB SWAP1 RETURN JUMPDEST CALLVALUE DUP1 ISZERO PUSH2 0x381 JUMPI PUSH1 0x0 DUP1 REVERT JUMPDEST POP PUSH2 0x39C PUSH1 0x4 DUP1 CALLDATASIZE SUB DUP2 ADD SWAP1 PUSH2 0x397 SWAP2 SWAP1 PUSH2 0x111C JUMP JUMPDEST PUSH2 0x6AE JUMP JUMPDEST STOP JUMPDEST PUSH2 0x3B8 PUSH1 0x4 DUP1 CALLDATASIZE SUB DUP2 ADD SWAP1 PUSH2 0x3B3 SWAP2 SWAP1 PUSH2 0xEB5 JUMP JUMPDEST PUSH2 0x709 JUMP JUMPDEST STOP JUMPDEST PUSH2 0x3C2 PUSH2 0x977 JUMP JUMPDEST ISZERO PUSH2 0x402 JUMPI PUSH1 0x40 MLOAD PUSH32 0x8C379A000000000000000000000000000000000000000000000000000000000 DUP2 MSTORE PUSH1 0x4 ADD PUSH2 0x3F9 SWAP1 PUSH2 0x11D7 JUMP JUMPDEST PUSH1 0x40 MLOAD DUP1 SWAP2 SUB SWAP1 REVERT JUMPDEST PUSH2 0x40B DUP2 PUSH2 0xA89 JUMP JUMPDEST POP JUMP JUMPDEST PUSH1 0x2 DUP2 JUMP JUMPDEST PUSH32 0x0 DUP2 JUMP JUMPDEST PUSH1 0x0 DUP1 PUSH2 0x442 PUSH2 0x597 JUMP JUMPDEST SWAP1 POP PUSH1 0x2 DUP2 PUSH2 0x451 SWAP2 SWAP1 PUSH2 0x1359 JUMP JUMPDEST PUSH1 0x2 SLOAD DUP5 PUSH2 0x45F SWAP2 SWAP1 PUSH2 0x13A4 JUMP JUMPDEST PUSH2 0x469 SWAP2 SWAP1 PUSH2 0x1415 JUMP JUMPDEST SWAP2 POP POP SWAP2 SWAP1 POP JUMP JUMPDEST DUP2 PUSH2 0x47B CALLER PUSH2 0x55F JUMP JUMPDEST LT ISZERO PUSH2 0x4BC JUMPI PUSH1 0x40 MLOAD PUSH32 0x8C379A000000000000000000000000000000000000000000000000000000000 DUP2 MSTORE PUSH1 0x4 ADD PUSH2 0x4B3 SWAP1 PUSH2 0x1492 JUMP JUMPDEST PUSH1 0x40 MLOAD DUP1 SWAP2 SUB SWAP1 REVERT JUMPDEST PUSH1 0x0 PUSH2 0x4C7 DUP4 PUSH2 0x437 JUMP JUMPDEST SWAP1 POP PUSH2 0x4D2 DUP2 PUSH2 0xB66 JUMP JUMPDEST DUP1 PUSH1 0x2 PUSH1 0x0 DUP3 DUP3 SLOAD PUSH2 0x4E4 SWAP2 SWAP1 PUSH2 0x14B2 JUMP JUMPDEST SWAP3 POP POP DUP2 SWAP1 SSTORE POP PUSH2 0x50E DUP3 CALLER CALLER PUSH3 0x186A0 PUSH1 0x0 DUP1 DUP8 PUSH1 0x40 MLOAD DUP1 PUSH1 0x20 ADD PUSH1 0x40 MSTORE DUP1 PUSH1 0x0 DUP2 MSTORE POP PUSH2 0xB69 JUMP JUMPDEST POP POP POP JUMP JUMPDEST PUSH1 0x0 DUP1 PUSH2 0x51E PUSH2 0x597 JUMP JUMPDEST SWAP1 POP PUSH1 0x0 DUP2 SUB PUSH2 0x53E JUMPI PUSH2 0x3E8 DUP4 PUSH2 0x536 SWAP2 SWAP1 PUSH2 0x1415 JUMP JUMPDEST SWAP2 POP POP PUSH2 0x55A JUMP JUMPDEST PUSH1 0x2 DUP2 PUSH2 0x54B SWAP2 SWAP1 PUSH2 0x1359 JUMP JUMPDEST DUP4 PUSH2 0x556 SWAP2 SWAP1 PUSH2 0x1415 JUMP JUMPDEST SWAP2 POP POP JUMPDEST SWAP2 SWAP1 POP JUMP JUMPDEST PUSH1 0x0 PUSH2 0x572 DUP3 PUSH2 0x56D PUSH2 0x5F8 JUMP JUMPDEST PUSH2 0xB87 JUMP JUMPDEST SWAP1 POP SWAP2 SWAP1 POP JUMP JUMPDEST PUSH1 0x2 SLOAD DUP2 JUMP JUMPDEST PUSH1 0x0 PUSH2 0x592 ADDRESS PUSH2 0x58D PUSH2 0x5F8 JUMP JUMPDEST PUSH2 0xB87 JUMP JUMPDEST SWAP1 POP SWAP1 JUMP JUMPDEST PUSH1 0x0 DUP1 SLOAD SWAP1 POP SWAP1 JUMP JUMPDEST PUSH2 0x5A8 PUSH2 0x977 JUMP JUMPDEST ISZERO PUSH2 0x5E8 JUMPI PUSH1 0x40 MLOAD PUSH32 0x8C379A000000000000000000000000000000000000000000000000000000000 DUP2 MSTORE PUSH1 0x4 ADD PUSH2 0x5DF SWAP1 PUSH2 0x11D7 JUMP JUMPDEST PUSH1 0x40 MLOAD DUP1 SWAP2 SUB SWAP1 REVERT JUMPDEST PUSH2 0x5F3 DUP4 DUP4 DUP4 PUSH2 0xC0E JUMP JUMPDEST POP POP POP JUMP JUMPDEST PUSH1 0x0 ADDRESS PUSH20 0xFFFFFFFFFFFFFFFFFFFFFFFFFFFFFFFFFFFFFFFF AND SWAP1 POP SWAP1 JUMP JUMPDEST PUSH1 0x60 PUSH1 0x1 DUP1 SLOAD PUSH2 0x625 SWAP1 PUSH2 0x1515 JUMP JUMPDEST DUP1 PUSH1 0x1F ADD PUSH1 0x20 DUP1 SWAP2 DIV MUL PUSH1 0x20 ADD PUSH1 0x40 MLOAD SWAP1 DUP2 ADD PUSH1 0x40 MSTORE DUP1 SWAP3 SWAP2 SWAP1 DUP2 DUP2 MSTORE PUSH1 0x20 ADD DUP3 DUP1 SLOAD PUSH2 0x651 SWAP1 PUSH2 0x1515 JUMP JUMPDEST DUP1 ISZERO PUSH2 0x69E JUMPI DUP1 PUSH1 0x1F LT PUSH2 0x673 JUMPI PUSH2 0x100 DUP1 DUP4 SLOAD DIV MUL DUP4 MSTORE SWAP2 PUSH1 0x20 ADD SWAP2 PUSH2 0x69E JUMP JUMPDEST DUP3 ADD SWAP2 SWAP1 PUSH1 0x0 MSTORE PUSH1 0x20 PUSH1 0x0 KECCAK256 SWAP1 JUMPDEST DUP2 SLOAD DUP2 MSTORE SWAP1 PUSH1 0x1 ADD SWAP1 PUSH1 0x20 ADD DUP1 DUP4 GT PUSH2 0x681 JUMPI DUP3 SWAP1 SUB PUSH1 0x1F AND DUP3 ADD SWAP2 JUMPDEST POP POP POP POP POP SWAP1 POP SWAP1 JUMP JUMPDEST PUSH2 0x3E8 DUP2 JUMP JUMPDEST PUSH2 0x6B6 PUSH2 0x977 JUMP JUMPDEST ISZERO PUSH2 0x6F6 JUMPI PUSH1 0x40 MLOAD PUSH32 0x8C379A000000000000000000000000000000000000000000000000000000000 DUP2 MSTORE PUSH1 0x4 ADD PUSH2 0x6ED SWAP1 PUSH2 0x11D7 JUMP JUMPDEST PUSH1 0x40 MLOAD DUP1 SWAP2 SUB SWAP1 REVERT JUMPDEST DUP1 PUSH1 0x1 SWAP1 DUP2 PUSH2 0x705 SWAP2 SWAP1 PUSH2 0x16F2 JUMP JUMPDEST POP POP JUMP JUMPDEST PUSH1 0x0 CALLVALUE SWAP1 POP PUSH1 0x0 DUP2 GT PUSH2 0x751 JUMPI PUSH1 0x40 MLOAD PUSH32 0x8C379A000000000000000000000000000000000000000000000000000000000 DUP2 MSTORE PUSH1 0x4 ADD PUSH2 0x748 SWAP1 PUSH2 0x1810 JUMP JUMPDEST PUSH1 0x40 MLOAD DUP1 SWAP2 SUB SWAP1 REVERT JUMPDEST PUSH32 0x0 PUSH2 0x77A PUSH2 0x597 JUMP JUMPDEST LT PUSH2 0x7BA JUMPI PUSH1 0x40 MLOAD PUSH32 0x8C379A000000000000000000000000000000000000000000000000000000000 DUP2 MSTORE PUSH1 0x4 ADD PUSH2 0x7B1 SWAP1 PUSH2 0x18A2 JUMP JUMPDEST PUSH1 0x40 MLOAD DUP1 SWAP2 SUB SWAP1 REVERT JUMPDEST PUSH1 0x0 PUSH2 0x7C5 DUP3 PUSH2 0x513 JUMP JUMPDEST SWAP1 POP DUP1 DUP3 CALLER PUSH20 0xFFFFFFFFFFFFFFFFFFFFFFFFFFFFFFFFFFFFFFFF AND PUSH32 0x3D97AB026A5FDFD38A9E144F940D9E7DDCA4F2638F73F3DCB2CAC8374438139D PUSH1 0x40 MLOAD PUSH1 0x40 MLOAD DUP1 SWAP2 SUB SWAP1 LOG4 PUSH32 0x0 DUP2 PUSH2 0x836 PUSH2 0x597 JUMP JUMPDEST PUSH2 0x840 SWAP2 SWAP1 PUSH2 0x18C2 JUMP JUMPDEST POP POP PUSH2 0x84B DUP2 PUSH2 0xA89 JUMP JUMPDEST DUP1 DUP3 CALLER PUSH20 0xFFFFFFFFFFFFFFFFFFFFFFFFFFFFFFFFFFFFFFFF AND PUSH32 0x1983D4A8948DE0030F1101B7E335726BEE7BC5F4E6617A16C9722A35D45E80D4 PUSH1 0x40 MLOAD PUSH1 0x40 MLOAD DUP1 SWAP2 SUB SWAP1 LOG4 DUP2 PUSH1 0x2 PUSH1 0x0 DUP3 DUP3 SLOAD PUSH2 0x8A2 SWAP2 SWAP1 PUSH2 0x18C2 JUMP JUMPDEST SWAP3 POP POP DUP2 SWAP1 SSTORE POP PUSH1 0x0 PUSH1 0x1 PUSH8 0xFFFFFFFFFFFFFFFF DUP2 GT ISZERO PUSH2 0x8C6 JUMPI PUSH2 0x8C5 PUSH2 0xFF1 JUMP JUMPDEST JUMPDEST PUSH1 0x40 MLOAD SWAP1 DUP1 DUP3 MSTORE DUP1 PUSH1 0x20 MUL PUSH1 0x20 ADD DUP3 ADD PUSH1 0x40 MSTORE DUP1 ISZERO PUSH2 0x8FF JUMPI DUP2 PUSH1 0x20 ADD JUMPDEST PUSH2 0x8EC PUSH2 0xD5C JUMP JUMPDEST DUP2 MSTORE PUSH1 0x20 ADD SWAP1 PUSH1 0x1 SWAP1 SUB SWAP1 DUP2 PUSH2 0x8E4 JUMPI SWAP1 POP JUMPDEST POP SWAP1 POP PUSH1 0x40 MLOAD DUP1 PUSH1 0x40 ADD PUSH1 0x40 MSTORE DUP1 ADDRESS PUSH20 0xFFFFFFFFFFFFFFFFFFFFFFFFFFFFFFFFFFFFFFFF AND DUP2 MSTORE PUSH1 0x20 ADD DUP4 DUP2 MSTORE POP DUP2 PUSH1 0x0 DUP2 MLOAD DUP2 LT PUSH2 0x941 JUMPI PUSH2 0x940 PUSH2 0x18F6 JUMP JUMPDEST JUMPDEST PUSH1 0x20 MUL PUSH1 0x20 ADD ADD DUP2 SWAP1 MSTORE POP PUSH2 0x971 DUP5 ADDRESS CALLER PUSH3 0x186A0 PUSH1 0x0 DUP1 PUSH1 0x0 DUP9 PUSH1 0x40 MLOAD DUP1 PUSH1 0x20 ADD PUSH1 0x40 MSTORE DUP1 PUSH1 0x0 DUP2 MSTORE POP PUSH2 0xCC4 JUMP JUMPDEST POP POP POP POP JUMP JUMPDEST PUSH1 0x0 PUSH1 0x60 PUSH1 0x0 DUP1 PUSH1 0xFF PUSH20 0xFFFFFFFFFFFFFFFFFFFFFFFFFFFFFFFFFFFFFFFF AND DUP4 PUSH1 0x40 MLOAD PUSH2 0x9A4 SWAP2 SWAP1 PUSH2 0x196C JUMP JUMPDEST PUSH1 0x0 PUSH1 0x40 MLOAD DUP1 DUP4 SUB DUP2 DUP6 GAS STATICCALL SWAP2 POP POP RETURNDATASIZE DUP1 PUSH1 0x0 DUP2 EQ PUSH2 0x9DF JUMPI PUSH1 0x40 MLOAD SWAP2 POP PUSH1 0x1F NOT PUSH1 0x3F RETURNDATASIZE ADD AND DUP3 ADD PUSH1 0x40 MSTORE RETURNDATASIZE DUP3 MSTORE RETURNDATASIZE PUSH1 0x0 PUSH1 0x20 DUP5 ADD RETURNDATACOPY PUSH2 0x9E4 JUMP JUMPDEST PUSH1 0x60 SWAP2 POP JUMPDEST POP SWAP2 POP SWAP2 POP DUP2 PUSH2 0xA29 JUMPI PUSH1 0x40 MLOAD PUSH32 0x8C379A000000000000000000000000000000000000000000000000000000000 DUP2 MSTORE PUSH1 0x4 ADD PUSH2 0xA20 SWAP1 PUSH2 0x19CF JUMP JUMPDEST PUSH1 0x40 MLOAD DUP1 SWAP2 SUB SWAP1 REVERT JUMPDEST PUSH1 0x0 DUP2 MLOAD GT PUSH2 0xA6D JUMPI PUSH1 0x40 MLOAD PUSH32 0x8C379A000000000000000000000000000000000000000000000000000000000 DUP2 MSTORE PUSH1 0x4 ADD PUSH2 0xA64 SWAP1 PUSH2 0x1A61 JUMP JUMPDEST PUSH1 0x40 MLOAD DUP1 SWAP2 SUB SWAP1 REVERT JUMPDEST DUP1 DUP1 PUSH1 0x20 ADD SWAP1 MLOAD DUP2 ADD SWAP1 PUSH2 0xA81 SWAP2 SWAP1 PUSH2 0x1AB9 JUMP JUMPDEST SWAP4 POP POP POP POP SWAP1 JUMP JUMPDEST PUSH1 0x0 PUSH1 0xD0 PUSH20 0xFFFFFFFFFFFFFFFFFFFFFFFFFFFFFFFFFFFFFFFF AND PUSH4 0xF4C261B5 DUP4 PUSH1 0x40 MLOAD DUP3 PUSH4 0xFFFFFFFF AND PUSH1 0xE0 SHL DUP2 MSTORE PUSH1 0x4 ADD PUSH2 0xAC5 SWAP2 SWAP1 PUSH2 0xDFC JUMP JUMPDEST PUSH1 0x20 PUSH1 0x40 MLOAD DUP1 DUP4 SUB DUP2 PUSH1 0x0 DUP8 GAS CALL ISZERO DUP1 ISZERO PUSH2 0xAE4 JUMPI RETURNDATASIZE PUSH1 0x0 DUP1 RETURNDATACOPY RETURNDATASIZE PUSH1 0x0 REVERT JUMPDEST POP POP POP POP PUSH1 0x40 MLOAD RETURNDATASIZE PUSH1 0x1F NOT PUSH1 0x1F DUP3 ADD AND DUP3 ADD DUP1 PUSH1 0x40 MSTORE POP DUP2 ADD SWAP1 PUSH2 0xB08 SWAP2 SWAP1 PUSH2 0x1AB9 JUMP JUMPDEST SWAP1 POP DUP1 PUSH2 0xB4A JUMPI PUSH1 0x40 MLOAD PUSH32 0x8C379A000000000000000000000000000000000000000000000000000000000 DUP2 MSTORE PUSH1 0x4 ADD PUSH2 0xB41 SWAP1 PUSH2 0x1B32 JUMP JUMPDEST PUSH1 0x40 MLOAD DUP1 SWAP2 SUB SWAP1 REVERT JUMPDEST DUP2 PUSH1 0x0 DUP1 DUP3 DUP3 SLOAD PUSH2 0xB5B SWAP2 SWAP1 PUSH2 0x18C2 JUMP JUMPDEST SWAP3 POP POP DUP2 SWAP1 SSTORE POP POP POP JUMP JUMPDEST POP JUMP JUMPDEST PUSH1 0x60 PUSH2 0xB7C DUP10 DUP10 DUP10 DUP10 DUP10 DUP10 DUP10 DUP9 DUP11 PUSH2 0xCC4 JUMP JUMPDEST POP POP POP POP POP POP POP POP POP JUMP JUMPDEST PUSH1 0x0 PUSH1 0xD1 PUSH20 0xFFFFFFFFFFFFFFFFFFFFFFFFFFFFFFFFFFFFFFFF AND PUSH4 0x3A1735FC DUP4 DUP6 PUSH1 0x40 MLOAD DUP4 PUSH4 0xFFFFFFFF AND PUSH1 0xE0 SHL DUP2 MSTORE PUSH1 0x4 ADD PUSH2 0xBC5 SWAP3 SWAP2 SWAP1 PUSH2 0x1B61 JUMP JUMPDEST PUSH1 0x20 PUSH1 0x40 MLOAD DUP1 DUP4 SUB DUP2 DUP7 GAS STATICCALL ISZERO DUP1 ISZERO PUSH2 0xBE2 JUMPI RETURNDATASIZE PUSH1 0x0 DUP1 RETURNDATACOPY RETURNDATASIZE PUSH1 0x0 REVERT JUMPDEST POP POP POP POP PUSH1 0x40 MLOAD RETURNDATASIZE PUSH1 0x1F NOT PUSH1 0x1F DUP3 ADD AND DUP3 ADD DUP1 PUSH1 0x40 MSTORE POP DUP2 ADD SWAP1 PUSH2 0xC06 SWAP2 SWAP1 PUSH2 0x1B9F JUMP JUMPDEST SWAP1 POP SWAP3 SWAP2 POP POP JUMP JUMPDEST PUSH1 0x0 PUSH1 0x1 PUSH8 0xFFFFFFFFFFFFFFFF DUP2 GT ISZERO PUSH2 0xC2B JUMPI PUSH2 0xC2A PUSH2 0xFF1 JUMP JUMPDEST JUMPDEST PUSH1 0x40 MLOAD SWAP1 DUP1 DUP3 MSTORE DUP1 PUSH1 0x20 MUL PUSH1 0x20 ADD DUP3 ADD PUSH1 0x40 MSTORE DUP1 ISZERO PUSH2 0xC64 JUMPI DUP2 PUSH1 0x20 ADD JUMPDEST PUSH2 0xC51 PUSH2 0xD5C JUMP JUMPDEST DUP2 MSTORE PUSH1 0x20 ADD SWAP1 PUSH1 0x1 SWAP1 SUB SWAP1 DUP2 PUSH2 0xC49 JUMPI SWAP1 POP JUMPDEST POP SWAP1 POP PUSH1 0x40 MLOAD DUP1 PUSH1 0x40 ADD PUSH1 0x40 MSTORE DUP1 DUP5 DUP2 MSTORE PUSH1 0x20 ADD DUP4 DUP2 MSTORE POP DUP2 PUSH1 0x0 DUP2 MLOAD DUP2 LT PUSH2 0xC90 JUMPI PUSH2 0xC8F PUSH2 0x18F6 JUMP JUMPDEST JUMPDEST PUSH1 0x20 MUL PUSH1 0x20 ADD ADD DUP2 SWAP1 MSTORE POP PUSH2 0xCBE DUP5 PUSH1 0x0 DUP1 PUSH1 0x0 DUP1 PUSH1 0x0 DUP1 DUP9 PUSH1 0x40 MLOAD DUP1 PUSH1 0x20 ADD PUSH1 0x40 MSTORE DUP1 PUSH1 0x0 DUP2 MSTORE POP PUSH2 0xCC4 JUMP JUMPDEST POP POP POP POP JUMP JUMPDEST PUSH1 0xFD PUSH20 0xFFFFFFFFFFFFFFFFFFFFFFFFFFFFFFFFFFFFFFFF AND PUSH4 0xF1D1CF1C DUP5 DUP7 DUP9 DUP14 DUP14 DUP14 DUP14 DUP11 DUP11 PUSH1 0x40 MLOAD DUP11 PUSH4 0xFFFFFFFF AND PUSH1 0xE0 SHL DUP2 MSTORE PUSH1 0x4 ADD PUSH2 0xD0D SWAP9 SWAP8 SWAP7 SWAP6 SWAP5 SWAP4 SWAP3 SWAP2 SWAP1 PUSH2 0x1D2E JUMP JUMPDEST PUSH1 0x20 PUSH1 0x40 MLOAD DUP1 DUP4 SUB DUP2 DUP6 DUP9 GAS CALL ISZERO DUP1 ISZERO PUSH2 0xD2B JUMPI RETURNDATASIZE PUSH1 0x0 DUP1 RETURNDATACOPY RETURNDATASIZE PUSH1 0x0 REVERT JUMPDEST POP POP POP POP POP PUSH1 0x40 MLOAD RETURNDATASIZE PUSH1 0x1F NOT PUSH1 0x1F DUP3 ADD AND DUP3 ADD DUP1 PUSH1 0x40 MSTORE POP DUP2 ADD SWAP1 PUSH2 0xD50 SWAP2 SWAP1 PUSH2 0x1AB9 JUMP JUMPDEST POP POP POP POP POP POP POP POP POP POP JUMP JUMPDEST PUSH1 0x40 MLOAD DUP1 PUSH1 0x40 ADD PUSH1 0x40 MSTORE DUP1 PUSH1 0x0 DUP2 MSTORE PUSH1 0x20 ADD PUSH1 0x0 DUP2 MSTORE POP SWAP1 JUMP JUMPDEST PUSH1 0x0 PUSH1 0x40 MLOAD SWAP1 POP SWAP1 JUMP JUMPDEST PUSH1 0x0 DUP1 REVERT JUMPDEST PUSH1 0x0 DUP1 REVERT JUMPDEST PUSH1 0x0 DUP2 SWAP1 POP SWAP2 SWAP1 POP JUMP JUMPDEST PUSH2 0xD9D DUP2 PUSH2 0xD8A JUMP JUMPDEST DUP2 EQ PUSH2 0xDA8 JUMPI PUSH1 0x0 DUP1 REVERT JUMPDEST POP JUMP JUMPDEST PUSH1 0x0 DUP2 CALLDATALOAD SWAP1 POP PUSH2 0xDBA DUP2 PUSH2 0xD94 JUMP JUMPDEST SWAP3 SWAP2 POP POP JUMP JUMPDEST PUSH1 0x0 PUSH1 0x20 DUP3 DUP5 SUB SLT ISZERO PUSH2 0xDD6 JUMPI PUSH2 0xDD5 PUSH2 0xD80 JUMP JUMPDEST JUMPDEST PUSH1 0x0 PUSH2 0xDE4 DUP5 DUP3 DUP6 ADD PUSH2 0xDAB JUMP JUMPDEST SWAP2 POP POP SWAP3 SWAP2 POP POP JUMP JUMPDEST PUSH2 0xDF6 DUP2 PUSH2 0xD8A JUMP JUMPDEST DUP3 MSTORE POP POP JUMP JUMPDEST PUSH1 0x0 PUSH1 0x20 DUP3 ADD SWAP1 POP PUSH2 0xE11 PUSH1 0x0 DUP4 ADD DUP5 PUSH2 0xDED JUMP JUMPDEST SWAP3 SWAP2 POP POP JUMP JUMPDEST PUSH1 0x0 PUSH20 0xFFFFFFFFFFFFFFFFFFFFFFFFFFFFFFFFFFFFFFFF DUP3 AND SWAP1 POP SWAP2 SWAP1 POP JUMP JUMPDEST PUSH1 0x0 PUSH2 0xE42 DUP3 PUSH2 0xE17 JUMP JUMPDEST SWAP1 POP SWAP2 SWAP1 POP JUMP JUMPDEST PUSH2 0xE52 DUP2 PUSH2 0xE37 JUMP JUMPDEST DUP2 EQ PUSH2 0xE5D JUMPI PUSH1 0x0 DUP1 REVERT JUMPDEST POP JUMP JUMPDEST PUSH1 0x0 DUP2 CALLDATALOAD SWAP1 POP PUSH2 0xE6F DUP2 PUSH2 0xE49 JUMP JUMPDEST SWAP3 SWAP2 POP POP JUMP JUMPDEST PUSH1 0x0 DUP1 PUSH1 0x40 DUP4 DUP6 SUB SLT ISZERO PUSH2 0xE8C JUMPI PUSH2 0xE8B PUSH2 0xD80 JUMP JUMPDEST JUMPDEST PUSH1 0x0 PUSH2 0xE9A DUP6 DUP3 DUP7 ADD PUSH2 0xDAB JUMP JUMPDEST SWAP3 POP POP PUSH1 0x20 PUSH2 0xEAB DUP6 DUP3 DUP7 ADD PUSH2 0xE60 JUMP JUMPDEST SWAP2 POP POP SWAP3 POP SWAP3 SWAP1 POP JUMP JUMPDEST PUSH1 0x0 PUSH1 0x20 DUP3 DUP5 SUB SLT ISZERO PUSH2 0xECB JUMPI PUSH2 0xECA PUSH2 0xD80 JUMP JUMPDEST JUMPDEST PUSH1 0x0 PUSH2 0xED9 DUP5 DUP3 DUP6 ADD PUSH2 0xE60 JUMP JUMPDEST SWAP2 POP POP SWAP3 SWAP2 POP POP JUMP JUMPDEST PUSH1 0x0 DUP1 PUSH1 0x0 PUSH1 0x60 DUP5 DUP7 SUB SLT ISZERO PUSH2 0xEFB JUMPI PUSH2 0xEFA PUSH2 0xD80 JUMP JUMPDEST JUMPDEST PUSH1 0x0 PUSH2 0xF09 DUP7 DUP3 DUP8 ADD PUSH2 0xE60 JUMP JUMPDEST SWAP4 POP POP PUSH1 0x20 PUSH2 0xF1A DUP7 DUP3 DUP8 ADD PUSH2 0xDAB JUMP JUMPDEST SWAP3 POP POP PUSH1 0x40 PUSH2 0xF2B DUP7 DUP3 DUP8 ADD PUSH2 0xDAB JUMP JUMPDEST SWAP2 POP POP SWAP3 POP SWAP3 POP SWAP3 JUMP JUMPDEST PUSH1 0x0 DUP2 MLOAD SWAP1 POP SWAP2 SWAP1 POP JUMP JUMPDEST PUSH1 0x0 DUP3 DUP3 MSTORE PUSH1 0x20 DUP3 ADD SWAP1 POP SWAP3 SWAP2 POP POP JUMP JUMPDEST PUSH1 0x0 JUMPDEST DUP4 DUP2 LT ISZERO PUSH2 0xF6F JUMPI DUP1 DUP3 ADD MLOAD DUP2 DUP5 ADD MSTORE PUSH1 0x20 DUP2 ADD SWAP1 POP PUSH2 0xF54 JUMP JUMPDEST PUSH1 0x0 DUP5 DUP5 ADD MSTORE POP POP POP POP JUMP JUMPDEST PUSH1 0x0 PUSH1 0x1F NOT PUSH1 0x1F DUP4 ADD AND SWAP1 POP SWAP2 SWAP1 POP JUMP JUMPDEST PUSH1 0x0 PUSH2 0xF97 DUP3 PUSH2 0xF35 JUMP JUMPDEST PUSH2 0xFA1 DUP2 DUP6 PUSH2 0xF40 JUMP JUMPDEST SWAP4 POP PUSH2 0xFB1 DUP2 DUP6 PUSH1 0x20 DUP7 ADD PUSH2 0xF51 JUMP JUMPDEST PUSH2 0xFBA DUP2 PUSH2 0xF7B JUMP JUMPDEST DUP5 ADD SWAP2 POP POP SWAP3 SWAP2 POP POP JUMP JUMPDEST PUSH1 0x0 PUSH1 0x20 DUP3 ADD SWAP1 POP DUP2 DUP2 SUB PUSH1 0x0 DUP4 ADD MSTORE PUSH2 0xFDF DUP2 DUP5 PUSH2 0xF8C JUMP JUMPDEST SWAP1 POP SWAP3 SWAP2 POP POP JUMP JUMPDEST PUSH1 0x0 DUP1 REVERT JUMPDEST PUSH1 0x0 DUP1 REVERT JUMPDEST PUSH32 0x4E487B7100000000000000000000000000000000000000000000000000000000 PUSH1 0x0 MSTORE PUSH1 0x41 PUSH1 0x4 MSTORE PUSH1 0x24 PUSH1 0x0 REVERT JUMPDEST PUSH2 0x1029 DUP3 PUSH2 0xF7B JUMP JUMPDEST DUP2 ADD DUP2 DUP2 LT PUSH8 0xFFFFFFFFFFFFFFFF DUP3 GT OR ISZERO PUSH2 0x1048 JUMPI PUSH2 0x1047 PUSH2 0xFF1 JUMP JUMPDEST JUMPDEST DUP1 PUSH1 0x40 MSTORE POP POP POP JUMP JUMPDEST PUSH1 0x0 PUSH2 0x105B PUSH2 0xD76 JUMP JUMPDEST SWAP1 POP PUSH2 0x1067 DUP3 DUP3 PUSH2 0x1020 JUMP JUMPDEST SWAP2 SWAP1 POP JUMP JUMPDEST PUSH1 0x0 PUSH8 0xFFFFFFFFFFFFFFFF DUP3 GT ISZERO PUSH2 0x1087 JUMPI PUSH2 0x1086 PUSH2 0xFF1 JUMP JUMPDEST JUMPDEST PUSH2 0x1090 DUP3 PUSH2 0xF7B JUMP JUMPDEST SWAP1 POP PUSH1 0x20 DUP2 ADD SWAP1 POP SWAP2 SWAP1 POP JUMP JUMPDEST DUP3 DUP2 DUP4 CALLDATACOPY PUSH1 0x0 DUP4 DUP4 ADD MSTORE POP POP POP JUMP JUMPDEST PUSH1 0x0 PUSH2 0x10BF PUSH2 0x10BA DUP5 PUSH2 0x106C JUMP JUMPDEST PUSH2 0x1051 JUMP JUMPDEST SWAP1 POP DUP3 DUP2 MSTORE PUSH1 0x20 DUP2 ADD DUP5 DUP5 DUP5 ADD GT ISZERO PUSH2 0x10DB JUMPI PUSH2 0x10DA PUSH2 0xFEC JUMP JUMPDEST JUMPDEST PUSH2 0x10E6 DUP5 DUP3 DUP6 PUSH2 0x109D JUMP JUMPDEST POP SWAP4 SWAP3 POP POP POP JUMP JUMPDEST PUSH1 0x0 DUP3 PUSH1 0x1F DUP4 ADD SLT PUSH2 0x1103 JUMPI PUSH2 0x1102 PUSH2 0xFE7 JUMP JUMPDEST JUMPDEST DUP2 CALLDATALOAD PUSH2 0x1113 DUP5 DUP3 PUSH1 0x20 DUP7 ADD PUSH2 0x10AC JUMP JUMPDEST SWAP2 POP POP SWAP3 SWAP2 POP POP JUMP JUMPDEST PUSH1 0x0 PUSH1 0x20 DUP3 DUP5 SUB SLT ISZERO PUSH2 0x1132 JUMPI PUSH2 0x1131 PUSH2 0xD80 JUMP JUMPDEST JUMPDEST PUSH1 0x0 DUP3 ADD CALLDATALOAD PUSH8 0xFFFFFFFFFFFFFFFF DUP2 GT ISZERO PUSH2 0x1150 JUMPI PUSH2 0x114F PUSH2 0xD85 JUMP JUMPDEST JUMPDEST PUSH2 0x115C DUP5 DUP3 DUP6 ADD PUSH2 0x10EE JUMP JUMPDEST SWAP2 POP POP SWAP3 SWAP2 POP POP JUMP JUMPDEST PUSH32 0x547279696E6720746F2063616C6C2065787465726E616C2066756E6374696F6E PUSH1 0x0 DUP3 ADD MSTORE PUSH32 0x207769746820696E7465726E616C206D65737361676500000000000000000000 PUSH1 0x20 DUP3 ADD MSTORE POP JUMP JUMPDEST PUSH1 0x0 PUSH2 0x11C1 PUSH1 0x36 DUP4 PUSH2 0xF40 JUMP JUMPDEST SWAP2 POP PUSH2 0x11CC DUP3 PUSH2 0x1165 JUMP JUMPDEST PUSH1 0x40 DUP3 ADD SWAP1 POP SWAP2 SWAP1 POP JUMP JUMPDEST PUSH1 0x0 PUSH1 0x20 DUP3 ADD SWAP1 POP DUP2 DUP2 SUB PUSH1 0x0 DUP4 ADD MSTORE PUSH2 0x11F0 DUP2 PUSH2 0x11B4 JUMP JUMPDEST SWAP1 POP SWAP2 SWAP1 POP JUMP JUMPDEST PUSH32 0x4E487B7100000000000000000000000000000000000000000000000000000000 PUSH1 0x0 MSTORE PUSH1 0x11 PUSH1 0x4 MSTORE PUSH1 0x24 PUSH1 0x0 REVERT JUMPDEST PUSH1 0x0 DUP2 PUSH1 0x1 SHR SWAP1 POP SWAP2 SWAP1 POP JUMP JUMPDEST PUSH1 0x0 DUP1 DUP3 SWAP2 POP DUP4 SWAP1 POP JUMPDEST PUSH1 0x1 DUP6 GT ISZERO PUSH2 0x127D JUMPI DUP1 DUP7 DIV DUP2 GT ISZERO PUSH2 0x1259 JUMPI PUSH2 0x1258 PUSH2 0x11F7 JUMP JUMPDEST JUMPDEST PUSH1 0x1 DUP6 AND ISZERO PUSH2 0x1268 JUMPI DUP1 DUP3 MUL SWAP2 POP JUMPDEST DUP1 DUP2 MUL SWAP1 POP PUSH2 0x1276 DUP6 PUSH2 0x1226 JUMP JUMPDEST SWAP5 POP PUSH2 0x123D JUMP JUMPDEST SWAP5 POP SWAP5 SWAP3 POP POP POP JUMP JUMPDEST PUSH1 0x0 DUP3 PUSH2 0x1296 JUMPI PUSH1 0x1 SWAP1 POP PUSH2 0x1352 JUMP JUMPDEST DUP2 PUSH2 0x12A4 JUMPI PUSH1 0x0 SWAP1 POP PUSH2 0x1352 JUMP JUMPDEST DUP2 PUSH1 0x1 DUP2 EQ PUSH2 0x12BA JUMPI PUSH1 0x2 DUP2 EQ PUSH2 0x12C4 JUMPI PUSH2 0x12F3 JUMP JUMPDEST PUSH1 0x1 SWAP2 POP POP PUSH2 0x1352 JUMP JUMPDEST PUSH1 0xFF DUP5 GT ISZERO PUSH2 0x12D6 JUMPI PUSH2 0x12D5 PUSH2 0x11F7 JUMP JUMPDEST JUMPDEST DUP4 PUSH1 0x2 EXP SWAP2 POP DUP5 DUP3 GT ISZERO PUSH2 0x12ED JUMPI PUSH2 0x12EC PUSH2 0x11F7 JUMP JUMPDEST JUMPDEST POP PUSH2 0x1352 JUMP JUMPDEST POP PUSH1 0x20 DUP4 LT PUSH2 0x133 DUP4 LT AND PUSH1 0x4E DUP5 LT PUSH1 0xB DUP5 LT AND OR ISZERO PUSH2 0x1328 JUMPI DUP3 DUP3 EXP SWAP1 POP DUP4 DUP2 GT ISZERO PUSH2 0x1323 JUMPI PUSH2 0x1322 PUSH2 0x11F7 JUMP JUMPDEST JUMPDEST PUSH2 0x1352 JUMP JUMPDEST PUSH2 0x1335 DUP5 DUP5 DUP5 PUSH1 0x1 PUSH2 0x1233 JUMP JUMPDEST SWAP3 POP SWAP1 POP DUP2 DUP5 DIV DUP2 GT ISZERO PUSH2 0x134C JUMPI PUSH2 0x134B PUSH2 0x11F7 JUMP JUMPDEST JUMPDEST DUP2 DUP2 MUL SWAP1 POP JUMPDEST SWAP4 SWAP3 POP POP POP JUMP JUMPDEST PUSH1 0x0 PUSH2 0x1364 DUP3 PUSH2 0xD8A JUMP JUMPDEST SWAP2 POP PUSH2 0x136F DUP4 PUSH2 0xD8A JUMP JUMPDEST SWAP3 POP PUSH2 0x139C PUSH32 0xFFFFFFFFFFFFFFFFFFFFFFFFFFFFFFFFFFFFFFFFFFFFFFFFFFFFFFFFFFFFFFFF DUP5 DUP5 PUSH2 0x1286 JUMP JUMPDEST SWAP1 POP SWAP3 SWAP2 POP POP JUMP JUMPDEST PUSH1 0x0 PUSH2 0x13AF DUP3 PUSH2 0xD8A JUMP JUMPDEST SWAP2 POP PUSH2 0x13BA DUP4 PUSH2 0xD8A JUMP JUMPDEST SWAP3 POP DUP3 DUP3 MUL PUSH2 0x13C8 DUP2 PUSH2 0xD8A JUMP JUMPDEST SWAP2 POP DUP3 DUP3 DIV DUP5 EQ DUP4 ISZERO OR PUSH2 0x13DF JUMPI PUSH2 0x13DE PUSH2 0x11F7 JUMP JUMPDEST JUMPDEST POP SWAP3 SWAP2 POP POP JUMP JUMPDEST PUSH32 0x4E487B7100000000000000000000000000000000000000000000000000000000 PUSH1 0x0 MSTORE PUSH1 0x12 PUSH1 0x4 MSTORE PUSH1 0x24 PUSH1 0x0 REVERT JUMPDEST PUSH1 0x0 PUSH2 0x1420 DUP3 PUSH2 0xD8A JUMP JUMPDEST SWAP2 POP PUSH2 0x142B DUP4 PUSH2 0xD8A JUMP JUMPDEST SWAP3 POP DUP3 PUSH2 0x143B JUMPI PUSH2 0x143A PUSH2 0x13E6 JUMP JUMPDEST JUMPDEST DUP3 DUP3 DIV SWAP1 POP SWAP3 SWAP2 POP POP JUMP JUMPDEST PUSH32 0x496E73756666696369656E742062616C616E6365000000000000000000000000 PUSH1 0x0 DUP3 ADD MSTORE POP JUMP JUMPDEST PUSH1 0x0 PUSH2 0x147C PUSH1 0x14 DUP4 PUSH2 0xF40 JUMP JUMPDEST SWAP2 POP PUSH2 0x1487 DUP3 PUSH2 0x1446 JUMP JUMPDEST PUSH1 0x20 DUP3 ADD SWAP1 POP SWAP2 SWAP1 POP JUMP JUMPDEST PUSH1 0x0 PUSH1 0x20 DUP3 ADD SWAP1 POP DUP2 DUP2 SUB PUSH1 0x0 DUP4 ADD MSTORE PUSH2 0x14AB DUP2 PUSH2 0x146F JUMP JUMPDEST SWAP1 POP SWAP2 SWAP1 POP JUMP JUMPDEST PUSH1 0x0 PUSH2 0x14BD DUP3 PUSH2 0xD8A JUMP JUMPDEST SWAP2 POP PUSH2 0x14C8 DUP4 PUSH2 0xD8A JUMP JUMPDEST SWAP3 POP DUP3 DUP3 SUB SWAP1 POP DUP2 DUP2 GT ISZERO PUSH2 0x14E0 JUMPI PUSH2 0x14DF PUSH2 0x11F7 JUMP JUMPDEST JUMPDEST SWAP3 SWAP2 POP POP JUMP JUMPDEST PUSH32 0x4E487B7100000000000000000000000000000000000000000000000000000000 PUSH1 0x0 MSTORE PUSH1 0x22 PUSH1 0x4 MSTORE PUSH1 0x24 PUSH1 0x0 REVERT JUMPDEST PUSH1 0x0 PUSH1 0x2 DUP3 DIV SWAP1 POP PUSH1 0x1 DUP3 AND DUP1 PUSH2 0x152D JUMPI PUSH1 0x7F DUP3 AND SWAP2 POP JUMPDEST PUSH1 0x20 DUP3 LT DUP2 SUB PUSH2 0x1540 JUMPI PUSH2 0x153F PUSH2 0x14E6 JUMP JUMPDEST JUMPDEST POP SWAP2 SWAP1 POP JUMP JUMPDEST PUSH1 0x0 DUP2 SWAP1 POP DUP2 PUSH1 0x0 MSTORE PUSH1 0x20 PUSH1 0x0 KECCAK256 SWAP1 POP SWAP2 SWAP1 POP JUMP JUMPDEST PUSH1 0x0 PUSH1 0x20 PUSH1 0x1F DUP4 ADD DIV SWAP1 POP SWAP2 SWAP1 POP JUMP JUMPDEST PUSH1 0x0 DUP3 DUP3 SHL SWAP1 POP SWAP3 SWAP2 POP POP JUMP JUMPDEST PUSH1 0x0 PUSH1 0x8 DUP4 MUL PUSH2 0x15A8 PUSH32 0xFFFFFFFFFFFFFFFFFFFFFFFFFFFFFFFFFFFFFFFFFFFFFFFFFFFFFFFFFFFFFFFF DUP3 PUSH2 0x156B JUMP JUMPDEST PUSH2 0x15B2 DUP7 DUP4 PUSH2 0x156B JUMP JUMPDEST SWAP6 POP DUP1 NOT DUP5 AND SWAP4 POP DUP1 DUP7 AND DUP5 OR SWAP3 POP POP POP SWAP4 SWAP3 POP POP POP JUMP JUMPDEST PUSH1 0x0 DUP2 SWAP1 POP SWAP2 SWAP1 POP JUMP JUMPDEST PUSH1 0x0 PUSH2 0x15EF PUSH2 0x15EA PUSH2 0x15E5 DUP5 PUSH2 0xD8A JUMP JUMPDEST PUSH2 0x15CA JUMP JUMPDEST PUSH2 0xD8A JUMP JUMPDEST SWAP1 POP SWAP2 SWAP1 POP JUMP JUMPDEST PUSH1 0x0 DUP2 SWAP1 POP SWAP2 SWAP1 POP JUMP JUMPDEST PUSH2 0x1609 DUP4 PUSH2 0x15D4 JUMP JUMPDEST PUSH2 0x161D PUSH2 0x1615 DUP3 PUSH2 0x15F6 JUMP JUMPDEST DUP5 DUP5 SLOAD PUSH2 0x1578 JUMP JUMPDEST DUP3 SSTORE POP POP POP POP JUMP JUMPDEST PUSH1 0x0 SWAP1 JUMP JUMPDEST PUSH2 0x1632 PUSH2 0x1625 JUMP JUMPDEST PUSH2 0x163D DUP2 DUP5 DUP5 PUSH2 0x1600 JUMP JUMPDEST POP POP POP JUMP JUMPDEST JUMPDEST DUP2 DUP2 LT ISZERO PUSH2 0x1661 JUMPI PUSH2 0x1656 PUSH1 0x0 DUP3 PUSH2 0x162A JUMP JUMPDEST PUSH1 0x1 DUP2 ADD SWAP1 POP PUSH2 0x1643 JUMP JUMPDEST POP POP JUMP JUMPDEST PUSH1 0x1F DUP3 GT ISZERO PUSH2 0x16A6 JUMPI PUSH2 0x1677 DUP2 PUSH2 0x1546 JUMP JUMPDEST PUSH2 0x1680 DUP5 PUSH2 0x155B JUMP JUMPDEST DUP2 ADD PUSH1 0x20 DUP6 LT ISZERO PUSH2 0x168F JUMPI DUP2 SWAP1 POP JUMPDEST PUSH2 0x16A3 PUSH2 0x169B DUP6 PUSH2 0x155B JUMP JUMPDEST DUP4 ADD DUP3 PUSH2 0x1642 JUMP JUMPDEST POP POP JUMPDEST POP POP POP JUMP JUMPDEST PUSH1 0x0 DUP3 DUP3 SHR SWAP1 POP SWAP3 SWAP2 POP POP JUMP JUMPDEST PUSH1 0x0 PUSH2 0x16C9 PUSH1 0x0 NOT DUP5 PUSH1 0x8 MUL PUSH2 0x16AB JUMP JUMPDEST NOT DUP1 DUP4 AND SWAP2 POP POP SWAP3 SWAP2 POP POP JUMP JUMPDEST PUSH1 0x0 PUSH2 0x16E2 DUP4 DUP4 PUSH2 0x16B8 JUMP JUMPDEST SWAP2 POP DUP3 PUSH1 0x2 MUL DUP3 OR SWAP1 POP SWAP3 SWAP2 POP POP JUMP JUMPDEST PUSH2 0x16FB DUP3 PUSH2 0xF35 JUMP JUMPDEST PUSH8 0xFFFFFFFFFFFFFFFF DUP2 GT ISZERO PUSH2 0x1714 JUMPI PUSH2 0x1713 PUSH2 0xFF1 JUMP JUMPDEST JUMPDEST PUSH2 0x171E DUP3 SLOAD PUSH2 0x1515 JUMP JUMPDEST PUSH2 0x1729 DUP3 DUP3 DUP6 PUSH2 0x1665 JUMP JUMPDEST PUSH1 0x0 PUSH1 0x20 SWAP1 POP PUSH1 0x1F DUP4 GT PUSH1 0x1 DUP2 EQ PUSH2 0x175C JUMPI PUSH1 0x0 DUP5 ISZERO PUSH2 0x174A JUMPI DUP3 DUP8 ADD MLOAD SWAP1 POP JUMPDEST PUSH2 0x1754 DUP6 DUP3 PUSH2 0x16D6 JUMP JUMPDEST DUP7 SSTORE POP PUSH2 0x17BC JUMP JUMPDEST PUSH1 0x1F NOT DUP5 AND PUSH2 0x176A DUP7 PUSH2 0x1546 JUMP JUMPDEST PUSH1 0x0 JUMPDEST DUP3 DUP2 LT ISZERO PUSH2 0x1792 JUMPI DUP5 DUP10 ADD MLOAD DUP3 SSTORE PUSH1 0x1 DUP3 ADD SWAP2 POP PUSH1 0x20 DUP6 ADD SWAP5 POP PUSH1 0x20 DUP2 ADD SWAP1 POP PUSH2 0x176D JUMP JUMPDEST DUP7 DUP4 LT ISZERO PUSH2 0x17AF JUMPI DUP5 DUP10 ADD MLOAD PUSH2 0x17AB PUSH1 0x1F DUP10 AND DUP3 PUSH2 0x16B8 JUMP JUMPDEST DUP4 SSTORE POP JUMPDEST PUSH1 0x1 PUSH1 0x2 DUP9 MUL ADD DUP9 SSTORE POP POP POP JUMPDEST POP POP POP POP POP POP JUMP JUMPDEST PUSH32 0x456D707479206465706F73697400000000000000000000000000000000000000 PUSH1 0x0 DUP3 ADD MSTORE POP JUMP JUMPDEST PUSH1 0x0 PUSH2 0x17FA PUSH1 0xD DUP4 PUSH2 0xF40 JUMP JUMPDEST SWAP2 POP PUSH2 0x1805 DUP3 PUSH2 0x17C4 JUMP JUMPDEST PUSH1 0x20 DUP3 ADD SWAP1 POP SWAP2 SWAP1 POP JUMP JUMPDEST PUSH1 0x0 PUSH1 0x20 DUP3 ADD SWAP1 POP DUP2 DUP2 SUB PUSH1 0x0 DUP4 ADD MSTORE PUSH2 0x1829 DUP2 PUSH2 0x17ED JUMP JUMPDEST SWAP1 POP SWAP2 SWAP1 POP JUMP JUMPDEST PUSH32 0x416C6C20746F6B656E65732061726520616C7265616479207075726368617365 PUSH1 0x0 DUP3 ADD MSTORE PUSH32 0x6400000000000000000000000000000000000000000000000000000000000000 PUSH1 0x20 DUP3 ADD MSTORE POP JUMP JUMPDEST PUSH1 0x0 PUSH2 0x188C PUSH1 0x21 DUP4 PUSH2 0xF40 JUMP JUMPDEST SWAP2 POP PUSH2 0x1897 DUP3 PUSH2 0x1830 JUMP JUMPDEST PUSH1 0x40 DUP3 ADD SWAP1 POP SWAP2 SWAP1 POP JUMP JUMPDEST PUSH1 0x0 PUSH1 0x20 DUP3 ADD SWAP1 POP DUP2 DUP2 SUB PUSH1 0x0 DUP4 ADD MSTORE PUSH2 0x18BB DUP2 PUSH2 0x187F JUMP JUMPDEST SWAP1 POP SWAP2 SWAP1 POP JUMP JUMPDEST PUSH1 0x0 PUSH2 0x18CD DUP3 PUSH2 0xD8A JUMP JUMPDEST SWAP2 POP PUSH2 0x18D8 DUP4 PUSH2 0xD8A JUMP JUMPDEST SWAP3 POP DUP3 DUP3 ADD SWAP1 POP DUP1 DUP3 GT ISZERO PUSH2 0x18F0 JUMPI PUSH2 0x18EF PUSH2 0x11F7 JUMP JUMPDEST JUMPDEST SWAP3 SWAP2 POP POP JUMP JUMPDEST PUSH32 0x4E487B7100000000000000000000000000000000000000000000000000000000 PUSH1 0x0 MSTORE PUSH1 0x32 PUSH1 0x4 MSTORE PUSH1 0x24 PUSH1 0x0 REVERT JUMPDEST PUSH1 0x0 DUP2 MLOAD SWAP1 POP SWAP2 SWAP1 POP JUMP JUMPDEST PUSH1 0x0 DUP2 SWAP1 POP SWAP3 SWAP2 POP POP JUMP JUMPDEST PUSH1 0x0 PUSH2 0x1946 DUP3 PUSH2 0x1925 JUMP JUMPDEST PUSH2 0x1950 DUP2 DUP6 PUSH2 0x1930 JUMP JUMPDEST SWAP4 POP PUSH2 0x1960 DUP2 DUP6 PUSH1 0x20 DUP7 ADD PUSH2 0xF51 JUMP JUMPDEST DUP1 DUP5 ADD SWAP2 POP POP SWAP3 SWAP2 POP POP JUMP JUMPDEST PUSH1 0x0 PUSH2 0x1978 DUP3 DUP5 PUSH2 0x193B JUMP JUMPDEST SWAP2 POP DUP2 SWAP1 POP SWAP3 SWAP2 POP POP JUMP JUMPDEST PUSH32 0x507265636F6D70696C656420636F6E74726163742063616C6C206661696C6564 PUSH1 0x0 DUP3 ADD MSTORE POP JUMP JUMPDEST PUSH1 0x0 PUSH2 0x19B9 PUSH1 0x20 DUP4 PUSH2 0xF40 JUMP JUMPDEST SWAP2 POP PUSH2 0x19C4 DUP3 PUSH2 0x1983 JUMP JUMPDEST PUSH1 0x20 DUP3 ADD SWAP1 POP SWAP2 SWAP1 POP JUMP JUMPDEST PUSH1 0x0 PUSH1 0x20 DUP3 ADD SWAP1 POP DUP2 DUP2 SUB PUSH1 0x0 DUP4 ADD MSTORE PUSH2 0x19E8 DUP2 PUSH2 0x19AC JUMP JUMPDEST SWAP1 POP SWAP2 SWAP1 POP JUMP JUMPDEST PUSH32 0x2749535F494E5445524E414C5F4D455353414745272072657475726E7320696E PUSH1 0x0 DUP3 ADD MSTORE PUSH32 0x76616C6964206461746100000000000000000000000000000000000000000000 PUSH1 0x20 DUP3 ADD MSTORE POP JUMP JUMPDEST PUSH1 0x0 PUSH2 0x1A4B PUSH1 0x2A DUP4 PUSH2 0xF40 JUMP JUMPDEST SWAP2 POP PUSH2 0x1A56 DUP3 PUSH2 0x19EF JUMP JUMPDEST PUSH1 0x40 DUP3 ADD SWAP1 POP SWAP2 SWAP1 POP JUMP JUMPDEST PUSH1 0x0 PUSH1 0x20 DUP3 ADD SWAP1 POP DUP2 DUP2 SUB PUSH1 0x0 DUP4 ADD MSTORE PUSH2 0x1A7A DUP2 PUSH2 0x1A3E JUMP JUMPDEST SWAP1 POP SWAP2 SWAP1 POP JUMP JUMPDEST PUSH1 0x0 DUP2 ISZERO ISZERO SWAP1 POP SWAP2 SWAP1 POP JUMP JUMPDEST PUSH2 0x1A96 DUP2 PUSH2 0x1A81 JUMP JUMPDEST DUP2 EQ PUSH2 0x1AA1 JUMPI PUSH1 0x0 DUP1 REVERT JUMPDEST POP JUMP JUMPDEST PUSH1 0x0 DUP2 MLOAD SWAP1 POP PUSH2 0x1AB3 DUP2 PUSH2 0x1A8D JUMP JUMPDEST SWAP3 SWAP2 POP POP JUMP JUMPDEST PUSH1 0x0 PUSH1 0x20 DUP3 DUP5 SUB SLT ISZERO PUSH2 0x1ACF JUMPI PUSH2 0x1ACE PUSH2 0xD80 JUMP JUMPDEST JUMPDEST PUSH1 0x0 PUSH2 0x1ADD DUP5 DUP3 DUP6 ADD PUSH2 0x1AA4 JUMP JUMPDEST SWAP2 POP POP SWAP3 SWAP2 POP POP JUMP JUMPDEST PUSH32 0x4D696E74206661696C6564000000000000000000000000000000000000000000 PUSH1 0x0 DUP3 ADD MSTORE POP JUMP JUMPDEST PUSH1 0x0 PUSH2 0x1B1C PUSH1 0xB DUP4 PUSH2 0xF40 JUMP JUMPDEST SWAP2 POP PUSH2 0x1B27 DUP3 PUSH2 0x1AE6 JUMP JUMPDEST PUSH1 0x20 DUP3 ADD SWAP1 POP SWAP2 SWAP1 POP JUMP JUMPDEST PUSH1 0x0 PUSH1 0x20 DUP3 ADD SWAP1 POP DUP2 DUP2 SUB PUSH1 0x0 DUP4 ADD MSTORE PUSH2 0x1B4B DUP2 PUSH2 0x1B0F JUMP JUMPDEST SWAP1 POP SWAP2 SWAP1 POP JUMP JUMPDEST PUSH2 0x1B5B DUP2 PUSH2 0xE37 JUMP JUMPDEST DUP3 MSTORE POP POP JUMP JUMPDEST PUSH1 0x0 PUSH1 0x40 DUP3 ADD SWAP1 POP PUSH2 0x1B76 PUSH1 0x0 DUP4 ADD DUP6 PUSH2 0xDED JUMP JUMPDEST PUSH2 0x1B83 PUSH1 0x20 DUP4 ADD DUP5 PUSH2 0x1B52 JUMP JUMPDEST SWAP4 SWAP3 POP POP POP JUMP JUMPDEST PUSH1 0x0 DUP2 MLOAD SWAP1 POP PUSH2 0x1B99 DUP2 PUSH2 0xD94 JUMP JUMPDEST SWAP3 SWAP2 POP POP JUMP JUMPDEST PUSH1 0x0 PUSH1 0x20 DUP3 DUP5 SUB SLT ISZERO PUSH2 0x1BB5 JUMPI PUSH2 0x1BB4 PUSH2 0xD80 JUMP JUMPDEST JUMPDEST PUSH1 0x0 PUSH2 0x1BC3 DUP5 DUP3 DUP6 ADD PUSH2 0x1B8A JUMP JUMPDEST SWAP2 POP POP SWAP3 SWAP2 POP POP JUMP JUMPDEST PUSH2 0x1BD5 DUP2 PUSH2 0x1A81 JUMP JUMPDEST DUP3 MSTORE POP POP JUMP JUMPDEST PUSH1 0x0 PUSH1 0xFF DUP3 AND SWAP1 POP SWAP2 SWAP1 POP JUMP JUMPDEST PUSH2 0x1BF1 DUP2 PUSH2 0x1BDB JUMP JUMPDEST DUP3 MSTORE POP POP JUMP JUMPDEST PUSH1 0x0 DUP2 MLOAD SWAP1 POP SWAP2 SWAP1 POP JUMP JUMPDEST PUSH1 0x0 DUP3 DUP3 MSTORE PUSH1 0x20 DUP3 ADD SWAP1 POP SWAP3 SWAP2 POP POP JUMP JUMPDEST PUSH1 0x0 DUP2 SWAP1 POP PUSH1 0x20 DUP3 ADD SWAP1 POP SWAP2 SWAP1 POP JUMP JUMPDEST PUSH2 0x1C2C DUP2 PUSH2 0xD8A JUMP JUMPDEST DUP3 MSTORE POP POP JUMP JUMPDEST PUSH1 0x40 DUP3 ADD PUSH1 0x0 DUP3 ADD MLOAD PUSH2 0x1C48 PUSH1 0x0 DUP6 ADD DUP3 PUSH2 0x1C23 JUMP JUMPDEST POP PUSH1 0x20 DUP3 ADD MLOAD PUSH2 0x1C5B PUSH1 0x20 DUP6 ADD DUP3 PUSH2 0x1C23 JUMP JUMPDEST POP POP POP POP JUMP JUMPDEST PUSH1 0x0 PUSH2 0x1C6D DUP4 DUP4 PUSH2 0x1C32 JUMP JUMPDEST PUSH1 0x40 DUP4 ADD SWAP1 POP SWAP3 SWAP2 POP POP JUMP JUMPDEST PUSH1 0x0 PUSH1 0x20 DUP3 ADD SWAP1 POP SWAP2 SWAP1 POP JUMP JUMPDEST PUSH1 0x0 PUSH2 0x1C91 DUP3 PUSH2 0x1BF7 JUMP JUMPDEST PUSH2 0x1C9B DUP2 DUP6 PUSH2 0x1C02 JUMP JUMPDEST SWAP4 POP PUSH2 0x1CA6 DUP4 PUSH2 0x1C13 JUMP JUMPDEST DUP1 PUSH1 0x0 JUMPDEST DUP4 DUP2 LT ISZERO PUSH2 0x1CD7 JUMPI DUP2 MLOAD PUSH2 0x1CBE DUP9 DUP3 PUSH2 0x1C61 JUMP JUMPDEST SWAP8 POP PUSH2 0x1CC9 DUP4 PUSH2 0x1C79 JUMP JUMPDEST SWAP3 POP POP PUSH1 0x1 DUP2 ADD SWAP1 POP PUSH2 0x1CAA JUMP JUMPDEST POP DUP6 SWAP4 POP POP POP POP SWAP3 SWAP2 POP POP JUMP JUMPDEST PUSH1 0x0 DUP3 DUP3 MSTORE PUSH1 0x20 DUP3 ADD SWAP1 POP SWAP3 SWAP2 POP POP JUMP JUMPDEST PUSH1 0x0 PUSH2 0x1D00 DUP3 PUSH2 0x1925 JUMP JUMPDEST PUSH2 0x1D0A DUP2 DUP6 PUSH2 0x1CE4 JUMP JUMPDEST SWAP4 POP PUSH2 0x1D1A DUP2 DUP6 PUSH1 0x20 DUP7 ADD PUSH2 0xF51 JUMP JUMPDEST PUSH2 0x1D23 DUP2 PUSH2 0xF7B JUMP JUMPDEST DUP5 ADD SWAP2 POP POP SWAP3 SWAP2 POP POP JUMP JUMPDEST PUSH1 0x0 PUSH2 0x100 DUP3 ADD SWAP1 POP PUSH2 0x1D44 PUSH1 0x0 DUP4 ADD DUP12 PUSH2 0x1BCC JUMP JUMPDEST PUSH2 0x1D51 PUSH1 0x20 DUP4 ADD DUP11 PUSH2 0x1BE8 JUMP JUMPDEST PUSH2 0x1D5E PUSH1 0x40 DUP4 ADD DUP10 PUSH2 0x1B52 JUMP JUMPDEST PUSH2 0x1D6B PUSH1 0x60 DUP4 ADD DUP9 PUSH2 0x1B52 JUMP JUMPDEST PUSH2 0x1D78 PUSH1 0x80 DUP4 ADD DUP8 PUSH2 0x1B52 JUMP JUMPDEST PUSH2 0x1D85 PUSH1 0xA0 DUP4 ADD DUP7 PUSH2 0xDED JUMP JUMPDEST DUP2 DUP2 SUB PUSH1 0xC0 DUP4 ADD MSTORE PUSH2 0x1D97 DUP2 DUP6 PUSH2 0x1C86 JUMP JUMPDEST SWAP1 POP DUP2 DUP2 SUB PUSH1 0xE0 DUP4 ADD MSTORE PUSH2 0x1DAB DUP2 DUP5 PUSH2 0x1CF5 JUMP JUMPDEST SWAP1 POP SWAP10 SWAP9 POP POP POP POP POP POP POP POP POP JUMP INVALID LOG2 PUSH5 0x6970667358 0x22 SLT KECCAK256 0xEE SMOD ADDRESS GASLIMIT 0xB5 0xDE 0xDF CREATE2 MOD 0x21 JUMPDEST XOR 0x2C MSTORE 0xC9 0xED JUMPDEST LOG4 SSTORE SLT NOT GT SELFBALANCE TIMESTAMP DUP15 RETURNDATACOPY 0xDE SWAP13 0xE7 0xD5 AND 0x2B PUSH5 0x736F6C6343 STOP ADDMOD XOR STOP CALLER "},"methodIdentifiers":{"buy(address)":"f088d547","calculateBuyPrice(uint256)":"58b9a996","calculateSellPrice(uint256)":"2e5e2b3b","curveExponent()":"2a9795cd","getCurrencyBalanceOf(address)":"5e38b66c","getCurrencyId()":"cf387fed","getCurrencyName()":"d064d784","getCurrencyTotalSupply()":"add29c6d","getOwnCurrencyBalance()":"97856308","initialPricePerToken()":"dc4c1328","maxTotalSupply()":"2ab4d052","mintCurrency(uint256)":"1072b91f","poolBalance()":"96365d44","sell(uint256,address)":"4189a68e","sendCurrency(address,uint256,uint256)":"b534638e","setCurrencyName(string)":"eed20631"}}}}}