{
  "_format": "hh-sol-artifact-1",
  "contractName": "Wallet",
  "sourceName": "contracts/nil/Wallet.sol",
  "abi": [
    {
      "inputs": [
        {
          "internalType": "bytes",
          "name": "_pubkey",
          "type": "bytes"
        }
      ],
      "stateMutability": "payable",
      "type": "constructor"
    },
    {
      "inputs": [
        {
          "internalType": "address",
          "name": "dst",
          "type": "address"
        },
        {
          "internalType": "address",
          "name": "refundTo",
          "type": "address"
        },
        {
          "internalType": "address",
          "name": "bounceTo",
          "type": "address"
        },
        {
          "internalType": "uint256",
          "name": "feeCredit",
          "type": "uint256"
        },
        {
          "internalType": "bool",
          "name": "deploy",
          "type": "bool"
        },
        {
          "components": [
            {
              "internalType": "uint256",
              "name": "id",
              "type": "uint256"
            },
            {
              "internalType": "uint256",
              "name": "amount",
              "type": "uint256"
            }
          ],
          "internalType": "struct Nil.Token[]",
          "name": "tokens",
          "type": "tuple[]"
        },
        {
          "internalType": "uint256",
          "name": "value",
          "type": "uint256"
        },
        {
          "internalType": "bytes",
          "name": "callData",
          "type": "bytes"
        }
      ],
      "name": "asyncCall",
      "outputs": [],
      "stateMutability": "nonpayable",
      "type": "function"
    },
    {
      "inputs": [
        {
          "internalType": "string",
          "name": "err",
          "type": "string"
        }
      ],
      "name": "bounce",
      "outputs": [],
      "stateMutability": "payable",
      "type": "function"
    },
    {
      "inputs": [
        {
          "internalType": "address",
          "name": "account",
          "type": "address"
        }
      ],
      "name": "getCurrencyBalanceOf",
      "outputs": [
        {
          "internalType": "uint256",
          "name": "",
          "type": "uint256"
        }
      ],
      "stateMutability": "view",
      "type": "function"
    },
    {
      "inputs": [],
      "name": "getCurrencyId",
      "outputs": [
        {
          "internalType": "uint256",
          "name": "",
          "type": "uint256"
        }
      ],
      "stateMutability": "view",
      "type": "function"
    },
    {
      "inputs": [],
      "name": "getCurrencyName",
      "outputs": [
        {
          "internalType": "string",
          "name": "",
          "type": "string"
        }
      ],
      "stateMutability": "view",
      "type": "function"
    },
    {
      "inputs": [],
      "name": "getCurrencyTotalSupply",
      "outputs": [
        {
          "internalType": "uint256",
          "name": "",
          "type": "uint256"
        }
      ],
      "stateMutability": "view",
      "type": "function"
    },
    {
      "inputs": [],
      "name": "getOwnCurrencyBalance",
      "outputs": [
        {
          "internalType": "uint256",
          "name": "",
          "type": "uint256"
        }
      ],
      "stateMutability": "view",
      "type": "function"
    },
    {
      "inputs": [
        {
          "internalType": "uint256",
          "name": "amount",
          "type": "uint256"
        }
      ],
      "name": "mintCurrency",
      "outputs": [],
      "stateMutability": "nonpayable",
      "type": "function"
    },
    {
      "inputs": [
        {
          "internalType": "bytes",
          "name": "message",
          "type": "bytes"
        }
      ],
      "name": "send",
      "outputs": [],
      "stateMutability": "nonpayable",
      "type": "function"
    },
    {
      "inputs": [
        {
          "internalType": "address",
          "name": "to",
          "type": "address"
        },
        {
          "internalType": "uint256",
          "name": "currencyId",
          "type": "uint256"
        },
        {
          "internalType": "uint256",
          "name": "amount",
          "type": "uint256"
        }
      ],
      "name": "sendCurrency",
      "outputs": [],
      "stateMutability": "nonpayable",
      "type": "function"
    },
    {
      "inputs": [
        {
          "internalType": "string",
          "name": "name",
          "type": "string"
        }
      ],
      "name": "setCurrencyName",
      "outputs": [],
      "stateMutability": "nonpayable",
      "type": "function"
    },
    {
      "inputs": [
        {
          "internalType": "address",
          "name": "dst",
          "type": "address"
        },
        {
          "internalType": "uint256",
          "name": "feeCredit",
          "type": "uint256"
        },
        {
          "internalType": "uint256",
          "name": "value",
          "type": "uint256"
        },
        {
          "internalType": "bytes",
          "name": "call_data",
          "type": "bytes"
        }
      ],
      "name": "syncCall",
      "outputs": [],
      "stateMutability": "nonpayable",
      "type": "function"
    },
    {
      "inputs": [
        {
          "internalType": "uint256",
          "name": "hash",
          "type": "uint256"
        },
        {
          "internalType": "bytes",
          "name": "signature",
          "type": "bytes"
        }
      ],
      "name": "verifyExternal",
      "outputs": [
        {
          "internalType": "bool",
          "name": "",
          "type": "bool"
        }
      ],
      "stateMutability": "view",
      "type": "function"
    },
    {
      "stateMutability": "payable",
      "type": "receive"
    }
  ],
  "bytecode": "0x6080604052604051620024d6380380620024d68339818101604052810190620000299190620001d5565b80600290816200003a919062000471565b505062000558565b6000604051905090565b600080fd5b600080fd5b600080fd5b600080fd5b6000601f19601f8301169050919050565b7f4e487b7100000000000000000000000000000000000000000000000000000000600052604160045260246000fd5b620000ab8262000060565b810181811067ffffffffffffffff82111715620000cd57620000cc62000071565b5b80604052505050565b6000620000e262000042565b9050620000f08282620000a0565b919050565b600067ffffffffffffffff82111562000113576200011262000071565b5b6200011e8262000060565b9050602081019050919050565b60005b838110156200014b5780820151818401526020810190506200012e565b60008484015250505050565b60006200016e6200016884620000f5565b620000d6565b9050828152602081018484840111156200018d576200018c6200005b565b5b6200019a8482856200012b565b509392505050565b600082601f830112620001ba57620001b962000056565b5b8151620001cc84826020860162000157565b91505092915050565b600060208284031215620001ee57620001ed6200004c565b5b600082015167ffffffffffffffff8111156200020f576200020e62000051565b5b6200021d84828501620001a2565b91505092915050565b600081519050919050565b7f4e487b7100000000000000000000000000000000000000000000000000000000600052602260045260246000fd5b600060028204905060018216806200027957607f821691505b6020821081036200028f576200028e62000231565b5b50919050565b60008190508160005260206000209050919050565b60006020601f8301049050919050565b600082821b905092915050565b600060088302620002f97fffffffffffffffffffffffffffffffffffffffffffffffffffffffffffffffff82620002ba565b620003058683620002ba565b95508019841693508086168417925050509392505050565b6000819050919050565b6000819050919050565b6000620003526200034c62000346846200031d565b62000327565b6200031d565b9050919050565b6000819050919050565b6200036e8362000331565b620003866200037d8262000359565b848454620002c7565b825550505050565b600090565b6200039d6200038e565b620003aa81848462000363565b505050565b5b81811015620003d257620003c660008262000393565b600181019050620003b0565b5050565b601f8211156200042157620003eb8162000295565b620003f684620002aa565b8101602085101562000406578190505b6200041e6200041585620002aa565b830182620003af565b50505b505050565b600082821c905092915050565b6000620004466000198460080262000426565b1980831691505092915050565b600062000461838362000433565b9150826002028217905092915050565b6200047c8262000226565b67ffffffffffffffff81111562000498576200049762000071565b5b620004a4825462000260565b620004b1828285620003d6565b600060209050601f831160018114620004e95760008415620004d4578287015190505b620004e0858262000453565b86555062000550565b601f198416620004f98662000295565b60005b828110156200052357848901518255600182019150602085019450602081019050620004fc565b868310156200054357848901516200053f601f89168262000433565b8355505b6001600288020188555050505b505050505050565b611f6e80620005686000396000f3fe6080604052600436106100c65760003560e01c8063add29c6d1161007f578063d064d78411610059578063d064d78414610271578063e2f5df8c1461029c578063eed20631146102b8578063f5b8214a146102e1576100cd565b8063add29c6d146101f2578063b534638e1461021d578063cf387fed14610246576100cd565b80631072b91f146100d25780632bb1ae7c146100fb5780634f7d1d58146101245780635e38b66c1461014d578063796d7f561461018a57806397856308146101c7576100cd565b366100cd57005b600080fd5b3480156100de57600080fd5b506100f960048036038101906100f49190610d7d565b61030a565b005b34801561010757600080fd5b50610122600480360381019061011d9190610e0f565b61035e565b005b34801561013057600080fd5b5061014b60048036038101906101469190610ffb565b6103f8565b005b34801561015957600080fd5b50610174600480360381019061016f919061107e565b6104f8565b60405161018191906110ba565b60405180910390f35b34801561019657600080fd5b506101b160048036038101906101ac91906110d5565b610512565b6040516101be9190611150565b60405180910390f35b3480156101d357600080fd5b506101dc6105f6565b6040516101e991906110ba565b60405180910390f35b3480156101fe57600080fd5b5061020761060e565b60405161021491906110ba565b60405180910390f35b34801561022957600080fd5b50610244600480360381019061023f919061116b565b610617565b005b34801561025257600080fd5b5061025b61066f565b60405161026891906110ba565b60405180910390f35b34801561027d57600080fd5b5061028661068d565b604051610293919061123d565b60405180910390f35b6102b660048036038101906102b191906112b5565b61071f565b005b3480156102c457600080fd5b506102df60048036038101906102da91906113a3565b610723565b005b3480156102ed57600080fd5b5061030860048036038101906103039190611530565b61077e565b005b610312610827565b15610352576040517f08c379a000000000000000000000000000000000000000000000000000000000815260040161034990611694565b60405180910390fd5b61035b81610939565b50565b610366610827565b156103a6576040517f08c379a000000000000000000000000000000000000000000000000000000000815260040161039d90611694565b60405180910390fd5b6103f45a83838080601f016020809104026020016040519081016040528093929190818152602001838380828437600081840152601f19601f82011690508083019250505050505050610a16565b5050565b610400610827565b15610440576040517f08c379a000000000000000000000000000000000000000000000000000000000815260040161043790611694565b60405180910390fd5b60008473ffffffffffffffffffffffffffffffffffffffff168385908460405161046a91906116fb565b600060405180830381858888f193505050503d80600081146104a8576040519150601f19603f3d011682016040523d82523d6000602084013e6104ad565b606091505b50509050806104f1576040517f08c379a00000000000000000000000000000000000000000000000000000000081526004016104e89061175e565b60405180910390fd5b5050505050565b600061050b8261050661066f565b610a38565b9050919050565b60006105ed60028054610524906117ad565b80601f0160208091040260200160405190810160405280929190818152602001828054610550906117ad565b801561059d5780601f106105725761010080835404028352916020019161059d565b820191906000526020600020905b81548152906001019060200180831161058057829003601f168201915b50505050508585858080601f016020809104026020016040519081016040528093929190818152602001838380828437600081840152601f19601f82011690508083019250505050505050610abf565b90509392505050565b60006106093061060461066f565b610a38565b905090565b60008054905090565b61061f610827565b1561065f576040517f08c379a000000000000000000000000000000000000000000000000000000000815260040161065690611694565b60405180910390fd5b61066a838383610bcb565b505050565b60003073ffffffffffffffffffffffffffffffffffffffff16905090565b60606001805461069c906117ad565b80601f01602080910402602001604051908101604052809291908181526020018280546106c8906117ad565b80156107155780601f106106ea57610100808354040283529160200191610715565b820191906000526020600020905b8154815290600101906020018083116106f857829003601f168201915b5050505050905090565b5050565b61072b610827565b1561076b576040517f08c379a000000000000000000000000000000000000000000000000000000000815260040161076290611694565b60405180910390fd5b806001908161077a919061198a565b5050565b610786610827565b156107c6576040517f08c379a00000000000000000000000000000000000000000000000000000000081526004016107bd90611694565b60405180910390fd5b61081c8989898960038a898b8a8a8080601f016020809104026020016040519081016040528093929190818152602001838380828437600081840152601f19601f82011690508083019250505050505050610c81565b505050505050505050565b6000606060008060ff73ffffffffffffffffffffffffffffffffffffffff168360405161085491906116fb565b600060405180830381855afa9150503d806000811461088f576040519150601f19603f3d011682016040523d82523d6000602084013e610894565b606091505b5091509150816108d9576040517f08c379a00000000000000000000000000000000000000000000000000000000081526004016108d090611aa8565b60405180910390fd5b600081511161091d576040517f08c379a000000000000000000000000000000000000000000000000000000000815260040161091490611b3a565b60405180910390fd5b808060200190518101906109319190611b6f565b935050505090565b600060d073ffffffffffffffffffffffffffffffffffffffff1663f4c261b5836040518263ffffffff1660e01b815260040161097591906110ba565b6020604051808303816000875af1158015610994573d6000803e3d6000fd5b505050506040513d601f19601f820116820180604052508101906109b89190611b6f565b9050806109fa576040517f08c379a00000000000000000000000000000000000000000000000000000000081526004016109f190611be8565b60405180910390fd5b81600080828254610a0b9190611c37565b925050819055505050565b6000815190506000808260208501600060fc88f1610a3357600080fd5b505050565b600060d173ffffffffffffffffffffffffffffffffffffffff16633a1735fc83856040518363ffffffff1660e01b8152600401610a76929190611c7a565b602060405180830381865afa158015610a93573d6000803e3d6000fd5b505050506040513d601f19601f82011682018060405250810190610ab79190611cb8565b905092915050565b600080848484604051602001610ad793929190611d2f565b6040516020818303038152906040529050600080606060fe73ffffffffffffffffffffffffffffffffffffffff1684604051610b1391906116fb565b600060405180830381855afa9150503d8060008114610b4e576040519150601f19603f3d011682016040523d82523d6000602084013e610b53565b606091505b50809250819450505082610b9c576040517f08c379a0000000000000000000000000000000000000000000000000000000008152600401610b9390611aa8565b60405180910390fd5b600081511115610bbd5780806020019051810190610bba9190611b6f565b91505b819450505050509392505050565b6000600167ffffffffffffffff811115610be857610be7610ed0565b5b604051908082528060200260200182016040528015610c2157816020015b610c0e610d19565b815260200190600190039081610c065790505b50905060405180604001604052808481526020018381525081600081518110610c4d57610c4c611d74565b5b6020026020010181905250610c7b846000806000806000808860405180602001604052806000815250610c81565b50505050565b60fd73ffffffffffffffffffffffffffffffffffffffff1663f1d1cf1c8486888d8d8d8d8a8a6040518a63ffffffff1660e01b8152600401610cca989796959493929190611eac565b60206040518083038185885af1158015610ce8573d6000803e3d6000fd5b50505050506040513d601f19601f82011682018060405250810190610d0d9190611b6f565b50505050505050505050565b604051806040016040528060008152602001600081525090565b6000604051905090565b600080fd5b600080fd5b6000819050919050565b610d5a81610d47565b8114610d6557600080fd5b50565b600081359050610d7781610d51565b92915050565b600060208284031215610d9357610d92610d3d565b5b6000610da184828501610d68565b91505092915050565b600080fd5b600080fd5b600080fd5b60008083601f840112610dcf57610dce610daa565b5b8235905067ffffffffffffffff811115610dec57610deb610daf565b5b602083019150836001820283011115610e0857610e07610db4565b5b9250929050565b60008060208385031215610e2657610e25610d3d565b5b600083013567ffffffffffffffff811115610e4457610e43610d42565b5b610e5085828601610db9565b92509250509250929050565b600073ffffffffffffffffffffffffffffffffffffffff82169050919050565b6000610e8782610e5c565b9050919050565b610e9781610e7c565b8114610ea257600080fd5b50565b600081359050610eb481610e8e565b92915050565b600080fd5b6000601f19601f8301169050919050565b7f4e487b7100000000000000000000000000000000000000000000000000000000600052604160045260246000fd5b610f0882610ebf565b810181811067ffffffffffffffff82111715610f2757610f26610ed0565b5b80604052505050565b6000610f3a610d33565b9050610f468282610eff565b919050565b600067ffffffffffffffff821115610f6657610f65610ed0565b5b610f6f82610ebf565b9050602081019050919050565b82818337600083830152505050565b6000610f9e610f9984610f4b565b610f30565b905082815260208101848484011115610fba57610fb9610eba565b5b610fc5848285610f7c565b509392505050565b600082601f830112610fe257610fe1610daa565b5b8135610ff2848260208601610f8b565b91505092915050565b6000806000806080858703121561101557611014610d3d565b5b600061102387828801610ea5565b945050602061103487828801610d68565b935050604061104587828801610d68565b925050606085013567ffffffffffffffff81111561106657611065610d42565b5b61107287828801610fcd565b91505092959194509250565b60006020828403121561109457611093610d3d565b5b60006110a284828501610ea5565b91505092915050565b6110b481610d47565b82525050565b60006020820190506110cf60008301846110ab565b92915050565b6000806000604084860312156110ee576110ed610d3d565b5b60006110fc86828701610d68565b935050602084013567ffffffffffffffff81111561111d5761111c610d42565b5b61112986828701610db9565b92509250509250925092565b60008115159050919050565b61114a81611135565b82525050565b60006020820190506111656000830184611141565b92915050565b60008060006060848603121561118457611183610d3d565b5b600061119286828701610ea5565b93505060206111a386828701610d68565b92505060406111b486828701610d68565b9150509250925092565b600081519050919050565b600082825260208201905092915050565b60005b838110156111f85780820151818401526020810190506111dd565b60008484015250505050565b600061120f826111be565b61121981856111c9565b93506112298185602086016111da565b61123281610ebf565b840191505092915050565b600060208201905081810360008301526112578184611204565b905092915050565b60008083601f84011261127557611274610daa565b5b8235905067ffffffffffffffff81111561129257611291610daf565b5b6020830191508360018202830111156112ae576112ad610db4565b5b9250929050565b600080602083850312156112cc576112cb610d3d565b5b600083013567ffffffffffffffff8111156112ea576112e9610d42565b5b6112f68582860161125f565b92509250509250929050565b600067ffffffffffffffff82111561131d5761131c610ed0565b5b61132682610ebf565b9050602081019050919050565b600061134661134184611302565b610f30565b90508281526020810184848401111561136257611361610eba565b5b61136d848285610f7c565b509392505050565b600082601f83011261138a57611389610daa565b5b813561139a848260208601611333565b91505092915050565b6000602082840312156113b9576113b8610d3d565b5b600082013567ffffffffffffffff8111156113d7576113d6610d42565b5b6113e384828501611375565b91505092915050565b6113f581611135565b811461140057600080fd5b50565b600081359050611412816113ec565b92915050565b600067ffffffffffffffff82111561143357611432610ed0565b5b602082029050602081019050919050565b600080fd5b60006040828403121561145f5761145e611444565b5b6114696040610f30565b9050600061147984828501610d68565b600083015250602061148d84828501610d68565b60208301525092915050565b60006114ac6114a784611418565b610f30565b905080838252602082019050604084028301858111156114cf576114ce610db4565b5b835b818110156114f857806114e48882611449565b8452602084019350506040810190506114d1565b5050509392505050565b600082601f83011261151757611516610daa565b5b8135611527848260208601611499565b91505092915050565b60008060008060008060008060006101008a8c03121561155357611552610d3d565b5b60006115618c828d01610ea5565b99505060206115728c828d01610ea5565b98505060406115838c828d01610ea5565b97505060606115948c828d01610d68565b96505060806115a58c828d01611403565b95505060a08a013567ffffffffffffffff8111156115c6576115c5610d42565b5b6115d28c828d01611502565b94505060c06115e38c828d01610d68565b93505060e08a013567ffffffffffffffff81111561160457611603610d42565b5b6116108c828d01610db9565b92509250509295985092959850929598565b7f547279696e6720746f2063616c6c2065787465726e616c2066756e6374696f6e60008201527f207769746820696e7465726e616c206d65737361676500000000000000000000602082015250565b600061167e6036836111c9565b915061168982611622565b604082019050919050565b600060208201905081810360008301526116ad81611671565b9050919050565b600081519050919050565b600081905092915050565b60006116d5826116b4565b6116df81856116bf565b93506116ef8185602086016111da565b80840191505092915050565b600061170782846116ca565b915081905092915050565b7f43616c6c206661696c6564000000000000000000000000000000000000000000600082015250565b6000611748600b836111c9565b915061175382611712565b602082019050919050565b600060208201905081810360008301526117778161173b565b9050919050565b7f4e487b7100000000000000000000000000000000000000000000000000000000600052602260045260246000fd5b600060028204905060018216806117c557607f821691505b6020821081036117d8576117d761177e565b5b50919050565b60008190508160005260206000209050919050565b60006020601f8301049050919050565b600082821b905092915050565b6000600883026118407fffffffffffffffffffffffffffffffffffffffffffffffffffffffffffffffff82611803565b61184a8683611803565b95508019841693508086168417925050509392505050565b6000819050919050565b600061188761188261187d84610d47565b611862565b610d47565b9050919050565b6000819050919050565b6118a18361186c565b6118b56118ad8261188e565b848454611810565b825550505050565b600090565b6118ca6118bd565b6118d5818484611898565b505050565b5b818110156118f9576118ee6000826118c2565b6001810190506118db565b5050565b601f82111561193e5761190f816117de565b611918846117f3565b81016020851015611927578190505b61193b611933856117f3565b8301826118da565b50505b505050565b600082821c905092915050565b600061196160001984600802611943565b1980831691505092915050565b600061197a8383611950565b9150826002028217905092915050565b611993826111be565b67ffffffffffffffff8111156119ac576119ab610ed0565b5b6119b682546117ad565b6119c18282856118fd565b600060209050601f8311600181146119f457600084156119e2578287015190505b6119ec858261196e565b865550611a54565b601f198416611a02866117de565b60005b82811015611a2a57848901518255600182019150602085019450602081019050611a05565b86831015611a475784890151611a43601f891682611950565b8355505b6001600288020188555050505b505050505050565b7f507265636f6d70696c656420636f6e74726163742063616c6c206661696c6564600082015250565b6000611a926020836111c9565b9150611a9d82611a5c565b602082019050919050565b60006020820190508181036000830152611ac181611a85565b9050919050565b7f2749535f494e5445524e414c5f4d455353414745272072657475726e7320696e60008201527f76616c6964206461746100000000000000000000000000000000000000000000602082015250565b6000611b24602a836111c9565b9150611b2f82611ac8565b604082019050919050565b60006020820190508181036000830152611b5381611b17565b9050919050565b600081519050611b69816113ec565b92915050565b600060208284031215611b8557611b84610d3d565b5b6000611b9384828501611b5a565b91505092915050565b7f4d696e74206661696c6564000000000000000000000000000000000000000000600082015250565b6000611bd2600b836111c9565b9150611bdd82611b9c565b602082019050919050565b60006020820190508181036000830152611c0181611bc5565b9050919050565b7f4e487b7100000000000000000000000000000000000000000000000000000000600052601160045260246000fd5b6000611c4282610d47565b9150611c4d83610d47565b9250828201905080821115611c6557611c64611c08565b5b92915050565b611c7481610e7c565b82525050565b6000604082019050611c8f60008301856110ab565b611c9c6020830184611c6b565b9392505050565b600081519050611cb281610d51565b92915050565b600060208284031215611cce57611ccd610d3d565b5b6000611cdc84828501611ca3565b91505092915050565b600082825260208201905092915050565b6000611d01826116b4565b611d0b8185611ce5565b9350611d1b8185602086016111da565b611d2481610ebf565b840191505092915050565b60006060820190508181036000830152611d498186611cf6565b9050611d5860208301856110ab565b8181036040830152611d6a8184611cf6565b9050949350505050565b7f4e487b7100000000000000000000000000000000000000000000000000000000600052603260045260246000fd5b600060ff82169050919050565b611db981611da3565b82525050565b600081519050919050565b600082825260208201905092915050565b6000819050602082019050919050565b611df481610d47565b82525050565b604082016000820151611e106000850182611deb565b506020820151611e236020850182611deb565b50505050565b6000611e358383611dfa565b60408301905092915050565b6000602082019050919050565b6000611e5982611dbf565b611e638185611dca565b9350611e6e83611ddb565b8060005b83811015611e9f578151611e868882611e29565b9750611e9183611e41565b925050600181019050611e72565b5085935050505092915050565b600061010082019050611ec2600083018b611141565b611ecf602083018a611db0565b611edc6040830189611c6b565b611ee96060830188611c6b565b611ef66080830187611c6b565b611f0360a08301866110ab565b81810360c0830152611f158185611e4e565b905081810360e0830152611f298184611cf6565b9050999850505050505050505056fea26469706673582212202642a2a79c917ccc1c1f895cdb049168302218f1e50aa5c4778070f65ef3025564736f6c63430008180033",
  "linkReferences": {},
  "deployedLinkReferences": {}
}