{
  "contracts/BondingCurveBasic.sol": {
    "BondingCurveBasic": {
      "abi": [
        {
          "inputs": [
            {
              "internalType": "string",
              "name": "_tokenName",
              "type": "string"
            },
            {
              "internalType": "uint256",
              "name": "_cap",
              "type": "uint256"
            }
          ],
          "stateMutability": "nonpayable",
          "type": "constructor"
        },
        {
          "anonymous": false,
          "inputs": [
            {
              "indexed": true,
              "internalType": "address",
              "name": "sender",
              "type": "address"
            },
            {
              "indexed": false,
              "internalType": "uint256",
              "name": "deposit",
              "type": "uint256"
            },
            {
              "indexed": false,
              "internalType": "uint256",
              "name": "amount",
              "type": "uint256"
            }
          ],
          "name": "DidSendAsyncCall",
          "type": "event"
        },
        {
          "anonymous": false,
          "inputs": [
            {
              "indexed": true,
              "internalType": "address",
              "name": "sender",
              "type": "address"
            },
            {
              "indexed": false,
              "internalType": "uint256",
              "name": "deposit",
              "type": "uint256"
            },
            {
              "indexed": false,
              "internalType": "uint256",
              "name": "amount",
              "type": "uint256"
            }
          ],
          "name": "SuccessfulyMinted",
          "type": "event"
        },
        {
          "anonymous": false,
          "inputs": [
            {
              "indexed": true,
              "internalType": "address",
              "name": "sender",
              "type": "address"
            },
            {
              "indexed": false,
              "internalType": "uint256",
              "name": "deposit",
              "type": "uint256"
            },
            {
              "indexed": false,
              "internalType": "uint256",
              "name": "amount",
              "type": "uint256"
            }
          ],
          "name": "ToPurchaseAmount",
          "type": "event"
        },
        {
          "inputs": [
            {
              "internalType": "address",
              "name": "_destination",
              "type": "address"
            }
          ],
          "name": "buy",
          "outputs": [],
          "stateMutability": "payable",
          "type": "function"
        },
        {
          "inputs": [
            {
              "internalType": "uint256",
              "name": "_amount",
              "type": "uint256"
            }
          ],
          "name": "calculateCurvedBurnReturn",
          "outputs": [
            {
              "internalType": "uint256",
              "name": "mintAmount",
              "type": "uint256"
            }
          ],
          "stateMutability": "view",
          "type": "function"
        },
        {
          "inputs": [
            {
              "internalType": "uint256",
              "name": "_amount",
              "type": "uint256"
            }
          ],
          "name": "calculateCurvedMintReturn",
          "outputs": [
            {
              "internalType": "uint256",
              "name": "mintAmount",
              "type": "uint256"
            }
          ],
          "stateMutability": "view",
          "type": "function"
        },
        {
          "inputs": [
            {
              "internalType": "uint256",
              "name": "_totalSupply",
              "type": "uint256"
            },
            {
              "internalType": "uint256",
              "name": "_poolBalance",
              "type": "uint256"
            },
            {
              "internalType": "uint256",
              "name": "_amount",
              "type": "uint256"
            }
          ],
          "name": "calculatePurchaseReturn",
          "outputs": [
            {
              "internalType": "uint256",
              "name": "",
              "type": "uint256"
            }
          ],
          "stateMutability": "pure",
          "type": "function"
        },
        {
          "inputs": [
            {
              "internalType": "uint256",
              "name": "_totalSupply",
              "type": "uint256"
            },
            {
              "internalType": "uint256",
              "name": "_poolBalance",
              "type": "uint256"
            },
            {
              "internalType": "uint256",
              "name": "_amount",
              "type": "uint256"
            }
          ],
          "name": "calculateSaleReturn",
          "outputs": [
            {
              "internalType": "uint256",
              "name": "",
              "type": "uint256"
            }
          ],
          "stateMutability": "pure",
          "type": "function"
        },
        {
          "inputs": [],
          "name": "decimals",
          "outputs": [
            {
              "internalType": "uint256",
              "name": "",
              "type": "uint256"
            }
          ],
          "stateMutability": "view",
          "type": "function"
        },
        {
          "inputs": [
            {
              "internalType": "address",
              "name": "account",
              "type": "address"
            }
          ],
          "name": "getCurrencyBalanceOf",
          "outputs": [
            {
              "internalType": "uint256",
              "name": "",
              "type": "uint256"
            }
          ],
          "stateMutability": "view",
          "type": "function"
        },
        {
          "inputs": [],
          "name": "getCurrencyId",
          "outputs": [
            {
              "internalType": "uint256",
              "name": "",
              "type": "uint256"
            }
          ],
          "stateMutability": "view",
          "type": "function"
        },
        {
          "inputs": [],
          "name": "getCurrencyName",
          "outputs": [
            {
              "internalType": "string",
              "name": "",
              "type": "string"
            }
          ],
          "stateMutability": "view",
          "type": "function"
        },
        {
          "inputs": [],
          "name": "getCurrencyTotalSupply",
          "outputs": [
            {
              "internalType": "uint256",
              "name": "",
              "type": "uint256"
            }
          ],
          "stateMutability": "view",
          "type": "function"
        },
        {
          "inputs": [],
          "name": "getOwnCurrencyBalance",
          "outputs": [
            {
              "internalType": "uint256",
              "name": "",
              "type": "uint256"
            }
          ],
          "stateMutability": "view",
          "type": "function"
        },
        {
          "inputs": [
            {
              "internalType": "uint256",
              "name": "amount",
              "type": "uint256"
            }
          ],
          "name": "mintCurrency",
          "outputs": [],
          "stateMutability": "nonpayable",
          "type": "function"
        },
        {
          "inputs": [
            {
              "internalType": "uint256",
              "name": "_amount",
              "type": "uint256"
            },
            {
              "internalType": "address",
              "name": "_destination",
              "type": "address"
            }
          ],
          "name": "sell",
          "outputs": [],
          "stateMutability": "payable",
          "type": "function"
        },
        {
          "inputs": [
            {
              "internalType": "address",
              "name": "to",
              "type": "address"
            },
            {
              "internalType": "uint256",
              "name": "currencyId",
              "type": "uint256"
            },
            {
              "internalType": "uint256",
              "name": "amount",
              "type": "uint256"
            }
          ],
          "name": "sendCurrency",
          "outputs": [],
          "stateMutability": "nonpayable",
          "type": "function"
        },
        {
          "inputs": [
            {
              "internalType": "string",
              "name": "name",
              "type": "string"
            }
          ],
          "name": "setCurrencyName",
          "outputs": [],
          "stateMutability": "nonpayable",
          "type": "function"
        },
        {
          "stateMutability": "payable",
          "type": "receive"
        }
      ],
      "evm": {
        "bytecode": {
          "linkReferences": {},
          "object": "60806040523480156200001157600080fd5b50604051620023663803806200236683398181016040528101906200003791906200023a565b806003819055506200004f826200005760201b60201c565b5050620005c8565b8060019081620000689190620004e1565b5050565b6000604051905090565b600080fd5b600080fd5b600080fd5b600080fd5b6000601f19601f8301169050919050565b7f4e487b7100000000000000000000000000000000000000000000000000000000600052604160045260246000fd5b620000d5826200008a565b810181811067ffffffffffffffff82111715620000f757620000f66200009b565b5b80604052505050565b60006200010c6200006c565b90506200011a8282620000ca565b919050565b600067ffffffffffffffff8211156200013d576200013c6200009b565b5b62000148826200008a565b9050602081019050919050565b60005b838110156200017557808201518184015260208101905062000158565b60008484015250505050565b60006200019862000192846200011f565b62000100565b905082815260208101848484011115620001b757620001b662000085565b5b620001c484828562000155565b509392505050565b600082601f830112620001e457620001e362000080565b5b8151620001f684826020860162000181565b91505092915050565b6000819050919050565b6200021481620001ff565b81146200022057600080fd5b50565b600081519050620002348162000209565b92915050565b6000806040838503121562000254576200025362000076565b5b600083015167ffffffffffffffff8111156200027557620002746200007b565b5b6200028385828601620001cc565b9250506020620002968582860162000223565b9150509250929050565b600081519050919050565b7f4e487b7100000000000000000000000000000000000000000000000000000000600052602260045260246000fd5b60006002820490506001821680620002f357607f821691505b602082108103620003095762000308620002ab565b5b50919050565b60008190508160005260206000209050919050565b60006020601f8301049050919050565b600082821b905092915050565b600060088302620003737fffffffffffffffffffffffffffffffffffffffffffffffffffffffffffffffff8262000334565b6200037f868362000334565b95508019841693508086168417925050509392505050565b6000819050919050565b6000620003c2620003bc620003b684620001ff565b62000397565b620001ff565b9050919050565b6000819050919050565b620003de83620003a1565b620003f6620003ed82620003c9565b84845462000341565b825550505050565b600090565b6200040d620003fe565b6200041a818484620003d3565b505050565b5b8181101562000442576200043660008262000403565b60018101905062000420565b5050565b601f82111562000491576200045b816200030f565b620004668462000324565b8101602085101562000476578190505b6200048e620004858562000324565b8301826200041f565b50505b505050565b600082821c905092915050565b6000620004b66000198460080262000496565b1980831691505092915050565b6000620004d18383620004a3565b9150826002028217905092915050565b620004ec82620002a0565b67ffffffffffffffff8111156200050857620005076200009b565b5b620005148254620002da565b6200052182828562000446565b600060209050601f83116001811462000559576000841562000544578287015190505b620005508582620004c3565b865550620005c0565b601f19841662000569866200030f565b60005b8281101562000593578489015182556001820191506020850194506020810190506200056c565b86831015620005b35784890151620005af601f891682620004a3565b8355505b6001600288020188555050505b505050505050565b611d8e80620005d86000396000f3fe6080604052600436106100ec5760003560e01c80639a4f318b1161008a578063d064d78411610059578063d064d78414610306578063d63df4d914610331578063eed206311461036e578063f088d54714610397576100f3565b80639a4f318b1461024a578063add29c6d14610287578063b534638e146102b2578063cf387fed146102db576100f3565b80635e38b66c116100c65780635e38b66c146101685780636d6f1e01146101a557806374293bf8146101e2578063978563081461021f576100f3565b80631072b91f146100f8578063313ce567146101215780634189a68e1461014c576100f3565b366100f357005b600080fd5b34801561010457600080fd5b5061011f600480360381019061011a9190610e60565b6103b3565b005b34801561012d57600080fd5b50610136610407565b6040516101439190610e9c565b60405180910390f35b61016660048036038101906101619190610f15565b610413565b005b34801561017457600080fd5b5061018f600480360381019061018a9190610f55565b6104b5565b60405161019c9190610e9c565b60405180910390f35b3480156101b157600080fd5b506101cc60048036038101906101c79190610e60565b6104cf565b6040516101d99190610e9c565b60405180910390f35b3480156101ee57600080fd5b5061020960048036038101906102049190610f82565b6104ec565b6040516102169190610e9c565b60405180910390f35b34801561022b57600080fd5b50610234610568565b6040516102419190610e9c565b60405180910390f35b34801561025657600080fd5b50610271600480360381019061026c9190610e60565b610580565b60405161027e9190610e9c565b60405180910390f35b34801561029357600080fd5b5061029c61059d565b6040516102a99190610e9c565b60405180910390f35b3480156102be57600080fd5b506102d960048036038101906102d49190610fd5565b6105a6565b005b3480156102e757600080fd5b506102f06105fe565b6040516102fd9190610e9c565b60405180910390f35b34801561031257600080fd5b5061031b61061c565b60405161032891906110b8565b60405180910390f35b34801561033d57600080fd5b5061035860048036038101906103539190610f82565b6106ae565b6040516103659190610e9c565b60405180910390f35b34801561037a57600080fd5b506103956004803603810190610390919061120f565b610723565b005b6103b160048036038101906103ac9190610f55565b61077e565b005b6103bb610a17565b156103fb576040517f08c379a00000000000000000000000000000000000000000000000000000000081526004016103f2906112ca565b60405180910390fd5b61040481610b29565b50565b670de0b6b3a764000081565b8161041d336104b5565b101561045e576040517f08c379a000000000000000000000000000000000000000000000000000000000815260040161045590611336565b60405180910390fd5b6000610469836104cf565b905061047481610c06565b80600260008282546104869190611385565b925050819055506104b0823333620186a06000808760405180602001604052806000815250610c09565b505050565b60006104c8826104c36105fe565b610c27565b9050919050565b60006104e56104dc61059d565b600254846104ec565b9050919050565b60008082856104fb9190611385565b90506000670de0b6b3a764000082670de0b6b3a7640000848561051e91906113b9565b610528919061142a565b61053291906113b9565b61053c919061142a565b9050670de0b6b3a764000081610552919061142a565b8561055d9190611385565b925050509392505050565b600061057b306105766105fe565b610c27565b905090565b600061059661058d61059d565b600254846106ae565b9050919050565b60008054905090565b6105ae610a17565b156105ee576040517f08c379a00000000000000000000000000000000000000000000000000000000081526004016105e5906112ca565b60405180910390fd5b6105f9838383610cae565b505050565b60003073ffffffffffffffffffffffffffffffffffffffff16905090565b60606001805461062b9061148a565b80601f01602080910402602001604051908101604052809291908181526020018280546106579061148a565b80156106a45780601f10610679576101008083540402835291602001916106a4565b820191906000526020600020905b81548152906001019060200180831161068757829003601f168201915b5050505050905090565b60008082856106bd91906114bb565b90506000670de0b6b3a764000082670de0b6b3a764000084856106e091906113b9565b6106ea919061142a565b6106f491906113b9565b6106fe919061142a565b90508460038261070e919061142a565b6107189190611385565b925050509392505050565b61072b610a17565b1561076b576040517f08c379a0000000000000000000000000000000000000000000000000000000008152600401610762906112ca565b60405180910390fd5b806001908161077a919061169b565b5050565b6000349050600081116107c6576040517f08c379a00000000000000000000000000000000000000000000000000000000081526004016107bd906117b9565b60405180910390fd5b6003546107d161059d565b10610811576040517f08c379a00000000000000000000000000000000000000000000000000000000081526004016108089061184b565b60405180910390fd5b600061081c82610580565b90503373ffffffffffffffffffffffffffffffffffffffff167f3d97ab026a5fdfd38a9e144f940d9e7ddca4f2638f73f3dcb2cac8374438139d838360405161086692919061186b565b60405180910390a26003548161087a61059d565b61088491906114bb565b505061088f81610b29565b3373ffffffffffffffffffffffffffffffffffffffff167f1983d4a8948de0030f1101b7e335726bee7bc5f4e6617a16c9722a35d45e80d483836040516108d792919061186b565b60405180910390a281600260008282546108f191906114bb565b925050819055506000600167ffffffffffffffff811115610915576109146110e4565b5b60405190808252806020026020018201604052801561094e57816020015b61093b610dfc565b8152602001906001900390816109335790505b50905060405180604001604052803073ffffffffffffffffffffffffffffffffffffffff16815260200183815250816000815181106109905761098f611894565b5b60200260200101819052506109c1843033620186a06000806130398860405180602001604052806000815250610d64565b3373ffffffffffffffffffffffffffffffffffffffff167f3faa518abd490a442e1e18b02cafe62f0351db93d85f67e8d0cbfccb9258a5208484604051610a0992919061186b565b60405180910390a250505050565b6000606060008060ff73ffffffffffffffffffffffffffffffffffffffff1683604051610a44919061190a565b600060405180830381855afa9150503d8060008114610a7f576040519150601f19603f3d011682016040523d82523d6000602084013e610a84565b606091505b509150915081610ac9576040517f08c379a0000000000000000000000000000000000000000000000000000000008152600401610ac09061196d565b60405180910390fd5b6000815111610b0d576040517f08c379a0000000000000000000000000000000000000000000000000000000008152600401610b04906119ff565b60405180910390fd5b80806020019051810190610b219190611a57565b935050505090565b600060d073ffffffffffffffffffffffffffffffffffffffff1663f4c261b5836040518263ffffffff1660e01b8152600401610b659190610e9c565b6020604051808303816000875af1158015610b84573d6000803e3d6000fd5b505050506040513d601f19601f82011682018060405250810190610ba89190611a57565b905080610bea576040517f08c379a0000000000000000000000000000000000000000000000000000000008152600401610be190611ad0565b60405180910390fd5b81600080828254610bfb91906114bb565b925050819055505050565b50565b6060610c1c89898989898989888a610d64565b505050505050505050565b600060d173ffffffffffffffffffffffffffffffffffffffff16633a1735fc83856040518363ffffffff1660e01b8152600401610c65929190611aff565b602060405180830381865afa158015610c82573d6000803e3d6000fd5b505050506040513d601f19601f82011682018060405250810190610ca69190611b3d565b905092915050565b6000600167ffffffffffffffff811115610ccb57610cca6110e4565b5b604051908082528060200260200182016040528015610d0457816020015b610cf1610dfc565b815260200190600190039081610ce95790505b50905060405180604001604052808481526020018381525081600081518110610d3057610d2f611894565b5b6020026020010181905250610d5e846000806000806000808860405180602001604052806000815250610d64565b50505050565b60fd73ffffffffffffffffffffffffffffffffffffffff1663f1d1cf1c8486888d8d8d8d8a8a6040518a63ffffffff1660e01b8152600401610dad989796959493929190611ccc565b60206040518083038185885af1158015610dcb573d6000803e3d6000fd5b50505050506040513d601f19601f82011682018060405250810190610df09190611a57565b50505050505050505050565b604051806040016040528060008152602001600081525090565b6000604051905090565b600080fd5b600080fd5b6000819050919050565b610e3d81610e2a565b8114610e4857600080fd5b50565b600081359050610e5a81610e34565b92915050565b600060208284031215610e7657610e75610e20565b5b6000610e8484828501610e4b565b91505092915050565b610e9681610e2a565b82525050565b6000602082019050610eb16000830184610e8d565b92915050565b600073ffffffffffffffffffffffffffffffffffffffff82169050919050565b6000610ee282610eb7565b9050919050565b610ef281610ed7565b8114610efd57600080fd5b50565b600081359050610f0f81610ee9565b92915050565b60008060408385031215610f2c57610f2b610e20565b5b6000610f3a85828601610e4b565b9250506020610f4b85828601610f00565b9150509250929050565b600060208284031215610f6b57610f6a610e20565b5b6000610f7984828501610f00565b91505092915050565b600080600060608486031215610f9b57610f9a610e20565b5b6000610fa986828701610e4b565b9350506020610fba86828701610e4b565b9250506040610fcb86828701610e4b565b9150509250925092565b600080600060608486031215610fee57610fed610e20565b5b6000610ffc86828701610f00565b935050602061100d86828701610e4b565b925050604061101e86828701610e4b565b9150509250925092565b600081519050919050565b600082825260208201905092915050565b60005b83811015611062578082015181840152602081019050611047565b60008484015250505050565b6000601f19601f8301169050919050565b600061108a82611028565b6110948185611033565b93506110a4818560208601611044565b6110ad8161106e565b840191505092915050565b600060208201905081810360008301526110d2818461107f565b905092915050565b600080fd5b600080fd5b7f4e487b7100000000000000000000000000000000000000000000000000000000600052604160045260246000fd5b61111c8261106e565b810181811067ffffffffffffffff8211171561113b5761113a6110e4565b5b80604052505050565b600061114e610e16565b905061115a8282611113565b919050565b600067ffffffffffffffff82111561117a576111796110e4565b5b6111838261106e565b9050602081019050919050565b82818337600083830152505050565b60006111b26111ad8461115f565b611144565b9050828152602081018484840111156111ce576111cd6110df565b5b6111d9848285611190565b509392505050565b600082601f8301126111f6576111f56110da565b5b813561120684826020860161119f565b91505092915050565b60006020828403121561122557611224610e20565b5b600082013567ffffffffffffffff81111561124357611242610e25565b5b61124f848285016111e1565b91505092915050565b7f547279696e6720746f2063616c6c2065787465726e616c2066756e6374696f6e60008201527f207769746820696e7465726e616c206d65737361676500000000000000000000602082015250565b60006112b4603683611033565b91506112bf82611258565b604082019050919050565b600060208201905081810360008301526112e3816112a7565b9050919050565b7f496e73756666696369656e742062616c616e6365000000000000000000000000600082015250565b6000611320601483611033565b915061132b826112ea565b602082019050919050565b6000602082019050818103600083015261134f81611313565b9050919050565b7f4e487b7100000000000000000000000000000000000000000000000000000000600052601160045260246000fd5b600061139082610e2a565b915061139b83610e2a565b92508282039050818111156113b3576113b2611356565b5b92915050565b60006113c482610e2a565b91506113cf83610e2a565b92508282026113dd81610e2a565b915082820484148315176113f4576113f3611356565b5b5092915050565b7f4e487b7100000000000000000000000000000000000000000000000000000000600052601260045260246000fd5b600061143582610e2a565b915061144083610e2a565b9250826114505761144f6113fb565b5b828204905092915050565b7f4e487b7100000000000000000000000000000000000000000000000000000000600052602260045260246000fd5b600060028204905060018216806114a257607f821691505b6020821081036114b5576114b461145b565b5b50919050565b60006114c682610e2a565b91506114d183610e2a565b92508282019050808211156114e9576114e8611356565b5b92915050565b60008190508160005260206000209050919050565b60006020601f8301049050919050565b600082821b905092915050565b6000600883026115517fffffffffffffffffffffffffffffffffffffffffffffffffffffffffffffffff82611514565b61155b8683611514565b95508019841693508086168417925050509392505050565b6000819050919050565b600061159861159361158e84610e2a565b611573565b610e2a565b9050919050565b6000819050919050565b6115b28361157d565b6115c66115be8261159f565b848454611521565b825550505050565b600090565b6115db6115ce565b6115e68184846115a9565b505050565b5b8181101561160a576115ff6000826115d3565b6001810190506115ec565b5050565b601f82111561164f57611620816114ef565b61162984611504565b81016020851015611638578190505b61164c61164485611504565b8301826115eb565b50505b505050565b600082821c905092915050565b600061167260001984600802611654565b1980831691505092915050565b600061168b8383611661565b9150826002028217905092915050565b6116a482611028565b67ffffffffffffffff8111156116bd576116bc6110e4565b5b6116c7825461148a565b6116d282828561160e565b600060209050601f83116001811461170557600084156116f3578287015190505b6116fd858261167f565b865550611765565b601f198416611713866114ef565b60005b8281101561173b57848901518255600182019150602085019450602081019050611716565b868310156117585784890151611754601f891682611661565b8355505b6001600288020188555050505b505050505050565b7f456d707479206465706f73697400000000000000000000000000000000000000600082015250565b60006117a3600d83611033565b91506117ae8261176d565b602082019050919050565b600060208201905081810360008301526117d281611796565b9050919050565b7f416c6c20746f6b656e65732061726520616c726561647920707572636861736560008201527f6400000000000000000000000000000000000000000000000000000000000000602082015250565b6000611835602183611033565b9150611840826117d9565b604082019050919050565b6000602082019050818103600083015261186481611828565b9050919050565b60006040820190506118806000830185610e8d565b61188d6020830184610e8d565b9392505050565b7f4e487b7100000000000000000000000000000000000000000000000000000000600052603260045260246000fd5b600081519050919050565b600081905092915050565b60006118e4826118c3565b6118ee81856118ce565b93506118fe818560208601611044565b80840191505092915050565b600061191682846118d9565b915081905092915050565b7f507265636f6d70696c656420636f6e74726163742063616c6c206661696c6564600082015250565b6000611957602083611033565b915061196282611921565b602082019050919050565b600060208201905081810360008301526119868161194a565b9050919050565b7f2749535f494e5445524e414c5f4d455353414745272072657475726e7320696e60008201527f76616c6964206461746100000000000000000000000000000000000000000000602082015250565b60006119e9602a83611033565b91506119f48261198d565b604082019050919050565b60006020820190508181036000830152611a18816119dc565b9050919050565b60008115159050919050565b611a3481611a1f565b8114611a3f57600080fd5b50565b600081519050611a5181611a2b565b92915050565b600060208284031215611a6d57611a6c610e20565b5b6000611a7b84828501611a42565b91505092915050565b7f4d696e74206661696c6564000000000000000000000000000000000000000000600082015250565b6000611aba600b83611033565b9150611ac582611a84565b602082019050919050565b60006020820190508181036000830152611ae981611aad565b9050919050565b611af981610ed7565b82525050565b6000604082019050611b146000830185610e8d565b611b216020830184611af0565b9392505050565b600081519050611b3781610e34565b92915050565b600060208284031215611b5357611b52610e20565b5b6000611b6184828501611b28565b91505092915050565b611b7381611a1f565b82525050565b600060ff82169050919050565b611b8f81611b79565b82525050565b600081519050919050565b600082825260208201905092915050565b6000819050602082019050919050565b611bca81610e2a565b82525050565b604082016000820151611be66000850182611bc1565b506020820151611bf96020850182611bc1565b50505050565b6000611c0b8383611bd0565b60408301905092915050565b6000602082019050919050565b6000611c2f82611b95565b611c398185611ba0565b9350611c4483611bb1565b8060005b83811015611c75578151611c5c8882611bff565b9750611c6783611c17565b925050600181019050611c48565b5085935050505092915050565b600082825260208201905092915050565b6000611c9e826118c3565b611ca88185611c82565b9350611cb8818560208601611044565b611cc18161106e565b840191505092915050565b600061010082019050611ce2600083018b611b6a565b611cef602083018a611b86565b611cfc6040830189611af0565b611d096060830188611af0565b611d166080830187611af0565b611d2360a0830186610e8d565b81810360c0830152611d358185611c24565b905081810360e0830152611d498184611c93565b9050999850505050505050505056fea264697066735822122021e4faf4f31169020904df5973497682363ac534b41ceec08c2564c1c69cc50064736f6c63430008180033",
          "opcodes": "PUSH1 0x80 PUSH1 0x40 MSTORE CALLVALUE DUP1 ISZERO PUSH3 0x11 JUMPI PUSH1 0x0 DUP1 REVERT JUMPDEST POP PUSH1 0x40 MLOAD PUSH3 0x2366 CODESIZE SUB DUP1 PUSH3 0x2366 DUP4 CODECOPY DUP2 DUP2 ADD PUSH1 0x40 MSTORE DUP2 ADD SWAP1 PUSH3 0x37 SWAP2 SWAP1 PUSH3 0x23A JUMP JUMPDEST DUP1 PUSH1 0x3 DUP2 SWAP1 SSTORE POP PUSH3 0x4F DUP3 PUSH3 0x57 PUSH1 0x20 SHL PUSH1 0x20 SHR JUMP JUMPDEST POP POP PUSH3 0x5C8 JUMP JUMPDEST DUP1 PUSH1 0x1 SWAP1 DUP2 PUSH3 0x68 SWAP2 SWAP1 PUSH3 0x4E1 JUMP JUMPDEST POP POP JUMP JUMPDEST PUSH1 0x0 PUSH1 0x40 MLOAD SWAP1 POP SWAP1 JUMP JUMPDEST PUSH1 0x0 DUP1 REVERT JUMPDEST PUSH1 0x0 DUP1 REVERT JUMPDEST PUSH1 0x0 DUP1 REVERT JUMPDEST PUSH1 0x0 DUP1 REVERT JUMPDEST PUSH1 0x0 PUSH1 0x1F NOT PUSH1 0x1F DUP4 ADD AND SWAP1 POP SWAP2 SWAP1 POP JUMP JUMPDEST PUSH32 0x4E487B7100000000000000000000000000000000000000000000000000000000 PUSH1 0x0 MSTORE PUSH1 0x41 PUSH1 0x4 MSTORE PUSH1 0x24 PUSH1 0x0 REVERT JUMPDEST PUSH3 0xD5 DUP3 PUSH3 0x8A JUMP JUMPDEST DUP2 ADD DUP2 DUP2 LT PUSH8 0xFFFFFFFFFFFFFFFF DUP3 GT OR ISZERO PUSH3 0xF7 JUMPI PUSH3 0xF6 PUSH3 0x9B JUMP JUMPDEST JUMPDEST DUP1 PUSH1 0x40 MSTORE POP POP POP JUMP JUMPDEST PUSH1 0x0 PUSH3 0x10C PUSH3 0x6C JUMP JUMPDEST SWAP1 POP PUSH3 0x11A DUP3 DUP3 PUSH3 0xCA JUMP JUMPDEST SWAP2 SWAP1 POP JUMP JUMPDEST PUSH1 0x0 PUSH8 0xFFFFFFFFFFFFFFFF DUP3 GT ISZERO PUSH3 0x13D JUMPI PUSH3 0x13C PUSH3 0x9B JUMP JUMPDEST JUMPDEST PUSH3 0x148 DUP3 PUSH3 0x8A JUMP JUMPDEST SWAP1 POP PUSH1 0x20 DUP2 ADD SWAP1 POP SWAP2 SWAP1 POP JUMP JUMPDEST PUSH1 0x0 JUMPDEST DUP4 DUP2 LT ISZERO PUSH3 0x175 JUMPI DUP1 DUP3 ADD MLOAD DUP2 DUP5 ADD MSTORE PUSH1 0x20 DUP2 ADD SWAP1 POP PUSH3 0x158 JUMP JUMPDEST PUSH1 0x0 DUP5 DUP5 ADD MSTORE POP POP POP POP JUMP JUMPDEST PUSH1 0x0 PUSH3 0x198 PUSH3 0x192 DUP5 PUSH3 0x11F JUMP JUMPDEST PUSH3 0x100 JUMP JUMPDEST SWAP1 POP DUP3 DUP2 MSTORE PUSH1 0x20 DUP2 ADD DUP5 DUP5 DUP5 ADD GT ISZERO PUSH3 0x1B7 JUMPI PUSH3 0x1B6 PUSH3 0x85 JUMP JUMPDEST JUMPDEST PUSH3 0x1C4 DUP5 DUP3 DUP6 PUSH3 0x155 JUMP JUMPDEST POP SWAP4 SWAP3 POP POP POP JUMP JUMPDEST PUSH1 0x0 DUP3 PUSH1 0x1F DUP4 ADD SLT PUSH3 0x1E4 JUMPI PUSH3 0x1E3 PUSH3 0x80 JUMP JUMPDEST JUMPDEST DUP2 MLOAD PUSH3 0x1F6 DUP5 DUP3 PUSH1 0x20 DUP7 ADD PUSH3 0x181 JUMP JUMPDEST SWAP2 POP POP SWAP3 SWAP2 POP POP JUMP JUMPDEST PUSH1 0x0 DUP2 SWAP1 POP SWAP2 SWAP1 POP JUMP JUMPDEST PUSH3 0x214 DUP2 PUSH3 0x1FF JUMP JUMPDEST DUP2 EQ PUSH3 0x220 JUMPI PUSH1 0x0 DUP1 REVERT JUMPDEST POP JUMP JUMPDEST PUSH1 0x0 DUP2 MLOAD SWAP1 POP PUSH3 0x234 DUP2 PUSH3 0x209 JUMP JUMPDEST SWAP3 SWAP2 POP POP JUMP JUMPDEST PUSH1 0x0 DUP1 PUSH1 0x40 DUP4 DUP6 SUB SLT ISZERO PUSH3 0x254 JUMPI PUSH3 0x253 PUSH3 0x76 JUMP JUMPDEST JUMPDEST PUSH1 0x0 DUP4 ADD MLOAD PUSH8 0xFFFFFFFFFFFFFFFF DUP2 GT ISZERO PUSH3 0x275 JUMPI PUSH3 0x274 PUSH3 0x7B JUMP JUMPDEST JUMPDEST PUSH3 0x283 DUP6 DUP3 DUP7 ADD PUSH3 0x1CC JUMP JUMPDEST SWAP3 POP POP PUSH1 0x20 PUSH3 0x296 DUP6 DUP3 DUP7 ADD PUSH3 0x223 JUMP JUMPDEST SWAP2 POP POP SWAP3 POP SWAP3 SWAP1 POP JUMP JUMPDEST PUSH1 0x0 DUP2 MLOAD SWAP1 POP SWAP2 SWAP1 POP JUMP JUMPDEST PUSH32 0x4E487B7100000000000000000000000000000000000000000000000000000000 PUSH1 0x0 MSTORE PUSH1 0x22 PUSH1 0x4 MSTORE PUSH1 0x24 PUSH1 0x0 REVERT JUMPDEST PUSH1 0x0 PUSH1 0x2 DUP3 DIV SWAP1 POP PUSH1 0x1 DUP3 AND DUP1 PUSH3 0x2F3 JUMPI PUSH1 0x7F DUP3 AND SWAP2 POP JUMPDEST PUSH1 0x20 DUP3 LT DUP2 SUB PUSH3 0x309 JUMPI PUSH3 0x308 PUSH3 0x2AB JUMP JUMPDEST JUMPDEST POP SWAP2 SWAP1 POP JUMP JUMPDEST PUSH1 0x0 DUP2 SWAP1 POP DUP2 PUSH1 0x0 MSTORE PUSH1 0x20 PUSH1 0x0 KECCAK256 SWAP1 POP SWAP2 SWAP1 POP JUMP JUMPDEST PUSH1 0x0 PUSH1 0x20 PUSH1 0x1F DUP4 ADD DIV SWAP1 POP SWAP2 SWAP1 POP JUMP JUMPDEST PUSH1 0x0 DUP3 DUP3 SHL SWAP1 POP SWAP3 SWAP2 POP POP JUMP JUMPDEST PUSH1 0x0 PUSH1 0x8 DUP4 MUL PUSH3 0x373 PUSH32 0xFFFFFFFFFFFFFFFFFFFFFFFFFFFFFFFFFFFFFFFFFFFFFFFFFFFFFFFFFFFFFFFF DUP3 PUSH3 0x334 JUMP JUMPDEST PUSH3 0x37F DUP7 DUP4 PUSH3 0x334 JUMP JUMPDEST SWAP6 POP DUP1 NOT DUP5 AND SWAP4 POP DUP1 DUP7 AND DUP5 OR SWAP3 POP POP POP SWAP4 SWAP3 POP POP POP JUMP JUMPDEST PUSH1 0x0 DUP2 SWAP1 POP SWAP2 SWAP1 POP JUMP JUMPDEST PUSH1 0x0 PUSH3 0x3C2 PUSH3 0x3BC PUSH3 0x3B6 DUP5 PUSH3 0x1FF JUMP JUMPDEST PUSH3 0x397 JUMP JUMPDEST PUSH3 0x1FF JUMP JUMPDEST SWAP1 POP SWAP2 SWAP1 POP JUMP JUMPDEST PUSH1 0x0 DUP2 SWAP1 POP SWAP2 SWAP1 POP JUMP JUMPDEST PUSH3 0x3DE DUP4 PUSH3 0x3A1 JUMP JUMPDEST PUSH3 0x3F6 PUSH3 0x3ED DUP3 PUSH3 0x3C9 JUMP JUMPDEST DUP5 DUP5 SLOAD PUSH3 0x341 JUMP JUMPDEST DUP3 SSTORE POP POP POP POP JUMP JUMPDEST PUSH1 0x0 SWAP1 JUMP JUMPDEST PUSH3 0x40D PUSH3 0x3FE JUMP JUMPDEST PUSH3 0x41A DUP2 DUP5 DUP5 PUSH3 0x3D3 JUMP JUMPDEST POP POP POP JUMP JUMPDEST JUMPDEST DUP2 DUP2 LT ISZERO PUSH3 0x442 JUMPI PUSH3 0x436 PUSH1 0x0 DUP3 PUSH3 0x403 JUMP JUMPDEST PUSH1 0x1 DUP2 ADD SWAP1 POP PUSH3 0x420 JUMP JUMPDEST POP POP JUMP JUMPDEST PUSH1 0x1F DUP3 GT ISZERO PUSH3 0x491 JUMPI PUSH3 0x45B DUP2 PUSH3 0x30F JUMP JUMPDEST PUSH3 0x466 DUP5 PUSH3 0x324 JUMP JUMPDEST DUP2 ADD PUSH1 0x20 DUP6 LT ISZERO PUSH3 0x476 JUMPI DUP2 SWAP1 POP JUMPDEST PUSH3 0x48E PUSH3 0x485 DUP6 PUSH3 0x324 JUMP JUMPDEST DUP4 ADD DUP3 PUSH3 0x41F JUMP JUMPDEST POP POP JUMPDEST POP POP POP JUMP JUMPDEST PUSH1 0x0 DUP3 DUP3 SHR SWAP1 POP SWAP3 SWAP2 POP POP JUMP JUMPDEST PUSH1 0x0 PUSH3 0x4B6 PUSH1 0x0 NOT DUP5 PUSH1 0x8 MUL PUSH3 0x496 JUMP JUMPDEST NOT DUP1 DUP4 AND SWAP2 POP POP SWAP3 SWAP2 POP POP JUMP JUMPDEST PUSH1 0x0 PUSH3 0x4D1 DUP4 DUP4 PUSH3 0x4A3 JUMP JUMPDEST SWAP2 POP DUP3 PUSH1 0x2 MUL DUP3 OR SWAP1 POP SWAP3 SWAP2 POP POP JUMP JUMPDEST PUSH3 0x4EC DUP3 PUSH3 0x2A0 JUMP JUMPDEST PUSH8 0xFFFFFFFFFFFFFFFF DUP2 GT ISZERO PUSH3 0x508 JUMPI PUSH3 0x507 PUSH3 0x9B JUMP JUMPDEST JUMPDEST PUSH3 0x514 DUP3 SLOAD PUSH3 0x2DA JUMP JUMPDEST PUSH3 0x521 DUP3 DUP3 DUP6 PUSH3 0x446 JUMP JUMPDEST PUSH1 0x0 PUSH1 0x20 SWAP1 POP PUSH1 0x1F DUP4 GT PUSH1 0x1 DUP2 EQ PUSH3 0x559 JUMPI PUSH1 0x0 DUP5 ISZERO PUSH3 0x544 JUMPI DUP3 DUP8 ADD MLOAD SWAP1 POP JUMPDEST PUSH3 0x550 DUP6 DUP3 PUSH3 0x4C3 JUMP JUMPDEST DUP7 SSTORE POP PUSH3 0x5C0 JUMP JUMPDEST PUSH1 0x1F NOT DUP5 AND PUSH3 0x569 DUP7 PUSH3 0x30F JUMP JUMPDEST PUSH1 0x0 JUMPDEST DUP3 DUP2 LT ISZERO PUSH3 0x593 JUMPI DUP5 DUP10 ADD MLOAD DUP3 SSTORE PUSH1 0x1 DUP3 ADD SWAP2 POP PUSH1 0x20 DUP6 ADD SWAP5 POP PUSH1 0x20 DUP2 ADD SWAP1 POP PUSH3 0x56C JUMP JUMPDEST DUP7 DUP4 LT ISZERO PUSH3 0x5B3 JUMPI DUP5 DUP10 ADD MLOAD PUSH3 0x5AF PUSH1 0x1F DUP10 AND DUP3 PUSH3 0x4A3 JUMP JUMPDEST DUP4 SSTORE POP JUMPDEST PUSH1 0x1 PUSH1 0x2 DUP9 MUL ADD DUP9 SSTORE POP POP POP JUMPDEST POP POP POP POP POP POP JUMP JUMPDEST PUSH2 0x1D8E DUP1 PUSH3 0x5D8 PUSH1 0x0 CODECOPY PUSH1 0x0 RETURN INVALID PUSH1 0x80 PUSH1 0x40 MSTORE PUSH1 0x4 CALLDATASIZE LT PUSH2 0xEC JUMPI PUSH1 0x0 CALLDATALOAD PUSH1 0xE0 SHR DUP1 PUSH4 0x9A4F318B GT PUSH2 0x8A JUMPI DUP1 PUSH4 0xD064D784 GT PUSH2 0x59 JUMPI DUP1 PUSH4 0xD064D784 EQ PUSH2 0x306 JUMPI DUP1 PUSH4 0xD63DF4D9 EQ PUSH2 0x331 JUMPI DUP1 PUSH4 0xEED20631 EQ PUSH2 0x36E JUMPI DUP1 PUSH4 0xF088D547 EQ PUSH2 0x397 JUMPI PUSH2 0xF3 JUMP JUMPDEST DUP1 PUSH4 0x9A4F318B EQ PUSH2 0x24A JUMPI DUP1 PUSH4 0xADD29C6D EQ PUSH2 0x287 JUMPI DUP1 PUSH4 0xB534638E EQ PUSH2 0x2B2 JUMPI DUP1 PUSH4 0xCF387FED EQ PUSH2 0x2DB JUMPI PUSH2 0xF3 JUMP JUMPDEST DUP1 PUSH4 0x5E38B66C GT PUSH2 0xC6 JUMPI DUP1 PUSH4 0x5E38B66C EQ PUSH2 0x168 JUMPI DUP1 PUSH4 0x6D6F1E01 EQ PUSH2 0x1A5 JUMPI DUP1 PUSH4 0x74293BF8 EQ PUSH2 0x1E2 JUMPI DUP1 PUSH4 0x97856308 EQ PUSH2 0x21F JUMPI PUSH2 0xF3 JUMP JUMPDEST DUP1 PUSH4 0x1072B91F EQ PUSH2 0xF8 JUMPI DUP1 PUSH4 0x313CE567 EQ PUSH2 0x121 JUMPI DUP1 PUSH4 0x4189A68E EQ PUSH2 0x14C JUMPI PUSH2 0xF3 JUMP JUMPDEST CALLDATASIZE PUSH2 0xF3 JUMPI STOP JUMPDEST PUSH1 0x0 DUP1 REVERT JUMPDEST CALLVALUE DUP1 ISZERO PUSH2 0x104 JUMPI PUSH1 0x0 DUP1 REVERT JUMPDEST POP PUSH2 0x11F PUSH1 0x4 DUP1 CALLDATASIZE SUB DUP2 ADD SWAP1 PUSH2 0x11A SWAP2 SWAP1 PUSH2 0xE60 JUMP JUMPDEST PUSH2 0x3B3 JUMP JUMPDEST STOP JUMPDEST CALLVALUE DUP1 ISZERO PUSH2 0x12D JUMPI PUSH1 0x0 DUP1 REVERT JUMPDEST POP PUSH2 0x136 PUSH2 0x407 JUMP JUMPDEST PUSH1 0x40 MLOAD PUSH2 0x143 SWAP2 SWAP1 PUSH2 0xE9C JUMP JUMPDEST PUSH1 0x40 MLOAD DUP1 SWAP2 SUB SWAP1 RETURN JUMPDEST PUSH2 0x166 PUSH1 0x4 DUP1 CALLDATASIZE SUB DUP2 ADD SWAP1 PUSH2 0x161 SWAP2 SWAP1 PUSH2 0xF15 JUMP JUMPDEST PUSH2 0x413 JUMP JUMPDEST STOP JUMPDEST CALLVALUE DUP1 ISZERO PUSH2 0x174 JUMPI PUSH1 0x0 DUP1 REVERT JUMPDEST POP PUSH2 0x18F PUSH1 0x4 DUP1 CALLDATASIZE SUB DUP2 ADD SWAP1 PUSH2 0x18A SWAP2 SWAP1 PUSH2 0xF55 JUMP JUMPDEST PUSH2 0x4B5 JUMP JUMPDEST PUSH1 0x40 MLOAD PUSH2 0x19C SWAP2 SWAP1 PUSH2 0xE9C JUMP JUMPDEST PUSH1 0x40 MLOAD DUP1 SWAP2 SUB SWAP1 RETURN JUMPDEST CALLVALUE DUP1 ISZERO PUSH2 0x1B1 JUMPI PUSH1 0x0 DUP1 REVERT JUMPDEST POP PUSH2 0x1CC PUSH1 0x4 DUP1 CALLDATASIZE SUB DUP2 ADD SWAP1 PUSH2 0x1C7 SWAP2 SWAP1 PUSH2 0xE60 JUMP JUMPDEST PUSH2 0x4CF JUMP JUMPDEST PUSH1 0x40 MLOAD PUSH2 0x1D9 SWAP2 SWAP1 PUSH2 0xE9C JUMP JUMPDEST PUSH1 0x40 MLOAD DUP1 SWAP2 SUB SWAP1 RETURN JUMPDEST CALLVALUE DUP1 ISZERO PUSH2 0x1EE JUMPI PUSH1 0x0 DUP1 REVERT JUMPDEST POP PUSH2 0x209 PUSH1 0x4 DUP1 CALLDATASIZE SUB DUP2 ADD SWAP1 PUSH2 0x204 SWAP2 SWAP1 PUSH2 0xF82 JUMP JUMPDEST PUSH2 0x4EC JUMP JUMPDEST PUSH1 0x40 MLOAD PUSH2 0x216 SWAP2 SWAP1 PUSH2 0xE9C JUMP JUMPDEST PUSH1 0x40 MLOAD DUP1 SWAP2 SUB SWAP1 RETURN JUMPDEST CALLVALUE DUP1 ISZERO PUSH2 0x22B JUMPI PUSH1 0x0 DUP1 REVERT JUMPDEST POP PUSH2 0x234 PUSH2 0x568 JUMP JUMPDEST PUSH1 0x40 MLOAD PUSH2 0x241 SWAP2 SWAP1 PUSH2 0xE9C JUMP JUMPDEST PUSH1 0x40 MLOAD DUP1 SWAP2 SUB SWAP1 RETURN JUMPDEST CALLVALUE DUP1 ISZERO PUSH2 0x256 JUMPI PUSH1 0x0 DUP1 REVERT JUMPDEST POP PUSH2 0x271 PUSH1 0x4 DUP1 CALLDATASIZE SUB DUP2 ADD SWAP1 PUSH2 0x26C SWAP2 SWAP1 PUSH2 0xE60 JUMP JUMPDEST PUSH2 0x580 JUMP JUMPDEST PUSH1 0x40 MLOAD PUSH2 0x27E SWAP2 SWAP1 PUSH2 0xE9C JUMP JUMPDEST PUSH1 0x40 MLOAD DUP1 SWAP2 SUB SWAP1 RETURN JUMPDEST CALLVALUE DUP1 ISZERO PUSH2 0x293 JUMPI PUSH1 0x0 DUP1 REVERT JUMPDEST POP PUSH2 0x29C PUSH2 0x59D JUMP JUMPDEST PUSH1 0x40 MLOAD PUSH2 0x2A9 SWAP2 SWAP1 PUSH2 0xE9C JUMP JUMPDEST PUSH1 0x40 MLOAD DUP1 SWAP2 SUB SWAP1 RETURN JUMPDEST CALLVALUE DUP1 ISZERO PUSH2 0x2BE JUMPI PUSH1 0x0 DUP1 REVERT JUMPDEST POP PUSH2 0x2D9 PUSH1 0x4 DUP1 CALLDATASIZE SUB DUP2 ADD SWAP1 PUSH2 0x2D4 SWAP2 SWAP1 PUSH2 0xFD5 JUMP JUMPDEST PUSH2 0x5A6 JUMP JUMPDEST STOP JUMPDEST CALLVALUE DUP1 ISZERO PUSH2 0x2E7 JUMPI PUSH1 0x0 DUP1 REVERT JUMPDEST POP PUSH2 0x2F0 PUSH2 0x5FE JUMP JUMPDEST PUSH1 0x40 MLOAD PUSH2 0x2FD SWAP2 SWAP1 PUSH2 0xE9C JUMP JUMPDEST PUSH1 0x40 MLOAD DUP1 SWAP2 SUB SWAP1 RETURN JUMPDEST CALLVALUE DUP1 ISZERO PUSH2 0x312 JUMPI PUSH1 0x0 DUP1 REVERT JUMPDEST POP PUSH2 0x31B PUSH2 0x61C JUMP JUMPDEST PUSH1 0x40 MLOAD PUSH2 0x328 SWAP2 SWAP1 PUSH2 0x10B8 JUMP JUMPDEST PUSH1 0x40 MLOAD DUP1 SWAP2 SUB SWAP1 RETURN JUMPDEST CALLVALUE DUP1 ISZERO PUSH2 0x33D JUMPI PUSH1 0x0 DUP1 REVERT JUMPDEST POP PUSH2 0x358 PUSH1 0x4 DUP1 CALLDATASIZE SUB DUP2 ADD SWAP1 PUSH2 0x353 SWAP2 SWAP1 PUSH2 0xF82 JUMP JUMPDEST PUSH2 0x6AE JUMP JUMPDEST PUSH1 0x40 MLOAD PUSH2 0x365 SWAP2 SWAP1 PUSH2 0xE9C JUMP JUMPDEST PUSH1 0x40 MLOAD DUP1 SWAP2 SUB SWAP1 RETURN JUMPDEST CALLVALUE DUP1 ISZERO PUSH2 0x37A JUMPI PUSH1 0x0 DUP1 REVERT JUMPDEST POP PUSH2 0x395 PUSH1 0x4 DUP1 CALLDATASIZE SUB DUP2 ADD SWAP1 PUSH2 0x390 SWAP2 SWAP1 PUSH2 0x120F JUMP JUMPDEST PUSH2 0x723 JUMP JUMPDEST STOP JUMPDEST PUSH2 0x3B1 PUSH1 0x4 DUP1 CALLDATASIZE SUB DUP2 ADD SWAP1 PUSH2 0x3AC SWAP2 SWAP1 PUSH2 0xF55 JUMP JUMPDEST PUSH2 0x77E JUMP JUMPDEST STOP JUMPDEST PUSH2 0x3BB PUSH2 0xA17 JUMP JUMPDEST ISZERO PUSH2 0x3FB JUMPI PUSH1 0x40 MLOAD PUSH32 0x8C379A000000000000000000000000000000000000000000000000000000000 DUP2 MSTORE PUSH1 0x4 ADD PUSH2 0x3F2 SWAP1 PUSH2 0x12CA JUMP JUMPDEST PUSH1 0x40 MLOAD DUP1 SWAP2 SUB SWAP1 REVERT JUMPDEST PUSH2 0x404 DUP2 PUSH2 0xB29 JUMP JUMPDEST POP JUMP JUMPDEST PUSH8 0xDE0B6B3A7640000 DUP2 JUMP JUMPDEST DUP2 PUSH2 0x41D CALLER PUSH2 0x4B5 JUMP JUMPDEST LT ISZERO PUSH2 0x45E JUMPI PUSH1 0x40 MLOAD PUSH32 0x8C379A000000000000000000000000000000000000000000000000000000000 DUP2 MSTORE PUSH1 0x4 ADD PUSH2 0x455 SWAP1 PUSH2 0x1336 JUMP JUMPDEST PUSH1 0x40 MLOAD DUP1 SWAP2 SUB SWAP1 REVERT JUMPDEST PUSH1 0x0 PUSH2 0x469 DUP4 PUSH2 0x4CF JUMP JUMPDEST SWAP1 POP PUSH2 0x474 DUP2 PUSH2 0xC06 JUMP JUMPDEST DUP1 PUSH1 0x2 PUSH1 0x0 DUP3 DUP3 SLOAD PUSH2 0x486 SWAP2 SWAP1 PUSH2 0x1385 JUMP JUMPDEST SWAP3 POP POP DUP2 SWAP1 SSTORE POP PUSH2 0x4B0 DUP3 CALLER CALLER PUSH3 0x186A0 PUSH1 0x0 DUP1 DUP8 PUSH1 0x40 MLOAD DUP1 PUSH1 0x20 ADD PUSH1 0x40 MSTORE DUP1 PUSH1 0x0 DUP2 MSTORE POP PUSH2 0xC09 JUMP JUMPDEST POP POP POP JUMP JUMPDEST PUSH1 0x0 PUSH2 0x4C8 DUP3 PUSH2 0x4C3 PUSH2 0x5FE JUMP JUMPDEST PUSH2 0xC27 JUMP JUMPDEST SWAP1 POP SWAP2 SWAP1 POP JUMP JUMPDEST PUSH1 0x0 PUSH2 0x4E5 PUSH2 0x4DC PUSH2 0x59D JUMP JUMPDEST PUSH1 0x2 SLOAD DUP5 PUSH2 0x4EC JUMP JUMPDEST SWAP1 POP SWAP2 SWAP1 POP JUMP JUMPDEST PUSH1 0x0 DUP1 DUP3 DUP6 PUSH2 0x4FB SWAP2 SWAP1 PUSH2 0x1385 JUMP JUMPDEST SWAP1 POP PUSH1 0x0 PUSH8 0xDE0B6B3A7640000 DUP3 PUSH8 0xDE0B6B3A7640000 DUP5 DUP6 PUSH2 0x51E SWAP2 SWAP1 PUSH2 0x13B9 JUMP JUMPDEST PUSH2 0x528 SWAP2 SWAP1 PUSH2 0x142A JUMP JUMPDEST PUSH2 0x532 SWAP2 SWAP1 PUSH2 0x13B9 JUMP JUMPDEST PUSH2 0x53C SWAP2 SWAP1 PUSH2 0x142A JUMP JUMPDEST SWAP1 POP PUSH8 0xDE0B6B3A7640000 DUP2 PUSH2 0x552 SWAP2 SWAP1 PUSH2 0x142A JUMP JUMPDEST DUP6 PUSH2 0x55D SWAP2 SWAP1 PUSH2 0x1385 JUMP JUMPDEST SWAP3 POP POP POP SWAP4 SWAP3 POP POP POP JUMP JUMPDEST PUSH1 0x0 PUSH2 0x57B ADDRESS PUSH2 0x576 PUSH2 0x5FE JUMP JUMPDEST PUSH2 0xC27 JUMP JUMPDEST SWAP1 POP SWAP1 JUMP JUMPDEST PUSH1 0x0 PUSH2 0x596 PUSH2 0x58D PUSH2 0x59D JUMP JUMPDEST PUSH1 0x2 SLOAD DUP5 PUSH2 0x6AE JUMP JUMPDEST SWAP1 POP SWAP2 SWAP1 POP JUMP JUMPDEST PUSH1 0x0 DUP1 SLOAD SWAP1 POP SWAP1 JUMP JUMPDEST PUSH2 0x5AE PUSH2 0xA17 JUMP JUMPDEST ISZERO PUSH2 0x5EE JUMPI PUSH1 0x40 MLOAD PUSH32 0x8C379A000000000000000000000000000000000000000000000000000000000 DUP2 MSTORE PUSH1 0x4 ADD PUSH2 0x5E5 SWAP1 PUSH2 0x12CA JUMP JUMPDEST PUSH1 0x40 MLOAD DUP1 SWAP2 SUB SWAP1 REVERT JUMPDEST PUSH2 0x5F9 DUP4 DUP4 DUP4 PUSH2 0xCAE JUMP JUMPDEST POP POP POP JUMP JUMPDEST PUSH1 0x0 ADDRESS PUSH20 0xFFFFFFFFFFFFFFFFFFFFFFFFFFFFFFFFFFFFFFFF AND SWAP1 POP SWAP1 JUMP JUMPDEST PUSH1 0x60 PUSH1 0x1 DUP1 SLOAD PUSH2 0x62B SWAP1 PUSH2 0x148A JUMP JUMPDEST DUP1 PUSH1 0x1F ADD PUSH1 0x20 DUP1 SWAP2 DIV MUL PUSH1 0x20 ADD PUSH1 0x40 MLOAD SWAP1 DUP2 ADD PUSH1 0x40 MSTORE DUP1 SWAP3 SWAP2 SWAP1 DUP2 DUP2 MSTORE PUSH1 0x20 ADD DUP3 DUP1 SLOAD PUSH2 0x657 SWAP1 PUSH2 0x148A JUMP JUMPDEST DUP1 ISZERO PUSH2 0x6A4 JUMPI DUP1 PUSH1 0x1F LT PUSH2 0x679 JUMPI PUSH2 0x100 DUP1 DUP4 SLOAD DIV MUL DUP4 MSTORE SWAP2 PUSH1 0x20 ADD SWAP2 PUSH2 0x6A4 JUMP JUMPDEST DUP3 ADD SWAP2 SWAP1 PUSH1 0x0 MSTORE PUSH1 0x20 PUSH1 0x0 KECCAK256 SWAP1 JUMPDEST DUP2 SLOAD DUP2 MSTORE SWAP1 PUSH1 0x1 ADD SWAP1 PUSH1 0x20 ADD DUP1 DUP4 GT PUSH2 0x687 JUMPI DUP3 SWAP1 SUB PUSH1 0x1F AND DUP3 ADD SWAP2 JUMPDEST POP POP POP POP POP SWAP1 POP SWAP1 JUMP JUMPDEST PUSH1 0x0 DUP1 DUP3 DUP6 PUSH2 0x6BD SWAP2 SWAP1 PUSH2 0x14BB JUMP JUMPDEST SWAP1 POP PUSH1 0x0 PUSH8 0xDE0B6B3A7640000 DUP3 PUSH8 0xDE0B6B3A7640000 DUP5 DUP6 PUSH2 0x6E0 SWAP2 SWAP1 PUSH2 0x13B9 JUMP JUMPDEST PUSH2 0x6EA SWAP2 SWAP1 PUSH2 0x142A JUMP JUMPDEST PUSH2 0x6F4 SWAP2 SWAP1 PUSH2 0x13B9 JUMP JUMPDEST PUSH2 0x6FE SWAP2 SWAP1 PUSH2 0x142A JUMP JUMPDEST SWAP1 POP DUP5 PUSH1 0x3 DUP3 PUSH2 0x70E SWAP2 SWAP1 PUSH2 0x142A JUMP JUMPDEST PUSH2 0x718 SWAP2 SWAP1 PUSH2 0x1385 JUMP JUMPDEST SWAP3 POP POP POP SWAP4 SWAP3 POP POP POP JUMP JUMPDEST PUSH2 0x72B PUSH2 0xA17 JUMP JUMPDEST ISZERO PUSH2 0x76B JUMPI PUSH1 0x40 MLOAD PUSH32 0x8C379A000000000000000000000000000000000000000000000000000000000 DUP2 MSTORE PUSH1 0x4 ADD PUSH2 0x762 SWAP1 PUSH2 0x12CA JUMP JUMPDEST PUSH1 0x40 MLOAD DUP1 SWAP2 SUB SWAP1 REVERT JUMPDEST DUP1 PUSH1 0x1 SWAP1 DUP2 PUSH2 0x77A SWAP2 SWAP1 PUSH2 0x169B JUMP JUMPDEST POP POP JUMP JUMPDEST PUSH1 0x0 CALLVALUE SWAP1 POP PUSH1 0x0 DUP2 GT PUSH2 0x7C6 JUMPI PUSH1 0x40 MLOAD PUSH32 0x8C379A000000000000000000000000000000000000000000000000000000000 DUP2 MSTORE PUSH1 0x4 ADD PUSH2 0x7BD SWAP1 PUSH2 0x17B9 JUMP JUMPDEST PUSH1 0x40 MLOAD DUP1 SWAP2 SUB SWAP1 REVERT JUMPDEST PUSH1 0x3 SLOAD PUSH2 0x7D1 PUSH2 0x59D JUMP JUMPDEST LT PUSH2 0x811 JUMPI PUSH1 0x40 MLOAD PUSH32 0x8C379A000000000000000000000000000000000000000000000000000000000 DUP2 MSTORE PUSH1 0x4 ADD PUSH2 0x808 SWAP1 PUSH2 0x184B JUMP JUMPDEST PUSH1 0x40 MLOAD DUP1 SWAP2 SUB SWAP1 REVERT JUMPDEST PUSH1 0x0 PUSH2 0x81C DUP3 PUSH2 0x580 JUMP JUMPDEST SWAP1 POP CALLER PUSH20 0xFFFFFFFFFFFFFFFFFFFFFFFFFFFFFFFFFFFFFFFF AND PUSH32 0x3D97AB026A5FDFD38A9E144F940D9E7DDCA4F2638F73F3DCB2CAC8374438139D DUP4 DUP4 PUSH1 0x40 MLOAD PUSH2 0x866 SWAP3 SWAP2 SWAP1 PUSH2 0x186B JUMP JUMPDEST PUSH1 0x40 MLOAD DUP1 SWAP2 SUB SWAP1 LOG2 PUSH1 0x3 SLOAD DUP2 PUSH2 0x87A PUSH2 0x59D JUMP JUMPDEST PUSH2 0x884 SWAP2 SWAP1 PUSH2 0x14BB JUMP JUMPDEST POP POP PUSH2 0x88F DUP2 PUSH2 0xB29 JUMP JUMPDEST CALLER PUSH20 0xFFFFFFFFFFFFFFFFFFFFFFFFFFFFFFFFFFFFFFFF AND PUSH32 0x1983D4A8948DE0030F1101B7E335726BEE7BC5F4E6617A16C9722A35D45E80D4 DUP4 DUP4 PUSH1 0x40 MLOAD PUSH2 0x8D7 SWAP3 SWAP2 SWAP1 PUSH2 0x186B JUMP JUMPDEST PUSH1 0x40 MLOAD DUP1 SWAP2 SUB SWAP1 LOG2 DUP2 PUSH1 0x2 PUSH1 0x0 DUP3 DUP3 SLOAD PUSH2 0x8F1 SWAP2 SWAP1 PUSH2 0x14BB JUMP JUMPDEST SWAP3 POP POP DUP2 SWAP1 SSTORE POP PUSH1 0x0 PUSH1 0x1 PUSH8 0xFFFFFFFFFFFFFFFF DUP2 GT ISZERO PUSH2 0x915 JUMPI PUSH2 0x914 PUSH2 0x10E4 JUMP JUMPDEST JUMPDEST PUSH1 0x40 MLOAD SWAP1 DUP1 DUP3 MSTORE DUP1 PUSH1 0x20 MUL PUSH1 0x20 ADD DUP3 ADD PUSH1 0x40 MSTORE DUP1 ISZERO PUSH2 0x94E JUMPI DUP2 PUSH1 0x20 ADD JUMPDEST PUSH2 0x93B PUSH2 0xDFC JUMP JUMPDEST DUP2 MSTORE PUSH1 0x20 ADD SWAP1 PUSH1 0x1 SWAP1 SUB SWAP1 DUP2 PUSH2 0x933 JUMPI SWAP1 POP JUMPDEST POP SWAP1 POP PUSH1 0x40 MLOAD DUP1 PUSH1 0x40 ADD PUSH1 0x40 MSTORE DUP1 ADDRESS PUSH20 0xFFFFFFFFFFFFFFFFFFFFFFFFFFFFFFFFFFFFFFFF AND DUP2 MSTORE PUSH1 0x20 ADD DUP4 DUP2 MSTORE POP DUP2 PUSH1 0x0 DUP2 MLOAD DUP2 LT PUSH2 0x990 JUMPI PUSH2 0x98F PUSH2 0x1894 JUMP JUMPDEST JUMPDEST PUSH1 0x20 MUL PUSH1 0x20 ADD ADD DUP2 SWAP1 MSTORE POP PUSH2 0x9C1 DUP5 ADDRESS CALLER PUSH3 0x186A0 PUSH1 0x0 DUP1 PUSH2 0x3039 DUP9 PUSH1 0x40 MLOAD DUP1 PUSH1 0x20 ADD PUSH1 0x40 MSTORE DUP1 PUSH1 0x0 DUP2 MSTORE POP PUSH2 0xD64 JUMP JUMPDEST CALLER PUSH20 0xFFFFFFFFFFFFFFFFFFFFFFFFFFFFFFFFFFFFFFFF AND PUSH32 0x3FAA518ABD490A442E1E18B02CAFE62F0351DB93D85F67E8D0CBFCCB9258A520 DUP5 DUP5 PUSH1 0x40 MLOAD PUSH2 0xA09 SWAP3 SWAP2 SWAP1 PUSH2 0x186B JUMP JUMPDEST PUSH1 0x40 MLOAD DUP1 SWAP2 SUB SWAP1 LOG2 POP POP POP POP JUMP JUMPDEST PUSH1 0x0 PUSH1 0x60 PUSH1 0x0 DUP1 PUSH1 0xFF PUSH20 0xFFFFFFFFFFFFFFFFFFFFFFFFFFFFFFFFFFFFFFFF AND DUP4 PUSH1 0x40 MLOAD PUSH2 0xA44 SWAP2 SWAP1 PUSH2 0x190A JUMP JUMPDEST PUSH1 0x0 PUSH1 0x40 MLOAD DUP1 DUP4 SUB DUP2 DUP6 GAS STATICCALL SWAP2 POP POP RETURNDATASIZE DUP1 PUSH1 0x0 DUP2 EQ PUSH2 0xA7F JUMPI PUSH1 0x40 MLOAD SWAP2 POP PUSH1 0x1F NOT PUSH1 0x3F RETURNDATASIZE ADD AND DUP3 ADD PUSH1 0x40 MSTORE RETURNDATASIZE DUP3 MSTORE RETURNDATASIZE PUSH1 0x0 PUSH1 0x20 DUP5 ADD RETURNDATACOPY PUSH2 0xA84 JUMP JUMPDEST PUSH1 0x60 SWAP2 POP JUMPDEST POP SWAP2 POP SWAP2 POP DUP2 PUSH2 0xAC9 JUMPI PUSH1 0x40 MLOAD PUSH32 0x8C379A000000000000000000000000000000000000000000000000000000000 DUP2 MSTORE PUSH1 0x4 ADD PUSH2 0xAC0 SWAP1 PUSH2 0x196D JUMP JUMPDEST PUSH1 0x40 MLOAD DUP1 SWAP2 SUB SWAP1 REVERT JUMPDEST PUSH1 0x0 DUP2 MLOAD GT PUSH2 0xB0D JUMPI PUSH1 0x40 MLOAD PUSH32 0x8C379A000000000000000000000000000000000000000000000000000000000 DUP2 MSTORE PUSH1 0x4 ADD PUSH2 0xB04 SWAP1 PUSH2 0x19FF JUMP JUMPDEST PUSH1 0x40 MLOAD DUP1 SWAP2 SUB SWAP1 REVERT JUMPDEST DUP1 DUP1 PUSH1 0x20 ADD SWAP1 MLOAD DUP2 ADD SWAP1 PUSH2 0xB21 SWAP2 SWAP1 PUSH2 0x1A57 JUMP JUMPDEST SWAP4 POP POP POP POP SWAP1 JUMP JUMPDEST PUSH1 0x0 PUSH1 0xD0 PUSH20 0xFFFFFFFFFFFFFFFFFFFFFFFFFFFFFFFFFFFFFFFF AND PUSH4 0xF4C261B5 DUP4 PUSH1 0x40 MLOAD DUP3 PUSH4 0xFFFFFFFF AND PUSH1 0xE0 SHL DUP2 MSTORE PUSH1 0x4 ADD PUSH2 0xB65 SWAP2 SWAP1 PUSH2 0xE9C JUMP JUMPDEST PUSH1 0x20 PUSH1 0x40 MLOAD DUP1 DUP4 SUB DUP2 PUSH1 0x0 DUP8 GAS CALL ISZERO DUP1 ISZERO PUSH2 0xB84 JUMPI RETURNDATASIZE PUSH1 0x0 DUP1 RETURNDATACOPY RETURNDATASIZE PUSH1 0x0 REVERT JUMPDEST POP POP POP POP PUSH1 0x40 MLOAD RETURNDATASIZE PUSH1 0x1F NOT PUSH1 0x1F DUP3 ADD AND DUP3 ADD DUP1 PUSH1 0x40 MSTORE POP DUP2 ADD SWAP1 PUSH2 0xBA8 SWAP2 SWAP1 PUSH2 0x1A57 JUMP JUMPDEST SWAP1 POP DUP1 PUSH2 0xBEA JUMPI PUSH1 0x40 MLOAD PUSH32 0x8C379A000000000000000000000000000000000000000000000000000000000 DUP2 MSTORE PUSH1 0x4 ADD PUSH2 0xBE1 SWAP1 PUSH2 0x1AD0 JUMP JUMPDEST PUSH1 0x40 MLOAD DUP1 SWAP2 SUB SWAP1 REVERT JUMPDEST DUP2 PUSH1 0x0 DUP1 DUP3 DUP3 SLOAD PUSH2 0xBFB SWAP2 SWAP1 PUSH2 0x14BB JUMP JUMPDEST SWAP3 POP POP DUP2 SWAP1 SSTORE POP POP POP JUMP JUMPDEST POP JUMP JUMPDEST PUSH1 0x60 PUSH2 0xC1C DUP10 DUP10 DUP10 DUP10 DUP10 DUP10 DUP10 DUP9 DUP11 PUSH2 0xD64 JUMP JUMPDEST POP POP POP POP POP POP POP POP POP JUMP JUMPDEST PUSH1 0x0 PUSH1 0xD1 PUSH20 0xFFFFFFFFFFFFFFFFFFFFFFFFFFFFFFFFFFFFFFFF AND PUSH4 0x3A1735FC DUP4 DUP6 PUSH1 0x40 MLOAD DUP4 PUSH4 0xFFFFFFFF AND PUSH1 0xE0 SHL DUP2 MSTORE PUSH1 0x4 ADD PUSH2 0xC65 SWAP3 SWAP2 SWAP1 PUSH2 0x1AFF JUMP JUMPDEST PUSH1 0x20 PUSH1 0x40 MLOAD DUP1 DUP4 SUB DUP2 DUP7 GAS STATICCALL ISZERO DUP1 ISZERO PUSH2 0xC82 JUMPI RETURNDATASIZE PUSH1 0x0 DUP1 RETURNDATACOPY RETURNDATASIZE PUSH1 0x0 REVERT JUMPDEST POP POP POP POP PUSH1 0x40 MLOAD RETURNDATASIZE PUSH1 0x1F NOT PUSH1 0x1F DUP3 ADD AND DUP3 ADD DUP1 PUSH1 0x40 MSTORE POP DUP2 ADD SWAP1 PUSH2 0xCA6 SWAP2 SWAP1 PUSH2 0x1B3D JUMP JUMPDEST SWAP1 POP SWAP3 SWAP2 POP POP JUMP JUMPDEST PUSH1 0x0 PUSH1 0x1 PUSH8 0xFFFFFFFFFFFFFFFF DUP2 GT ISZERO PUSH2 0xCCB JUMPI PUSH2 0xCCA PUSH2 0x10E4 JUMP JUMPDEST JUMPDEST PUSH1 0x40 MLOAD SWAP1 DUP1 DUP3 MSTORE DUP1 PUSH1 0x20 MUL PUSH1 0x20 ADD DUP3 ADD PUSH1 0x40 MSTORE DUP1 ISZERO PUSH2 0xD04 JUMPI DUP2 PUSH1 0x20 ADD JUMPDEST PUSH2 0xCF1 PUSH2 0xDFC JUMP JUMPDEST DUP2 MSTORE PUSH1 0x20 ADD SWAP1 PUSH1 0x1 SWAP1 SUB SWAP1 DUP2 PUSH2 0xCE9 JUMPI SWAP1 POP JUMPDEST POP SWAP1 POP PUSH1 0x40 MLOAD DUP1 PUSH1 0x40 ADD PUSH1 0x40 MSTORE DUP1 DUP5 DUP2 MSTORE PUSH1 0x20 ADD DUP4 DUP2 MSTORE POP DUP2 PUSH1 0x0 DUP2 MLOAD DUP2 LT PUSH2 0xD30 JUMPI PUSH2 0xD2F PUSH2 0x1894 JUMP JUMPDEST JUMPDEST PUSH1 0x20 MUL PUSH1 0x20 ADD ADD DUP2 SWAP1 MSTORE POP PUSH2 0xD5E DUP5 PUSH1 0x0 DUP1 PUSH1 0x0 DUP1 PUSH1 0x0 DUP1 DUP9 PUSH1 0x40 MLOAD DUP1 PUSH1 0x20 ADD PUSH1 0x40 MSTORE DUP1 PUSH1 0x0 DUP2 MSTORE POP PUSH2 0xD64 JUMP JUMPDEST POP POP POP POP JUMP JUMPDEST PUSH1 0xFD PUSH20 0xFFFFFFFFFFFFFFFFFFFFFFFFFFFFFFFFFFFFFFFF AND PUSH4 0xF1D1CF1C DUP5 DUP7 DUP9 DUP14 DUP14 DUP14 DUP14 DUP11 DUP11 PUSH1 0x40 MLOAD DUP11 PUSH4 0xFFFFFFFF AND PUSH1 0xE0 SHL DUP2 MSTORE PUSH1 0x4 ADD PUSH2 0xDAD SWAP9 SWAP8 SWAP7 SWAP6 SWAP5 SWAP4 SWAP3 SWAP2 SWAP1 PUSH2 0x1CCC JUMP JUMPDEST PUSH1 0x20 PUSH1 0x40 MLOAD DUP1 DUP4 SUB DUP2 DUP6 DUP9 GAS CALL ISZERO DUP1 ISZERO PUSH2 0xDCB JUMPI RETURNDATASIZE PUSH1 0x0 DUP1 RETURNDATACOPY RETURNDATASIZE PUSH1 0x0 REVERT JUMPDEST POP POP POP POP POP PUSH1 0x40 MLOAD RETURNDATASIZE PUSH1 0x1F NOT PUSH1 0x1F DUP3 ADD AND DUP3 ADD DUP1 PUSH1 0x40 MSTORE POP DUP2 ADD SWAP1 PUSH2 0xDF0 SWAP2 SWAP1 PUSH2 0x1A57 JUMP JUMPDEST POP POP POP POP POP POP POP POP POP POP JUMP JUMPDEST PUSH1 0x40 MLOAD DUP1 PUSH1 0x40 ADD PUSH1 0x40 MSTORE DUP1 PUSH1 0x0 DUP2 MSTORE PUSH1 0x20 ADD PUSH1 0x0 DUP2 MSTORE POP SWAP1 JUMP JUMPDEST PUSH1 0x0 PUSH1 0x40 MLOAD SWAP1 POP SWAP1 JUMP JUMPDEST PUSH1 0x0 DUP1 REVERT JUMPDEST PUSH1 0x0 DUP1 REVERT JUMPDEST PUSH1 0x0 DUP2 SWAP1 POP SWAP2 SWAP1 POP JUMP JUMPDEST PUSH2 0xE3D DUP2 PUSH2 0xE2A JUMP JUMPDEST DUP2 EQ PUSH2 0xE48 JUMPI PUSH1 0x0 DUP1 REVERT JUMPDEST POP JUMP JUMPDEST PUSH1 0x0 DUP2 CALLDATALOAD SWAP1 POP PUSH2 0xE5A DUP2 PUSH2 0xE34 JUMP JUMPDEST SWAP3 SWAP2 POP POP JUMP JUMPDEST PUSH1 0x0 PUSH1 0x20 DUP3 DUP5 SUB SLT ISZERO PUSH2 0xE76 JUMPI PUSH2 0xE75 PUSH2 0xE20 JUMP JUMPDEST JUMPDEST PUSH1 0x0 PUSH2 0xE84 DUP5 DUP3 DUP6 ADD PUSH2 0xE4B JUMP JUMPDEST SWAP2 POP POP SWAP3 SWAP2 POP POP JUMP JUMPDEST PUSH2 0xE96 DUP2 PUSH2 0xE2A JUMP JUMPDEST DUP3 MSTORE POP POP JUMP JUMPDEST PUSH1 0x0 PUSH1 0x20 DUP3 ADD SWAP1 POP PUSH2 0xEB1 PUSH1 0x0 DUP4 ADD DUP5 PUSH2 0xE8D JUMP JUMPDEST SWAP3 SWAP2 POP POP JUMP JUMPDEST PUSH1 0x0 PUSH20 0xFFFFFFFFFFFFFFFFFFFFFFFFFFFFFFFFFFFFFFFF DUP3 AND SWAP1 POP SWAP2 SWAP1 POP JUMP JUMPDEST PUSH1 0x0 PUSH2 0xEE2 DUP3 PUSH2 0xEB7 JUMP JUMPDEST SWAP1 POP SWAP2 SWAP1 POP JUMP JUMPDEST PUSH2 0xEF2 DUP2 PUSH2 0xED7 JUMP JUMPDEST DUP2 EQ PUSH2 0xEFD JUMPI PUSH1 0x0 DUP1 REVERT JUMPDEST POP JUMP JUMPDEST PUSH1 0x0 DUP2 CALLDATALOAD SWAP1 POP PUSH2 0xF0F DUP2 PUSH2 0xEE9 JUMP JUMPDEST SWAP3 SWAP2 POP POP JUMP JUMPDEST PUSH1 0x0 DUP1 PUSH1 0x40 DUP4 DUP6 SUB SLT ISZERO PUSH2 0xF2C JUMPI PUSH2 0xF2B PUSH2 0xE20 JUMP JUMPDEST JUMPDEST PUSH1 0x0 PUSH2 0xF3A DUP6 DUP3 DUP7 ADD PUSH2 0xE4B JUMP JUMPDEST SWAP3 POP POP PUSH1 0x20 PUSH2 0xF4B DUP6 DUP3 DUP7 ADD PUSH2 0xF00 JUMP JUMPDEST SWAP2 POP POP SWAP3 POP SWAP3 SWAP1 POP JUMP JUMPDEST PUSH1 0x0 PUSH1 0x20 DUP3 DUP5 SUB SLT ISZERO PUSH2 0xF6B JUMPI PUSH2 0xF6A PUSH2 0xE20 JUMP JUMPDEST JUMPDEST PUSH1 0x0 PUSH2 0xF79 DUP5 DUP3 DUP6 ADD PUSH2 0xF00 JUMP JUMPDEST SWAP2 POP POP SWAP3 SWAP2 POP POP JUMP JUMPDEST PUSH1 0x0 DUP1 PUSH1 0x0 PUSH1 0x60 DUP5 DUP7 SUB SLT ISZERO PUSH2 0xF9B JUMPI PUSH2 0xF9A PUSH2 0xE20 JUMP JUMPDEST JUMPDEST PUSH1 0x0 PUSH2 0xFA9 DUP7 DUP3 DUP8 ADD PUSH2 0xE4B JUMP JUMPDEST SWAP4 POP POP PUSH1 0x20 PUSH2 0xFBA DUP7 DUP3 DUP8 ADD PUSH2 0xE4B JUMP JUMPDEST SWAP3 POP POP PUSH1 0x40 PUSH2 0xFCB DUP7 DUP3 DUP8 ADD PUSH2 0xE4B JUMP JUMPDEST SWAP2 POP POP SWAP3 POP SWAP3 POP SWAP3 JUMP JUMPDEST PUSH1 0x0 DUP1 PUSH1 0x0 PUSH1 0x60 DUP5 DUP7 SUB SLT ISZERO PUSH2 0xFEE JUMPI PUSH2 0xFED PUSH2 0xE20 JUMP JUMPDEST JUMPDEST PUSH1 0x0 PUSH2 0xFFC DUP7 DUP3 DUP8 ADD PUSH2 0xF00 JUMP JUMPDEST SWAP4 POP POP PUSH1 0x20 PUSH2 0x100D DUP7 DUP3 DUP8 ADD PUSH2 0xE4B JUMP JUMPDEST SWAP3 POP POP PUSH1 0x40 PUSH2 0x101E DUP7 DUP3 DUP8 ADD PUSH2 0xE4B JUMP JUMPDEST SWAP2 POP POP SWAP3 POP SWAP3 POP SWAP3 JUMP JUMPDEST PUSH1 0x0 DUP2 MLOAD SWAP1 POP SWAP2 SWAP1 POP JUMP JUMPDEST PUSH1 0x0 DUP3 DUP3 MSTORE PUSH1 0x20 DUP3 ADD SWAP1 POP SWAP3 SWAP2 POP POP JUMP JUMPDEST PUSH1 0x0 JUMPDEST DUP4 DUP2 LT ISZERO PUSH2 0x1062 JUMPI DUP1 DUP3 ADD MLOAD DUP2 DUP5 ADD MSTORE PUSH1 0x20 DUP2 ADD SWAP1 POP PUSH2 0x1047 JUMP JUMPDEST PUSH1 0x0 DUP5 DUP5 ADD MSTORE POP POP POP POP JUMP JUMPDEST PUSH1 0x0 PUSH1 0x1F NOT PUSH1 0x1F DUP4 ADD AND SWAP1 POP SWAP2 SWAP1 POP JUMP JUMPDEST PUSH1 0x0 PUSH2 0x108A DUP3 PUSH2 0x1028 JUMP JUMPDEST PUSH2 0x1094 DUP2 DUP6 PUSH2 0x1033 JUMP JUMPDEST SWAP4 POP PUSH2 0x10A4 DUP2 DUP6 PUSH1 0x20 DUP7 ADD PUSH2 0x1044 JUMP JUMPDEST PUSH2 0x10AD DUP2 PUSH2 0x106E JUMP JUMPDEST DUP5 ADD SWAP2 POP POP SWAP3 SWAP2 POP POP JUMP JUMPDEST PUSH1 0x0 PUSH1 0x20 DUP3 ADD SWAP1 POP DUP2 DUP2 SUB PUSH1 0x0 DUP4 ADD MSTORE PUSH2 0x10D2 DUP2 DUP5 PUSH2 0x107F JUMP JUMPDEST SWAP1 POP SWAP3 SWAP2 POP POP JUMP JUMPDEST PUSH1 0x0 DUP1 REVERT JUMPDEST PUSH1 0x0 DUP1 REVERT JUMPDEST PUSH32 0x4E487B7100000000000000000000000000000000000000000000000000000000 PUSH1 0x0 MSTORE PUSH1 0x41 PUSH1 0x4 MSTORE PUSH1 0x24 PUSH1 0x0 REVERT JUMPDEST PUSH2 0x111C DUP3 PUSH2 0x106E JUMP JUMPDEST DUP2 ADD DUP2 DUP2 LT PUSH8 0xFFFFFFFFFFFFFFFF DUP3 GT OR ISZERO PUSH2 0x113B JUMPI PUSH2 0x113A PUSH2 0x10E4 JUMP JUMPDEST JUMPDEST DUP1 PUSH1 0x40 MSTORE POP POP POP JUMP JUMPDEST PUSH1 0x0 PUSH2 0x114E PUSH2 0xE16 JUMP JUMPDEST SWAP1 POP PUSH2 0x115A DUP3 DUP3 PUSH2 0x1113 JUMP JUMPDEST SWAP2 SWAP1 POP JUMP JUMPDEST PUSH1 0x0 PUSH8 0xFFFFFFFFFFFFFFFF DUP3 GT ISZERO PUSH2 0x117A JUMPI PUSH2 0x1179 PUSH2 0x10E4 JUMP JUMPDEST JUMPDEST PUSH2 0x1183 DUP3 PUSH2 0x106E JUMP JUMPDEST SWAP1 POP PUSH1 0x20 DUP2 ADD SWAP1 POP SWAP2 SWAP1 POP JUMP JUMPDEST DUP3 DUP2 DUP4 CALLDATACOPY PUSH1 0x0 DUP4 DUP4 ADD MSTORE POP POP POP JUMP JUMPDEST PUSH1 0x0 PUSH2 0x11B2 PUSH2 0x11AD DUP5 PUSH2 0x115F JUMP JUMPDEST PUSH2 0x1144 JUMP JUMPDEST SWAP1 POP DUP3 DUP2 MSTORE PUSH1 0x20 DUP2 ADD DUP5 DUP5 DUP5 ADD GT ISZERO PUSH2 0x11CE JUMPI PUSH2 0x11CD PUSH2 0x10DF JUMP JUMPDEST JUMPDEST PUSH2 0x11D9 DUP5 DUP3 DUP6 PUSH2 0x1190 JUMP JUMPDEST POP SWAP4 SWAP3 POP POP POP JUMP JUMPDEST PUSH1 0x0 DUP3 PUSH1 0x1F DUP4 ADD SLT PUSH2 0x11F6 JUMPI PUSH2 0x11F5 PUSH2 0x10DA JUMP JUMPDEST JUMPDEST DUP2 CALLDATALOAD PUSH2 0x1206 DUP5 DUP3 PUSH1 0x20 DUP7 ADD PUSH2 0x119F JUMP JUMPDEST SWAP2 POP POP SWAP3 SWAP2 POP POP JUMP JUMPDEST PUSH1 0x0 PUSH1 0x20 DUP3 DUP5 SUB SLT ISZERO PUSH2 0x1225 JUMPI PUSH2 0x1224 PUSH2 0xE20 JUMP JUMPDEST JUMPDEST PUSH1 0x0 DUP3 ADD CALLDATALOAD PUSH8 0xFFFFFFFFFFFFFFFF DUP2 GT ISZERO PUSH2 0x1243 JUMPI PUSH2 0x1242 PUSH2 0xE25 JUMP JUMPDEST JUMPDEST PUSH2 0x124F DUP5 DUP3 DUP6 ADD PUSH2 0x11E1 JUMP JUMPDEST SWAP2 POP POP SWAP3 SWAP2 POP POP JUMP JUMPDEST PUSH32 0x547279696E6720746F2063616C6C2065787465726E616C2066756E6374696F6E PUSH1 0x0 DUP3 ADD MSTORE PUSH32 0x207769746820696E7465726E616C206D65737361676500000000000000000000 PUSH1 0x20 DUP3 ADD MSTORE POP JUMP JUMPDEST PUSH1 0x0 PUSH2 0x12B4 PUSH1 0x36 DUP4 PUSH2 0x1033 JUMP JUMPDEST SWAP2 POP PUSH2 0x12BF DUP3 PUSH2 0x1258 JUMP JUMPDEST PUSH1 0x40 DUP3 ADD SWAP1 POP SWAP2 SWAP1 POP JUMP JUMPDEST PUSH1 0x0 PUSH1 0x20 DUP3 ADD SWAP1 POP DUP2 DUP2 SUB PUSH1 0x0 DUP4 ADD MSTORE PUSH2 0x12E3 DUP2 PUSH2 0x12A7 JUMP JUMPDEST SWAP1 POP SWAP2 SWAP1 POP JUMP JUMPDEST PUSH32 0x496E73756666696369656E742062616C616E6365000000000000000000000000 PUSH1 0x0 DUP3 ADD MSTORE POP JUMP JUMPDEST PUSH1 0x0 PUSH2 0x1320 PUSH1 0x14 DUP4 PUSH2 0x1033 JUMP JUMPDEST SWAP2 POP PUSH2 0x132B DUP3 PUSH2 0x12EA JUMP JUMPDEST PUSH1 0x20 DUP3 ADD SWAP1 POP SWAP2 SWAP1 POP JUMP JUMPDEST PUSH1 0x0 PUSH1 0x20 DUP3 ADD SWAP1 POP DUP2 DUP2 SUB PUSH1 0x0 DUP4 ADD MSTORE PUSH2 0x134F DUP2 PUSH2 0x1313 JUMP JUMPDEST SWAP1 POP SWAP2 SWAP1 POP JUMP JUMPDEST PUSH32 0x4E487B7100000000000000000000000000000000000000000000000000000000 PUSH1 0x0 MSTORE PUSH1 0x11 PUSH1 0x4 MSTORE PUSH1 0x24 PUSH1 0x0 REVERT JUMPDEST PUSH1 0x0 PUSH2 0x1390 DUP3 PUSH2 0xE2A JUMP JUMPDEST SWAP2 POP PUSH2 0x139B DUP4 PUSH2 0xE2A JUMP JUMPDEST SWAP3 POP DUP3 DUP3 SUB SWAP1 POP DUP2 DUP2 GT ISZERO PUSH2 0x13B3 JUMPI PUSH2 0x13B2 PUSH2 0x1356 JUMP JUMPDEST JUMPDEST SWAP3 SWAP2 POP POP JUMP JUMPDEST PUSH1 0x0 PUSH2 0x13C4 DUP3 PUSH2 0xE2A JUMP JUMPDEST SWAP2 POP PUSH2 0x13CF DUP4 PUSH2 0xE2A JUMP JUMPDEST SWAP3 POP DUP3 DUP3 MUL PUSH2 0x13DD DUP2 PUSH2 0xE2A JUMP JUMPDEST SWAP2 POP DUP3 DUP3 DIV DUP5 EQ DUP4 ISZERO OR PUSH2 0x13F4 JUMPI PUSH2 0x13F3 PUSH2 0x1356 JUMP JUMPDEST JUMPDEST POP SWAP3 SWAP2 POP POP JUMP JUMPDEST PUSH32 0x4E487B7100000000000000000000000000000000000000000000000000000000 PUSH1 0x0 MSTORE PUSH1 0x12 PUSH1 0x4 MSTORE PUSH1 0x24 PUSH1 0x0 REVERT JUMPDEST PUSH1 0x0 PUSH2 0x1435 DUP3 PUSH2 0xE2A JUMP JUMPDEST SWAP2 POP PUSH2 0x1440 DUP4 PUSH2 0xE2A JUMP JUMPDEST SWAP3 POP DUP3 PUSH2 0x1450 JUMPI PUSH2 0x144F PUSH2 0x13FB JUMP JUMPDEST JUMPDEST DUP3 DUP3 DIV SWAP1 POP SWAP3 SWAP2 POP POP JUMP JUMPDEST PUSH32 0x4E487B7100000000000000000000000000000000000000000000000000000000 PUSH1 0x0 MSTORE PUSH1 0x22 PUSH1 0x4 MSTORE PUSH1 0x24 PUSH1 0x0 REVERT JUMPDEST PUSH1 0x0 PUSH1 0x2 DUP3 DIV SWAP1 POP PUSH1 0x1 DUP3 AND DUP1 PUSH2 0x14A2 JUMPI PUSH1 0x7F DUP3 AND SWAP2 POP JUMPDEST PUSH1 0x20 DUP3 LT DUP2 SUB PUSH2 0x14B5 JUMPI PUSH2 0x14B4 PUSH2 0x145B JUMP JUMPDEST JUMPDEST POP SWAP2 SWAP1 POP JUMP JUMPDEST PUSH1 0x0 PUSH2 0x14C6 DUP3 PUSH2 0xE2A JUMP JUMPDEST SWAP2 POP PUSH2 0x14D1 DUP4 PUSH2 0xE2A JUMP JUMPDEST SWAP3 POP DUP3 DUP3 ADD SWAP1 POP DUP1 DUP3 GT ISZERO PUSH2 0x14E9 JUMPI PUSH2 0x14E8 PUSH2 0x1356 JUMP JUMPDEST JUMPDEST SWAP3 SWAP2 POP POP JUMP JUMPDEST PUSH1 0x0 DUP2 SWAP1 POP DUP2 PUSH1 0x0 MSTORE PUSH1 0x20 PUSH1 0x0 KECCAK256 SWAP1 POP SWAP2 SWAP1 POP JUMP JUMPDEST PUSH1 0x0 PUSH1 0x20 PUSH1 0x1F DUP4 ADD DIV SWAP1 POP SWAP2 SWAP1 POP JUMP JUMPDEST PUSH1 0x0 DUP3 DUP3 SHL SWAP1 POP SWAP3 SWAP2 POP POP JUMP JUMPDEST PUSH1 0x0 PUSH1 0x8 DUP4 MUL PUSH2 0x1551 PUSH32 0xFFFFFFFFFFFFFFFFFFFFFFFFFFFFFFFFFFFFFFFFFFFFFFFFFFFFFFFFFFFFFFFF DUP3 PUSH2 0x1514 JUMP JUMPDEST PUSH2 0x155B DUP7 DUP4 PUSH2 0x1514 JUMP JUMPDEST SWAP6 POP DUP1 NOT DUP5 AND SWAP4 POP DUP1 DUP7 AND DUP5 OR SWAP3 POP POP POP SWAP4 SWAP3 POP POP POP JUMP JUMPDEST PUSH1 0x0 DUP2 SWAP1 POP SWAP2 SWAP1 POP JUMP JUMPDEST PUSH1 0x0 PUSH2 0x1598 PUSH2 0x1593 PUSH2 0x158E DUP5 PUSH2 0xE2A JUMP JUMPDEST PUSH2 0x1573 JUMP JUMPDEST PUSH2 0xE2A JUMP JUMPDEST SWAP1 POP SWAP2 SWAP1 POP JUMP JUMPDEST PUSH1 0x0 DUP2 SWAP1 POP SWAP2 SWAP1 POP JUMP JUMPDEST PUSH2 0x15B2 DUP4 PUSH2 0x157D JUMP JUMPDEST PUSH2 0x15C6 PUSH2 0x15BE DUP3 PUSH2 0x159F JUMP JUMPDEST DUP5 DUP5 SLOAD PUSH2 0x1521 JUMP JUMPDEST DUP3 SSTORE POP POP POP POP JUMP JUMPDEST PUSH1 0x0 SWAP1 JUMP JUMPDEST PUSH2 0x15DB PUSH2 0x15CE JUMP JUMPDEST PUSH2 0x15E6 DUP2 DUP5 DUP5 PUSH2 0x15A9 JUMP JUMPDEST POP POP POP JUMP JUMPDEST JUMPDEST DUP2 DUP2 LT ISZERO PUSH2 0x160A JUMPI PUSH2 0x15FF PUSH1 0x0 DUP3 PUSH2 0x15D3 JUMP JUMPDEST PUSH1 0x1 DUP2 ADD SWAP1 POP PUSH2 0x15EC JUMP JUMPDEST POP POP JUMP JUMPDEST PUSH1 0x1F DUP3 GT ISZERO PUSH2 0x164F JUMPI PUSH2 0x1620 DUP2 PUSH2 0x14EF JUMP JUMPDEST PUSH2 0x1629 DUP5 PUSH2 0x1504 JUMP JUMPDEST DUP2 ADD PUSH1 0x20 DUP6 LT ISZERO PUSH2 0x1638 JUMPI DUP2 SWAP1 POP JUMPDEST PUSH2 0x164C PUSH2 0x1644 DUP6 PUSH2 0x1504 JUMP JUMPDEST DUP4 ADD DUP3 PUSH2 0x15EB JUMP JUMPDEST POP POP JUMPDEST POP POP POP JUMP JUMPDEST PUSH1 0x0 DUP3 DUP3 SHR SWAP1 POP SWAP3 SWAP2 POP POP JUMP JUMPDEST PUSH1 0x0 PUSH2 0x1672 PUSH1 0x0 NOT DUP5 PUSH1 0x8 MUL PUSH2 0x1654 JUMP JUMPDEST NOT DUP1 DUP4 AND SWAP2 POP POP SWAP3 SWAP2 POP POP JUMP JUMPDEST PUSH1 0x0 PUSH2 0x168B DUP4 DUP4 PUSH2 0x1661 JUMP JUMPDEST SWAP2 POP DUP3 PUSH1 0x2 MUL DUP3 OR SWAP1 POP SWAP3 SWAP2 POP POP JUMP JUMPDEST PUSH2 0x16A4 DUP3 PUSH2 0x1028 JUMP JUMPDEST PUSH8 0xFFFFFFFFFFFFFFFF DUP2 GT ISZERO PUSH2 0x16BD JUMPI PUSH2 0x16BC PUSH2 0x10E4 JUMP JUMPDEST JUMPDEST PUSH2 0x16C7 DUP3 SLOAD PUSH2 0x148A JUMP JUMPDEST PUSH2 0x16D2 DUP3 DUP3 DUP6 PUSH2 0x160E JUMP JUMPDEST PUSH1 0x0 PUSH1 0x20 SWAP1 POP PUSH1 0x1F DUP4 GT PUSH1 0x1 DUP2 EQ PUSH2 0x1705 JUMPI PUSH1 0x0 DUP5 ISZERO PUSH2 0x16F3 JUMPI DUP3 DUP8 ADD MLOAD SWAP1 POP JUMPDEST PUSH2 0x16FD DUP6 DUP3 PUSH2 0x167F JUMP JUMPDEST DUP7 SSTORE POP PUSH2 0x1765 JUMP JUMPDEST PUSH1 0x1F NOT DUP5 AND PUSH2 0x1713 DUP7 PUSH2 0x14EF JUMP JUMPDEST PUSH1 0x0 JUMPDEST DUP3 DUP2 LT ISZERO PUSH2 0x173B JUMPI DUP5 DUP10 ADD MLOAD DUP3 SSTORE PUSH1 0x1 DUP3 ADD SWAP2 POP PUSH1 0x20 DUP6 ADD SWAP5 POP PUSH1 0x20 DUP2 ADD SWAP1 POP PUSH2 0x1716 JUMP JUMPDEST DUP7 DUP4 LT ISZERO PUSH2 0x1758 JUMPI DUP5 DUP10 ADD MLOAD PUSH2 0x1754 PUSH1 0x1F DUP10 AND DUP3 PUSH2 0x1661 JUMP JUMPDEST DUP4 SSTORE POP JUMPDEST PUSH1 0x1 PUSH1 0x2 DUP9 MUL ADD DUP9 SSTORE POP POP POP JUMPDEST POP POP POP POP POP POP JUMP JUMPDEST PUSH32 0x456D707479206465706F73697400000000000000000000000000000000000000 PUSH1 0x0 DUP3 ADD MSTORE POP JUMP JUMPDEST PUSH1 0x0 PUSH2 0x17A3 PUSH1 0xD DUP4 PUSH2 0x1033 JUMP JUMPDEST SWAP2 POP PUSH2 0x17AE DUP3 PUSH2 0x176D JUMP JUMPDEST PUSH1 0x20 DUP3 ADD SWAP1 POP SWAP2 SWAP1 POP JUMP JUMPDEST PUSH1 0x0 PUSH1 0x20 DUP3 ADD SWAP1 POP DUP2 DUP2 SUB PUSH1 0x0 DUP4 ADD MSTORE PUSH2 0x17D2 DUP2 PUSH2 0x1796 JUMP JUMPDEST SWAP1 POP SWAP2 SWAP1 POP JUMP JUMPDEST PUSH32 0x416C6C20746F6B656E65732061726520616C7265616479207075726368617365 PUSH1 0x0 DUP3 ADD MSTORE PUSH32 0x6400000000000000000000000000000000000000000000000000000000000000 PUSH1 0x20 DUP3 ADD MSTORE POP JUMP JUMPDEST PUSH1 0x0 PUSH2 0x1835 PUSH1 0x21 DUP4 PUSH2 0x1033 JUMP JUMPDEST SWAP2 POP PUSH2 0x1840 DUP3 PUSH2 0x17D9 JUMP JUMPDEST PUSH1 0x40 DUP3 ADD SWAP1 POP SWAP2 SWAP1 POP JUMP JUMPDEST PUSH1 0x0 PUSH1 0x20 DUP3 ADD SWAP1 POP DUP2 DUP2 SUB PUSH1 0x0 DUP4 ADD MSTORE PUSH2 0x1864 DUP2 PUSH2 0x1828 JUMP JUMPDEST SWAP1 POP SWAP2 SWAP1 POP JUMP JUMPDEST PUSH1 0x0 PUSH1 0x40 DUP3 ADD SWAP1 POP PUSH2 0x1880 PUSH1 0x0 DUP4 ADD DUP6 PUSH2 0xE8D JUMP JUMPDEST PUSH2 0x188D PUSH1 0x20 DUP4 ADD DUP5 PUSH2 0xE8D JUMP JUMPDEST SWAP4 SWAP3 POP POP POP JUMP JUMPDEST PUSH32 0x4E487B7100000000000000000000000000000000000000000000000000000000 PUSH1 0x0 MSTORE PUSH1 0x32 PUSH1 0x4 MSTORE PUSH1 0x24 PUSH1 0x0 REVERT JUMPDEST PUSH1 0x0 DUP2 MLOAD SWAP1 POP SWAP2 SWAP1 POP JUMP JUMPDEST PUSH1 0x0 DUP2 SWAP1 POP SWAP3 SWAP2 POP POP JUMP JUMPDEST PUSH1 0x0 PUSH2 0x18E4 DUP3 PUSH2 0x18C3 JUMP JUMPDEST PUSH2 0x18EE DUP2 DUP6 PUSH2 0x18CE JUMP JUMPDEST SWAP4 POP PUSH2 0x18FE DUP2 DUP6 PUSH1 0x20 DUP7 ADD PUSH2 0x1044 JUMP JUMPDEST DUP1 DUP5 ADD SWAP2 POP POP SWAP3 SWAP2 POP POP JUMP JUMPDEST PUSH1 0x0 PUSH2 0x1916 DUP3 DUP5 PUSH2 0x18D9 JUMP JUMPDEST SWAP2 POP DUP2 SWAP1 POP SWAP3 SWAP2 POP POP JUMP JUMPDEST PUSH32 0x507265636F6D70696C656420636F6E74726163742063616C6C206661696C6564 PUSH1 0x0 DUP3 ADD MSTORE POP JUMP JUMPDEST PUSH1 0x0 PUSH2 0x1957 PUSH1 0x20 DUP4 PUSH2 0x1033 JUMP JUMPDEST SWAP2 POP PUSH2 0x1962 DUP3 PUSH2 0x1921 JUMP JUMPDEST PUSH1 0x20 DUP3 ADD SWAP1 POP SWAP2 SWAP1 POP JUMP JUMPDEST PUSH1 0x0 PUSH1 0x20 DUP3 ADD SWAP1 POP DUP2 DUP2 SUB PUSH1 0x0 DUP4 ADD MSTORE PUSH2 0x1986 DUP2 PUSH2 0x194A JUMP JUMPDEST SWAP1 POP SWAP2 SWAP1 POP JUMP JUMPDEST PUSH32 0x2749535F494E5445524E414C5F4D455353414745272072657475726E7320696E PUSH1 0x0 DUP3 ADD MSTORE PUSH32 0x76616C6964206461746100000000000000000000000000000000000000000000 PUSH1 0x20 DUP3 ADD MSTORE POP JUMP JUMPDEST PUSH1 0x0 PUSH2 0x19E9 PUSH1 0x2A DUP4 PUSH2 0x1033 JUMP JUMPDEST SWAP2 POP PUSH2 0x19F4 DUP3 PUSH2 0x198D JUMP JUMPDEST PUSH1 0x40 DUP3 ADD SWAP1 POP SWAP2 SWAP1 POP JUMP JUMPDEST PUSH1 0x0 PUSH1 0x20 DUP3 ADD SWAP1 POP DUP2 DUP2 SUB PUSH1 0x0 DUP4 ADD MSTORE PUSH2 0x1A18 DUP2 PUSH2 0x19DC JUMP JUMPDEST SWAP1 POP SWAP2 SWAP1 POP JUMP JUMPDEST PUSH1 0x0 DUP2 ISZERO ISZERO SWAP1 POP SWAP2 SWAP1 POP JUMP JUMPDEST PUSH2 0x1A34 DUP2 PUSH2 0x1A1F JUMP JUMPDEST DUP2 EQ PUSH2 0x1A3F JUMPI PUSH1 0x0 DUP1 REVERT JUMPDEST POP JUMP JUMPDEST PUSH1 0x0 DUP2 MLOAD SWAP1 POP PUSH2 0x1A51 DUP2 PUSH2 0x1A2B JUMP JUMPDEST SWAP3 SWAP2 POP POP JUMP JUMPDEST PUSH1 0x0 PUSH1 0x20 DUP3 DUP5 SUB SLT ISZERO PUSH2 0x1A6D JUMPI PUSH2 0x1A6C PUSH2 0xE20 JUMP JUMPDEST JUMPDEST PUSH1 0x0 PUSH2 0x1A7B DUP5 DUP3 DUP6 ADD PUSH2 0x1A42 JUMP JUMPDEST SWAP2 POP POP SWAP3 SWAP2 POP POP JUMP JUMPDEST PUSH32 0x4D696E74206661696C6564000000000000000000000000000000000000000000 PUSH1 0x0 DUP3 ADD MSTORE POP JUMP JUMPDEST PUSH1 0x0 PUSH2 0x1ABA PUSH1 0xB DUP4 PUSH2 0x1033 JUMP JUMPDEST SWAP2 POP PUSH2 0x1AC5 DUP3 PUSH2 0x1A84 JUMP JUMPDEST PUSH1 0x20 DUP3 ADD SWAP1 POP SWAP2 SWAP1 POP JUMP JUMPDEST PUSH1 0x0 PUSH1 0x20 DUP3 ADD SWAP1 POP DUP2 DUP2 SUB PUSH1 0x0 DUP4 ADD MSTORE PUSH2 0x1AE9 DUP2 PUSH2 0x1AAD JUMP JUMPDEST SWAP1 POP SWAP2 SWAP1 POP JUMP JUMPDEST PUSH2 0x1AF9 DUP2 PUSH2 0xED7 JUMP JUMPDEST DUP3 MSTORE POP POP JUMP JUMPDEST PUSH1 0x0 PUSH1 0x40 DUP3 ADD SWAP1 POP PUSH2 0x1B14 PUSH1 0x0 DUP4 ADD DUP6 PUSH2 0xE8D JUMP JUMPDEST PUSH2 0x1B21 PUSH1 0x20 DUP4 ADD DUP5 PUSH2 0x1AF0 JUMP JUMPDEST SWAP4 SWAP3 POP POP POP JUMP JUMPDEST PUSH1 0x0 DUP2 MLOAD SWAP1 POP PUSH2 0x1B37 DUP2 PUSH2 0xE34 JUMP JUMPDEST SWAP3 SWAP2 POP POP JUMP JUMPDEST PUSH1 0x0 PUSH1 0x20 DUP3 DUP5 SUB SLT ISZERO PUSH2 0x1B53 JUMPI PUSH2 0x1B52 PUSH2 0xE20 JUMP JUMPDEST JUMPDEST PUSH1 0x0 PUSH2 0x1B61 DUP5 DUP3 DUP6 ADD PUSH2 0x1B28 JUMP JUMPDEST SWAP2 POP POP SWAP3 SWAP2 POP POP JUMP JUMPDEST PUSH2 0x1B73 DUP2 PUSH2 0x1A1F JUMP JUMPDEST DUP3 MSTORE POP POP JUMP JUMPDEST PUSH1 0x0 PUSH1 0xFF DUP3 AND SWAP1 POP SWAP2 SWAP1 POP JUMP JUMPDEST PUSH2 0x1B8F DUP2 PUSH2 0x1B79 JUMP JUMPDEST DUP3 MSTORE POP POP JUMP JUMPDEST PUSH1 0x0 DUP2 MLOAD SWAP1 POP SWAP2 SWAP1 POP JUMP JUMPDEST PUSH1 0x0 DUP3 DUP3 MSTORE PUSH1 0x20 DUP3 ADD SWAP1 POP SWAP3 SWAP2 POP POP JUMP JUMPDEST PUSH1 0x0 DUP2 SWAP1 POP PUSH1 0x20 DUP3 ADD SWAP1 POP SWAP2 SWAP1 POP JUMP JUMPDEST PUSH2 0x1BCA DUP2 PUSH2 0xE2A JUMP JUMPDEST DUP3 MSTORE POP POP JUMP JUMPDEST PUSH1 0x40 DUP3 ADD PUSH1 0x0 DUP3 ADD MLOAD PUSH2 0x1BE6 PUSH1 0x0 DUP6 ADD DUP3 PUSH2 0x1BC1 JUMP JUMPDEST POP PUSH1 0x20 DUP3 ADD MLOAD PUSH2 0x1BF9 PUSH1 0x20 DUP6 ADD DUP3 PUSH2 0x1BC1 JUMP JUMPDEST POP POP POP POP JUMP JUMPDEST PUSH1 0x0 PUSH2 0x1C0B DUP4 DUP4 PUSH2 0x1BD0 JUMP JUMPDEST PUSH1 0x40 DUP4 ADD SWAP1 POP SWAP3 SWAP2 POP POP JUMP JUMPDEST PUSH1 0x0 PUSH1 0x20 DUP3 ADD SWAP1 POP SWAP2 SWAP1 POP JUMP JUMPDEST PUSH1 0x0 PUSH2 0x1C2F DUP3 PUSH2 0x1B95 JUMP JUMPDEST PUSH2 0x1C39 DUP2 DUP6 PUSH2 0x1BA0 JUMP JUMPDEST SWAP4 POP PUSH2 0x1C44 DUP4 PUSH2 0x1BB1 JUMP JUMPDEST DUP1 PUSH1 0x0 JUMPDEST DUP4 DUP2 LT ISZERO PUSH2 0x1C75 JUMPI DUP2 MLOAD PUSH2 0x1C5C DUP9 DUP3 PUSH2 0x1BFF JUMP JUMPDEST SWAP8 POP PUSH2 0x1C67 DUP4 PUSH2 0x1C17 JUMP JUMPDEST SWAP3 POP POP PUSH1 0x1 DUP2 ADD SWAP1 POP PUSH2 0x1C48 JUMP JUMPDEST POP DUP6 SWAP4 POP POP POP POP SWAP3 SWAP2 POP POP JUMP JUMPDEST PUSH1 0x0 DUP3 DUP3 MSTORE PUSH1 0x20 DUP3 ADD SWAP1 POP SWAP3 SWAP2 POP POP JUMP JUMPDEST PUSH1 0x0 PUSH2 0x1C9E DUP3 PUSH2 0x18C3 JUMP JUMPDEST PUSH2 0x1CA8 DUP2 DUP6 PUSH2 0x1C82 JUMP JUMPDEST SWAP4 POP PUSH2 0x1CB8 DUP2 DUP6 PUSH1 0x20 DUP7 ADD PUSH2 0x1044 JUMP JUMPDEST PUSH2 0x1CC1 DUP2 PUSH2 0x106E JUMP JUMPDEST DUP5 ADD SWAP2 POP POP SWAP3 SWAP2 POP POP JUMP JUMPDEST PUSH1 0x0 PUSH2 0x100 DUP3 ADD SWAP1 POP PUSH2 0x1CE2 PUSH1 0x0 DUP4 ADD DUP12 PUSH2 0x1B6A JUMP JUMPDEST PUSH2 0x1CEF PUSH1 0x20 DUP4 ADD DUP11 PUSH2 0x1B86 JUMP JUMPDEST PUSH2 0x1CFC PUSH1 0x40 DUP4 ADD DUP10 PUSH2 0x1AF0 JUMP JUMPDEST PUSH2 0x1D09 PUSH1 0x60 DUP4 ADD DUP9 PUSH2 0x1AF0 JUMP JUMPDEST PUSH2 0x1D16 PUSH1 0x80 DUP4 ADD DUP8 PUSH2 0x1AF0 JUMP JUMPDEST PUSH2 0x1D23 PUSH1 0xA0 DUP4 ADD DUP7 PUSH2 0xE8D JUMP JUMPDEST DUP2 DUP2 SUB PUSH1 0xC0 DUP4 ADD MSTORE PUSH2 0x1D35 DUP2 DUP6 PUSH2 0x1C24 JUMP JUMPDEST SWAP1 POP DUP2 DUP2 SUB PUSH1 0xE0 DUP4 ADD MSTORE PUSH2 0x1D49 DUP2 DUP5 PUSH2 0x1C93 JUMP JUMPDEST SWAP1 POP SWAP10 SWAP9 POP POP POP POP POP POP POP POP POP JUMP INVALID LOG2 PUSH5 0x6970667358 0x22 SLT KECCAK256 0x21 0xE4 STATICCALL DELEGATECALL RETURN GT PUSH10 0x20904DF597349768236 GASPRICE 0xC5 CALLVALUE 0xB4 SHR 0xEE 0xC0 DUP13 0x25 PUSH5 0xC1C69CC500 PUSH5 0x736F6C6343 STOP ADDMOD XOR STOP CALLER "
        },
        "methodIdentifiers": {
          "buy(address)": "f088d547",
          "calculateCurvedBurnReturn(uint256)": "6d6f1e01",
          "calculateCurvedMintReturn(uint256)": "9a4f318b",
          "calculatePurchaseReturn(uint256,uint256,uint256)": "d63df4d9",
          "calculateSaleReturn(uint256,uint256,uint256)": "74293bf8",
          "decimals()": "313ce567",
          "getCurrencyBalanceOf(address)": "5e38b66c",
          "getCurrencyId()": "cf387fed",
          "getCurrencyName()": "d064d784",
          "getCurrencyTotalSupply()": "add29c6d",
          "getOwnCurrencyBalance()": "97856308",
          "mintCurrency(uint256)": "1072b91f",
          "sell(uint256,address)": "4189a68e",
          "sendCurrency(address,uint256,uint256)": "b534638e",
          "setCurrencyName(string)": "eed20631"
        }
      }
    }
  }
}